:020000040800F2
:1000000000000824F97200085167000859670008C9
:100010006167000869670008716700080000000058
:1000200000000000000000000000000079670008E8
:10003000876700080000000095670008A3670008B4
:100040004D7300084D7300084D7300084D73000890
:100050004D7300084D7300084D7300084D73000880
:100060004D7300084D7300084D730008B167000818
:10007000C56700084D7300084D7300084D730008F4
:100080004D7300084D7300084D7300084D73000850
:100090004D7300084D7300084D7300084D73000840
:1000A0004D7300084D7300084D7300084D73000830
:1000B0004D7300084D7300084D7300084D73000820
:1000C0004D7300084D7300084D730008D967000890
:1000D0004D7300084D730008ED6700084D7300086C
:1000E0004D7300084D730008000000004D730008B8
:1000F0004D7300084D7300084D7300084D730008E0
:100100004D7300084D7300084D7300084D730008CF
:100110004D7300084D7300084D7300084D730008BF
:100120004D7300084D7300084D7300084D730008AF
:100130004D7300084D7300084D7300084D7300089F
:1001400000000000000000000000000000000000AF
:100150004D7300084D7300084D7300084D7300087F
:100160004D7300084D7300084D7300084D7300086F
:100170004D7300084D7300084D7300084D7300085F
:100180004D7300084D7300084D7300084D7300084F
:100190004D7300084D7300084D7300084D7300083F
:1001A0004D7300084D7300084D7300084D7300082F
:1001B0004D7300084D7300084D7300084D7300081F
:1001C0004D7300084D7300084D7300084D7300080F
:1001D0004D7300084D7300084D7300084D730008FF
:1001E0004D7300084D7300084D7300084D730008EF
:1001F0004D7300084D7300084D7300084D730008DF
:100200004D7300084D7300084D7300084D730008CE
:100210004D7300084D7300084D7300084D730008BE
:100220004D7300084D7300084D7300080000000076
:100230004D7300084D730008000000004D73000866
:100240004D7300084D7300084D7300084D7300088E
:100250004D7300084D7300084D7300084D7300087E
:100260004D7300084D7300084D7300084D7300086E
:100270004D7300084D7300084D7300080000000026
:100280004D7300084D7300084D7300080000000016
:08029000000000004D7300089E
:1002A00010B5054C237833B9044B13B10448AFF3B0
:1002B00000800123237010BDE00100240000000035
:1002C000E865010808B5034B1BB103490348AFF3C8
:1002D000008008BD00000000E4010024E86501087A
:1002E00010F8012B11F8013B012A28BF9A42F7D0E0
:1002F000D01A70470000000000000000000000005D
:1003000001F0FF01102A2BDB10F0070F08D010F8C6
:10031000013B013A8B422DD010F0070F42B3F6D1CA
:10032000F0B441EA012141EA014122F007047FF0E3
:1003300000070023F0E80256083C85EA010586EA3A
:10034000010685FA47F5A3FA87F586FA47F6A5FA76
:1003500087F68EB9EED1F0BC01F0FF0102F0070282
:1003600032B110F8013B013A83EA010313B1F8D12D
:100370000020704701387047002D06BF354603380E
:10038000073815F0010F07D1013015F4807F02BF47
:10039000013015F4C03F0130F0BC0138704700BF98
:1003A000034613F8012B002AFBD1181A01387047B5
:1003B00081F0004102E000BF83F0004330B54FEA16
:1003C00041044FEA430594EA050F08BF90EA020F83
:1003D0001FBF54EA000C55EA020C7FEA645C7FEA16
:1003E000655C00F0E2804FEA5454D4EB5555B8BF39
:1003F0006D420CDD2C4480EA020281EA030382EAAA
:10040000000083EA010180EA020281EA0303362D3B
:1004100088BF30BD11F0004F4FEA01314FF4801C0E
:100420004CEA113102D0404261EB410113F0004F20
:100430004FEA03334CEA133302D0524263EB4303D7
:1004400094EA050F00F0A780A4F10104D5F1200E75
:100450000DDB02FA0EFC22FA05F2801841F10001D0
:1004600003FA0EF2801843FA05F359410EE0A5F1A4
:1004700020050EF1200E012A03FA0EFC28BF4CF0D5
:10048000020C43FA05F3C01851EBE37101F000458B
:1004900007D54FF0000EDCF1000C7EEB00006EEB98
:1004A0000101B1F5801F1BD3B1F5001F0CD3490822
:1004B0005FEA30004FEA3C0C04F101044FEA445279
:1004C00012F5800F80F09A80BCF1004F08BF5FEA00
:1004D000500C50F1000041EB045141EA050130BDE0
:1004E0005FEA4C0C404141EB0101013C28BFB1F5F2
:1004F000801FE9D291F0000F04BF01460020B1FA3D
:1005000081F308BF2033A3F10B03B3F120020CDA0F
:100510000C3208DD02F1140CC2F10C0201FA0CF0ED
:1005200021FA02F10CE002F11402D8BFC2F1200C52
:1005300001FA02F120FA0CFCDCBF41EA0C01904008
:10054000E41AA2BF01EB0451294330BD6FEA040451
:100550001F3C1CDA0C340EDC04F11404C4F120023C
:1005600020FA04F001FA02F340EA030021FA04F34E
:1005700045EA030130BDC4F10C04C4F1200220FAA5
:1005800002F001FA04F340EA0300294630BD21FAE3
:1005900004F0294630BD94F0000F83F4801306BFA9
:1005A00081F480110134013D4EE77FEA645C18BF9D
:1005B0007FEA655C29D094EA050F08BF90EA020F34
:1005C00005D054EA000C04BF1946104630BD91EA2C
:1005D000030F1EBF0021002030BD5FEA545C05D12F
:1005E0004000494128BF41F0004130BD14F580046E
:1005F0003CBF01F5801130BD01F0004545F0FE41E2
:1006000041F470014FF0000030BD7FEA645C1ABF16
:10061000194610467FEA655C1CBF0B46024650EA4D
:10062000013406BF52EA033591EA030F41F4002179
:1006300030BD00BF90F0000F04BF0021704730B5FF
:100640004FF4806404F132044FF000054FF00001D4
:1006500050E700BF90F0000F04BF0021704730B595
:100660004FF4806404F1320410F0004548BF40426A
:100670004FF000013EE700BF42004FEAE2014FEABF
:1006800031014FEA02701FBF12F07F4393F07F4F9A
:1006900081F06051704732F07F4208BF704793F09D
:1006A0007F4F04BF41F40021704730B54FF46074B0
:1006B00001F0004521F000411CE700BF50EA0102B3
:1006C00008BF704730B54FF000050AE050EA01025C
:1006D00008BF704730B511F0004502D5404261EBCC
:1006E00041014FF4806404F132045FEA915C3FF40D
:1006F000D8AE4FF003025FEADC0C18BF03325FEAAA
:10070000DC0C18BF033202EBDC02C2F1200300FA5A
:1007100003FC20FA02F001FA03FE40EA0E0021FA7F
:1007200002F11444BDE600BF53B94AB9002908BF1D
:1007300000281CBF4FF0FF314FF0FF3000F0C0B970
:10074000ADF1080C6DE904CE00F03EF8DDF804E0F0
:10075000DDE9022304B0704708B502460B4643ECBE
:10076000172BB5EEC07BF1EE10FA03D4BDE80840BC
:1007700000F00AB8B1EE477B51EC170B00F004F81B
:10078000404261EB410108BD9FED0B6B41EC170B43
:100790009FED0B5B27EE066BBCEEC66BB8EE464BCF
:1007A000A4EE457BFCEEC77B16EE101A17EE900AFE
:1007B000704700BFAFF30080000000000000F03D74
:1007C000000000000000F0412DE9F047089D8E4632
:1007D00004468846002B4AD18A42174662D9B2FAAB
:1007E00082F64EB1C6F1200301FA06F820FA03F3AF
:1007F000B74043EA0808B4404FEA174E1FFA87FC97
:10080000B8FBFEF1230C0EFB118843EA084301FB01
:100810000CF29A4209D9FB1801F1FF3080F0EA800E
:100820009A4240F2E78002393B449A1AA3B2B2FBE3
:10083000FEF00EFB102243EA024300FB0CFC9C4539
:1008400009D9FB1800F1FF3280F0D6809C4540F2B8
:10085000D3803B44023840EA0140A3EB0C03002163
:100860001DB1F3400022C5E90032BDE8F0878B429C
:1008700005D90DB1C5E9000100210846F5E7B3FA35
:1008800083F1002946D1734502D3824200F20581EB
:10089000841A6EEB030201209046002DE5D0C5E9D5
:1008A0000048E2E7002A00F09080B2FA82F6002EBB
:1008B00040F0A4808A1A030C4FEA174E80B2BCB2F3
:1008C0000121B2FBFEFC0EFB1C2243EA024304FBA7
:1008D0000CF29A4207D9FB180CF1FF3802D29A4267
:1008E00000F2E080C4469B1AB3FBFEF20EFB12330B
:1008F00040EA034302FB04F49C4207D9FB1802F1CF
:10090000FF3002D29C4200F2CA8002461B1B42EA20
:100910000C40A5E7C1F120068B4022FA06F71F43E1
:100920000EFA01F420FA06F32EFA06FE4FEA1749F2
:10093000234300FA01F81FFA87FCBEFBF9F01C0CF8
:1009400009FB10EE44EA0E4400FB0CFEA64502FA39
:1009500001F209D93C1900F1FF3A80F09C80A645CC
:1009600040F2998002383C44A4EB0E041FFA83FE47
:10097000B4FBF9F309FB13444EEA044403FB0CFCFB
:10098000A44508D93C1903F1FF3E80F08280A445BC
:100990007FD9023B3C4443EA0040A4EB0C04A0FB9B
:1009A00002EC64457346E14662D35FD05DB1B8EBBB
:1009B000030264EB090404FA06F622FA01F31E436B
:1009C000CC40C5E9006400214FE7B1FBF2FC010C0B
:1009D00041EA0E4180B240EA01423B4638463C467D
:1009E000B846BE462026B1FBF7F1A2EB080241EA69
:1009F0000C4166E7014618E710462CE7C6F12002D5
:100A00002EFA02F3B740B14020FA02F24FEA174E35
:100A10000A43B3FBFEF8BCB20EFB1833110C41EADB
:100A2000034108FB04F9B04089454FEA104380B206
:100A30003ED9791808F1FF3C01D289451FD8A1EBB6
:100A40000901B1FBFEF909FB04F80EFB191192B282
:100A500042EA0142424529D2BA1809F1FF31C4D213
:100A60004245C2D2A9F102013A44BEE7F0459DD207
:100A7000BEEB02036CEB070C0138E14696E7A7EBEF
:100A800009094944A8F1020CB1FBFEF909FB04F87D
:100A9000DBE773467FE7504666E70846FDE63B44E2
:100AA000023A33E7ACF1020C3B441CE749469CE7B1
:100AB000A1EB0901C446B1FBFEF909FB04F8C4E748
:100AC000704700BF80B483B000AF00237B6023E198
:100AD00097497A6813469B0013441B010B4410335B
:100AE0004FF000021A6092497A6813469B00134443
:100AF0001B010B4414334FF000021A608C497A68D2
:100B000013469B0013441B010B442C3300221A7024
:100B100087497A6813469B0013441B010B44083332
:100B2000844A1A607B680B2B00F2A48001A252F861
:100B300023F000BF650B00087B0B0008910B000839
:100B4000A70B0008BD0B0008D30B0008E90B000839
:100B5000FF0B0008150C00082D0C0008450C0008C0
:100B60005D0C000872497A6813469B0013441B0110
:100B70000B440C3301221A8086E06D497A681346D3
:100B80009B0013441B010B440C3302221A807BE0B0
:100B900067497A6813469B0013441B010B440C33CE
:100BA00004221A8070E062497A6813469B0013445D
:100BB0001B010B440C3308221A8065E05C497A68FB
:100BC00013469B0013441B010B440C3310221A8064
:100BD0005AE057497A6813469B0013441B010B44A3
:100BE0000C3320221A804FE051497A6813469B004B
:100BF00013441B010B440C3340221A8044E04C493F
:100C00007A6813469B0013441B010B440C3380226B
:100C10001A8039E046497A6813469B0013441B0149
:100C20000B440C334FF480721A802DE040497A68EF
:100C300013469B0013441B010B440C334FF480629A
:100C40001A8021E03A497A6813469B0013441B013D
:100C50000B440C334FF480521A8015E034497A6803
:100C600013469B0013441B010B440C334FF400420A
:100C70001A8009E02E497A6813469B0013441B0131
:100C80000B440C3301221A807B68032B13DC2849A8
:100C90007A6813469B0013441B010B44264A1A60D2
:100CA000796823487A6813469B0013441B01034468
:100CB000043319602DE07B68072B15DC1C497A682A
:100CC00013469B0013441B010B441C4A1A607B68AB
:100CD000043B184616497A6813469B0013441B01CF
:100CE0000B440433186014E011497A6813469B00E2
:100CF00013441B010B44124A1A607B68083B1846D8
:100D00000B497A6813469B0013441B010B440433C0
:100D100018607B6801337B607B680B2B7FF7D8AE54
:100D200000BF00BF0C37BD465DF8047B704700BFB5
:100D3000FC01002400100258B00D0024FC0D00241A
:100D4000480E002480B586B002AF034687ED000A46
:100D5000FB71FB790B2B00F2A080D7ED007AB7EE88
:100D6000007AF4EEC77AF1EE10FA02DD4FF07E530E
:100D70003B60D7ED007ABFEE007AF4EEC77AF1EE71
:100D800010FA01D5474B3B60FA7913469B00134498
:100D90001B01454A1344FB60D7ED007AF5EEC07A9B
:100DA000F1EE10FA08DBFB689868FB689B8900226B
:100DB000194609F01BF90DE0FB689868FB689B89F0
:100DC0000122194609F012F9D7ED007AF1EE677A9F
:100DD000C7ED007AD7ED007A9FED347A67EE877A17
:100DE000FCEEE77A17EE903ABB60FB685B68002B7D
:100DF00005D1FB681B681B68BA685A632CE0FB6866
:100E00005B68042B05D1FB681B681A68BB68936399
:100E100022E0FB685B68082B05D1FB681B681A6839
:100E2000BB68D36318E0FB685B680C2B05D1FB68DB
:100E30001B681A68BB6813640EE0FB685B68102BC4
:100E400005D1FB681B681A68BB68936504E0FB6802
:100E50001B681A68BB68D365FA79134913469B006F
:100E600013441B010B4410333A681A60FA790E4997
:100E700013469B0013441B010B4414333A681A6059
:100E8000FB79D7ED007AB7EEE77A8DED007B1A4655
:100E90000749022000F022FA00E000BF1037BD46EB
:100EA00080BD00BF000080BFFC01002400C0794469
:100EB0000066010880B584B000AF87ED010A002309
:100EC000FB6009E0FB68DBB297ED010A1846FFF70B
:100ED00039FFFB680133FB60FB680B2BF2DD00BFC1
:100EE00000BF1037BD4680BD80B500AF9FED020A40
:100EF000FFF7E0FF00BF80BD0000000080B586B0B6
:100F000000AF034687ED040AC7ED030A87ED021A16
:100F10007960FB750E4AFB7D13700D4A3B69536087
:100F20000B4AFB6893600A4ABB68D360084A7B6837
:100F30001361074B01221A7506F090FA0346044A22
:100F40009361034B0022DA6100BF1837BD4680BDB4
:100F5000BC05002480B400AF034B00221A7500BF0B
:100F6000BD465DF8047B7047BC05002480B586B0A3
:100F700002AF384B1B7D002B67D006F06FFAF8608C
:100F8000344B9B69FA68D31ABB60324B1B69BA6851
:100F9000B2FBF3F37B602F4BDB697A689A4255D939
:100FA0002C4B93ED017A2B4BD3ED036A7B6807EE54
:100FB000903AF8EE677A66EEA77A77EE277AC7ED71
:100FC000007A244BD3ED037AF5EEC07AF1EE10FAF5
:100FD00009DD204BD3ED027A97ED007AB4EEE77A83
:100FE000F1EE10FA11D91B4BD3ED037AF5EEC07A6E
:100FF000F1EE10FA1FD5174BD3ED027A97ED007A78
:10100000B4EEE77AF1EE10FA15DB124B1B7897ED90
:10101000000A1846FFF796FE0E4A7B68D361D7EDAB
:10102000007AB7EEE77A8DED007B7A680A490220F4
:1010300000F054F90AE0FFF78DFF064B1B789FED97
:10104000070A1846FFF77EFE00E000BF1037BD46D6
:1010500080BD00BFBC050024186601080000000028
:1010600080B400AF034B1B7D1846BD465DF8047B82
:10107000704700BFBC05002490B583B000AF0023CB
:101080007B609DE053497A6813469B0013441B0123
:101090000B441033D3ED007AF0EEE77A9FED4E7AF1
:1010A000F4EEC77AF1EE10FA26DD4A497A68134663
:1010B0009B0013441B010B442C331B78002B40D1A5
:1010C00044497A6813469B0013441B010B442C339C
:1010D00001221A707A6813469B0013441B012833BF
:1010E0003C4A134405333D491A460B4603CB106076
:1010F00051601B88138124E036497A6813469B00AF
:1011000013441B010B442C331B78002B19D07A6835
:1011100013469B0013441B0128332E4A1344053306
:101120002E491846FFF7DCF80346002B09D1294960
:101130007A6813469B0013441B010B442C33002296
:101140001A7024497A6813469B0013441B010B4410
:1011500020331B6840F6C41293422ED91D497A6889
:1011600013469B0013441B010B442C3301221A70BD
:101170007A6813469B0013441B012833154A134415
:101180000533174A1C46134607CB20606160A260F6
:101190007B68DBB29FED130A1846FFF7D3FD7A6830
:1011A00013469B0013441B0128330A4A134405339A
:1011B0007A680D49002000F091F87B6801337B606C
:1011C0007B680B2B7FF75EAF00BF00BF0C37BD46BF
:1011D00090BD00BFFC010024CDCC4C3F346601081B
:1011E00040660108000000004C66010880B582B02E
:1011F00000AF0346FB71FB790B2B17D8FA790D4929
:1012000013469B0013441B010B442C3300221A701D
:10121000FA7913469B0013441B012833054A1344F3
:10122000053320220021184611F08EFE00BF08373A
:10123000BD4680BDFC01002490B58BB002AF786044
:101240000B467B807B881A4A1946786811F076FD38
:101250000023FB6124E01749FA6913469B001344FD
:101260001B010B441033D3ED007AB7EEE77A07F198
:101270000C038DED007B104A1021184611F05EFD25
:101280007C887868FFF78CF80346E31A5A1E07F14A
:101290000C031946786811F05FFEFB690133FB61AE
:1012A000FB690B2BD7DD00BF00BF2437BD4690BDC7
:1012B00068660108FC0100247066010880B483B0F0
:1012C00000AF7860044A7B68136000BF0C37BD46EE
:1012D0005DF8047B704700BFDC0500240EB490B5B8
:1012E000ADF5107D02AF024607F50E73A3F2312370
:1012F0001A70234B1B7807F50E72A2F23122127876
:101300009A4235D81F4B1B68002B31D007F512725B
:1013100007F50E73A3F582731A6007F50E73A3F534
:10132000827307F59C701B68D7F844224FF48071D4
:1013300011F0FCFD06F092F8024607F1080007F5EF
:101340009C7300931346104A4FF4967111F0F6FC0B
:101350000C4B1C6807F108031846FFF721F80346F9
:101360009AB207F10801642320460DF091FB00E0DA
:1013700000BF07F50E77BD46BDE8904003B070474B
:1013800000000024DC0500247866010880B500AF69
:1013900002490220FFF7A2FF00BF80BD846601085A
:1013A00080B500AF02490220FFF798FF00BF80BD63
:1013B000A466010880B500AF02490220FFF78EFF46
:1013C00000BF80BDC866010880B582B000AF114B78
:1013D000D3F8D8300F4A43F00103C2F8D8300D4B90
:1013E000D3F8D83003F001037B607B680022002132
:1013F0000B2006F060F90B2006F077F9002200219F
:101400000C2006F058F90C2006F06FF900BF0837E1
:10141000BD4680BD0044025880B58CB000AF07F1D6
:101420001C0300221A605A609A60DA601A61484B05
:10143000D3F8E030464A43F01003C2F8E030444BA2
:10144000D3F8E03003F01003BB61BB69404BD3F825
:10145000E0303F4A43F08003C2F8E0303C4BD3F821
:10146000E03003F080037B617B69394BD3F8E030D7
:10147000374A43F00403C2F8E030354BD3F8E0308C
:1014800003F004033B613B69314BD3F8E030304A51
:1014900043F00103C2F8E0302D4BD3F8E03003F005
:1014A0000103FB60FB682A4BD3F8E030284A43F085
:1014B0000203C2F8E030264BD3F8E03003F0020319
:1014C000BB60BB68224BD3F8E030214A43F00803ED
:1014D000C2F8E0301E4BD3F8E03003F008037B6025
:1014E0007B68002249F2FF511A4808F07FFD012273
:1014F000FF21194808F07AFD49F2FF53FB610123EF
:101500003B6200237B620023BB6207F11C03194688
:10151000104808F0A3FBFF23FB6101233B6200237B
:101520007B620023BB6207F11C0319460A4808F0DE
:1015300095FB00214FF0806005F0CCFF00214FF0BB
:10154000006005F0C7FF00BF3037BD4680BD00BF5B
:1015500000440258001002580008025880B586B0B6
:1015600000AF3B1D00221A605A609A60DA601A616F
:101570003748FFF7A3FE37490220FFF7AFFE364B8F
:10158000D3F8E030344A43F00403C2F8E030324B81
:10159000D3F8E03003F004033B603B6801237B6039
:1015A0000123BB600023FB6000233B613B1D194608
:1015B0002A4808F053FB01220121284808F016FDB3
:1015C00027490220FFF78AFEFFF77CFA254B01220C
:1015D0001A7025490220FFF781FE04F07BFA214BA7
:1015E00001225A7000F082FA002120480CF036FBEC
:1015F00004211E480CF032FB08211C480CF02EFB85
:101600000C211A480CF02AFB002119480CF026FB8B
:10161000042117480CF022FB082115480CF01EFB92
:101620000C2113480CF01AFB002112480CF016FB99
:10163000042110480CF012FB08210E480CF00EFBA0
:101640000C210C480CF00AFB00BF1837BD4680BDCA
:10165000940E0024E4660108004402580008025871
:101660001C670108E00500243C670108B00D002458
:10167000FC0D0024480E002480B500AF00F020FAD5
:1016800000F0C6F9FFF7F8FC00BF80BD80B500AFE1
:10169000FFF72AFC05490020FFF720FE044B00223B
:1016A0001A70044B07221A7000BF80BD60670108E2
:1016B00089080024EC05002480B59EB008AF0346DD
:1016C000FB71FB791A46B3490220FFF707FEFB794D
:1016D000072B07D9FB791A46AF490020FFF7FEFD1B
:1016E000002352E1FB79742202FB03F3AB4A13445B
:1016F0003B653B6D93F85C30002B05D1FB791A46B6
:10170000A7490220FFF7EAFD3B6D58683B6D1B8936
:101710000022194608F06AFC012005F0ABFEF02318
:101720003B870023BB863B6D186807F1340207F145
:1017300038016423009302230BF0FCFB142005F016
:1017400099FE80233B860023BB853B6D186807F11B
:101750002C0207F130016423009302230BF0EAFB13
:10176000142005F087FE3F233B850023BB843B6D9F
:10177000186807F1240207F128016423009302236B
:101780000BF0D8FB034687F84F3097F84F30002B0B
:1017900010D097F84F301A4682490020FFF79EFD7F
:1017A0003B6D58683B6D1B890122194608F01EFCF1
:1017B0000023EAE097F824301A4697F825307A4952
:1017C0000220FFF78BFD142005F054FE4F23BB6170
:1017D00007F11C0300221A609A8007F10C03002213
:1017E0001A605A601A813B6D186807F10C0207F104
:1017F0001801642300930A230BF09CFB034687F82F
:101800004F303B6D58683B6D1B890122194608F02B
:10181000EDFB97F84F30002B10D097F84F301A4659
:1018200060490020FFF75AFD3B6D58683B6D1B89EE
:101830000122194608F0DAFB0023A6E05B490220EA
:10184000FFF74CFD00237B650CE007F10C027B6D7C
:1018500013441B781A4656490220FFF73FFD7B6D63
:1018600001337B657B6D092BEFDD52490220FFF7C9
:1018700035FD3B7B03F01003002B07D0FA793B7B4F
:101880004D490120FFF72AFD00237EE0BB7B1BB200
:101890001B021AB2FB7B1BB21343A7F84C303B7CF4
:1018A0001BB21B021AB27B7C1BB21343A7F84A304F
:1018B000BB7C1BB21B021AB2FB7C1BB21343A7F802
:1018C00048303B7D1BB21B021AB27B7D1BB2134317
:1018D000A7F84630394B3B64394BFB63B7F94A30C4
:1018E00007EE903AB8EEE77AD7ED107A67EE277AEE
:1018F0003B6DC3ED037AB7F9483007EE903AB8EE86
:10190000E77AD7ED107A67EE277A3B6DC3ED047A5C
:10191000B7F9463007EE903AB8EEE77AD7ED0F7A8E
:1019200067EE277A3B6DC3ED057AB7F94C30184660
:1019300000F0A0FBF0EE407A3B6DC3ED067AFA7939
:101940003B6DD3ED037AB7EEE77A3B6DD3ED046AD6
:10195000B7EEE66A3B6DD3ED055AB7EEE55A3B6D3F
:10196000D3ED064AB7EEE44A8DED064B8DED045BF0
:101970008DED026B8DED007B12490220FFF7AEFC6E
:1019800011490220FFF7AAFC012318465837BD462B
:1019900080BD00BF146801083C680108900800245D
:1019A0005C68010898680108B4680108D4680108F7
:1019B000E4680108EC680108F06801088941403FCB
:1019C00048E19A3F1C6901084C69010880B500AFE5
:1019D0000C490220FFF782FCAA2004F0F5FB04F07A
:1019E0005DFC04F065FC0346002B04D00649022090
:1019F000FFF774FC03E005490020FFF76FFC00BF10
:101A000080BD00BF6C6A0108886A0108A86A0108E5
:101A100080B584B000AF05F021FDF860214B1B6854
:101A2000FA68D31ABB60BB68B3F57A7F35D31E4B17
:101A30001B681E4AA2FB03239B09BA6802FB03F33F
:101A400007EE903AF8EE677AC7ED017A184B1B68FB
:101A500007EE903AF8EE677A9FED167A67EE876A9E
:101A600097ED017AC6EE877A9FED127A77EE677A64
:101A7000C7ED007A104A3B689360D7ED007AB7EE65
:101A8000E77A53EC172B0D490320FFF727FC084B8F
:101A900000221A60034AFB68136000BF1037BD467E
:101AA00080BD00BF7808002408000024D34D6210D8
:101AB0007C0800240000C842E0050024046B0108F3
:101AC00080B500AF05F0CAFC0346024A536000BF70
:101AD00080BD00BFE005002480B500AF02490220B0
:101AE000FFF7FCFB00BF80BD186B010880B500AF9D
:101AF00003490220FFF7F2FB04F00EFB00BF80BD9C
:101B00003C6B010880B500AF50490220FFF7E6FBAF
:101B10004F490220FFF7E2FB4E490220FFF7DEFBB0
:101B20004D490220FFF7DAFB4C490220FFF7D6FBB4
:101B300046490220FFF7D2FB45490220FFF7CEFBC2
:101B400044490220FFF7CAFB45490220FFF7C6FBC4
:101B500044490220FFF7C2FB43490220FFF7BEFBC6
:101B600042490220FFF7BAFB41490220FFF7B6FBCA
:101B700040490220FFF7B2FB3F490220FFF7AEFBCE
:101B80003E490220FFF7AAFB3D490220FFF7A6FBD2
:101B90003C490220FFF7A2FB3B490220FFF79EFBD6
:101BA0003A490220FFF79AFB39490220FFF796FBDA
:101BB00038490220FFF792FB37490220FFF78EFBDE
:101BC00036490220FFF78AFB35490220FFF786FBE2
:101BD00034490220FFF782FB33490220FFF77EFBE6
:101BE00032490220FFF77AFB31490220FFF776FBEA
:101BF00030490220FFF772FB2F490220FFF76EFBEE
:101C00002E490220FFF76AFB2D490220FFF766FBF1
:101C10002C490220FFF762FB2B490220FFF75EFBF5
:101C20002A490220FFF75AFB29490220FFF756FBF9
:101C300028490220FFF752FB27490220FFF74EFBFD
:101C400026490220FFF74AFB00BF80BD646B0108F4
:101C50007C6B0108946B0108B46B0108DC6B010814
:101C6000006C0108486C01086C6C0108886C010864
:101C7000AC6C0108CC6C0108EC6C0108046D010827
:101C80001C6D0108446D0108646D01087C6D01083C
:101C9000946D0108B06D0108D86D0108086E010847
:101CA000306E0108586E01087C6E0108B46E0108A0
:101CB000E86E0108086F01083C6F01086C6F0108AD
:101CC000A86F0108D06F0108007001083470010886
:101CD00068700108B0700108D4700108FC70010838
:101CE00080B500AF27490220FFF7F8FA264B1B7892
:101CF0001A4626490220FFF7F1FA254B5B681A467F
:101D000024490220FFF7EAFA214BD3ED027AB7EE1D
:101D1000E77A53EC172B20490220FFF7DFFA1C4B20
:101D20001B781A461D490220FFF7D8FA184B5B783A
:101D30001A461B490220FFF7D1FA154BDB781A46E9
:101D400018490220FFF7CAFA114B9B781A46164928
:101D50000220FFF7C3FA4FF400711448FFF76CFA42
:101D6000124A13490220FFF7B9FA4FF400710F48E5
:101D700004F0FCF90D4A0E490220FFF7AFFA00BF4C
:101D800080BD00BF24710108EC05002438710108F2
:101D9000E005002444710108046B01085871010832
:101DA0006C710108847101089C710108F005002420
:101DB000B471010880B588B000AF3B1D00221A60E5
:101DC0005A609A60DA601A6135490220FFF786FA94
:101DD00000220121334808F009F90121314808F0B7
:101DE000EDF803461A4630490220FFF777FA2F49EB
:101DF0000220FFF773FA0023FB6112E000220121A9
:101E0000284808F0F3F8642005F034FB0122012192
:101E1000244808F0EBF8642005F02CFBFB69013343
:101E2000FB61FB69022BE9DD20237B600123BB60A2
:101E30000023FB6000233B613B1D19461C4807F053
:101E40000DFF1C490220FFF749FA0023BB6112E095
:101E500001222021164808F0C9F8322005F00AFBBB
:101E600000222021124808F0C1F8322005F002FBC0
:101E7000BB690133BB61BB69042BE9DD0223BB6095
:101E800005237B613B1D1946094807F0E7FE0A4917
:101E90000220FFF723FA00BF2037BD4680BD00BFF8
:101EA000BC71010800080258D4710108E4710108EE
:101EB00000000258007201081C72010880B588B049
:101EC00002AF33490220FFF709FA324BBB6000230F
:101ED0007B6000220121304808F088F8012005F0DD
:101EE000C9FA3A1D07F108016423009304232B4823
:101EF0000BF020F80346FB7301220121264808F06D
:101F000075F8FB7B002B39D125490220FFF7E6F954
:101F100024490220FFF7E2F900237B610CE007F17E
:101F200008027B6913441B781A461F490220FFF7F9
:101F3000D5F97B6901337B617B69032BEFDD1B499D
:101F40000220FFF7CBF91A490220FFF7C7F9002357
:101F50003B610BE03A1D3B6913441B781A4612495A
:101F60000220FFF7BBF93B6901333B613B69032B5F
:101F7000F0DD0E490220FFF7B1F905E0FB7B1A46C0
:101F80000C490020FFF7AAF900BF1837BD4680BDF5
:101F900038720108AA5500FF00080258340C0024CA
:101FA0005C72010874720108E46801087C7201081F
:101FB000807201088C72010880B582B000AF786031
:101FC0007B681B68244A934241D1244B1B780D2B1C
:101FD00003D0224B1B780A2B07D1214B1B88002BE7
:101FE0002AD0204B01221A7026E01C4B1B78082BAC
:101FF00003D01A4B1B787F2B0AD1194B1B88002B5F
:102000001AD0174B1B88013B9AB2154B1A8013E06C
:10201000134B1B887E2B0FD8114B1B885A1C91B277
:102020000F4A11801A460D4B19780F4B99540F4BDC
:102030001B6801330D4A13600A23012207490C482B
:102040000CF026FD0122054909480CF0AFFD00BF48
:102050000837BD4680BD00BF004400407208002420
:102060007008002488080024F00700248408002455
:10207000940E002480B483B000AF0346FB80B7F910
:10208000063007EE903AF8EEE77A9FED097A37EEE0
:10209000C77ADFED086AC7EE267AB3EE097A77EEE3
:1020A000877AB0EE670A0C37BD465DF8047B70474F
:1020B00000A43447CDCC344280B594B002AFB960AF
:1020C0007A603B600346FB73FB7B072B01D900233F
:1020D000C9E0FB7B742202FB03F3654A13447B6473
:1020E0007B6C93F85C30002B01D10023BBE03F23D5
:1020F0003B860023BB857B6C58687B6C1B89002268
:10210000194607F073FF012005F0B4F97B6C1868DD
:1021100007F12C0207F130016423009302230AF037
:1021200009FF7B6C58687B6C1B890122194607F0FC
:102130005DFF052005F09EF94F233B6207F1240364
:1021400000221A609A8007F1140300221A605A6074
:102150001A817B6C58687B6C1B890022194607F03A
:1021600045FF012005F086F97B6C186807F1140221
:1021700007F12001642300930A230AF0DBFE7B6C45
:1021800058687B6C1B890122194607F02FFF3B7EA4
:102190001BB21B021AB27B7E1BB21343A7F842305C
:1021A000BB7E1BB21B021AB2FB7E1BB21343A7F805
:1021B00040303B7F1BB21B021AB27B7F1BB2134322
:1021C000FB872C4BBB632C4B7B63B7F9423007EE8C
:1021D000903AB8EEE77AD7ED0E7A67EE277ABB68C9
:1021E000C3ED007AB7F9403007EE903AB8EEE77ADF
:1021F000D7ED0E7A67EE277A7B68C3ED007AB7F9E0
:102200003E3007EE903AB8EEE77AD7ED0D7A67EEFA
:10221000277A3B68C3ED007A7B6C93F85D30002B26
:1022200020D0BB6893ED007A7B6CD3ED087A77EE13
:10223000677ABB68C3ED007A7B6893ED007A7B6CAC
:10224000D3ED097A77EE677A7B68C3ED007A3B6855
:1022500093ED007A7B6CD3ED0A7A77EE677A3B6870
:10226000C3ED007A012318464837BD4680BD00BF44
:10227000900800248941403F48E19A3F80B59CB0D6
:1022800006AF224B1B78002B3AD005F0E7F87865B3
:102290001F4B1B687A6DD21A1E4B1B689A4231D3B2
:1022A0001B4A7B6D136007F1440307F1480207F1F5
:1022B0004C010020FFF700FF0346002B23D0D7ED91
:1022C000137AB7EEE77AD7ED126AB7EEE66AD7ED82
:1022D000115AB7EEE55A3B1D8DED045B8DED026B97
:1022E0008DED007B0C4A4021184610F027FD386523
:1022F0003B6D9AB2391D0A2308480CF0C9FB02E075
:1023000000BF00E000BF5837BD4680BD8A080024EA
:102310008C08002404000024AC720108940E0024F0
:1023200080B500AF05F014F803F020F800F07EF857
:10233000FFF772F8FFF748F804F07CF804F0DEFBD2
:1023400004F090FC04F00AFD04F07CFE04F0C6FEEC
:10235000FFF704F90122274927480CF027FC05F074
:102360007DF80346254A136005F078F80346244AB1
:10237000136024490220FEF7B1FF23490220FEF733
:10238000ADFF22490220FEF7A9FF214B214A224935
:102390000220FEF7A3FF08230C2220490220FEF7AB
:1023A0009DFF1F490220FEF799FFFFF7ABFBFFF7E8
:1023B00001FD00F0CBF8FFF761FFFFF75DF9FEF7D5
:1023C0004FFE0346002B01D0FEF7D0FD03F098FE30
:1023D000144B1B78002B01D0FFF758F9124B1B78D8
:1023E000002B03D1012005F045F8E2E7002005F0BD
:1023F00041F8DEE772080024940E002474080024DB
:10240000780800247C720108BC720108E872010897
:1024100014730108207301082C730108507301081C
:1024200070730108890800248A08002480B59CB0D4
:1024300000AF07F124034C220021184610F084FD60
:102440003B1D20220021184610F07EFD022007F0DF
:1024500001FE00233B60304BDB6A2F4A23F001036F
:10246000D3622D4BDB6A03F001033B602B4B9B696E
:102470002A4A43F440439361284B9B6903F4404349
:102480003B603B6800BF254B9B6903F40053B3F5E9
:10249000005FF8D101237B624FF48033BB620223DB
:1024A000BB640223FB6402233B6540237B6502235C
:1024B000BB650423FB6502233B660C237B6600237C
:1024C000BB660023FB6607F12403184607F0FCFDFA
:1024D0000346002B01D000F023F83F237B60032349
:1024E000BB600023FB6008233B6140237B614023EA
:1024F000BB614FF48063FB6140233B623B1D0221C3
:10250000184608F03BFA0346002B01D000F008F80B
:1025100000BF7037BD4680BD000400580048025817
:1025200080B500AF07490020FEF7D8FE4FF40051F8
:10253000054807F074FD4FF4FA7004F09BFF00BFEC
:10254000F4E700BFA07301080008025890B52DED14
:10255000028BADF5517D06AFB84B1B78002B02F016
:10256000C486B64B00221A70B54B1B881A46B54B71
:1025700000219954B44B1B680133B34A1360B3492B
:102580000220FEF7ABFEAE4B1B881A46B049022074
:10259000FEF7A4FE0023C7F824330EE0A94AD7F8BB
:1025A000243313441B781A46AA490220FEF796FEEC
:1025B000D7F824330133C7F82433A14B1B881A46BC
:1025C000D7F824339342E9DBA3490220FEF786FEC5
:1025D0009C4AA2490220FEF781FE994B1B88C7F84E
:1025E00020330AE0D7F82033013B964A0021D1542A
:1025F000D7F82033013BC7F82033D7F82033002B1E
:1026000014DDD7F82033013B8E4AD35C0D2BE9D083
:10261000D7F82033013B8B4AD35C0A2BE2D0D7F8A2
:102620002033013B874AD35C202BDBD08548FDF764
:10263000B7FE0346834A8A490220FEF74FFE07F59C
:10264000C0731A4687497F4810F0D0FB0346012B20
:1026500042F03A8607F5C0731A4683490220FEF716
:102660003DFE07F5C07381491846FDF739FE034664
:10267000002B03D1FFF746FA02F02ABE07F5C0731C
:102680007B491846FDF72CFE0346002B48D107F581
:10269000C0731846FDF784FE03466A4A1344C7F820
:1026A0001C3304E0D7F81C330133C7F81C33D7F8C8
:1026B0001C331B78202BF5D0D7F81C331B78002B4C
:1026C0001ED007F54A73A3F5C474D7F81C030EF0A7
:1026D000DCFD206007F54A73A3F5C4731B68092B62
:1026E0000EDD07F54A73A3F5C4731B68B3F57A7F53
:1026F00006DC07F54A73A3F5C4731B685D4A1360D3
:102700005D4B01221A705B4B1B681A465B49022025
:10271000FEF7E4FD5A490220FEF7E0FD02F0D8BDC5
:1027200007F5C07357491846FDF7DAFD0346002B3D
:1027300008D1514B00221A7053490220FEF7CEFDFA
:1027400002F0C6BD07F5C07350491846FDF7C8FD35
:102750000346002B0BD1474B0A221A60464B01223D
:102760001A704B490220FEF7B9FD02F0B1BD07F522
:10277000C07348491846FDF7B3FD0346002B0BD143
:102780003C4B64221A603C4B01221A7042490220E1
:10279000FEF7A4FD02F09CBD07F5C0733F49184643
:1027A000FDF79EFD0346002B40F03A813C49022094
:1027B000FEF794FD07F54A73A3F5B673394A1A601C
:1027C00007F54A73A3F5B8734FF000021A6007F5D6
:1027D0004A73A3F5BA734FF000021A6007F54A7303
:1027E000A3F5B673D3ED007AB7EEE75A07F54A734F
:1027F000A3F5B873D3ED007AB7EEE77A07F54A731D
:10280000A3F5BA73D3ED006AB7EEE66A8DED026BFD
:102810008DED007B53EC152B23490220FEF75EFD66
:102820004FF00003C7F8183307F54A73A3F5BC73DC
:102830001E4A1A600023C7F81433E1E08808002418
:1028400070080024F007002480080024C8730108E1
:10285000E4730108047401087C7201080C74010817
:10286000207401083C740108447401085C74010878
:1028700064740108040000248A08002474740108A8
:102880009C740108B8740108C4740108D874010864
:10289000E474010808750108147501083875010809
:1028A000487501080000C842687501086F12833A34
:1028B00007F5BA7307F5BC7207F5BE710020FFF784
:1028C000FBFB0346002B00F08E8007F54A73A3F54F
:1028D000D673D3ED007A07F54A73A3F5BE7307F5F7
:1028E0004A72A2F5B67292ED007A77EE677AC3ED7E
:1028F000007A07F54A73A3F5D873D3ED007A07F58C
:102900004A73A3F5C07307F54A72A2F5B87292ED47
:10291000007A77EE677AC3ED007A07F54A73A3F57C
:10292000DA73D3ED007A07F54A73A3F5C27307F59E
:102930004A72A2F5BA7292ED007A77EE677AC3ED29
:10294000007A07F54A73A3F5BC7207F54A73A3F53D
:10295000BE7392ED007AD3ED007A67EE277A97ED99
:10296000C67A77EE277AC7EDC67AD7EDC67AF5EE46
:10297000C07AF1EE10FA03D54FF00003C7F8183310
:10298000D7EDC67AB7EE007AF4EEC77AF1EE10FA18
:1029900003DD4FF07E53C7F8183397EDC60A0020C9
:1029A000FEF7D0F907F54A73A3F5D673D3ED007A95
:1029B000B7EEE77A07F54A73A3F5BE73D3ED006A65
:1029C000B7EEE66AD7EDC65AB7EEE55A8DED045B71
:1029D0008DED026B8DED007BD7F814234149022069
:1029E000FEF77CFC03E040490020FEF777FC4FF443
:1029F000FA7004F03FFDD7F814330133C7F81433ED
:102A0000D7F81433092B7FF753AF9FED380A002016
:102A1000FEF798F936490220FEF760FC02F058BC38
:102A200007F5C07333491846FDF75AFC0346002BDF
:102A30002AD131490220FEF751FC0023C7F8103398
:102A40001CE02E4AD7F81033742101FB03F3134422
:102A50005C331B78002B06D0D7F8102328490220BE
:102A6000FEF73CFC05E0D7F8102326490120FEF7CD
:102A700035FCD7F810330133C7F81033D7F81033CB
:102A8000072BDEDD02F024BC07F5C0731E49184693
:102A9000FDF726FC0346002B40F01E821B49022056
:102AA000FEF71CFC1A490220FEF718FC07F54A73D2
:102AB000A3F5A473114A1A604FF00003C7F80C3352
:102AC0004FF00003C7F808334FF00003C7F8043392
:102AD00007F54A73A3F5A6730A221A600023C7F804
:102AE00000337CE194750108CC75010800000000FA
:102AF000E4750108007601080C76010890080024AE
:102B00002C76010844760108607601087476010885
:102B10009476010807F54A73A3F5DC733F221A8007
:102B200007F54A73A3F5DE7300221A8007F54A738E
:102B3000A3F5A4731B68586807F54A73A3F5A4733B
:102B40001B681B890022194607F050FA012004F087
:102B500091FC07F54A73A3F5A4731B68186807F581
:102B6000B67207F5B8716423009302230AF0E2F904
:102B700007F54A73A3F5A4731B68586807F54A73F1
:102B8000A3F5A4731B681B890122194607F02EFACE
:102B9000142004F06FFC07F54A73A3F5E4734F2289
:102BA0001A60043300221A609A8007F54A73A3F56D
:102BB000EA7300221A605A601A8107F54A73A3F576
:102BC000A4731B68586807F54A73A3F5A4731B68C0
:102BD0001B890022194607F009FA012004F04AFC7B
:102BE00007F54A73A3F5A4731B68186807F5AA7262
:102BF00007F5B071642300930A230AF09BF907F5E7
:102C00004A73A3F5A4731B68586807F54A73A3F5C4
:102C1000A4731B681B890122194607F0E7F907F521
:102C20004A73A3F5EA731B791BB21B0219B207F5AD
:102C30004A73A3F5EA735B791AB207F54A73A3F5F1
:102C4000A7730A431A8007F54A73A3F5EA739B79C1
:102C50001BB21B0219B207F54A73A3F5EA73DB79BD
:102C60001AB207F54A73A3F5A8730A431A8007F549
:102C70004A73A3F5EA731B7A1BB21B0219B207F55C
:102C80004A73A3F5EA735B7A1AB207F54A73A3F5A0
:102C9000A9730A431A8007F54A73A3F5AC738A4AED
:102CA0001A6007F54A73A3F5AE73884A1A6007F5F0
:102CB0004A73A3F5A773B3F9003007EE903AF8EE24
:102CC000E77A07F54A73A3F5B07307F54A72A2F5E0
:102CD000AC7292ED007A67EE277AC3ED007A07F5C1
:102CE0004A73A3F5A873B3F9003007EE903AF8EEF3
:102CF000E77A07F54A73A3F5B27307F54A72A2F5AE
:102D0000AC7292ED007A67EE277AC3ED007A07F590
:102D10004A73A3F5A973B3F9003007EE903AF8EEC1
:102D2000E77A07F54A73A3F5B47307F54A72A2F57B
:102D3000AE7292ED007A67EE277AC3ED007A07F55E
:102D40004A73A3F5B07397EDC37AD3ED007A77EEAB
:102D5000277AC7EDC37A07F54A73A3F5B27397EDE7
:102D6000C27AD3ED007A77EE277AC7EDC27A07F5FB
:102D70004A73A3F5B47397EDC17AD3ED007A77EE79
:102D8000277AC7EDC17A07F54A73A3F5B073D3ED7F
:102D9000007AB7EEE77A07F54A73A3F5B273D3ED7D
:102DA000006AB7EEE66A07F54A73A3F5B473D3ED8C
:102DB000005AB7EEE55A8DED045B8DED026B8DED9B
:102DC000007BD7F8002342490220FEF787FA6420EF
:102DD00004F050FBD7F800330133C7F8003307F590
:102DE0004A73A3F5A673D7F800231B689A42FFF62F
:102DF00091AE07F54A73A3F5A6731B6807EE903AE8
:102E0000B8EEE77AD7EDC36AC6EE877A07F54A735C
:102E1000A3F5A4731B68C3ED087A07F54A73A3F5FD
:102E2000A6731B6807EE903AB8EEE77AD7EDC26A50
:102E3000C6EE877A07F54A73A3F5A4731B68C3ED42
:102E4000097A07F54A73A3F5A6731B6807EE903A53
:102E5000B8EEE77AD7EDC16AC6EE877A07F54A730E
:102E6000A3F5A4731B68C3ED0A7A07F54A73A3F5AB
:102E7000A4731B68012283F85D2007F54A73A3F54C
:102E8000A4731B68D3ED087AB7EEE75A07F54A73C7
:102E9000A3F5A4731B68D3ED097AB7EEE77A07F5BB
:102EA0004A73A3F5A4731B68D3ED0A6AB7EEE66A0A
:102EB0008DED026B8DED007B53EC152B0549022047
:102EC000FEF70CFA02F004BA8941403F48E19A3F0C
:102ED000BC760108E476010807F5C073DC491846A2
:102EE000FDF7FEF90346002B40F01482D949022079
:102EF000FEF7F4F907F54A73A3F58A73D64A1A6008
:102F000007F54A73A3F5EC733F221A8007F54A735D
:102F1000A3F5EE7300221A8007F54A73A3F58A73AE
:102F20001B68586807F54A73A3F58A731B681B89E9
:102F30000022194607F05AF8012004F09BFA07F521
:102F40004A73A3F58A731B68186807F5A67207F51C
:102F5000A87164230093022309F0ECFF07F54A737C
:102F6000A3F58A731B68586807F54A73A3F58A733B
:102F70001B681B890122194607F038F8142004F059
:102F800079FA07F54A73A3F5F4734F221A600433F4
:102F900000221A609A8007F54A73A3F5FA7300229B
:102FA0001A605A601A8107F54A73A3F58A731B6881
:102FB000586807F54A73A3F58A731B681B890022BA
:102FC000194607F013F8012004F054FA07F54A7384
:102FD000A3F58A731B68186807F59A7207F5A07144
:102FE000642300930A2309F0A5FF07F54A73A3F5AC
:102FF0008A731B68586807F54A73A3F58A731B68C0
:103000001B890122194606F0F1FF07F54A73A3F563
:10301000FA739B781BB21B0219B207F54A73A3F52A
:10302000FA73DB781AB207F54A73A3F58B730A4378
:103030001A8007F54A73A3F5FA731B791BB21B02BA
:1030400019B207F54A73A3F5FA735B791AB207F55B
:103050004A73A3F58C730A431A8007F54A73A3F5E4
:10306000FA739B791BB21B0219B207F54A73A3F5D9
:10307000FA73DB791AB207F54A73A3F58D730A4325
:103080001A8007F54A73A3F5FA731B7A1BB21B0269
:1030900019B207F54A73A3F5FA735B7A1AB207F50A
:1030A0004A73A3F58E730A431A8007F54A73A3F592
:1030B00090736A4A1A6007F54A73A3F59273684AD7
:1030C0001A6007F54A73A3F58C73B3F9003007EE65
:1030D000903AF8EEE77A07F54A73A3F5947307F58B
:1030E0004A72A2F5907292ED007A67EE277AC3EDEC
:1030F000007A07F54A73A3F58D73B3F9003007EE34
:10310000903AF8EEE77A07F54A73A3F5967307F558
:103110004A72A2F5907292ED007A67EE277AC3EDBB
:10312000007A07F54A73A3F58E73B3F9003007EE02
:10313000903AF8EEE77A07F54A73A3F5987307F526
:103140004A72A2F5927292ED007A67EE277AC3ED89
:10315000007A07F54A73A3F59A7407F54A73A3F545
:103160008B73B3F900301846FEF784FF84ED000A34
:1031700007F54A73A3F58A731B68D3ED087A07F540
:103180004A73A3F59C7307F54A72A2F5947292ED07
:10319000007A77EE677AC3ED007A07F54A73A3F5F4
:1031A0008A731B68D3ED097A07F54A73A3F59E73FA
:1031B00007F54A72A2F5967292ED007A77EE677A79
:1031C000C3ED007A07F54A73A3F58A731B68D3ED44
:1031D0000A7A07F54A73A3F5A07307F54A72A2F5B8
:1031E000987292ED007A77EE677AC3ED007A07F570
:1031F0004A73A3F59C73D3ED007A27EEA77A07F5FF
:103200004A73A3F59E73D3ED007A67EEA77A37EE83
:10321000277A07F54A73A3F5A073D3ED007A67EE1A
:10322000A77A77EE277A07F54A73A3F5A274B0EE72
:10323000670A12F0F1FF84ED000A07F54A73A3F55F
:103240009473D3ED007AB7EEE75A07F54A7309E0B5
:103250001477010828770108900800248941403F2D
:1032600048E19A3FA3F59673D3ED007AB7EEE77A7B
:1032700007F54A73A3F59873D3ED006AB7EEE66AD3
:103280008DED026B8DED007B53EC152B82490220F6
:10329000FEF724F807F54A73A3F59C73D3ED007A83
:1032A000B7EEE75A07F54A73A3F59E73D3ED007A9C
:1032B000B7EEE77A07F54A73A3F5A073D3ED006A7A
:1032C000B7EEE66A8DED026B8DED007B53EC152BAE
:1032D00072490220FEF702F807F54A73A3F5A273BC
:1032E000D3ED007AB7EEE77A53EC172B6C49022046
:1032F000FDF7F4FF07F54A73A3F59A73D3ED007A4F
:10330000B7EEE77A53EC172B66490220FDF7E6FF8C
:1033100001F0DEBF07F5C07363491846FCF7E0FF14
:103320000346002B1FD161490220FDF7D7FF6049FA
:103330000220FDF7D3FF5F490220FDF7CFFF9FED8D
:103340005E0A0020FDF7FEFC4FF4FA7004F092F8DC
:103350009FED5A0A0020FDF7F5FC4FF4FA7004F0D7
:1033600089F801F0B5BF07F5C07355491846FCF759
:10337000B7FF0346002B40F0AF8052490220FDF713
:10338000ADFF07F54A73A3F5FC734FF48A621A6028
:1033900007F54A73A3F5FE7300221A60002201218B
:1033A000494806F023FE012004F064F807F5967200
:1033B00007F59871642300930423444809F0BAFD8B
:1033C00001220121404806F011FE07F54A73A3F5DA
:1033D000FE731B78194607F54A73A3F5FE735B78F5
:1033E000184607F54A73A3F5FE739B781A4607F54E
:1033F0004A73A3F5FE73DB780193009203460A46F5
:1034000033490220FDF76AFF0023C7F8FC323DE094
:1034100007F54A73A3F5007300221A8007F54A7373
:10342000A3F5017300221A8000220121264806F02C
:10343000DDFD012004F01EF807F5927207F5947186
:10344000642300930223214809F074FD0122012125
:103450001D4806F0CBFD07F54A73A3F501731B78F1
:103460001A4607F54A73A3F501735B780093134678
:10347000D7F8FC2217490220FDF730FF0A2003F09D
:10348000F9FFD7F8FC320133C7F8FC32D7F8FC3229
:10349000022BBDDD01F01CBF4477010868770108ED
:1034A00094770108BC770108D4770108E477010814
:1034B000087801081C780108CDCCCC3D0000000044
:1034C000347801084078010800080258340C0024C0
:1034D000607801089478010807F5C073BB49184665
:1034E000FCF7FEFE0346002B40F08481B849022021
:1034F000FDF7F4FE4BF25633A7F83A3240F24C5344
:10350000A7F838322023A7F8363240F25453A7F8F0
:103510003432B7F93A12B7F93802B7F93632B7F997
:1035200034220192009303460A46AA490220FDF77D
:10353000D5FEA94BC7F83032A84BC7F82C3207F597
:103540004A73A3F58074B7F93A321846FEF792FD34
:1035500084ED000A07F54A73A3F582734FF07A529F
:103560001A6007F54A73A3F584739D4A1A60B7F988
:10357000383207EE903AB8EEE77AD7ED8C7A67EEFC
:10358000277AB7EEE74AB7F9363207EE903AB8EE47
:10359000E77AD7ED8C7A67EE277AB7EEE77AB7F954
:1035A000343206EE903AB8EEE66AD7ED8B6A66EEF4
:1035B000266AB7EEE66A07F54A73A3F58073D3ED82
:1035C000005AB7EEE55A8DED045B8DED026B8DED83
:1035D000007B53EC142B83490220FDF77FFEB7F9E3
:1035E000383207EE903AB8EEE77A07F54A73A3F55A
:1035F0008273D3ED007A67EE277AB7EEE74AB7F920
:10360000363207EE903AB8EEE77A07F54A73A3F53B
:103610008273D3ED007A67EE277AB7EEE77AB7F9CF
:10362000343206EE903AB8EEE66A07F54A73A3F52F
:103630008473D3ED006A66EE266AB7EEE66A07F594
:103640004A73A3F58073D3ED005AB7EEE55A8DEDBA
:10365000045B8DED026B8DED007B53EC142B624906
:103660000220FDF73BFEB7F9383207EE903AB8EE8C
:10367000E77AD7ED8C7A67EE277AF0EE000AB0EEA3
:10368000670A12F001FEB0EE408AB7F9363207EE53
:10369000903AB8EEE77AD7ED8C7A67EE277AF0EEBB
:1036A000000AB0EE670A12F0EFFDF0EE407A38EE55
:1036B000278AB7F9343207EE903AB8EEE77AD7EDB9
:1036C0008B7A67EE277AF0EE000AB0EE670A12F006
:1036D000DBFDF0EE407A78EE277A07F54A73A3F522
:1036E0008674B0EE670A12F097FD84ED000AB7F910
:1036F000383207EE903AB8EEE77A07F54A73A3F549
:103700008273D3ED007A67EE277AF0EE000AB0EE0E
:10371000670A12F0B9FDB0EE408AB7F9363207EE0B
:10372000903AB8EEE77A07F54A73A3F58273D3EDC2
:10373000007A67EE277AF0EE000AB0EE670A12F020
:10374000A3FDF0EE407A38EE278AB7F9343207EE5F
:10375000903AB8EEE77A07F54A73A3F58473D3ED90
:10376000007A67EE277AF0EE000AB0EE670A12F0F0
:103770008BFDF0EE407A78EE277A07F54A73A3F5D1
:103780008874B0EE670A12F047FD84ED000A07F571
:103790004A73A3F58673D3ED007AB7EEE77A53EC5C
:1037A000172B12490220FDF799FD07F54A73A3F57F
:1037B0008873D3ED007AB7EEE77A53EC172B0C49F8
:1037C0000220FDF78BFD01F083BD00BFB478010836
:1037D000C0780108EC7801088941403F48E19A3FF0
:1037E0000456CE3E0C79010840790108747901082D
:1037F0009879010807F5C073B4491846FCF770FDC5
:103800000346002B40F04481B1490220FDF766FDDC
:10381000B04BC7F8603207F54A73A3F502733F2235
:103820001A8007F54A73A3F5037300221A80D7F8AC
:1038300060325868D7F860321B890022194606F0BA
:10384000D5FB012003F016FED7F86032186807F5A3
:103850008E7207F5907164230093022309F06AFBCE
:10386000D7F860325868D7F860321B8901221946B0
:1038700006F0BCFB142003F0FDFD07F54A73A3F529
:1038800006734F221A60043300221A609A8007F5EB
:103890004A73A3F5097300221A605A601A81D7F897
:1038A00060325868D7F860321B890022194606F04A
:1038B0009DFB012003F0DEFDD7F86032186807F5A4
:1038C000827207F58871642300930A2309F032FBA2
:1038D000D7F860325868D7F860321B890122194640
:1038E00006F084FB07F54A73A3F509739B781BB2B6
:1038F0001B021AB207F54A73A3F50973DB781BB2F2
:103900001343A7F85E3207F54A73A3F509731B79D1
:103910001BB21B021AB207F54A73A3F509735B7950
:103920001BB21343A7F85C3207F54A73A3F509737A
:103930009B791BB21B021AB207F54A73A3F50973F0
:10394000DB791BB21343A7F85A3207F54A73A3F584
:1039500009731B7A1BB21B021AB207F54A73A3F54F
:1039600009735B7A1BB21343A7F858325A4BC7F856
:1039700054325A4BC7F85032B7F95C3207EE903ADE
:10398000F8EEE77A97ED957A67EE277AC7ED937AA6
:10399000B7F95A3207EE903AF8EEE77A97ED957A52
:1039A00067EE277AC7ED927AB7F9583207EE903A68
:1039B000F8EEE77A97ED947A67EE277AC7ED917A79
:1039C000B7F95E321846FEF755FB87ED900AD7ED42
:1039D000937A27EEA77AD7ED927A67EEA77A37EE39
:1039E000277AD7ED917A67EEA77A77EE277AB0EE4D
:1039F000670A12F011FC87ED8F0AB7F95E12B7F96A
:103A00005C02B7F95A32B7F9582201920093034683
:103A10000A4633490220FDF761FCD7ED937AB7EEF1
:103A2000E75AD7ED927AB7EEE77AD7ED916AB7EE1B
:103A3000E66A8DED026B8DED007B53EC152B294969
:103A40000220FDF74BFCD7ED8F7AB7EEE77A53EC07
:103A5000172B25490220FDF741FCD7ED907AB7EEF0
:103A6000E77A53EC172B21490220FDF737FCB7F911
:103A70005E22B7F95E321E490220FDF72FFCB7F92E
:103A80005E321A461B490220FDF728FC01F020BCDB
:103A900007F5C07318491846FCF722FC0346002BB3
:103AA00032D116490220FDF719FC15490220FDF715
:103AB00015FC06480EF03AFA12490220FDF70EFCFA
:103AC00002480EF033FA01F003BC00BFBC790108D4
:103AD000CC790108900800248941403F48E19A3F91
:103AE000EC780108F479010894770108187A010844
:103AF000447A0108647A0108947A0108A07A0108DE
:103B0000BC7A0108EC7A010807F5C073C44918466D
:103B1000FCF7E6FB0346002B40F09C81C1490220E4
:103B2000FDF7DCFBC04BC7F8783207F54A73A3F505
:103B30000A7300221A8007F54A73A3F50B7300225B
:103B40001A80D7F878325868D7F878321B89002263
:103B5000194606F04BFA012003F08CFCD7F87832B6
:103B6000186807F1FC0207F58071642300930223B3
:103B700009F0E0F9D7F878325868D7F878321B891D
:103B80000122194606F032FA07F54A73A3F50B73C2
:103B90001B781A4607F54A73A3F50B735B78A349A4
:103BA0000220FDF79BFB07F54A73A3F50C733F2238
:103BB0001A8007F54A73A3F50D7300221A80D7F80F
:103BC00078325868D7F878321B890022194606F0F7
:103BD0000DFA012003F04EFCD7F87832186807F18F
:103BE000F40207F1F80164230093022309F0A2F91B
:103BF000D7F878325868D7F878321B8901221946ED
:103C000006F0F4F907F54A73A3F50D731B781A460D
:103C100007F54A73A3F50D735B7885490220FDF71C
:103C20005DFB142003F026FC07F54A73A3F510731F
:103C30004F221A60043300221A609A8007F54A73F3
:103C4000A3F5137300221A605A601A81D7F87832EC
:103C50005868D7F878321B890022194606F0C6F951
:103C6000012003F007FCD7F87832186807F1DC026E
:103C700007F1E801642300930A2309F05BF9D7F800
:103C800078325868D7F878321B890122194606F035
:103C9000ADF968490220FDF721FB0023C7F8F8328F
:103CA00011E007F54A73A3F51372D7F8F8321344FD
:103CB0001B781A4660490220FDF710FBD7F8F8324E
:103CC0000133C7F8F832D7F8F832092BE9DD5B4940
:103CD0000220FDF703FB07F54A73A3F513739B78E6
:103CE0001BB21B021AB207F54A73A3F51373DB78F4
:103CF0001BB21343A7F8763207F54A73A3F5137383
:103D00001B791BB21B021AB207F54A73A3F5137392
:103D10005B791BB21343A7F8743207F54A73A3F516
:103D200013739B791BB21B021AB207F54A73A3F5F2
:103D30001373DB791BB21343A7F8723207F54A738A
:103D4000A3F513731B7A1BB21B021AB207F54A7351
:103D5000A3F513735B7A1BB21343A7F87032B7F95C
:103D60007612B7F97402B7F97232B7F9702201927C
:103D7000009303460A4632490220FDF7AFFA4FF09E
:103D80007A53C7F86C322F4BC7F86832B7F97632DE
:103D900007EE903AF8EEE77A9FED2B7A37EEC77A86
:103DA000DFED2A6AC7EE267AB3EE097A77EE877AD4
:103DB000C7ED997AB7F9743207EE903AB8EEE77A20
:103DC000D7ED9B7A67EE277AB7EEE74AB7F97232FA
:103DD00007EE903AB8EEE77AD7ED9B7A67EE277A4E
:103DE000B7EEE77AB7F9703206EE903AB8EEE66AC7
:103DF000D7ED9A6A66EE266AB7EEE66AD7ED995A6B
:103E0000B7EEE55A8DED045B8DED026B8DED007B19
:103E100053EC142B0E490220FDF760FA01F058BA5A
:103E2000147B01081C7B0108900800243C7B0108DE
:103E3000547B01086C7B0108E46801087C7201086E
:103E4000EC7801080456CE3E00A43447CDCC344271
:103E5000747B010807F5C07391491846FCF740FAD6
:103E60000346002B40F02C818E490220FDF736FAE4
:103E700007F54A73A3F5147350221A6007F54A73C5
:103E8000A3F5157300221A6000220121864806F06E
:103E9000ADF8012003F0EEFA07F1D40207F1D801E2
:103EA000642300930423814809F044F8012201218E
:103EB0007D4806F09BF807F54A73A3F515739B78C8
:103EC0001BB21B021AB207F54A73A3F51573DB7810
:103ED0001BB213431BB2A7F88632B7F886321A46D4
:103EE00073490220FDF7FAF9B7F886329B0A9BB2B4
:103EF00003F00702B7F886329B099BB203F00F0369
:103F00006C490220FDF7EAF90023C7F8F432BFE05C
:103F100007F54A73A3F516733F221A8007F54A7313
:103F2000A3F5177300221A80002201215E4806F0D3
:103F30005DF8012003F09EFA07F1CC0207F1D001F1
:103F4000642300930223594808F0F4FF0122012161
:103F5000554806F04BF807F54A73A3F517731B781D
:103F60001A4607F54A73A3F517735B780093134657
:103F7000D7F8F42250490220FDF7B0F9142003F0DD
:103F800079FA07F54A73A3F51A734F221A600433BE
:103F900000221A609A8007F54A73A3F51D73002268
:103FA0001A605A601A81002201213F4806F01EF86B
:103FB000012003F05FFA07F1B40207F1C0016423A6
:103FC00000930A23394808F0B5FF01220121364841
:103FD00006F00CF807F54A73A3F51D739B781BB226
:103FE0001B021AB207F54A73A3F51D73DB781BB2E7
:103FF0001343A7F8843207F54A73A3F51D731B79A1
:104000001BB21B021AB207F54A73A3F51D735B7945
:104010001BB21343A7F8823207F54A73A3F51D7349
:104020009B791BB21B021AB207F54A73A3F51D73E5
:10403000DB791BB21343A7F8803207F54A73A3F567
:104040001D731B7A1BB21B021AB207F54A73A3F544
:104050001D735B7A1BB21343A7F87E32B7F9840253
:10406000B7F98232B7F98022B7F97E120291019234
:1040700000930346D7F8F42210490220FDF72EF9E9
:10408000642003F0F7F9D7F8F4320133C7F8F432BB
:10409000D7F8F432042B7FF73BAF01F019B900BF1A
:1040A000A87B0108B47B010800080258340C0024E6
:1040B000CC7B0108E47B0108047C0108287C010812
:1040C00007F5C07385491846FCF70AF90346002B2B
:1040D00040F0948082490220FDF700F981490220D6
:1040E000FDF7FCF880490220FDF7F8F84BF2114388
:1040F000A7F8A6324FF4FA63A7F8A432A723A7F8CB
:10410000A23240F61113A7F8A0324FF07A53C7F845
:104110009C32764BC7F89832B7F9A43207EE903A42
:10412000F8EEE77A97EDA77A67EE277AC7EDA57ADA
:10413000B7F9A23207EE903AF8EEE77A97EDA77A50
:1041400067EE277AC7EDA47AB7F9A03207EE903A66
:10415000F8EEE77A97EDA67A67EE277AC7EDA37AAD
:10416000B7F9A63207EE903AF8EEE77A9FED607A5B
:1041700037EEC77ADFED5F6AC7EE267AB3EE097ACB
:1041800077EE877AC7EDA27A5B490220FDF7A6F8A1
:10419000B7F9A632D7EDA27AB7EEE77A8DED007BBC
:1041A0001A4656490220FDF799F8B7F9A432D7ED1F
:1041B000A57AB7EEE77A8DED007B1A4650490220CA
:1041C000FDF78CF8B7F9A232D7EDA47AB7EEE77A0B
:1041D0008DED007B1A464B490220FDF77FF8B7F9B9
:1041E000A032D7EDA37AB7EEE77A8DED007B1A46C1
:1041F00045490220FDF772F801F06AB807F5C0736F
:1042000042491846FCF76CF80346002B59D1404947
:104210000220FDF763F83F490220FDF75FF83E4BAF
:104220005B68B3F5800F01D13C4B00E03C4B1A4674
:104230003C490220FDF752F8374B9B68002B01D117
:10424000394B00E0394B1A4639490220FDF746F850
:10425000314BDB68072B01D1082300E010231A46FD
:1042600034490220FDF73AF82B4B1B69002B01D192
:10427000314B00E0314B1A4631490220FDF72EF850
:10428000254B5B69002B01D12E4B00E02E4B1A46CB
:104290002E490220FDF722F81F4BDB691A462C49F4
:1042A0000220FDF71BF81C4B1B6A002B01D1294B88
:1042B00000E0294B1A4629490220FDF70FF801F0CA
:1042C00007B807F5C07326491846FCF709F80346F6
:1042D000002B47D1FDF704FD00F0FABF4C7C01082C
:1042E000547C0108707C0108907C01080456CE3E85
:1042F00000A43447CDCC3442C47C0108D87C0108EA
:10430000FC7C0108147D01082C7D0108447D010816
:10431000507D01086C7D0108340C0024847D010867
:104320008C7D0108947D0108A07D0108A87D01080D
:10433000B07D0108C07D0108D47D0108DC7D010845
:10434000E87D0108FC7D0108047E01080C7E01085F
:104350001C7E0108347E0108387E01083C7E01087D
:104360004C7E010807F5C0738D491846FBF7B8FF6E
:104370000346002B40F028818A490220FCF7AEFF5B
:1043800007F54A73A3F51E7300221A8007F54A73D6
:10439000A3F51F7300221A8000220121824805F034
:1043A00025FE012003F066F807F1AC0207F1B00129
:1043B0006423009302237D4808F0BCFD0122012103
:1043C000794805F013FE07F54A73A3F51F731B78B0
:1043D0001A4607F54A73A3F51F735B7874490220E8
:1043E000FCF77CFF07F54A73A3F520733F221A8080
:1043F00007F54A73A3F5217300221A8000220121D8
:10440000694805F0F3FD012003F034F807F1A40238
:1044100007F1A801642300930223644808F08AFD91
:1044200001220121604805F0E1FD07F54A73A3F57B
:1044300021731B781A4607F54A73A3F521735B783D
:104440005C490220FCF74AFF0A2003F013F807F545
:104450004A73A3F524734F221A60043300221A60B2
:104460009A8007F54A73A3F5277300221A605A60F1
:104470001A81002201214C4805F0B8FD012002F00C
:10448000F9FF07F18C0207F19801642300930A23D6
:10449000464808F04FFD01220121434805F0A6FDE2
:1044A00045490220FCF71AFF0023C7F8F03211E05B
:1044B00007F54A73A3F52772D7F8F03213441B7837
:1044C0001A463E490220FCF709FFD7F8F0320133C3
:1044D000C7F8F032D7F8F032092BE9DD384902206D
:1044E000FCF7FCFE07F54A73A3F527731B78FF2B37
:1044F00000F0EE8607F54A73A3F527739B781BB28D
:104500001B021AB207F54A73A3F52773DB781BB2B7
:104510001343A7F8AE3207F54A73A3F527731B7947
:104520001BB21B021AB207F54A73A3F527735B7916
:104530001BB21343A7F8AC3207F54A73A3F52773F0
:104540009B791BB21B021AB207F54A73A3F52773B6
:10455000DB791BB21343A7F8AA3207F54A73A3F518
:1045600027731B7A1BB21B021AB207F54A73A3F515
:1045700027735B7A1BB21343A7F8A832B7F9AE12C0
:10458000B7F9AC02B7F9AA32B7F9A82201920093A1
:1045900003460A460B490220FCF7A0FE00F098BE35
:1045A000547E0108607E010800080258340C002483
:1045B000807E0108A07E0108CC7E0108E468010825
:1045C0007C720108EC78010807F5C073CD491846E4
:1045D000FBF786FE0346002B40F0C680CA49022046
:1045E000FCF77CFE002001F09DFE07F18A031A46CD
:1045F0000021002001F076FE0346002B1FD007F5B6
:104600004A73A3F29E231B881A46C0490220FCF776
:1046100065FE07F54A73A3F29E231B889B0A9BB293
:1046200003F0070207F54A73A3F29E231B889B0938
:104630009BB203F00F03B6490220FCF74FFE07F1CF
:10464000840007F1860207F1880107F182030093D5
:104650000346002001F0AEFE0346002B00F0388632
:1046600007F54A73A3F52873B3F90030194607F527
:104670004A73A3F2A223B3F90030184607F54A7330
:10468000A3F52973B3F900301A4607F54A73A3F26C
:10469000A623B3F900300193009203460A469D49D0
:1046A0000220FCF71BFE4FF07A53C7F8B8329A4B42
:1046B000C7F8B43207F54A73A3F52873B3F900308D
:1046C00007EE903AF8EEE77A9FED947A37EEC77AE4
:1046D000DFED936AC7EE267AB3EE097A77EE877A32
:1046E000C7EDAC7A07F54A73A3F2A223B3F9003001
:1046F00007EE903AB8EEE77AD7EDAE7A67EE277A12
:10470000B7EEE74A07F54A73A3F52973B3F900300A
:1047100007EE903AB8EEE77AD7EDAE7A67EE277AF1
:10472000B7EEE77A07F54A73A3F2A623B3F9003090
:1047300006EE903AB8EEE66AD7EDAD6A66EE266A06
:10474000B7EEE66AD7EDAC5AB7EEE55A8DED045BED
:104750008DED026B8DED007B53EC142B7149022023
:10476000FCF7BCFD00F0B4BD07F5C0736E491846F8
:10477000FBF7B6FD0346002B71D16C490220FCF714
:10478000ADFD07F5C0731846FBF70AFE0346684AFD
:104790001344C7F8EC3204E0D7F8EC320133C7F821
:1047A000EC32D7F8EC321B78202BF5D007F17C01E6
:1047B00007F1810207F17003029307F1740301937B
:1047C00007F1780300930B465A49D7F8EC020EF034
:1047D0000DFBC7F8BC02D7F8BC2257490220FCF7F2
:1047E0007DFDD7F8BC32052B27D107F54A73A3F21C
:1047F000A7231A7807F54A73A3F52B73D3ED007A34
:1048000007F54A73A3F52C7393ED007A07F54A7305
:10481000A3F52D73D3ED006A07F54A73A3F52E7344
:104820001B681946B0EE661AF0EE470AB0EE670A4A
:104830001046FCF763FB00F04BBD40490020FCF73D
:104840004DFDD7F8EC223E490020FCF747FDD7F894
:10485000BC223C490020FCF741FD00F039BD07F5C2
:10486000C07339491846FBF73BFD0346002B1DD1A9
:1048700036490220FCF732FD35490220FCF72EFDB7
:104880000020FCF719FF034687F8C33297F8C332BC
:10489000002B05D02F490220FCF720FD00F018BDA9
:1048A0002D490020FCF71AFD00F012BD07F5C0737A
:1048B0002A491846FBF714FD0346002B54D107F58F
:1048C000C0731846FBF76CFD03460133184A1344C6
:1048D00007F16F02224918460EF088FA0346012BB1
:1048E00009D107F54A73A3F2B9231B78184601F0E2
:1048F00071FA00F0EDBC1B490020FCF7EFFC00F062
:10490000E7BC00BFDC7E0108B47B0108E87E01083B
:10491000E47B0108EC7801080456CE3E00A434473D
:10492000CDCC3442747B0108F87E0108047F010875
:10493000F0070024247F0108387F01085C7F01080C
:10494000947F0108A87F0108C47F0108D07F010877
:10495000EC7F0108048001082080010838800108EC
:10496000448001084C80010807F5C073AE49184621
:10497000FBF7B6FC0346002B40F0CC80AB4902208D
:10498000FCF7ACFCAA4B1B681A46AA490220FCF7AC
:10499000A5FCA74B5B68B3F5800F01D1A64B00E0E7
:1049A000A64B1A46A6490220FCF798FCA04B9B6830
:1049B000002B01D1A34B00E0A34B1A46A3490220D0
:1049C000FCF78CFC9A4BDB68072B01D1A04B00E075
:1049D000A04B1A46A0490220FCF780FC944B1B69AF
:1049E000002B01D19D4B00E09D4B1A469D490220B2
:1049F000FCF774FC8E4B5B69002B01D19A4B00E0F5
:104A00009A4B1A469A490220FCF768FC884BDB69EE
:104A10001A4698490220FCF761FC06F025FBC7F80E
:104A2000C8020223C7F8E832814BDB69B3F1E04FDB
:104A300042D0B3F1E04F44D8B3F1C04F38D0B3F116
:104A4000C04F3ED8B3F1A04F2ED0B3F1A04F38D80D
:104A5000B3F1804F24D0B3F1804F32D8B3F1405F2F
:104A60001AD0B3F1405F2CD8B3F1005F10D0B3F18E
:104A7000005F26D8002B03D0B3F1805F04D020E084
:104A80000223C7F8E8321CE00423C7F8E83218E034
:104A90000823C7F8E83214E01023C7F8E83210E022
:104AA0002023C7F8E8320CE04023C7F8E83208E0DA
:104AB0008023C7F8E83204E04FF48073C7F8E83287
:104AC00000BFD7F8C822D7F8E832B2FBF3F3C7F833
:104AD000C432D7F8C82268490220FCF7FFFBD7F898
:104AE000C42266490220FCF7F9FB0121644805F065
:104AF00065FA03461A4663490220FCF7EFFB2021C2
:104B0000614805F05BFA03461A4660490220FCF74B
:104B1000E5FBDDE307F5C0735D491846FBF7E0FBF5
:104B20000346002B40F017815A490220FCF7D6FBC0
:104B3000594BC7F8CC32D7F8CC325868D7F8CC32BA
:104B40001B890022194605F051FA012002F092FC5F
:104B500007F54A73A3F52F73F0221A8007F54A73FD
:104B6000A3F5307300221A80D7F8CC32186807F109
:104B7000680207F16C0164230093022308F0DAF95C
:104B8000D7F8CC325868D7F8CC321B8901221946A5
:104B900005F02CFA022002F06DFC07F54A73A3F52C
:104BA00030731B781A4607F54A73A3F530735B78A8
:104BB0003A490220FCF792FBD7F8CC325868D7F874
:104BC000CC321B890022194605F010FA012002F0B0
:104BD00051FC07F54A73A3F5317350221A6007F5AB
:104BE0004A73A3F5327300221A60D7F8CC321868E2
:104BF00007F1600207F1640164230093042308F0C5
:104C000099F9D7F8CC325868D7F8CC321B890122F1
:104C1000194605F0EBF922490220FCF75FFB00235F
:104C2000C7F8E43250E000BF6880010874800108D2
:104C3000340C002498800108847D01088C7D0108D3
:104C4000947D0108A07D0108A87D0108B07D0108C0
:104C5000B4800108BC800108C4800108D480010828
:104C6000E4800108E87D0108F4800108048101085E
:104C70000C7E01081C7E01081481010828810108AE
:104C8000000802583C8101080000025858810108C0
:104C9000748101088081010890080024A081010826
:104CA000C081010807F54A73A3F53272D7F8E432E0
:104CB00013441B781A46B9490220FCF70FFBD7F8BA
:104CC000E4320133C7F8E432D7F8E432032BE9DDEC
:104CD000B3490220FCF702FBD7F8CC325868D7F86A
:104CE000CC321B890022194605F080F9012002F020
:104CF000C1FB07F54A73A3F5337300221A8007F549
:104D00004A73A3F5347300221A80D7F8CC3218689E
:104D100007F1580207F15C0164230093022308F0B5
:104D200009F9D7F8CC325868D7F8CC321B89012260
:104D3000194605F05BF907F54A73A3F534731B7840
:104D40001A4607F54A73A3F534735B789549022038
:104D5000FCF7C4FABCE207F5C07393491846FBF7A9
:104D6000BFFA0346002B02D101F064F9B0E207F567
:104D7000C0738E491846FBF7B3FA0346002B07D1E0
:104D80008B4B01229A708B490220FCF7A7FA9FE215
:104D900007F5C07388491846FBF7A2FA0346002BB3
:104DA00009D1FCF7A1F8824B00229A7083490220B6
:104DB000FCF794FA8CE207F5C07381491846FBF7BB
:104DC0008FFA0346002B17D10023C7F8E0320AE020
:104DD000D7F8E032DBB21846FCF708FAD7F8E03231
:104DE0000133C7F8E032D7F8E0320B2BF0DD75491C
:104DF0000220FCF773FA6BE207F5C073724918469C
:104E0000FBF76EFA0346002B40F056816F490220F3
:104E1000FCF764FA07F5C0731846FBF7C1FA0346BE
:104E20006B4A1344C7F8DC3204E0D7F8DC320133B4
:104E3000C7F8DC32D7F8DC321B78202BF5D007F12D
:104E400008033F22D7F8DC1218460EF0AAF807F53F
:104E50004A73A3F54873002283F83F2007F1080343
:104E60001A465C490220FCF739FA07F1500307F1B2
:104E7000570207F1080058490DF0B8FF0346022B0E
:104E800024D107F54A73A3F2D1231B781A4607F5FC
:104E90004A73A3F53673D3ED007AB7EEE77A8DED5A
:104EA000007B4E490220FCF719FA07F54A73A3F27A
:104EB000D1231A7807F54A73A3F53673D3ED007A38
:104EC000B0EE670A1046FBF73DFF01E207F1500321
:104ED00007F1570207F1080041490DF087FF03462B
:104EE000022B28D107F54A73A3F2D1231B781A4667
:104EF00007F54A73A3F53673D3ED007AFDEEE77A32
:104F000017EE903A37490220FCF7E8F907F54A73A3
:104F1000A3F2D1231A7807F54A73A3F53673D3EDBC
:104F2000007ADFED316A87EEA67AB0EE470A1046C6
:104F3000FBF708FFCCE107F1500307F1570207F137
:104F400008002A490DF052FF0346022B52D107F503
:104F50004A73A3F2D1231B781A4607F54A73A3F5C7
:104F60003673D3ED007AFCEEE77AC7ED017A3B7930
:104F7000DBB21F490220FCF7B1F907F54A73A3F22F
:104F8000D1231A7807F54A73A3F53673D3ED007A67
:104F9000B0EE670A1046FBF7D5FE99E1E468010818
:104FA0007C720108807E0108DC810108E88101082B
:104FB000E0050024F0810108088201081082010840
:104FC00020820108288201083882010840820108F5
:104FD000F00700245C8201087882010880820108C1
:104FE000A8820108B08201080000C842D4820108EA
:104FF000E0820108C0490220FCF770F907F10803BC
:10500000BE4918460DF0E0FFC7F8D002D7F8D032FD
:10501000002B4CD0D7F8D0020CF037F90346DAB2A7
:1050200007F54A73A3F2D1231A70B44900200DF09A
:10503000CBFFC7F8D002D7F8D032002B32D0D7F848
:10504000D0020CF01FF9B0EE407BF7EEC77B07F5FE
:105050004A73A3F53673C3ED007A07F54A73A3F2DA
:10506000D1231B781A4607F54A73A3F53673D3ED9F
:10507000007AB7EEE77A8DED007BA1490220FCF7BC
:105080002DF907F54A73A3F2D1231A7807F54A736D
:10509000A3F53673D3ED007AB0EE670A1046FBF73E
:1050A00051FE15E197490020FCF718F910E19549E8
:1050B0000020FCF713F90BE107F5C073924918467D
:1050C000FBF70EF90346002B1FD107F5C0731846F6
:1050D000FBF766F9034601338C4A134407F14F028C
:1050E0008B4918460DF082FE0346012B08D107F5C7
:1050F0004A73A3F2D9231B78184600F06BFEE7E051
:1051000084490020FCF7EAF8E2E007F5C073824921
:105110001846FBF7E5F80346002B02D1FCF756FCD6
:10512000D6E007F5C0737D491846FBF7D9F803466A
:10513000002B06D1FCF72AF9FCF732F9FCF73AF913
:10514000C6E007F5C07376491846FBF7C9F8034671
:10515000002B02D1FCF7C0FCBAE007F5C07371491F
:105160001846FBF7BDF80346002B06D16E49022016
:10517000FCF7B4F8FCF71EFEAAE007F5C0736B4914
:105180001846FBF7ADF80346002B31D168490220E1
:10519000FCF7A4F80023C7F8D83220E0D7F8D822CB
:1051A00064490220FCF79AF8D7F8D832DBB29FEDB9
:1051B000620A1846FBF7C6FDC82002F05BF9D7F873
:1051C000D832DBB29FED5D0A1846FBF7BBFD6420C9
:1051D00002F050F9D7F8D8320133C7F8D832D7F8EF
:1051E000D8320B2BDADD56490220FCF777F86FE056
:1051F00007F5C07353491846FBF772F80346002BB6
:105200004AD107F5C0731846FBF7CAF803463F4A70
:105210001344C7F8D43204E0D7F8D4320133C7F8C6
:10522000D432D7F8D4321B78202BF5D007F14803BD
:1052300007F14E024449D7F8D4020DF0D7FD0346DA
:10524000022B24D107F54A73A3F2DA231B781A46FE
:1052500007F54A73A3F53873D3ED007AB7EEE77A12
:105260008DED007B39490220FCF738F807F54A73C9
:10527000A3F2DA231A7807F54A73A3F53873D3ED4E
:10528000007AB0EE670A1046FBF75CFD20E030497B
:105290000020FCF723F81BE007F5C0732D491846E2
:1052A000FBF71EF80346002B02D1FCF707FE0FE0C8
:1052B00007F5C0731A4628490020FCF70FF8274964
:1052C0000220FCF70BF803E025490020FCF706F864
:1052D000244B00221A80802200210C480DF034FE5D
:1052E00021490220FBF7FAFF00E000BF07F54B77EA
:1052F000BD46BDEC028B90BD0483010820830108EC
:10530000248301084883010864830108F00700240E
:10531000448001086C8301088483010888830108A4
:105320009083010898830108A4830108BC830108C5
:10533000CC830108E4830108CDCCCC3D0000000003
:10534000F483010804840108788201080C840108B0
:105350002C8401084C8401085884010870840108D9
:105360009484010870080024B084010880B584B0DA
:1053700000AF3B4600221A605A609A60DA6002F081
:10538000CFF901233B7000237B7000237B601F2338
:105390003B7287237B720023BB720023FB720123C5
:1053A0003B7301237B730023BB730023FB733B46DA
:1053B000184602F0EDF9042002F0CAF900BF1037D8
:1053C000BD4680BDF0B589B006AF0346FB71FE79DE
:1053D00097F90730DB115BB203F0010CFB799B11ED
:1053E00003F00103FA79521102F00102F97909116F
:1053F00001F00101F879C01000F00100FC79A4105F
:1054000004F00104FD7905F003050595049403906B
:105410000291019200936346324608490220FBF74D
:105420005DFFFB7903F01003002B03D0044901203A
:10543000FBF754FF00BF0C37BD46F0BDC884010820
:105440001085010880B586B002AF7860F023BB817B
:1054500000233B817B6858687B681B8900221946C2
:1054600004F0C4FD012002F005F87B68186807F11C
:10547000080207F10C0164230093022307F05AFD90
:105480000346002B0DD07B6858687B681B8901227E
:10549000194604F0ABFD0E490020FBF71FFF002367
:1054A00012E07B6858687B681B890122194604F06A
:1054B0009DFD022001F0DEFF3B7A1A467B7A05490A
:1054C0000220FBF70BFF012318461037BD4680BDB5
:1054D0004C8501086C85010880B586B002AF786004
:1054E0008023BB8100233B817B6858687B681B89D4
:1054F0000022194604F07AFD012001F0BBFF7B6811
:10550000186807F1080207F10C01642300930223D5
:1055100007F010FD0346002B0DD07B6858687B68B0
:105520001B890122194604F061FD0E490020FBF79A
:10553000D5FE002312E07B6858687B681B89012236
:10554000194604F053FD022001F094FF3B7A1A46FD
:105550007B7A05490220FBF7C1FE0123184610376C
:10556000BD4680BD90850108AC85010880B588B036
:1055700002AFF8600B467A60FB7250233B75FB7AF2
:105580009B00DBB27B750023BB750023FB750023FA
:105590003B61FB685868FB681B890022194604F0D0
:1055A00025FD012001F066FFFB68186807F1100275
:1055B00007F1140164230093042307F0BBFC0346A6
:1055C000002B0FD0FB685868FB681B890122194625
:1055D00004F00CFDFB7A1A4617490020FBF77EFE0B
:1055E000002324E0FB685868FB681B8901221946E8
:1055F00004F0FCFC3B7C1846FFF7E4FE3B7C03F028
:105600001003002B01D0002311E07B68002B0AD08F
:10561000BB7C1BB21B021AB2FB7C1BB213431BB236
:105620009AB27B681A80012001F024FF01231846FA
:105630001837BD4680BD00BFF885010880B586B02B
:1056400002AF786039603F23BB8100233B817B68D8
:1056500058687B681B890022194604F0C7FC0120AA
:1056600001F008FF7B68186807F1080207F10C01D8
:1056700064230093022307F05DFC0346002B0DD04A
:105680007B6858687B681B890122194604F0AEFCD0
:1056900013490020FBF722FE00231CE07B685868BA
:1056A0007B681B890122194604F0A0FC3B68002B93
:1056B00002D03A7A3B681A703B7A1846FFF782FEAE
:1056C0003B7A03F01003002B01D0002303E00520F8
:1056D00001F0D0FE012318461037BD4680BD00BF43
:1056E0002086010880B58CB002AFF860B9607A609E
:1056F0003B604F23FB6107F1200300221A609A8070
:1057000007F1100300221A605A601A81FB6858687A
:10571000FB681B890022194604F068FC012001F097
:10572000A9FEFB68186807F1100207F11C01642349
:1057300000930A2307F0FEFB0346002B0DD0FB6805
:105740005868FB681B890122194604F04FFC2F4959
:105750000020FBF7C3FD002353E0FB685868FB689B
:105760001B890122194604F041FC3B7C87F8273055
:1057700097F827301846FFF725FE97F8273003F0F3
:105780001003002B08D097F827301A462049012033
:10579000FBF7A4FD002334E0BB68002B09D0BB7CE1
:1057A0001BB21B021AB2FB7C1BB213431AB2BB68BA
:1057B0001A807B68002B09D03B7D1BB21B021AB2FA
:1057C0007B7D1BB213431AB27B681A803B68002BA7
:1057D00009D0BB7D1BB21B021AB2FB7D1BB2134367
:1057E0001AB23B681A803B6B002B09D03B7E1BB280
:1057F0001B021AB27B7E1BB213431AB23B6B1A8098
:10580000012318462837BD4680BD00BF3C860108ED
:105810005886010880B58EB002AF0346FB71FB7954
:10582000072B00F23B81FB79742202FB03F39D4AB4
:105830001344FB62FB6A5868FB6A1B890122194604
:1058400004F0D4FB642001F015FEFB791A4696495A
:105850000220FBF743FD8023BB8400233B84FB6ACB
:105860005868FB6A1B890022194604F0BFFB01201F
:1058700001F000FEFB6A186807F1200207F124011D
:1058800064230093022307F055FBFB6A5868FB6A08
:105890001B890122194604F0A9FB052001F0EAFD4D
:1058A00097F820301A4697F8213080490220FBF7FC
:1058B00015FDF023BB8300233B83FB6A5868FB6A1A
:1058C0001B890022194604F091FB012001F0D2FD52
:1058D000FB6A186807F1180207F11C0164230093A2
:1058E000022307F027FBFB6A5868FB6A1B89012229
:1058F000194604F07BFB0A2001F0BCFD3B7E1A46F2
:105900007B7E6B490220FBF7E9FCFB6A5868FB6A67
:105910001B890022194604F069FB012001F0AAFD51
:10592000FB6A186807F1200207F124016423009341
:10593000022307F0FFFAFB6A5868FB6A1B89012201
:10594000194604F053FB052001F094FD594B7B618F
:1059500000233B61FB6A5868FB6A1B8900221946D9
:1059600004F044FB012001F085FDFB6A186807F193
:10597000100207F11401C8230093042307F0DAFA98
:10598000034687F82B30FB6A5868FB6A1B890122A3
:10599000194604F02BFB0A2001F06CFD97F82B3020
:1059A0001A4645490220FBF799FC3B7C19467B7C53
:1059B0001846BB7CFA7C0192009303460A463F4995
:1059C0000220FBF78BFC5023FB600023BB60FB6ACB
:1059D0005868FB6A1B890022194604F007FB012066
:1059E00001F048FDFB6A186807F1080207F10C0195
:1059F000C8230093042307F09DFA034687F82B3051
:105A0000FB6A5868FB6A1B890122194604F0EEFA0A
:105A100097F82B301A462A490220FBF75FFC3B7AA5
:105A200019467B7A1846BB7AFA7A019200930346AC
:105A30000A4624490220FBF751FCBB7A1BB21B0229
:105A40001AB2FB7A1BB213431BB23B853B8D1A463D
:105A50001D490220FBF742FC3B8DB3F5B84F0ED138
:105A6000FB6A012283F85C20FB6A052283F8672029
:105A7000FB791A4615490220FBF730FC0FE0FB6A60
:105A8000012283F85C20FB6A002283F86720FB79FF
:105A90001A460F490120FBF721FC00E000BF303718
:105AA000BD4680BD9008002484860108A8860108B0
:105AB000BC86010860005C00D4860108EC86010801
:105AC0001C8701083487010864870108788701086A
:105AD0009C87010880B582B000AF87490220FBF7A0
