:020000040800F2
:1000000000000824C14B0008694300086B43000846
:100010006D4300086F4300087143000800000000B2
:100020000000000000000000000000007343000812
:10003000754300080000000077430008794300087A
:10004000154C0008154C0008154C0008154C00080C
:10005000154C0008154C0008154C0008154C0008FC
:10006000154C0008154C0008154C00087D4300088D
:1000700089430008154C0008154C0008154C000871
:10008000154C0008154C0008154C0008154C0008CC
:10009000154C0008154C0008154C0008154C0008BC
:1000A000154C0008154C0008154C0008154C0008AC
:1000B000154C0008154C0008154C0008154C00089C
:1000C000154C0008154C0008154C00089543000815
:1000D000154C0008154C0008A1430008AD4300086A
:1000E000154C0008154C000800000000154C0008D5
:1000F000154C0008154C0008154C0008154C00085C
:10010000154C0008154C0008154C0008154C00084B
:10011000154C0008154C0008D1430008154C000888
:10012000154C0008154C0008154C0008154C00082B
:10013000154C0008154C0008154C0008154C00081B
:1001400000000000000000000000000000000000AF
:10015000154C0008154C0008154C0008154C0008FB
:10016000154C0008154C0008154C0008154C0008EB
:10017000154C0008154C0008154C0008154C0008DB
:10018000154C0008154C0008154C0008154C0008CB
:10019000154C0008154C0008154C0008154C0008BB
:1001A000154C0008154C0008154C0008154C0008AB
:1001B000154C0008154C0008154C0008154C00089B
:1001C000154C0008154C0008154C0008154C00088B
:1001D000154C0008DD430008154C0008154C0008BC
:1001E000154C0008154C0008154C0008154C00086B
:1001F000154C0008154C0008154C0008154C00085B
:10020000154C0008154C0008154C0008154C00084A
:10021000154C0008154C0008154C0008154C00083A
:10022000154C0008154C0008154C00080000000093
:10023000154C0008154C000800000000154C000883
:10024000154C0008154C0008154C0008154C00080A
:10025000154C0008154C0008154C0008154C0008FA
:10026000154C0008154C0008154C0008154C0008EA
:10027000154C0008154C0008154C00080000000043
:10028000154C0008154C0008154C00080000000033
:0802900000000000154C0008FD
:1002A00010B5054C237833B9044B13B10448AFF3B0
:1002B00000800123237010BDC00300240000000053
:1002C0003016010808B5034B1BB103490348AFF3CF
:1002D000008008BD00000000C4030024301601089F
:1002E00010F8012B11F8013B012A28BF9A42F7D0E0
:1002F000D01A70470000000000000000000000005D
:1003000001F0FF01102A2BDB10F0070F08D010F8C6
:10031000013B013A8B422DD010F0070F42B3F6D1CA
:10032000F0B441EA012141EA014122F007047FF0E3
:1003300000070023F0E80256083C85EA010586EA3A
:10034000010685FA47F5A3FA87F586FA47F6A5FA76
:1003500087F68EB9EED1F0BC01F0FF0102F0070282
:1003600032B110F8013B013A83EA010313B1F8D12D
:100370000020704701387047002D06BF354603380E
:10038000073815F0010F07D1013015F4807F02BF47
:10039000013015F4C03F0130F0BC0138704700BF98
:1003A000034613F8012B002AFBD1181A01387047B5
:1003B00081F0004102E000BF83F0004330B54FEA16
:1003C00041044FEA430594EA050F08BF90EA020F83
:1003D0001FBF54EA000C55EA020C7FEA645C7FEA16
:1003E000655C00F0E2804FEA5454D4EB5555B8BF39
:1003F0006D420CDD2C4480EA020281EA030382EAAA
:10040000000083EA010180EA020281EA0303362D3B
:1004100088BF30BD11F0004F4FEA01314FF4801C0E
:100420004CEA113102D0404261EB410113F0004F20
:100430004FEA03334CEA133302D0524263EB4303D7
:1004400094EA050F00F0A780A4F10104D5F1200E75
:100450000DDB02FA0EFC22FA05F2801841F10001D0
:1004600003FA0EF2801843FA05F359410EE0A5F1A4
:1004700020050EF1200E012A03FA0EFC28BF4CF0D5
:10048000020C43FA05F3C01851EBE37101F000458B
:1004900007D54FF0000EDCF1000C7EEB00006EEB98
:1004A0000101B1F5801F1BD3B1F5001F0CD3490822
:1004B0005FEA30004FEA3C0C04F101044FEA445279
:1004C00012F5800F80F09A80BCF1004F08BF5FEA00
:1004D000500C50F1000041EB045141EA050130BDE0
:1004E0005FEA4C0C404141EB0101013C28BFB1F5F2
:1004F000801FE9D291F0000F04BF01460020B1FA3D
:1005000081F308BF2033A3F10B03B3F120020CDA0F
:100510000C3208DD02F1140CC2F10C0201FA0CF0ED
:1005200021FA02F10CE002F11402D8BFC2F1200C52
:1005300001FA02F120FA0CFCDCBF41EA0C01904008
:10054000E41AA2BF01EB0451294330BD6FEA040451
:100550001F3C1CDA0C340EDC04F11404C4F120023C
:1005600020FA04F001FA02F340EA030021FA04F34E
:1005700045EA030130BDC4F10C04C4F1200220FAA5
:1005800002F001FA04F340EA0300294630BD21FAE3
:1005900004F0294630BD94F0000F83F4801306BFA9
:1005A00081F480110134013D4EE77FEA645C18BF9D
:1005B0007FEA655C29D094EA050F08BF90EA020F34
:1005C00005D054EA000C04BF1946104630BD91EA2C
:1005D000030F1EBF0021002030BD5FEA545C05D12F
:1005E0004000494128BF41F0004130BD14F580046E
:1005F0003CBF01F5801130BD01F0004545F0FE41E2
:1006000041F470014FF0000030BD7FEA645C1ABF16
:10061000194610467FEA655C1CBF0B46024650EA4D
:10062000013406BF52EA033591EA030F41F4002179
:1006300030BD00BF90F0000F04BF0021704730B5FF
:100640004FF4806404F132044FF000054FF00001D4
:1006500050E700BF90F0000F04BF0021704730B595
:100660004FF4806404F1320410F0004548BF40426A
:100670004FF000013EE700BF42004FEAE2014FEABF
:1006800031014FEA02701FBF12F07F4393F07F4F9A
:1006900081F06051704732F07F4208BF704793F09D
:1006A0007F4F04BF41F40021704730B54FF46074B0
:1006B00001F0004521F000411CE700BF50EA0102B3
:1006C00008BF704730B54FF000050AE050EA01025C
:1006D00008BF704730B511F0004502D5404261EBCC
:1006E00041014FF4806404F132045FEA915C3FF40D
:1006F000D8AE4FF003025FEADC0C18BF03325FEAAA
:10070000DC0C18BF033202EBDC02C2F1200300FA5A
:1007100003FC20FA02F001FA03FE40EA0E0021FA7F
:1007200002F11444BDE600BF53B94AB9002908BF1D
:1007300000281CBF4FF0FF314FF0FF3000F0C0B970
:10074000ADF1080C6DE904CE00F03EF8DDF804E0F0
:10075000DDE9022304B0704708B502460B4643ECBE
:10076000172BB5EEC07BF1EE10FA03D4BDE80840BC
:1007700000F00AB8B1EE477B51EC170B00F004F81B
:10078000404261EB410108BD9FED0B6B41EC170B43
:100790009FED0B5B27EE066BBCEEC66BB8EE464BCF
:1007A000A4EE457BFCEEC77B16EE101A17EE900AFE
:1007B000704700BFAFF30080000000000000F03D74
:1007C000000000000000F0412DE9F047089D8E4632
:1007D00004468846002B4AD18A42174662D9B2FAAB
:1007E00082F64EB1C6F1200301FA06F820FA03F3AF
:1007F000B74043EA0808B4404FEA174E1FFA87FC97
:10080000B8FBFEF1230C0EFB118843EA084301FB01
:100810000CF29A4209D9FB1801F1FF3080F0EA800E
:100820009A4240F2E78002393B449A1AA3B2B2FBE3
:10083000FEF00EFB102243EA024300FB0CFC9C4539
:1008400009D9FB1800F1FF3280F0D6809C4540F2B8
:10085000D3803B44023840EA0140A3EB0C03002163
:100860001DB1F3400022C5E90032BDE8F0878B429C
:1008700005D90DB1C5E9000100210846F5E7B3FA35
:1008800083F1002946D1734502D3824200F20581EB
:10089000841A6EEB030201209046002DE5D0C5E9D5
:1008A0000048E2E7002A00F09080B2FA82F6002EBB
:1008B00040F0A4808A1A030C4FEA174E80B2BCB2F3
:1008C0000121B2FBFEFC0EFB1C2243EA024304FBA7
:1008D0000CF29A4207D9FB180CF1FF3802D29A4267
:1008E00000F2E080C4469B1AB3FBFEF20EFB12330B
:1008F00040EA034302FB04F49C4207D9FB1802F1CF
:10090000FF3002D29C4200F2CA8002461B1B42EA20
:100910000C40A5E7C1F120068B4022FA06F71F43E1
:100920000EFA01F420FA06F32EFA06FE4FEA1749F2
:10093000234300FA01F81FFA87FCBEFBF9F01C0CF8
:1009400009FB10EE44EA0E4400FB0CFEA64502FA39
:1009500001F209D93C1900F1FF3A80F09C80A645CC
:1009600040F2998002383C44A4EB0E041FFA83FE47
:10097000B4FBF9F309FB13444EEA044403FB0CFCFB
:10098000A44508D93C1903F1FF3E80F08280A445BC
:100990007FD9023B3C4443EA0040A4EB0C04A0FB9B
:1009A00002EC64457346E14662D35FD05DB1B8EBBB
:1009B000030264EB090404FA06F622FA01F31E436B
:1009C000CC40C5E9006400214FE7B1FBF2FC010C0B
:1009D00041EA0E4180B240EA01423B4638463C467D
:1009E000B846BE462026B1FBF7F1A2EB080241EA69
:1009F0000C4166E7014618E710462CE7C6F12002D5
:100A00002EFA02F3B740B14020FA02F24FEA174E35
:100A10000A43B3FBFEF8BCB20EFB1833110C41EADB
:100A2000034108FB04F9B04089454FEA104380B206
:100A30003ED9791808F1FF3C01D289451FD8A1EBB6
:100A40000901B1FBFEF909FB04F80EFB191192B282
:100A500042EA0142424529D2BA1809F1FF31C4D213
:100A60004245C2D2A9F102013A44BEE7F0459DD207
:100A7000BEEB02036CEB070C0138E14696E7A7EBEF
:100A800009094944A8F1020CB1FBFEF909FB04F87D
:100A9000DBE773467FE7504666E70846FDE63B44E2
:100AA000023A33E7ACF1020C3B441CE749469CE7B1
:100AB000A1EB0901C446B1FBFEF909FB04F8C4E748
:100AC000704700BFF0B587B014224FF4803001A901
:100AD00002F026FE244B019A9A4202D1029B012B7E
:100AE00005D02249002000F0D9FA07B0F0BD039BE1
:100AF0000C2B05D1049B052B02D1059B0D2B01D09E
:100B00001B49EFE71B4942F2D8424FF480301A4CA0
:100B100002F006FE174900250E4622460B4600202D
:100B20009F6C01300C330C3242F80C7C05281F6C92
:100B300042F8087C5F6C42F8047CF1D1013501F584
:100B400043713C340C2DE8D101240C4B0C4902209C
:100B50001C7000F0A3FA0B4B0220B2681C700A490B
:100B6000336900F09BFAC0E7BEBAFECA64160108FA
:100B700093160108B4060024E0030024DC030024DB
:100B8000B5160108B0060024D41601085F4B2DE904
:100B9000F0411B7863B901F13C0200230B600C317A
:100BA00041F8083C41F8043C8A42F7D1BDE8F081A5
:100BB000574B002293ED057A03F11805D3ED117A16
:100BC000B4EE407AF1EE10FA37FE000AB4EE670A8E
:100BD000F1EE10FA37FE800AF5EC016A1446013294
:100BE000F4EEC06AF1EE10FA40D4B4EEC70A4FF446
:100BF0004375F1EE10FA3DD805FB00330A4601F1CA
:100C00003C049D6C0C320C3342F80C5C1D6C42F8B9
:100C1000085C5D6C42F8045CA242F2D13D4B1B784B
:100C2000002BC3D0C0EB00133B4800EB830001F165
:100C30003C0390ED007A0C3151ED037A0C3077EEE5
:100C4000C77A41ED037A51ED027A10ED027A77EE20
:100C5000C77A41ED027A51ED017A10ED017A77EE13
:100C6000C77A41ED017A9942E3D19FE70C2AB3D1CB
:100C70001446BAE7B4EEE70AF1EE10FA15DB05FB0D
:100C800000330A4601F13C04D3F818530C320C33FC
:100C900042F80C5CD3F8105342F8085CD3F81453B4
:100CA00042F8045CA242EFD1B8E703EB840205FBF3
:100CB000003301F10C0892ED057AD2ED067A3C2260
:100CC00030EE470A77EEC77A04FB02220024A2F135
:100CD0003C0C5242C0EE276A634484331E196518E7
:100CE00008EB040E06EB0C07B6EC017A1744D7EDBF
:100CF000007A37EE677AE7EE267AE5EC017A7545F9
:100D0000F0D10C343C2CE9D188E700BFB0060024B8
:100D1000B4060024DC030024E00300242DE9F0479E
:100D2000484D00264FF0000ADFF82C8137462C464C
:100D3000DFF828910021444B202205F12D00EB61C2
:100D4000C5F810A0C5F814A0A961A96285F82C10F7
:100D5000C5E908110DF0A6FB7B1E0A2B07D8DFE8BA
:100D600003F00C121A2C353C434C565E6600374B90
:100D7000A3600123A381334614E0344BA36502230F
:100D8000A4F85C30F7E7324BC4F8A8304FF40053B6
:100D9000A4F8AC30EFE72D4BC4F8F8300823A4F8E2
:100DA000FC300C232B4A013704360C2FC5E90023F5
:100DB00005F15005BED1BDE8F087244BC4F8483199
:100DC0001023A4F84C31A6F1100314E01F4BC4F813
:100DD00098312023A4F89C31F5E71C4BC4F8E83186
:100DE0004023A4F8EC31EEE7184BC4F838328023E6
:100DF000A4F83C320C234A46D5E7144BC4F8883299
:100E00004FF48073A4F88C32A6F1200317E00F4B47
:100E1000C4F8D8324FF48063A4F8DC32F4E70B4B0B
:100E2000C4F828334FF48053A4F82C33ECE7074B75
:100E3000C4F878334FF40043A4F87C330C234246C3
:100E4000B1E700BFAC2B00240000C84100100258DD
:100E500000080258E06000244860002494600024E8
:100E60000B2838B505462DED028BB0EE408A70D8C0
:100E70003E4C502303FB004393F82C30002B68D1E9
:100E8000F7EE007AB4EEE70AF1EE10FA29DCFFEE95
:100E9000007AB4EEE70AF1EE10FA25D4B5EEC00AF6
:100EA000F1EE10FA22DB5023002203FB054399895F
:100EB000986805F047F85022DFED2D7A6A4368EE16
:100EC000277AA118A258FCEEE77A49681268082927
:100ED00017EE903A43D014D8D1B104293CD0D36551
:100EE00018E0B0EE678ADEE7B0EE678A5023012291
:100EF000B1EE488A03FB05439989986805F022F80A
:100F0000D9E70C292ED01029E9D1C2ED167A01E0DB
:100F1000C2ED0D7AB5EEC08A502303FB0544F1EE15
:100F200010FA84ED058AB4BFF1EE487AF0EE487A03
:100F3000B0EEC88AC4ED047A03F0CEFEDFED0D7A80
:100F4000A061B4EEE78AF1EE10FAC2BFA36A0133E2
:100F5000A362BDEC028B38BDC2ED0E7ADAE7C2EDBA
:100F60000F7AD7E7C2ED107AD4E700BFAC2B00248C
:100F700000C079440AD7233C10B52DED028BB0EEAA
:100F8000408A0024E0B20134B0EE480AFFF768FF5F
:100F90000C2CF7D1BDEC028B10BD00009FED010AB7
:100FA000FFF7EABF000000000B2810B50FD8084C6F
:100FB00001232070237584ED010AC4ED020A84ED3B
:100FC000031A216103F088FE0023A061E36110BDD4
:100FD0008C2B0024034B00229FED030A18781A750E
:100FE000FFF73EBF8C2B00240000000038B51A4CE0
:100FF000237D7BB303F070FEA369C51A2369B5FB9B
:10100000F3F5E369AB4225D294ED037A07EE905AEB
:1010100094ED010AB5EEC07AF8EE677AF1EE10FAB7
:10102000A7EE270A0ADDD4ED027AF4EEC07AF1EEDB
:1010300010FA0BDABDE83840FFF7CCBFFAD5D4ED93
:10104000027AF4EEC07AF1EE10FAF3D82078FFF7C6
:1010500007FFE56138BD00BF8C2B00240B2810B5BD
:101060000ED85023084C03FB0044A189A06804F06B
:1010700063FF012894ED040A01D1B1EE400A10BDCE
:101080009FED020AFBE700BFAC2B0024000000002C
:10109000014B1860704700BF6C2F002402280EB46B
:1010A00030B5ADF50E7D1ED8124C2368DBB103AD13
:1010B00092AB919A4FF48071284602930DF0E4F9B7
:1010C00003F00AFE0C4A03464FF4967143A80095BC
:1010D0000DF010F943A8FFF763F9642382B243A926
:1010E000206809F0EAFC0DF50E7DBDE8304003B044
:1010F000704700BF6C2F002404170108104B07B580
:10110000D3F8D8200B2042F00102C3F8D8200022E7
:10111000D3F8D830114603F001030193019B03F08B
:1011200015FE0B2003F044FE00220C20114603F0B4
:101130000DFE0C2003B05DF804EB03F039BE00BFD8
:1011400000440258F0B58DB014220021404F07A88A
:10115000404D0DF0A7F9404B384649F2FB51D3F80A
:10116000E0200024012642F01002C3F8E020D3F86A
:10117000E02002F010020192019AD3F8E02042F040
:101180000402C3F8E020D3F8E02002F00402029247
:10119000029AD3F8E02042F08002C3F8E020D3F8AE
:1011A000E02002F080020392039AD3F8E02042F09C
:1011B0000102C3F8E020D3F8E02002F0010204921B
:1011C000049AD3F8E02042F00202C3F8E020D3F8FA
:1011D000E02002F002020592059AD3F8E02042F0E6
:1011E0000802C3F8E0200022D3F8E03003F008033F
:1011F0000693069B04F0A6FE284600224FF40051F9
:1012000004F0A0FE01222846FF2104F09BFE49F2D3
:10121000FB5307A93846CDE90736CDE9094404F068
:10122000A3FD42F2FF0307A92846CDE90736CDE921
:10123000094404F099FD21464FF0806003F06AFDF7
:1012400021464FF0006003F065FD0DB0F0BD00BF1A
:101250000010025800080258004402580000000024
:1012600070B5494C00262DED088B9FED43AB25460C
:10127000DFED469A9FED46BA07EE906AB3EE099A03
:1012800001362035B8EEE70B20EE0A0BB7EEC08B27
:10129000B0EE480A10F0DCF860EE098AB0EE480AB9
:1012A00045ED088A10F010F820EE098A394B28EE37
:1012B000080A05ED078A45F8183CB1EE488AA8EE01
:1012C000A80AF1EE688A30EE290A0FF039FEC8EE5E
:1012D000807A042E45ED057AC8EE007A45ED047A51
:1012E000CBEE007A45ED037AC6D10025DFED2A9AD0
:1012F0009FED2ABA9FED22AB07EE905A01352034BC
:10130000B8EEE70B20EE0A0BB7EEC08BB0EE480A42
:1013100010F09EF860EE298AB0EE480AC4ED188AF3
:101320000FF0D2FF20EE298A1D4B28EE080A84ED2B
:10133000198AA366B1EE488AA8EEA80AF1EE688A77
:1013400030EE0B0A0FF0FCFDC8EE807A082DC4EDDC
:101350001B7AC8EE007AC4ED1C7AC9EE007AC4ED9F
:101360001D7AC9D10F490220BDEC088BBDE8704041
:10137000FFF794BEAFF30080182D4454FB21F93FD2
:10138000182D4454FB21E93FC82F002400001045CC
:10139000000040420000E0400000344200401C4495
:1013A0000000F0410F170108F0B50023224C002681
:1013B000224F2DED068B85B0E36023614FF0804313
:1013C0006D46DFED1F8A63611E4B9FED17AB9FEDEE
:1013D000189B0FCB85E80F00B5EC017A0136C034BD
:1013E000B7EEC77A27EE0A7B87EE090BB7EEC08B04
:1013F000B0EE480A10F02CF820EE280A84ED030A1B
:10140000B0EE480A0FF060FF20EE280A042E676154
:1014100084ED040AE0D10C49022005B0BDEC068B36
:10142000BDE8F040FFF73ABE182D4454FB210940B7
:1014300000000000008066408058002400007041D9
:1014400000000C4248160108331701080000000094
:1014500030B52DED088BB0EE40BA91B072B69C4B12
:101460000AAA03F110051868083353F8041C14463F
:10147000AB4203C42246F6D1186820609B88A38043
:10148000BDF92E3008EE103ABDF9303006EE103AB4
:10149000BDF9323007EE103ABDF934300AEE903A19
:1014A000BDF936300AEE103ABDF9383009EE903AFF
:1014B00062B6B8EEC88ADFED87BAB8EEC66A864C67
:1014C000B8EEC77A28EE2B8A26EE2B6A27EE2B7A07
:1014D000B7EEC88AB7EEC66AB7EEC77AF8EEEAAAE0
:1014E000B8EECAAAF8EEE99A6AEEABAA2AEE2BAADF
:1014F00069EEAB9A9FED745B28EE058B26EE056BCB
:1015000027EE057BB7EEC88BF7EEC68BB7EEC79B11
:1015100003F0E2FB2368C01A41F28833984212D9E3
:1015200003F0DAFBB7EEE97A206002206B498DED1B
:10153000027BB7EECA7A8DED007BB7EEEA7A53EC08
:10154000172BFFF7ABFD664B04A8664A0021D3EDCD
:101550000F7A92ED047A93ED2A6A77EEC77A92EDCC
:10156000057AD3ED2B6AB1EE465ACDED047AF1EE51
:10157000665AD3ED107A77EEC77A92ED067A1A465C
:10158000CDED057AD3ED117A77EEC77ACDED067AF7
:10159000B3EC017AF0EC014AD3ED087A27EE247A15
:1015A00093ED024AE4EE8B7AF4EE467AF1EE10FA0D
:1015B00076FE277AB4EE675AF1EE10FAB4EEEBBA83
:1015C00075FE277AA4EE277AF1EE10FAC3ED087AB9
:1015D00083ED117A0DDDD3ED0B7AC3ED0B4A74EE7A
:1015E000E77A87EE8B4AD3ED057AA7EE847A83ED0E
:1015F000117AD3ED117A0131F4EE667AF1EE10FA38
:1016000076FEA77AF4EE675AF1EE10FA75FEA77A25
:101610000329C3ED117ABBD1D2ED247A07A9324B4D
:1016200077EEEA7ACDED077AD2ED257A77EECA7AAF
:10163000CDED087AD2ED267A002277EEE97ACDED6B
:10164000097AF3EC017AF1EC014A93ED087A67EE3E
:10165000A47A93ED024AA4EE8B7AB4EE476AF1EED7
:1016600010FA48BFB0EE467AB4EE475AF1EE10FADF
:1016700035FE077AE4EE077A83ED087AF2B1012AA3
:1016800008FE897A93ED054A0132C3ED0B4AE4EE78
:10169000077AF4EE676AF1EE10FA48BFF0EE667A68
:1016A000F4EE675AF1EE10FA75FEA77A032AC3ED3D
:1016B000117AC6D111B0BDEC088B30BDB0EE487ABE
:1016C000E0E700BFAFF30080399D52A246DF913FB3
:1016D000C93200246F12833AB82F00245917010829
:1016E000040000244C3100245800002400000000B5
:1016F000974B2DE9F04F2DED0C8BD3ED04AAADF2F5
:10170000D44D93ED05BAF0EE409AD3ED06BAB0EEA3
:10171000609A904BF0EE418A054605AF8E4C5CAE68
:101720004FF000089FED8DAA9FED8DCA93E807004A
:1017300087E8070014ED027A54ED036A3BEE477A1E
:1017400054ED017A7AEEE66A7BEEE77A87EE0A8A52
:10175000C6EE8ADA87EE8ADA68EE08CA8DED398A33
:10176000EDEEADCACDED38DA8DED3ADAEDEE0DCA1B
:10177000B0EE6C0A0FF0E4FBB4EECC0AF1EE10FA16
:1017800039D5002310930F930E931693159314934A
:101790000E9B08F10108203446F8043BB8F10C0F09
:1017A000149BC6F88C300F9BF362159BC6F8BC30B7
:1017B000109BF365169BC6F8EC30BBD10024902239
:1017C00080A8CDED089A21468DED099ACDED0A8AC3
:1017D0000D94CDE90B440CF065FE9022214614A82F
:1017E0000CF060FE14A95CAA0E465CAFB446002063
:1017F00002F13008A1E0B9EE086A94ED017A6CEECE
:10180000AC7A94ED004AFAEE0E6AD4ED024A28EE64
:10181000065A38AB67EE807A0EA9F0EE083ABE465B
:1018200028EE078A0846ADEEA65A9C4627EE067AB1
:10183000A14683EEA73A0022F2EE005AADEE848A6A
:10184000A4EE267AADEE255AADEE248AA4EEA57A52
:10185000F1EE044A65EE244A64EE884AFEEC017A11
:101860000132B9EC014A68EE277A032AE5EE047AE0
:10187000BCEC014AE7EE047A24EE244AC4EE2C2A9A
:1018800077EEE27A67EE837AE0EC017AE6D12CEE2D
:10189000800A0DF5247CB7EE007AA64628EE238A4E
:1018A00000206246C7EE007AC8EE2C4AB3EC015A1B
:1018B0000130BEEC017A032894EE857A27EE877A10
:1018C000ACEC017AF2D192ED015A002392ED027A4A
:1018D00065EEC57AE7EE067A26EEC77ACDED147A84
:1018E000D2ED007A14AAA7EEA57A66EE677AE5EE45
:1018F000267A8DED157A9FED1B7ACDED167AD1ED16
:10190000007A013367EE877A032BE1EC017AD2ED9E
:10191000007A67EE877AE2EC017AF0D138E7F3ECEF
:10192000016ABEEC017A4345E6EE877AF7D10130D1
:101930003037ECEC017A062804D0BE461346DFEDC2
:101940000A7AECE701341836062C11D01A464CE717
:101950004C31002458160108D42F002400007A448A
:10196000BD37863595BFD63300000000BE378635BB
:1019700014AB00221FED037AD3ED007A0132184632
:101980001C3377EE877A062AC0ED007AF4D1B7EEE1
:10199000005BA4AC00229FEDA26B20460E46002304
:1019A000B6EC017A9A4203F10103B7EEC77AA0ECD4
:1019B000027B05FE067B062B80ED0A7BF0D101320F
:1019C00018316034062AE8D1A4A900224FF0600E35
:1019D00008469FED955B90ED007B16461746013259
:1019E0008446B0EEC77B33461446062C38D1B4EE9D
:1019F000C57BF1EE10FA00F18880B34243D10C466A
:101A0000002390ED006B94ED004B013384EE067BD8
:101A10000C2BA4EC027BF6D1FF00A4AB0024A64261
:101A200042D101346033062CF9D1062A00F1680056
:101A300001F16001CFD138AB0021B0AE1A46741865
:101A400003F11800B4EC027BB7EEC77BA3EC017A7C
:101A50009842F7D16031B1F5107F60D00346EEE7D0
:101A60009CED186BB0EEC66BB4EEC76BF1EE10FADE
:101A700007DCB0EE476BB0EE467B01340CF1600C36
:101A8000B3E72346F7E7A4AC8C460EFB03430024E0
:101A90000134DCE90089D3E900AB0C2CECE802ABA3
:101AA000E3E80289F4D1AAE703EB070C89469846DC
:101AB0009CED006B4FF0000CB1EE466B0CF1010C8D
:101AC00098ED007BB9EC024BBCF10C0FA4EE067B49
:101AD000A8EC027BF2D1A4E79DEDA67A0023DDED10
:101AE000A46A0220B7EEC77A136051498DED027BDC
:101AF0009DEDA57AB7EEC77A8DED007BB7EEE67A5D
:101B000053EC172BFFF7CAFA83E04A490020FFF78E
:101B1000C5FA30220021A4A80CF0C4FC66E01346EC
:101B20000EA8002208AC1E46DFED437A00210131E9
:101B3000F6EC016AB4EC017A0629E6EE877AF6D172
:101B400001321833E0EC017A062AEBD1A4AC002371
:101B500021465CAA0EAEDFED387A981800220746BF
:101B60000132B6EC017A3030D7ED006A062AE6EE93
:101B7000877AF4D10433E1EC017A302BE9D12246A3
:101B80009FED2D8A0023F2EC017A0133F0EEE77A23
:101B9000F4EE487AF1EE10FA37FE888A0C2BF2D177
:101BA000F7EE008AB4EEE88AF1EE10FA1EDD03F0DB
:101BB00093F8224A1368C31AB3F57A7F0AD9C8EE9C
:101BC000887A10601E490120B7EEE77A53EC172B94
:101BD000FFF764FA88EE887A0023D4ED007A0133A7
:101BE0000C2B67EE277AE4EC017AF6D1A4AB05F171
:101BF0003002F3EC017A77EEA77AE5EC017AAA429B
:101C0000F7D1104A13680133B3F5FA7FBFF464AF1C
:101C100013600DF2D44DBDEC0C8BBDE8F08F00BF0E
:101C2000000000000000000011EA2D819997713D2D
:101C3000AC170108D317010800000000B02F0024E2
:101C400084170108B42F002430B5224985B0022042
:101C50000024FFF723FA204A0121204D94605461AB
:101C6000D462D4659466C2F88040C2E90044C2E9F7
:101C70000344C2E90944C2E91544C2E91844C2E96F
:101C80001E44174A11710221164A117095F85130FD
:101C900013B9E0B202F0F8F90134C035052CF5D1E2
:101CA000114B0220114993ED117AD3ED0F6AB7EE73
:101CB000C77A8DED027B93ED107AB7EEC77A8DED82
:101CC000007BB7EEE67A53EC172BFFF7E7F905B088
:101CD00030BD00BFED170108280000248058002403
:101CE0004C31002448310024040000240E1801085F
:101CF00008B506490220FFF7D1F9FFF74FF9002395
:101D0000034A1371034A137008BD00BF3F1801084E
:101D10004C31002448310024B7EEE07A1FB50C4B5B
:101D200002200C4983ED0F0AC3ED100A83ED111A4E
:101D3000B7EEC11A8DED007BB7EEC07A8DED021BB8
:101D400053EC172BFFF7AAF905B05DF804FB00BFB1
:101D50000400002460180108B0EEC07A9FED256AE7
:101D6000F0EE406AB4EEC67AF1EE10FA0DD8C7EE86
:101D7000067A9FED217A27EE870AF5EEC06AF1EE2A
:101D800010FAB8BFB1EE400A7047F7EE007AB4EE31
:101D9000E77AF1EE10FA2ADA184A0023F2EC015A37
:101DA00019460133F4EEC75AF1EE10FA1AD8D2ED03
:101DB000007AF4EEC77AF1EE10FA13DB37EE657AAB
:101DC0000F4A77EEE57A02EB810102EB8302C7EE60
:101DD000275A91ED000A92ED006A36EE406AA6EEAF
:101DE000250ACAE7082BD9D19FED060AC5E79FED62
:101DF000060AC2E7CDCCCC3D0AD7233CF82A01081D
:101E0000D42A0108000000000AD7E33FF0B52DED09
:101E1000048BADF55B7D044600250BAF3E46E8B272
:101E20000135FFF71BF9FFF797FF0C2DA6EC010A10
:101E3000F5D126AE0025E8B201353146B7EC010AEE
:101E4000FEF7A4FE0C2D06F13C06F4D1A34E17AD0F
:101E500000202A463146DFEDA27A26AB0027F0EEBD
:101E6000676AC318B0EE677A93ED006A01373C33B6
:101E700077EE867A13ED0E6A0C2F76EE866A13EDF6
:101E80000D6A37EE067AEFD191ED096A0C30C03158
:101E90000C3276EE677A3C2842ED037A51ED267AD1
:101EA00077EEE67A42ED027A51ED257A77EEC77A3F
:101EB00042ED017ACFD18B4A2B460021D3ED007A37
:101EC000013192ED007A0C33052902F10C0277EE14
:101ED000C77A12ED027A43ED037A53ED027A77EE78
:101EE000C77A12ED017A43ED027A53ED017A77EE6B
:101EF000C77A43ED017AE1D195ED010AD5ED007A7B
:101F000020EE000AA7EEA70AD5ED027AA7EEA70AEF
:101F10000FF016F8F2EE047AF0EE409AB4EEE70A0B
:101F2000F1EE10FA00F19B809FED6F0ADFED6F0A72
:101F300080EE290A0FF03CF8F0EE007A30EE270A26
:101F40009FED677A07AAF7EE005A6449B0EE476A38
:101F50001046012391F81171002F00F08380D5ED18
:101F6000047AD5ED036A67EEA77AE6EEA67AD5ED98
:101F7000056AE6EEA67AF4EEE57AF1EE10FA74DD83
:101F800037EE277A0133C0310C35E0EC017A052BAE
:101F9000E0D1B5EEC07AF1EE10FA69DDDFED507AEE
:101FA0000123F0EE676AD6ED335A0133B2EC016AD1
:101FB000C036052BE5EE866AD6ED045AE6EE257AA4
:101FC000F1D186EE876AC7EE876A494B9FED497A61
:101FD000D3ED008ADFED487A68EE878AE6EE278A3D
:101FE000C3ED008A454BC4ED008A93ED008A28EECC
:101FF000078AA6EEA78ADFED427A83ED008A414B7D
:1020000084ED018A93ED009A29EE279ADFED3E7A5E
:10201000A0EE279A28EE080AA8EEA80A84ED029AF4
:1020200083ED009A0EF08CFF9FED387AB4EEC70A6C
:10203000F1EE10FA09DDC7EE007A68EEA78A28EE05
:10204000278AC4ED008A84ED018AF1EE047AB4EEA9
:10205000E79AF1EE10FA10D5C4ED027A14E0B3EE6F
:10206000090A6DE7F0EE467A8CE7DFED1D7A89E725
:10207000DFED1B6AB0EE666AA7E7DFED257AB4EE06
:10208000E79AF1EE10FAE7DC224A13680133B3F560
:10209000FA7F05D213600DF55B7DBDEC048BF0BDBE
:1020A000B7EEE90A0023D4ED006A022013601A4952
:1020B0008DED040B94ED027AB7EEC77A8DED027BBD
:1020C00094ED017AB7EEC77A8DED007BB7EEE67A34
:1020D00053EC172BFEF7E2FFDDE700BF805800242A
:1020E000000000001C2B010880096E4DABAAAA3E1F
:1020F000C42F00249899193E9A99593FC02F002463
:102100009A99993E000000243333333F00005C422B
:1021100000002042BC2F0024901801082DE9F04354
:10212000DFF8F8822DED048B95B002F0D5FD07465F
:1021300002F0D2FDD8F80030054633B9C8F80000E7
:1021400015B0BDEC048BBDE8F083C31A9FEDA07AF7
:1021500007EE903AF8EE677A87EE878ADFED9D7A90
:10216000B4EEE78AF1EE10FAEAD4DFED9B7A9B4EEB
:10217000B4EE678A96ED059AD6ED049A29EE090A1F
:10218000D6ED068AF1EE10FAA9EEA90A37FE888A82
:102190000EF0D6FEDFED927AB4EEE70AF1EE10FA19
:1021A0000BDCF5EEC08AF1EE10FA06D4DFED8D7A85
:1021B000F4EEE78AF1EE10FA16DDB7EEE87A8A4916
:1021C00001208DED027BB7EEC97A8DED007BB7EE75
:1021D000E97A53EC172BFEF761FF15B0BDEC048BC9
:1021E000BDE8F043FFF784BDB0EE480A9FED7F9A4B
:1021F000FFF72EF97E4BF2EE087A9FED7E1A93EDF3
:10220000120AD3ED130A20EE270AD3ED271A60EE47
:10221000A70AD3ED147A93ED282AA7EE891AD3EDF5
:10222000292AF3EE027AB0EEC07AF4EEE78AF1EEF4
:10223000047AB0EE418AF1EE10FAB4EEE77A48BFC4
:1022400031EE098AF1EE10FA0BDDB5EEC00ABFEEF1
:10225000007AB7EE000AF1EE10FA30FE070A20EE1F
:10226000270AB0EEE07AB4EEE77AF1EE10FA0BDD71
:10227000F5EEC00ABFEE007AF7EE000AF1EE10FAB2
:1022800070FE870A60EEA70AB0EEC87AB4EEE77A6D
:10229000F1EE10FA0BDDB5EEC08AB7EE001ABFEE14
:1022A000007AF1EE10FA31FE071A21EE278AB0EE1D
:1022B000481A08A8FFF71CFA4F4A13680133C72BC6
:1022C00040F2838000239FED4D7A136008AA0C230F
:1022D000F2EC017AF0EEE77AF4EE477AF1EE10FADA
:1022E00037FE877A013BF3D177EE076A4449B7EEB0
:1022F000C77A02208DED007BB7EEE67A53EC172B00
:10230000FEF7CCFE0DF120093E4A0C249FED3E7AEB
:102310004B46D2ED007A013CD3ED006A67EE897A34
:10232000E6EE877AE2EC017AE3EC017AF1D1E0B2F1
:102330000134B9EC010AFEF793FD0C2CF7D1334AB6
:102340001368013313606422B3FBF2F102FB113313
:102350002BBB9DED080AB7EEC88A96ED064AFFF73B
:10236000FBFCB7EEC03A9DED090AFFF7F5FCB7EEAE
:10237000C02A9DED0A0AB7EEC44AFFF7EDFCB7EE9E
:10238000C00A2349022053EC142B8DED060B8DED72
:10239000042B8DED023B8DED008BFEF77FFEC8F820
:1023A000005002F099FC1B4A1368C31AB3F57A7FF8
:1023B0007FF6C6AE1060C21B1749022015B0BDECF7
:1023C000048BBDE8F043FEF769BE13609AE700BFD7
:1023D00000007A44BD378635CDCCCC3D4C3100244D
:1023E00000005C4200002042B31801089A99993E0F
:1023F000040000249A99D93FA82F0024000000006F
:10240000F7180108782F00243333333F742F00244A
:1024100018190108702F002443190108AC2F00245B
:10242000164A10B51378012B07D0022B0DD01BB91B
:10243000AA2801D10123137010BD55284FF00003C5
:10244000F9D1022111700E4AF5E70D4B1C78611C81
:10245000C9B2197015290B4B1855EDD90A4903F16A
:10246000140053F8044B834241F8044BF9D11B8804
:102470000B800121054B19700023DCE7F7320024A3
:10248000E0320024E1320024C9320024C8320024A2
:1024900008B501F08BF8431E02460333BDE808403F
:1024A0009DBF20F07F4203490220034988BF0020DE
:1024B000FEF7F4BD551901087319010830B5374806
:1024C00095B0374C0125FEF7E3FD36490220FEF7B3
:1024D000E5FDFEF723FC2570FEF7C2FEFEF764FF64
:1024E000FEF7F0FA9FED300A05A90020FEF74EFB3B
:1024F0009DED077A2D490220B7EEC77A8DED027B5C
:102500009DED067AB7EEC77A8DED007BDDED057A9D
:10251000B7EEE77A53EC172BFEF7C0FDB7EE000AD3
:1025200005A90020FEF732FB9DED077A2049022025
:10253000B7EEC77A8DED027B9DED067AB7EEC77ACE
:102540008DED007BDDED057AB7EEE77A53EC172BC6
:10255000FEF7A4FD17490220FEF7A0FD01F0C6F921
:10256000657001F05BF888B91349FEF797FD6420A8
:1025700002F0B8FB11490220FEF790FD01F0AEFD1C
:102580000F490220FEF78AFD15B030BD0D4902202B
:10259000FEF784FDFFF77CFFE9E700BFC061002480
:1025A0004C3100249619010800000000CB190108E5
:1025B000011A0108371A01085A1A0108971A010866
:1025C000B51A01087D1A010808B502F085FB074A13
:1025D0001368C31AB3F57A7F06D3054B0021106048
:1025E000D9600021034B196008BD00BF7C31002475
:1025F0004C3100247031002408B502F06DFB014B12
:10260000986008BD4C31002408B5FFF7F5FFBDE820
:102610000840FFF7D9BF000008B527490220FEF7A0
:102620003DFD26490220FEF739FD25490220FEF72F
:1026300035FD24490220FEF731FD23490220FEF733
:102640002DFD22490220FEF729FD21490220FEF737
:1026500025FD20490220FEF721FD1F490220FEF73B
:102660001DFD1E490220FEF719FD1D490220FEF73F
:1026700015FD1C490220FEF711FD1B490220FEF743
:102680000DFD1A490220FEF709FD19490220FEF747
:1026900005FD18490220FEF701FD17490220FEF74B
:1026A000FDFC16490220FEF7F9FC15490220BDE8A1
:1026B0000840FEF7F3BC00BFD71A0108ED1A010865
:1026C000051B0108231B0108451B01088B1B010882
:1026D000B71B0108E51B01082A1C01084E1C010854
:1026E000741C01089E1C0108D21C01080A1D010867
:1026F0003E1D01088D1D0108C11D0108041E0108B1
:10270000291E01080A2304220149024808F0D5B90C
:102710004A1E0108C06100241FB5284C0220284928
:10272000FEF7BCFCA26827490220FEF7B7FCD4EDF7
:10273000037A25490220B7EEE77A53EC172BFEF710
:10274000ADFC227821490220FEF7A8FC62782049DE
:102750000220FEF7A3FCE2781E490220FEF79EFC51
:10276000A2781D490220FEF799FC22791B4902201C
:10277000FEF794FC94ED067AD4ED046A0220B7EEDD
:10278000C77A17498DED027B94ED057A154CB7EEAB
:10279000C77A8DED007BB7EEE67A53EC172BFEF788
:1027A0007DFC20464FF4807101F07CFC22460E49EE
:1027B000022004B0BDE81040FEF770BC4C3100248C
:1027C0004F1E0108601E0108711E0108851E0108C8
:1027D000991E0108AF1E0108C61E0108DE1E010871
:1027E000F61E0108C83100240A1701083C4B2DE9E8
:1027F000F0411B78A6B0002B6AD002F06DFA39497F
:1028000003460A68821A38480068824260D30B6027
:1028100006A8364A80210BF06DFD354D0446002692
:10282000344FDFF8D88006ABC4F18001181995F851
:102830005130002B4FD0D5ED107A424695ED0B7AF2
:1028400037EE277AB7EEC77A8DED047BD5ED0F7A98
:1028500095ED0A7A37EE277AB7EEC77A8DED027BCF
:10286000D5ED0E7A95ED097A37EE277AB7EEC77A6D
:102870008DED007B0BF03EFD01360444C035052E86
:10288000D1D11D4BC4F180011C4A93ED067AB7EEFD
:10289000C77A8DED047B93ED057AB7EEC77A8DED9F
:1028A000027B93ED047A06ABB7EEC77A18198DED6B
:1028B000007B0BF01FFD124906A80BF0FBFD06A8DC
:1028C000FDF76EFD0A2382B206A90E4808F0F5F85E
:1028D00026B0BDE8F0813A460BF00CFDCCE700BF16
:1028E0006C31002478310024B40000241E1F01083C
:1028F00080580024321F01084C310024221F010897
:102900005D250108C061002473B50A460D460446E2
:1029100031490220FEF7C2FB42F2D842954207D06D
:102920002B462E49002002B0BDE87040FEF7B6BB32
:10293000D4E900232A490220FEF7B0FB2268294B84
:102940009A4206D02849002002B0BDE87040FEF748
:10295000A5BB6368012B01D02449F4E7D4E9022325
:1029600021690C2A03D1052B01D10D2906D0009134
:1029700000201F49FEF792FB02B070BD4FF4803576
:102980001C4E1D490220FEF789FB284600F04CFE34
:102990002A4605F5805531460220FEF77FFBB5F546
:1029A000983FF2D115490220FEF778FB214642F20A
:1029B000D8424FF4803000F08BFE4FF48032104943
:1029C0000220FEF76BFB642304220E490E4802B07E
:1029D000BDE8704008F071B8391F0108521F0108A6
:1029E0007C1F0108BEBAFECA9D1F0108B11F010865
:1029F000C31F010809200108F41F01082420010851
:102A00003E2001086A200108C06100241FB50C4B5C
:102A10001A788AB100220B481A70037963B14FF01B
:102A20007E53694610300093002301930293039371
:102A3000FFF7ECF9FFF772FB05B05DF804FB00BF90
:102A4000DF3200244C310024026838B5244B9A420E
:102A500045D1244A1378D3B1234C2449236809680B
:102A60008B420BD3002322481370FFF74DFF012246
:102A700020492148BDE8384008F08AB9581C206038
:102A800081421C4C25781A4CE554F0D8EAE71949E4
:102A90001A480A7803880D2A01D00A2A0AD113B1EC
:102AA000174B01221A700A2302221649124808F015
:102AB00004F8DCE7082A01D07F2A07D1002BD6D002
:102AC000013B0322104903800A23EFE73E2BCED8B7
:102AD0005C1C04800D48C2540A230122E6E738BD7D
:102AE00000440040D8570024FC320024F83200246F
:102AF0000033002484310024C06100248631002486
:102B00006D3100245C2501080F2101088831002463
:102B10000268044B9A4204D101220349034808F099
:102B200037B970470044004084310024C06100245C
:102B30000268034B9A4202D1024B01221A7070477D
:102B400000100040DF3200249E4A2DE9F0472DEDB1
:102B5000088B137886B0002B00F03A8300239A4E3E
:102B600013703188994A535499490B6801330B60AB
:102B7000144601322378093BDBB2172B04D8954960
:102B800021FA03F3D907F3D420460025FDF708FC0A
:102B900090492218A8B112F8013C093BDBB2172B6F
:102BA00003D821FA03F3DB0718D420468A490BF037
:102BB000A3FC044628B18949FDF792FB90B9FFF7C1
:102BC0002BFD00214022814831800BF06BFC06B0C8
:102BD000BDEC088BBDE8F047FFF794BD013802F863
:102BE000015DD7E77E492046FDF77AFB10B9FFF774
:102BF00093FDE6E77B492046FDF772FB054648BB9F
:102C000075490BF079FC0446734928460BF074FCB7
:102C10000546ECB1E0B1204609F0A5FD0446284682
:102C200009F09EFD0B2C10D8B7EEC08BE0B2B0EED1
:102C3000480AFEF715F9B7EEC88A22466A498DEDB3
:102C4000008B0220FEF72AFABBE7684900201CE04F
:102C50006749FBE767492046FDF742FBC0B95E497B
:102C60000BF04AFC80B109F07BFDB7EEC08BB0EEF3
:102C7000480AFEF781F9B7EEC87A5F4953EC172B83
:102C80000220FEF70BFA9CE75C49FEF707FA98E78B
:102C90005B492046FDF724FB20B9FEF77FF959492F
:102CA0000220F2E758492046FDF71AFB60B94A496D
:102CB0000BF022FC08B95549E7E709F054FD072855
:102CC00040F21E815249C1E752492046FDF708FBF8
:102CD000054600285BD140490BF00EFC3E490446F6
:102CE00028460BF009FC3C49824628460BF004FCC0
:102CF0003949814628460BF0FFFB37498046284674
:102D00000BF0FAFB0746002C3FD0BAF1000F3CD085
:102D1000B9F1000F39D0B8F1000F36D0A8B3204672
:102D200009F021FD0446504609F01AFD4846B0EE70
:102D3000408B09F015FD4046B0EE409B09F010FDB8
:102D40003846B0EE40AB09F00EFD0B2C07463FF6BF
:102D50007CAF9FED31BAAC4204D0B0EE4B0AE8B282
:102D6000FEF77EF801350C2DF5D13946B7EECA1BBA
:102D7000F7EEC90BE0B2B7EEC80BFEF715F9224625
:102D800026490220FEF78AF91BE725495EE7254917
:102D90002046FDF7A5FA00284AD10F490BF0ACFBFD
:102DA00068B109F0DDFCB7EEC08BB0EE480AFEF763
:102DB000E3F8B7EEC87A1C4953EC172B60E71B49C0
:102DC00044E700BF6D31002486310024883100249F
:102DD0007431002413008000C52A01081321010862
:102DE000182101081D2401081F21010835210108AF
:102DF0004A210108662101086F2101088721010885
:102E0000A1210108AA210108C1210108C821010846
:102E1000DE210108F521010800000000FF21010862
:102E200019220108552201085E22010876220108B4
:102E3000A7492046FDF754FA054680BBA549002066
:102E40000BF05AFB0446A34900200BF055FB074644
:102E50001CB310B300222046DFED9F8A11460AF012
:102E600043FB04463846012709F07AFCB7EEC08BD5
:102E700007FA05F3E8B20135234214BFB0EE480A61
:102E8000B0EE680AFDF7ECFF0C2DF1D1B7EEC88A61
:102E9000224692498DED008BD3E69149D6E69149C1
:102EA0002046FDF71DFA18B9FEF794F88E49F7E6AB
:102EB0008E492046FDF714FA70B986490BF01CFBC9
:102EC00008B98B49E1E609F04EFC07283FF6FAAE57
:102ED000C0B200F0A1FF74E686492046FDF700FA73
:102EE00000283FF4DAAE84492046FDF7F9F958B9D5
:102EF00078490BF001FB00287FF4DFAE7F49C4E680
:102F0000C0B201F071F85CE67D492046FDF7E8F9B2
:102F10000546002854D16F490BF0EEFA6D4904467E
:102F200028460BF0E9FA6B49804628460BF0E4FA94
:102F30006849074628460BF0DFFA0546002C3FF4A7
:102F400040AEB8F1000F3FF43CAE002F3FF439AE75
:102F500000283FF436AE204609F005FC0446404602
:102F600009F0FEFB3846B0EE408B09F0F9FB28462D
:102F7000B0EE409B09F0F4FB022C3FF622AE614B11
:102F8000B7EEC88BB7EEC99B5F49B7EEC00B03EB3A
:102F90008402022082ED008AB7EEC88A82ED039A8D
:102FA000B7EEC99A82ED060AB7EEC00A22468DED49
:102FB000040B8DED029B8DED008BFEF76FF800E6A4
:102FC00052492046FDF78CF900283FF4FAAD5049EC
:102FD0002046FDF785F90546E0B93E490BF08CFA2D
:102FE00078B94C4C02204C49FEF758F894F851300F
:102FF00013B1E8B200F088FF0135C034052DF5D1DA
:10300000DFE509F0B0FB07283FF65CAEC0B200F088
:103010007BFFD6E541492046FDF762F910B901F082
:1030200057F8CEE53E492046FDF75AF910B901F0B0
:1030300055F8C6E53B492046FDF752F998B92549B0
:10304000394C0BF059FA40B109F08DFB40F2DE33F8
:10305000A0F10A029A4298BF20600122334B344902
:103060001A7022688DE633492046FDF739F918B900
:103070002E4B3149187013E630492046FDF730F9E0
:1030800010B9FEF7E1FD9CE52D492046FDF728F932
:1030900010B9FEF72DFE94E52A492046FDF720F9E8
:1030A000054600285CD142F2D84227490220FDF7AC
:1030B000F5FF0122254B42F2D84125481A70254BD5
:1030C0001D60254B19606423244907F0F6FC78E560
:1030D00090220108C52A0108000000009B22010877
:1030E000B3220108D6220108E0220108F4220108D7
:1030F000FD220108152301081F23010828230108C8
:1031000040230108040000244C230108692301081E
:1031100075230108805800247F230108A323010898
:10312000AC230108B5230108B40000246C3100244D
:10313000C2230108E9230108F52301080E24010830
:1031400009240108172401086F200108D85700241A
:10315000C0610024FC320024F8320024D02A010887
:103160001E492046FDF7BCF8054650BB1C490BF034
:10317000C3F91B49804628460BF0BEF9184907469B
:1031800028460BF0B9F90446B8F1000F17D0B7B1D3
:10319000A8B1404609F0E4FA3846B7EEC08B09F012
:1031A000DFFAF7EEC08B204609F0DAFAB7EEC01B63
:1031B000B0EE480AF0EE680AFEF7AEFD01E50949F7
:1031C00044E5094922460020FDF768FF074967E505
:1031D00006B0BDEC088BBDE8F08700BF22240108D3
:1031E000C52A01082D240108472401085F2401088D
:1031F0000449002008B5FDF751FF4FF4FA7001F0C3
:1032000071FDFAE78324010830B59DB04C220021FE
:1032100009A80BF047F92022002101A80BF042F980
:10322000022003F0EFFB00230093224BDA6A22F026
:103230000102DA62DB6A03F0010300931E4B9A6914
:1032400042F440429A619A6902F440420092009A24
:103250009A699404FCD54FF48033012102240C2098
:1032600040251494CDE909130423CDE91734002334
:10327000CDE9190309A81B93CDE91244CDE91554F2
:1032800003F06AFE08B1FFF7B3FF03233F22039068
:10329000214601A80695CDE901230823CDE904358F
:1032A0004FF48063CDE9073504F0A0F90028EAD196
:1032B0001DB030BD0004005800480258F0B587B07A
:1032C00000211022052402A80BF0ECF801F092FD79
:1032D0000123002202A8ADF8083048F21F73CDE99F
:1032E000032340F20113059301F0A2FD042001F035
:1032F0008FFD01F0B7FCFFF787FFFDF723FFFDF718
:10330000FDFE00F021FF01F045FA01F0B9FA01F0ED
:103310000BFB01F05FFB01F08FFB00F03BFA09F0C3
:1033200033F801F037F9564806F0E6F9FFF7C6F82A
:103330004FF4FA7001F0D6FC00F022FC0A2001F0F4
:10334000D1FC013CF8D101224E494F4807F020FD45
:1033500021464E4806F0C0FC04214C4806F0BCFC57
:1033600008214A4806F0B8FC0C21484806F0B4FC95
:103370002146474806F0B0FC0421454806F0ACFC65
:103380000821434806F0A8FC0C21414806F0A4FCA3
:103390002146404806F0A0FC04213E4806F09CFC73
:1033A00008213C4806F098FC0C213A4806F094FCB1
:1033B00022460121362001F0C9FC362001F0F8FC3C
:1033C000224602210B2001F0C1FC0B2001F0F0FC91
:1033D000224602210C2001F0B9FC0C2001F0E8FC8F
:1033E0002D4FFDF7DBFD2D4902202D4DFDF756FE3B
:1033F0002C4902202C4CFDF751FE2C490220FDF7F0
:103400004DFE08230C222A490220FDF747FE2949D8
:103410000220FDF743FEFFF7FFF80A2304222649A6
:10342000194807F04AFB01F057FC244B186001F0E3
:1034300053FC234B18600026FFF7E8FAFFF784FBE4
:10344000FFF7D4F9FFF7E0F8FDF7D0FD00F098FBA7
:103450003B78002BF0D02B683E700133632B2B6040
:10346000EAD92E60A28AB4F90C30B4F90E10B4F97E
:103470001000CDE9001013490220FDF70FFEDAE736
:10348000FC5F002484310024C0610024E06000243B
:103490009460002448600024C83200245C250108A0
:1034A00068310024AA240108C9320024D524010867
:1034B000FE240108322501084A1E0108803100243B
:1034C0007C3100245F25010800B58FB03422002133
:1034D00001A80AF0E7FF06234FF0FF326946009388
:1034E0004FF480730348069303F0E4FB0FB05DF8DC
:1034F00004FB00BFDC5700242DE9F04194B01546D1
:103500004FF4807804460E463822002106A80AF0BF
:10351000C9FF1822002168460AF0C4FF4FF08077E7
:10352000FFF7D2FF45454FF00203079428BF4546F9
:10353000002406934FF48063109506A91A4D4FF0AE
:10354000FF320B9428461394CDE90C834FF40053BB
:10355000CDE90E470993CDE9114403F0ABFB3146A9
:103560004FF0FF32284603F0E9FB012310224FF40D
:10357000800101932846009404940B941394CDE9A0
:1035800002230522CDE90F73CDE905124FF0FF3379
:103590006A4606A9CDE90C84CDE9114403F08AFC02
:1035A00014B0BDE8F08100BFDC57002400B591B035
:1035B0003422002103A80AF075FF00234FF0807029
:1035C0004FF0FF32ADF8043002A98DF806309F238A
:1035D00002934FF4807308930323CDE90B030E4845
:1035E00003F068FB20B14FF0FF3011B05DF804FB31
:1035F0004FF0FF3201A9084803F0FCFB0028F2D18C
:103600009DF805009DF80430000240EA03409DF853
:1036100006301843E9E700BFDC57002408B5FFF780
:10362000C5FF012008BD000030B59FB03822002141
:10363000044602A8234D0AF035FF6FF30B04FFF791
:1036400043FF20234FF4807C039402934FF4806364
:1036500000244FF0FF3202A91A4807940F94CDE9D5
:1036600008C34FF40053CDE90A440593CDE90D4456
:1036700003F020FB3422002111A80AF013FF0523D8
:103680004FF080704FF0FF3210934FF4807310A909
:103690008DF8074016930123CDE91903094803F07B
:1036A00009FB0028E6D14FF0FF320DF10701284653
:1036B00003F0A0FB0028DDD19DF80730DB07D9D44B
:1036C0001FB030BDDC5700240AB1FFF715BF7047AB
:1036D0002DE9F04722F0FF0805460F4614465FFA31
:1036E00082F980440646A1EB000A46450BD1B9F1A8
:1036F000000F12D024F0FF044A4639196019BDE8C2
:10370000F047FFF7E1BF0AEB060130464FF4807245
:1037100006F58076FFF7F0FEE7E7BDE8F0870000EA
:1037200070B58EB01446064630220D4602A8002120
:103730000AF0B8FE03234FF4807142F21072009336
:103740004FF4806310480196CDE906134FF40053FF
:10375000694603934FF08073CDE9093403F0AAFA68
:10376000044628B109490020FDF798FC0EB070BD51
:1037700042F210722946044803F03CFB0028F5D0C1
:1037800003492046F0E700BFDC5700247A250108F2
:103790009225010808B50B4808230B4A0121C0E90E
:1037A000002300231722C0E90213C0E90423C0E963
:1037B0000633036203F032FA18B1BDE80840FFF7A0
:1037C00017BD08BDDC57002400500052F0B514228C
:1037D000BBB0044600210DEB02000AF063FEC022DC
:1037E00000210AA80AF05EFE2268364B9A4267D191
:1037F0004FF0007200230AA8CDE90A2304F04EF925
:1038000008B1FFF7F5FC304B022500240926D3F858
:10381000D420042705A92D4842F48042C3F8D420BF
:10382000D3F8D42002F480420192019AD3F8E02028
:1038300042F01002C3F8E020D3F8E02002F01002BA
:103840000292029AD3F8E02042F00202C3F8E0208C
:10385000D3F8E02002F002020392039AD3F8E020AA
:1038600042F00802C3F8E020D3F8E030099603F0F4
:1038700008030493049BCDE90575CDE9074402F0E4
:1038800073FA05A912480996CDE90575CDE90744F3
:1038900002F06AFA4FF4605305A90E480996CDE983
:1038A0000535CDE9074402F05FFA402305A9084831
:1038B000CDE905350A23CDE90744099302F054FA0E
:1038C0003BB0F0BD005000520044025800100258B6
:1038D00000040258000C025801890022406802F0DE
:1038E00031BB01890122406802F02CBB2DE9F04F69
:1038F0004E4F4FF00009DFF83CB14FF000083C4656
:103900003D46DFF844A185B049490220FDF7C6FBDA
:1039100007230026C4F82480204684F853304FF053
:103920007E5384F851606364A364E364C023C4F8E5
:10393000288003FB095309F10109C4F82C80C4F85D
:103940003880C4F83C80C4F8408084F85060C4E9F2
:1039500000BAC4E9156683F86060FFF7C2FFB9F1E9
:10396000080F666604F1C004D2D10123A5F848927D
:10397000DFF8D88032202B810223DFF8D490A5F81D
:10398000C8300423A5F888311023A5F80833202374
:10399000A5F8C8334023A5F888348023A5F8483516
:1039A00001F0A0F9234DF0233846ADF808304FF66A
:1039B000FF73ADF80C30FFF78FFF642303AA02A951
:1039C00028460093022305F0FBF804463846FFF72B
:1039D00088FF24BB9DF80C309DF80D201340FF2B71
:1039E0001DD0012332464946022087F85130013666
:1039F000FDF754FB0A20C03701F074F9052ED2D12F
:103A000000230D4A0D49022013700D4A13700D4A10
:103A10001370324605B0BDE8F04FFDF73FBB002301
:103A200032464146012087F85130E0E780580024B3
:103A3000371A0108705F002435580024F725010863
:103A4000345800242C58002400080258DE250108B0
:103A5000AA25010802682DE9F8433F4B9A4279D123
:103A60003E4D2B78FF2B75D0DFF81091BFF34F8FB1
:103A70003B4BC3F85C92BFF34F8FBFF36F8F287837
:103A80004FF0C008374EC7B200EB400006EB801085
:103A9000FFF727FF2C78344A08FB0464DFED335A24
:103AA00008FB076694F8533094ED095A072B28BF9A
:103AB000072302EBC302B9F80330DBBAD2ED016A87
:103AC00092ED006A07EE103AB9F80530DBBAB8EEAD
:103AD000C77A07EE903AB9F8013027EE067AF8EE89
:103AE000E77ADBBA27EE257A67EEA67A06EE903AF9
:103AF000F8EEE66A67EEA57A66EE866A9FED1C6AC6
:103B000066EEA56AE5EE066AC4ED096AD4ED0A6AB6
:103B1000A6EE867A84ED0A7A94ED0B7AE7EE067AC1
:103B2000C4ED0B7A01F0D8F8636D124A013360637B
:103B30006365002386F86030137005222B7801330B
:103B4000B3FBF2F202EB82029B1A0B4ADBB2137058
:103B5000FF232B70BDE8F88300300140B80000243B
:103B600000ED00E080580024582B01089A99993EF6
:103B70003333333F35580024345800244058002450
:103B80002DE9F04FDFF88CA285B001F0A5F80646CC
:103B90009AF8004014BB904D3F27904EDFF84C82BE
:103BA00095F8513063B128463780FFF795FE0A2318
:103BB00002228A49404604F0E9FE2846FFF791FEBA
:103BC0000134C035052CEBD101F086F8844B186028
:103BD00001238AF8003005B0BDE8F08F804B1B68E8
:103BE000C31A022BF7D9DFF810827B4C98F800300B
:103BF0007C4D33B32B78C02707FB034393F8603029
:103C0000012B1ED02A7800202B78774907FB03432D
:103C100093F86030FDF742FA744805F07FFA28788F
:103C200000EB400004EB8010FFF75BFE2B780022D6
:103C300007FB034383F8602088F80020FF226C4BC9
:103C40001A7098F80030CBB92F7898F80030FFB28E
:103C500003F0FF0202928BB94FF0C00909FB07493C
:103C600099F85130002B71D12B7805220133B3FB29
:103C7000F2F202EB82029B1ADBB22B705D4A594DC5
:103C80001368F31AB3F5FA7F0AD95B4B022016606A
:103C90001B782A78594900929AF80020FDF7FEF91E
:103CA0002F78C0235FFA87F803FB074797F8603047
:103CB000012B23D17B6EF31A052B1FD92A78002004
:103CC0004F4908EB4808FDF7E9F9484805F026FA9E
:103CD00004EB8810FFF705FE0023474A87F86030A1
:103CE0001370FF22424B1A7005222B780133B3FB6D
:103CF000F2F202EB82029B1ADBB22B709AF80030D0
:103D0000002B3FF468AF364B1B68F61AC82E7FF6BF
:103D100062AF3C490120FDF7C1F90023364A8AF819
:103D200000301370FF2284F86030304884F820316E
:103D300084F8E03184F8A03284F860332B702C4B87
:103D40001A7005B0BDE8F04F05F0E8B907EB47037E
:103D5000DFF888B004EB831303934F23ABF80030F4
:103D6000BFF34F8F284BC3F868B2BFF34F8FBFF339
:103D70006F8F264ABFF34F8FC3F85C22BFF34F8F7C
:103D8000BFF36F8F0398FFF7A7FD594607231F4A1C
:103D90001648DFF85CB005F0BBF880B10398FFF778
:103DA000A0FD3A461A490298FDF778F9029B89F876
:103DB000603088F80030FF238BF8003054E701258D
:103DC00089F8605000F088FF88F80050C9F8640056
:103DD0008BF8007052E700BF805800246058002420
:103DE00030580024345800241F260108705F002436
:103DF000B8000024285800243558002487260108DC
:103E0000BA260108D526010800ED00E0405800243C
:103E1000662601082C5800240728034670B588B090
:103E200069D8364DC02404FB005494F85100002892
:103E30005FD003EB4303642605EB83153F2328463D
:103E4000ADF80830FFF748FD03AA02A902232C4869
:103E5000009604F0B5FE2846FFF743FD032000F06E
:103E600041FF4F23284604930023ADF814308DF80A
:103E70001630FFF731FD072306AA04A92048009653
:103E800004F09EFE2846FFF72CFDBDF81B3094F889
:103E90005320DBBA072A07EE103ABDF81D3028BFC1
:103EA0000722DBBAB8EEC77A07EE903A154B03EB60
:103EB000C203F8EEE77A93ED006AD3ED015ABDF83C
:103EC000193027EE067A67EEA57ADBBA84ED0A7A16
:103ED00006EE903AC4ED0B7AF8EEE66A66EE866A74
:103EE000C4ED096A00F0F8FE636D606301200133E0
:103EF000636508B070BD0020FBE700BF8058002458
:103F0000705F0024582B01080728F0B504462DEDFA
:103F1000048B85B059D82F4DC026224606FB00568B
:103F200096F8510038B92C4905B0BDEC048BBDE8BA
:103F3000F040FDF7B3B89FED298A142728490220E5
:103F4000F0EE488AFDF7AAF8B0EE489A2046FFF74F
:103F500063FF58B1D6ED097A39EE279AD6ED0A7A81
:103F600078EEA78AD6ED0B7A38EE278A322000F059
:103F7000B9FE013FEAD1F3EE047AC023F1EE688A7C
:103F80000122B1EE499A03FB0453B1EE488A154968
:103F900088EEA77A83F850200220C9EE275A88EECF
:103FA000276A83ED0F7AB7EEC77AC3ED0E5A83ED19
:103FB000106AB7EEC66A8DED007BB7EEE57A8DED3F
:103FC000026B53EC172BFDF769F805B0BDEC048BC1
:103FD000F0BD00BF80580024FB260108000000004F
:103FE000152701083027010810B52DED048B88B086
:103FF0000446FFF711FF60B1C022204B02FB0433DF
:1040000093F850204AB922461D490220FDF746F890
:10401000012008B0BDEC048B10BD93ED097AD3EDFF
:104020000E7A37EE278A93ED0A7AD3ED0F7A77EE80
:10403000278A93ED0B7AD3ED107A28EEA80A37EE93
:10404000279AA8EE080AA9EE090A0CF079FFB7EE44
:10405000E87AB7EEC00A2246B7EEC99A0949B7EE28
:10406000C88A02208DED060B8DED049B8DED027B41
:104070008DED008BFDF712F8CAE700BF80580024D1
:10408000552701088527010807289FBF044BC02238
:1040900002FB003393F8510088BF0020704700BF37
:1040A0008058002437B50022074C134694F851502D
:1040B00005B101330132C034052AF7D10092034A19
:1040C0000AF018F903B030BD80580024CC2701084D
:1040D00001490220FCF7E2BFE5270108014902205F
:1040E000FCF7DCBF11280108026838B5104B9A4272
:1040F0001DD1104C10492278D0F884300020FCF7F4
:10410000CDFF0E4D2378C0220D4802FB0353002241
:1041100083F860200B4B1A7005F000F8207800EB54
:10412000400005EB8010BDE83840FFF7DABB38BD32
:1041300000300140345800243F28010880580024F2
:10414000705F00243558002408B514484FF48003EC
:10415000134A4FF08061C0E9002300230722C0E921
:1041600002324FF00052C0E90433C0E90612C0E940
:104170000833C0E90A33C0E90D33C0E90F33C0E9A1
:104180001133C0E91333C0E9153304F05BFB18B1F8
:10419000BDE80840FFF72CB808BD00BF705F0024E1
:1041A00000300140F0B51422BBB0064600210DEBF3
:1041B00002000AF077F9C02200210AA80AF072F979
:1041C0003268574B9A4240F0A9804FF48052002346
:1041D0000AA8CDE90A2303F061FC08B1FFF708F84B
:1041E000504B002505240227D3F8F02005A94E489E
:1041F00042F48052C3F8F020D3F8F02002F4805249
:104200000192019AD3F8E02042F00102C3F8E020C5
:10421000D3F8E02002F001020292029AD3F8E020E3
:1042200042F00802C3F8E020D3F8E02002F00802D0
:104230000392039AD3F8E02042F00202C3F8E02090
:10424000D3F8E030099403F002030493049B202385
:10425000CDE90755CDE9053701F086FD802305A995
:1042600032480994CDE90537CDE9075501F07CFDC9
:1042700010232F4805A909942E4CCDE90537CDE927
:10428000075501F071FD2C482523C4E900034FF4C4
:1042900080632046C4E904354FF40033C4E9025575
:1042A000C4E90655C4E9083500F064FF08B1FEF71B
:1042B0009FFF224A2623F4674021A663204CC4E9CD
:1042C000002300234FF480622046C4E904234FF406
:1042D0000032C4E90213C4E90633C4E9082300F03C
:1042E00049FF08B1FEF784FF00222320B46711467E
:1042F000A66300F02BFD232000F05AFD00220221CE
:104300000B2000F023FD0B2000F052FD0C200022BA
:10431000022100F01BFD0C2000F04AFD3BB0F0BD77
:10432000003001400044025800000258000C0258BE
:1043300000040258F85E00241000024028000240E9
:10434000805E0024074B82B0D3F8F42042F00202D2
:10435000C3F8F420D3F8F43003F002030193019B77
:1043600002B0704700440258FEE7FEE7FEE7FEE7B2
:10437000FEE770477047704700F0A2BC014801F0AB
:1043800021BB00BFF85E0024014801F01BBB00BF49
:10439000805E0024014804F095BF00BF705F0024D8
:1043A000014805F061BD00BFC061002408B5074B9E
:1043B0001B68DA69920603D5586AC0B2FEF730F876
:1043C0000248BDE8084005F04FBD00BF2C61002445
:1043D000014805F0D3B900BFFC5F0024014801F09B
:1043E00071BF00BF4C6700240120704708B50AF078
:1043F00029F9162303604FF0FF3008BD08B50AF015
:1044000021F916230360FEE770B50D4614460E46EB
:10441000731B9C4201DC204670BDAFF3008006F8A0
:10442000010BF5E770B50D4614460E46731B9C4212
:1044300001DC204670BD16F8010BAFF30080F5E7F4
:104440004FF0FF3070474FF4005300204B6070472F
:1044500001207047002070470B4A0346116810B5D1
:1044600009B90A491160106809490A4C0344091B3B
:104470008B4206D90AF0E6F80C2303604FF0FF30B8
:1044800010BD1360FCE700BFF85F0024806D0024BE
:1044900000000824000400002E4AD2F8883043F4BB
:1044A0007003C2F888302C4A136803F00F03062B00
:1044B00005D8136823F00F0343F007031360274B5D
:1044C0001A6842F001021A6000221A61244A19682F
:1044D0000A4021491A600A68100705D50A6822F0C7
:1044E0000F0242F007020A6000221E499A61DA6157
:1044F0001A6299621C49D9621C4919635A6399630B
:10450000DA6319645A64196821F4802119601A6603
:10451000174B1B686FF30F03B3F1005F03D2154B0A
:104520000122C3F808210D4BD3F8D420D2040FD4B4
:10453000D3F8D42043F2D20142F48052C3F8D420FD
:104540000D4A1160D3F8D42022F48052C3F8D4204D
:10455000704700BF00ED00E0002000520044025808
:104560007FEDF6EA000202020000FF018002010175
:104570000010005C0080005100400052044BDA68DB
:1045800042F00202DA605A689204FCD5704700BF1C
:10459000004802581FB50F481F230F4A0024C0E9E6
:1045A000002340F2E73303948460C3608023CDE9A5
:1045B0000144836105F0D6F908B1FEF719FE01A99F
:1045C00004480194039405F089FB08B1FEF710FE3E
:1045D00004B010BDFC5F002400100040036884B0EC
:1045E000194A93420ED1194BD3F8F02042F0010240
:1045F000C3F8F020D3F8F03003F001030193019BDE
:1046000004B07047B3F1804F0DD1104BD3F8E820C0
:1046100042F00102C3F8E820D3F8E83003F00103C8
:104620000293029BECE70A4A9342E9D1074BD3F885
:10463000E82042F00202C3F8E820D3F8E83003F0A3
:1046400002030393039BDBE7000001400044025890
:10465000000400400F4B07B502689A4217D10E4B79
:1046600002213620D3F8E82042F01002C3F8E820F7
:104670000022D3F8E83003F010030193019B00F00F
:1046800065FB362003B05DF804EB00F091BB03B08E
:104690005DF804FB00100040004402581422002181
:1046A00010B58AB004460DEB020009F0FBFE23684A
:1046B000324A934219D1324B4FF4D4413148D3F8A6
:1046C000E02042F01002C3F8E020D3F8E03003F01D
:1046D00010030193019B0223CDE90513012305A9D2
:1046E000099301F041FB0AB010BDB3F1804F15D121
:1046F000234B05A92448D3F8E02042F00102C3F877
:10470000E0200F22D3F8E03003F001030293029B74
:104710000223CDE9052301230993E2E71B4A9342D3
:10472000E1D1174B022405A91748D3F8E02042F045
:104730000102C3F8E020D3F8E02002F00102039266
:10474000039AD3F8E02042F00202C3F8E020D3F845
:10475000E030099403F002030493049BC023CDE9E5
:10476000053401F001FB032305A909480994CDE9AB
:1047700005340023CDE90733B3E700BF0000014053
:104780000044025800100258000002580004004083
:104790000004025810B5002496B01C22214604A83B
:1047A0000394CDE9014409F07DFE2C2221460DEB56
:1047B000020009F077FE304840F28F132F4A8460E0
:1047C0004461C0E9002340F2E733C0E903348023A9
:1047D000836105F0F7F808B1FEF70AFD01A9264844
:1047E0000394CDE9014405F079FA08B1FEF700FD24
:1047F0000022602304A920480A92CDE90432CDE9C1
:104800000622CDE9082205F04DF908B1FEF7F0FCCB
:10481000042204A9184805F045F908B1FEF7E8FCA0
:10482000082204A9144805F03DF908B1FEF7E0FCA0
:104830000C2204A9104805F035F908B1FEF7D8FCA0
:1048400000234FF400520BA90B480F9312931593BA
:10485000CDE910234FF00072CDE90B33CDE90D33D4
:10486000CDE9132305F084FA08B1FEF7C1FC024834
:10487000FFF714FF16B010BDE060002400000140F7
:1048800010B500248AB01C22214603A80294CDE969
:10489000004409F007FE234840F28F134FF0804296
:1048A0008460C0E9002340F2E733C0E90334802389
:1048B000836105F087F808B1FEF79AFC694619484C
:1048C0000094029405F00AFA08B1FEF791FC002268
:1048D000602303A9134805920792CDE9033205F03E
:1048E000E1F808B1FEF784FC042203A90D4805F0A5
:1048F000D9F808B1FEF77CFC082203A9094805F0A5
:10490000D1F808B1FEF774FC0C2206480DEB020149
:1049100005F0C8F808B1FEF76BFC0248FFF7BEFED1
:104920000AB010BD9460002410B500248AB01C2287
:10493000214603A80294CDE9004409F0B3FD2348C1
:1049400040F28F13224A8460C0E9002340F2E7332B
:10495000C0E903348023836105F034F808B1FEF721
:1049600047FC694619480094029405F0B7F908B16C
:10497000FEF73EFC0022602303A91448059207922B
:10498000CDE9033205F08EF808B1FEF731FC0422C0
:1049900003A90E4805F086F808B1FEF729FC0822A5
:1049A00003A90A4805F07EF808B1FEF721FC0C22A5
:1049B00006480DEB020105F075F808B1FEF718FC8A
:1049C0000248FFF76BFE0AB010BD00BF486000242C
:1049D0000004004008B516484FF4E133154AC0E919
:1049E000002300230C22C0E902330361C0E9052340
:1049F000C0E90733C0E9093306F00FF908B1FEF743
:104A0000F7FB00210A4806F025FA08B1FEF7F0FB93
:104A10000021074806F03EFA08B1FEF7E9FB04481A
:104A200006F0FDF918B1BDE80840FEF7E1BB08BD8E
:104A3000C06100240044004008B516484FF4E1333B
:104A4000154AC0E9002300230C22C0E902330361A8
:104A5000C0E90523C0E90733C0E9093306F0DDF8F2
:104A600008B1FEF7C5FB00210A4806F0F3F908B1CA
:104A7000FEF7BEFB0021074806F00CFA08B1FEF76E
:104A8000B7FB044806F0CBF918B1BDE80840FEF7C3
:104A9000AFBB08BD2C6100240048004010B51422B3
:104AA000BAB0044600210DEB020009F0FBFCC02265
:104AB00000210AA809F0F6FC23683C4A934239D148
:104AC000022200230AA8CDE90A2302F0E7FF08B179
:104AD000FEF78EFB364B602100243648D3F8E820E1
:104AE00042F40032C3F8E820D3F8E82002F40032A0
:104AF0000192019AD3F8E02042F00802C3F8E020C6
:104B0000D3F8E03003F008030293029B0223CDE9BF
:104B10000513072305A90993CDE9074401F024F9FA
:104B200026202246214600F011F9262000F040F907
:104B30003AB010BD204A9342FAD1022200230AA8BB
:104B4000CDE90A2302F0AAFF08B1FEF751FB184B8A
:104B5000002405A91948D3F8E82042F48022C3F8BC
:104B6000E820D3F8E82002F480220392039AD3F8D5
:104B7000E02042F00202C3F8E0204FF44062D3F894
:104B8000E03003F002030493049B0223CDE90523E4
:104B90000723CDE90744099301F0E6F827202246D0
:104BA000214600F0D3F82720C0E700BF00440040B2
:104BB00000440258000C025800480040000402580B
:104BC000DFF838D0FFF7DAFCFFF766FC0C480D4938
:104BD0000D4A002302E0D458C4500433C4188C4258
:104BE000F9D30A4A0A4C002301E013600432A242BE
:104BF000FBD309F02DFDFEF761FB70470000082490
:104C000000000024A8030024E8310108C0030024A8
:104C10007C6D0024FEE7000038B50F4B05461A787E
:104C20000AB9012038BD4FF47A73B3FBF2F30B4A93
:104C30001068B0FBF3F000F0C9F804460028F0D18A
:104C40000F2DEED8024629464FF0FF3000F07EF8D7
:104C5000034B20461D60E5E7C4000024C00000248B
:104C6000C800002410B5032000F05EF802F01CFC20
:104C70000F49104A8B69C3F30323D35C03F01F036E
:104C8000D8408B6903F00F03D35C0B4A03F01F037A
:104C900020FA03F31360094B18600F20FFF7BCFFE5
:104CA000044618B9FFF74EFB204610BD0124FBE770
:104CB00000440258982B0108BC000024C0000024C6
:104CC000034A044B11681B780B441360704700BF04
:104CD00054620024C4000024014B1868704700BFD0
:104CE0005462002438B50446FFF7F6FF0546631CFE
:104CF0001EBF044B1B78E418FFF7EEFF431BA342D3
:104D0000FAD338BDC4000024014B1868000C70476A
:104D10000010005C034A536823EA00030B4353600E
:104D2000704700BF0004005807490302CA6803F433
:104D3000E06322F4E0621204120C134343F0BF63F9
:104D400043F40033CB60704700ED00E0164B30B504
:104D5000DC68C4F30224C4F10703251D042B28BF1B
:104D60000423062D4FF0FF358CBF033C002405FAC9
:104D700003F3002805FA04F521EA030322EA0502F9
:104D800003FA04F343EA02034FEA0313DBB206DB40
:104D900000F1604000F5614080F8003330BD00F064
:104DA0000F00024A1354F9E700ED00E014ED00E0B3
:104DB000002807DB0123410900F01F00024A83405D
:104DC00042F82130704700BF00E100E00138B0F147
:104DD000807F0BD24FF0E023054AF021586100207C
:104DE00082F82310072298611A61704701207047EA
:104DF00000ED00E0BFF35F8F044B5A6A22F480326B
:104E00005A620022C3F89420704700BF00ED00E012
:104E1000064B40F00100C3F894005A6A42F4803215
:104E20005A62BFF34F8FBFF36F8F704700ED00E002
:104E30004378144AC2F89830D2F8A03023F0010326
:104E4000C2F8A0304368C2F89C30C37A017B1B06CD
:104E500043EA017301780B43817A43EAC143417B02
:104E600043EA8143817B43EA4143C17B43EA0143F7
:104E7000417A43EA0123017A43EA4103C2F8A030B0
:104E8000704700BF00ED00E0F0B5DFF844C10468F2
:104E9000876D644545D04C4DAC4242D01835AC428C
:104EA0003FD01835AC423CD01835AC4239D018351B
:104EB000AC4236D01835AC4233D01835AC4230D085
:104EC00005F55675AC422CD01835AC4229D01835B2
:104ED000AC4226D01835AC4223D01835AC4220D095
:104EE0001835AC421DD01835AC421AD01835AC423A
:104EF00017D0364DAC4214D01435AC4211D0143515
:104F0000AC420ED01435AC420BD01435AC4208D0B4
:104F10001435AC4205D01435AC4202D01435AC4245
:104F200048D1D0E919566E60C56E15B1D0E91C564E
:104F30006E606445C56D86682DD0234884422AD0B2
:104F40001830844227D01830844224D0183084424C
:104F500021D0183084421ED0183084421BD0183023
:104F6000844218D000F55670844214D01830844220
:104F700011D0183084420ED0183084420BD0183033
:104F8000844208D01830844205D01830844202D0C0
:104F9000183084420FD13F2005F01F0500FA05F5B7
:104FA000BD60206820F480202060402E636008D11E
:104FB000A260E160F0BD05F01F050120A840786007
:104FC000F3E7A160E260F5E72800024008540258C8
:104FD000100002400368024623498B4210B531D0CD
:104FE00018318B422ED018318B422BD018318B4286
:104FF00028D018318B4225D018318B4222D018315D
:105000008B421FD018318B421CD001F556718B4258
:1050100018D018318B4215D018318B4212D018316C
:105020008B420FD018318B420CD018318B4209D0F3
:1050300018318B4206D018318B4203D023F0FF0089
:10504000906510BDDCB218210848103CB4FBF1F1AA
:1050500001F007015F2C415C23F47F7020F0030016
:10506000D16588BF0430EBE710000240A82B01088F
:1050700002682049D3B28A4228D014318A4225D00E
:1050800014318A4222D014318A421FD014318A420C
:105090001CD014318A4219D014318A4216D01431EE
:1050A0008A4213D01821103BB3FBF1F3124911448B
:1050B000A8291CD903F18052012103F01F0302F536
:1050C000024201FA03F30D4992000CE01422083B5E
:1050D0000121B3FBF2F303F1B05201FA03F30849E3
:1050E00002F5164292008366C0E918217047083322
:1050F000E0E700BF08540258F0FBFDBF8008024003
:10510000805802580279511E072910B521D803682A
:10511000134CA3421ED01434A3421BD01434A34218
:1051200018D01434A34215D01434A34212D014342E
:10513000A3420FD01434A3420CD01434A34209D09C
:10514000084B1344084A9B00C0E91B3201238B40E3
:10515000436710BD054B1344054A9B00F4E700BFAD
:10516000085402583F820010400902403F96001642
:1051700040590258F8B50446FFF7AEFD0646002C2C
:1051800000F0A98023686F4DAB4264D06E4A934211
:1051900061D0183293425ED0183293425BD01832FD
:1051A000934258D01832934255D01832934252D07D
:1051B000183293424FD002F5567293424BD01832B8
:1051C000934248D01832934245D01832934242D08D
:1051D000183293423FD0183293423CD01832934257
:1051E00039D01832934236D0584A934240F02F813A
:1051F000022284F83520002284F83420A26818683E
:10520000402A6FF3101000F04081A2F180014A4261
:105210004A419203D4E90316314366693143A669D2
:105220003143E6693143266A40EA161040EAD1016B
:1052300020460A431A60464A1A441423B2FBF3F28A
:105240009200E265FFF7C6FEE36D03F01F02012343
:105250009340436092E0022284F83520002284F8D3
:1052600034201A6822F001021A6022681368DB07F2
:1052700027D413683748A1691840D4E9023633436C
:105280002669334366693343E6690B433343266A31
:105290003343666A042E43EA000302BFD4E90B07D6
:1052A000384303432C4800686FF30F00B0F1005FF0
:1052B0001BD360682E2810D8282816D943F48013F1
:1052C00013E0FFF709FD801B0528CED92023636575
:1052D000032384F835300120F8BD3F38132804D863
:1052E0001E4F27FA00F0C707E8D41360042E536955
:1052F00023F0070343EA060336D1A06AE66A0343B4
:1053000096B339B9012815D030F002012CD1F00143
:105310002AD512E0B1F5005F22D1032824D801A1DB
:1053200051F820F03B5300080F5300083B5300088E
:1053300035530008B6F1C07F16D1402363650123C1
:10534000C7E700BF1000024028000240085402587E
:10535000F8ABFDA73F8010FE0010005C0F030F00AC
:105360000228EAD90328D2D053612046FFF732FE43
:10537000E36D03F01F023F23934083602368AB4239
:1053800045D0454A934242D0183293423FD018321A
:1053900093423CD01832934239D01832934236D0DF
:1053A0001832934233D01832934230D002F55672FD
:1053B00093422CD01832934229D01832934226D0EF
:1053C0001832934223D01832934220D0183293429D
:1053D0001DD0183293421AD01832934217D02F4A58
:1053E000934214D01432934211D0143293420ED00F
:1053F000143293420BD01432934208D014329342A9
:1054000005D01432934202D01432934219D120466F
:105410000025FFF72DFEA368226E802B04BF00231A
:1054200063606368D9B2013B1160072BD4E919218D
:1054300051602CD8FFF766FEE36E1D60D4E91C3284
:105440005A6000200123606584F8353044E7144A2F
:1054500093423FF4CDAE143293423FF4C9AE1432BE
:1054600093423FF4C5AE143293423FF4C1AE1432BE
:1054700093423FF4BDAE143293423FF4B9AE1432BE
:1054800093423FF4B5AE402321E71022C2E6C4E9BF
:105490001B556567D5E700BF280002400854025835
:1054A0001C54025870B50546002800F0DA8090F8C8
:1054B0003400012800F0D780012085F8340095F8E9
:1054C000350001284FF0000040F0C6800224674EEE
:1054D00085F835402C686865B4421ED06448844223
:1054E0001BD01830844218D01830844215D01830A0
:1054F000844212D0183084420FD0183084420CD02D
:105500001830844209D000F55670844205D0183016
:10551000844202D018308442FFD0206820F001007D
:1055200020602846FFF7B0FCB4422A6C53D0504BA1
:105530009C4250D018339C424DD018339C424AD0E4
:1055400018339C4247D018339C4244D018339C42B5
:1055500041D018339C423ED003F556739C423AD05A
:1055600018339C4237D018339C4234D018339C42B5
:1055700031D018339C422ED018339C422BD0183394
:105580009C4228D018339C4225D0236823F00E0378
:1055900043F00A032360002A54D1364B9C4225D0A5
:1055A000354B9C4222D014339C421FD014339C4272
:1055B0001CD014339C4219D014339C4216D014339F
:1055C0009C4213D014339C4210D02368002043F037
:1055D0000103236070BD236823F01E0343F016030C
:1055E00023601AB1236843F0080323602B6E1A6806
:1055F000D2032CD4EB6E1BB11A6842F480721A608D
:10560000B442E2D01A4B9C42DFD018339C42DCD02B
:1056100018339C42D9D018339C42D6D018339C42C0
:10562000D3D018339C42D0D018339C42CDD003F550
:1056300056739C42C9D018339C42C6D018339C4242
:10564000C3D0C2E7236843F004032360A5E71A68C8
:1056500042F480721A60CDE74FF4006385F834009D
:105660006B650120B6E70220B4E700BF10000240DE
:1056700028000240085402581C540258F8B5054648
:10568000FFF72AFB074645B195F83530022B06D0C7
:1056900080236B65002385F834300120F8BD2C6829
:1056A0007C4EB4425BD07C4B9C4258D018339C4219
:1056B00055D018339C4252D018339C424FD01833E7
:1056C0009C424CD018339C4249D018339C4246D05F
:1056D00003F556739C4242D018339C423FD0183396
:1056E0009C423CD018339C4239D018339C4236D06F
:1056F00018339C4233D018339C4230D018339C422C
:105700002DD0236823F00E032360644B9C422FD1DD
:105710002A6EB442136823F4807313603DD05E4B4D
:105720009C423AD018339C4237D018339C4234D034
:1057300018339C4231D018339C422ED018339C42EF
:105740002BD018339C4228D003F556739C4224D0AA
:1057500018339C4221D018339C421ED01DE0236890
:1057600023F01E032360636923F080036361CFE7A6
:105770004B4B9C42CCD014339C42C9D014339C4236
:10578000C6D014339C42C3D014339C42C0D01433CF
:105790009C42BDD014339C42BAD0236823F001034D
:1057A00023602368DB0747D42B68EA6DB342A86DFA
:1057B00002F01F024BD038498B4248D018318B423F
:1057C00045D018318B4242D018318B423FD018312E
:1057D0008B423CD018318B4239D018318B4236D0B5
:1057E00001F556718B4232D018318B422FD01831CF
:1057F0008B422CD018318B4229D018318B4226D0C5
:1058000018318B4223D018318B4220D018318B4273
:105810001DD0012101FA02F24260204A93421AD1BE
:10582000D5E919325A60EB6E5BBB0123002085F885
:10583000353085F8340031E7FFF74EFAC01B0528F4
:10584000AFD920236B65032385F8353022E73F234A
:1058500093408360E4E7124A9342E1D014329342CA
:10586000DED014329342DBD014329342D8D01432BB
:105870009342D5D014329342D2D014329342D4D131
:10588000CEE71A6822F480721A60D5E91C325A6099
:10589000CBE700BF10000240280002400854025825
:1058A0001C54025808B528B190F83530022B03D0AB
:1058B0008023436501205DE003683F4A934251D055
:1058C000183293424ED0183293424BD01832934242
:1058D00048D01832934245D01832934242D0183201
:1058E00093423FD0183293423CD002F55672934215
:1058F00038D01832934235D01832934232D0183211
:1059000093422FD0183293422CD01832934229D090
:105910001832934226D01832934223D01A6822F0CC
:105920000E021A601A6822F001021A60234A93429A
:1059300021D1026E136823F480731360D0E916132B
:1059400003F01F02012393404B60D0E919325A60E3
:10595000C36E2BB31A6822F480721A60D0E91C322D
:105960005A601DE0042280F835201A6822F00102F6
:105970001A60002008BD124A9342DAD014329342D2
:10598000D7D014329342D4D014329342D1D01432AF
:105990009342CED014329342CBD014329342C8D02B
:1059A000012380F83530002380F83430036D002B5C
:1059B000DFD09847DDE700BF1000024008540258CE
:1059C0001C54025800232DE9F34101930446844BF3
:1059D000844F1E680368856DBB42D5F80080D5F8FA
:1059E00000C047D0804A934244D01832934241D0FD
:1059F000183293423ED0183293423BD01832934231
:105A000038D01832934235D01832934232D002F552
:105A1000567293422ED0183293422BD018329342B2
:105A200028D01832934225D01832934222D018320F
:105A300093421FD0183293421CD01832934219D08F
:105A40006A4A934240F03681E16D04201A6801F001
:105A50001F01884010EA0C0F00F05381560740F1F7
:105A600050811104686040F14481D30300F1478103
:105A7000A36CA0E0E26D082102F01F02914011EA40
:105A8000080F0BD01868400708D5186820F00400EC
:105A90001860A960616D41F00101616528FA02F1A9
:105AA000C80709D55969090606D501219140A960A1
:105AB000616D41F0020161650421914011EA080F16
:105AC00007D01868800704D5A960616D41F0040112
:105AD0006165102101FA02F212EA080F0FD019686D
