:020000040800F2
:100000000000082461510008094900080B49000854
:100010000D4900080F4900081149000800000000C0
:10002000000000000000000000000000134900086C
:100030001549000800000000174900081949000888
:10004000B5510008B5510008B5510008B551000878
:10005000B5510008B5510008B5510008B551000868
:10006000B5510008B5510008B55100081D490008F8
:1000700029490008B5510008B5510008B5510008DC
:10008000B5510008B5510008B5510008B551000838
:10009000B5510008B5510008B5510008B551000828
:1000A000B5510008B5510008B5510008B551000818
:1000B000B5510008B5510008B5510008B551000808
:1000C000B5510008B5510008B55100083549000880
:1000D000B5510008B5510008414900084D490008D4
:1000E000B5510008B551000800000000B5510008E6
:1000F000B5510008B5510008B5510008B5510008C8
:10010000B5510008B5510008B5510008B5510008B7
:10011000B5510008B551000871490008B5510008F3
:10012000B5510008B5510008B5510008B551000897
:10013000B5510008B5510008B5510008B551000887
:1001400000000000000000000000000000000000AF
:10015000B5510008B5510008B5510008B551000867
:10016000B5510008B5510008B5510008B551000857
:10017000B5510008B5510008B5510008B551000847
:10018000B5510008B5510008B5510008B551000837
:10019000B5510008B5510008B5510008B551000827
:1001A000B5510008B5510008B5510008B551000817
:1001B000B5510008B5510008B5510008B551000807
:1001C000B5510008B5510008B5510008B5510008F7
:1001D000B55100087D490008B5510008B551000827
:1001E000B5510008B5510008B5510008B5510008D7
:1001F000B5510008B5510008B5510008B5510008C7
:10020000B5510008B5510008B5510008B5510008B6
:10021000B5510008B5510008B5510008B5510008A6
:10022000B5510008B5510008B551000800000000A4
:10023000B5510008B551000800000000B551000894
:10024000B5510008B5510008B5510008B551000876
:10025000B5510008B5510008B5510008B551000866
:10026000B5510008B5510008B5510008B551000856
:10027000B5510008B5510008B55100080000000054
:10028000B5510008B5510008B55100080000000044
:0802900000000000B551000858
:1002A00010B5054C237833B9044B13B10448AFF3B0
:1002B00000800123237010BDC00300240000000053
:1002C000501A010808B5034B1BB103490348AFF3AB
:1002D000008008BD00000000C4030024501A01087B
:1002E00010F8012B11F8013B012A28BF9A42F7D0E0
:1002F000D01A70470000000000000000000000005D
:1003000001F0FF01102A2BDB10F0070F08D010F8C6
:10031000013B013A8B422DD010F0070F42B3F6D1CA
:10032000F0B441EA012141EA014122F007047FF0E3
:1003300000070023F0E80256083C85EA010586EA3A
:10034000010685FA47F5A3FA87F586FA47F6A5FA76
:1003500087F68EB9EED1F0BC01F0FF0102F0070282
:1003600032B110F8013B013A83EA010313B1F8D12D
:100370000020704701387047002D06BF354603380E
:10038000073815F0010F07D1013015F4807F02BF47
:10039000013015F4C03F0130F0BC0138704700BF98
:1003A000034613F8012B002AFBD1181A01387047B5
:1003B00081F0004102E000BF83F0004330B54FEA16
:1003C00041044FEA430594EA050F08BF90EA020F83
:1003D0001FBF54EA000C55EA020C7FEA645C7FEA16
:1003E000655C00F0E2804FEA5454D4EB5555B8BF39
:1003F0006D420CDD2C4480EA020281EA030382EAAA
:10040000000083EA010180EA020281EA0303362D3B
:1004100088BF30BD11F0004F4FEA01314FF4801C0E
:100420004CEA113102D0404261EB410113F0004F20
:100430004FEA03334CEA133302D0524263EB4303D7
:1004400094EA050F00F0A780A4F10104D5F1200E75
:100450000DDB02FA0EFC22FA05F2801841F10001D0
:1004600003FA0EF2801843FA05F359410EE0A5F1A4
:1004700020050EF1200E012A03FA0EFC28BF4CF0D5
:10048000020C43FA05F3C01851EBE37101F000458B
:1004900007D54FF0000EDCF1000C7EEB00006EEB98
:1004A0000101B1F5801F1BD3B1F5001F0CD3490822
:1004B0005FEA30004FEA3C0C04F101044FEA445279
:1004C00012F5800F80F09A80BCF1004F08BF5FEA00
:1004D000500C50F1000041EB045141EA050130BDE0
:1004E0005FEA4C0C404141EB0101013C28BFB1F5F2
:1004F000801FE9D291F0000F04BF01460020B1FA3D
:1005000081F308BF2033A3F10B03B3F120020CDA0F
:100510000C3208DD02F1140CC2F10C0201FA0CF0ED
:1005200021FA02F10CE002F11402D8BFC2F1200C52
:1005300001FA02F120FA0CFCDCBF41EA0C01904008
:10054000E41AA2BF01EB0451294330BD6FEA040451
:100550001F3C1CDA0C340EDC04F11404C4F120023C
:1005600020FA04F001FA02F340EA030021FA04F34E
:1005700045EA030130BDC4F10C04C4F1200220FAA5
:1005800002F001FA04F340EA0300294630BD21FAE3
:1005900004F0294630BD94F0000F83F4801306BFA9
:1005A00081F480110134013D4EE77FEA645C18BF9D
:1005B0007FEA655C29D094EA050F08BF90EA020F34
:1005C00005D054EA000C04BF1946104630BD91EA2C
:1005D000030F1EBF0021002030BD5FEA545C05D12F
:1005E0004000494128BF41F0004130BD14F580046E
:1005F0003CBF01F5801130BD01F0004545F0FE41E2
:1006000041F470014FF0000030BD7FEA645C1ABF16
:10061000194610467FEA655C1CBF0B46024650EA4D
:10062000013406BF52EA033591EA030F41F4002179
:1006300030BD00BF90F0000F04BF0021704730B5FF
:100640004FF4806404F132044FF000054FF00001D4
:1006500050E700BF90F0000F04BF0021704730B595
:100660004FF4806404F1320410F0004548BF40426A
:100670004FF000013EE700BF42004FEAE2014FEABF
:1006800031014FEA02701FBF12F07F4393F07F4F9A
:1006900081F06051704732F07F4208BF704793F09D
:1006A0007F4F04BF41F40021704730B54FF46074B0
:1006B00001F0004521F000411CE700BF50EA0102B3
:1006C00008BF704730B54FF000050AE050EA01025C
:1006D00008BF704730B511F0004502D5404261EBCC
:1006E00041014FF4806404F132045FEA915C3FF40D
:1006F000D8AE4FF003025FEADC0C18BF03325FEAAA
:10070000DC0C18BF033202EBDC02C2F1200300FA5A
:1007100003FC20FA02F001FA03FE40EA0E0021FA7F
:1007200002F11444BDE600BF53B94AB9002908BF1D
:1007300000281CBF4FF0FF314FF0FF3000F0C0B970
:10074000ADF1080C6DE904CE00F03EF8DDF804E0F0
:10075000DDE9022304B0704708B502460B4643ECBE
:10076000172BB5EEC07BF1EE10FA03D4BDE80840BC
:1007700000F00AB8B1EE477B51EC170B00F004F81B
:10078000404261EB410108BD9FED0B6B41EC170B43
:100790009FED0B5B27EE066BBCEEC66BB8EE464BCF
:1007A000A4EE457BFCEEC77B16EE101A17EE900AFE
:1007B000704700BFAFF30080000000000000F03D74
:1007C000000000000000F0412DE9F047089D8E4632
:1007D00004468846002B4AD18A42174662D9B2FAAB
:1007E00082F64EB1C6F1200301FA06F820FA03F3AF
:1007F000B74043EA0808B4404FEA174E1FFA87FC97
:10080000B8FBFEF1230C0EFB118843EA084301FB01
:100810000CF29A4209D9FB1801F1FF3080F0EA800E
:100820009A4240F2E78002393B449A1AA3B2B2FBE3
:10083000FEF00EFB102243EA024300FB0CFC9C4539
:1008400009D9FB1800F1FF3280F0D6809C4540F2B8
:10085000D3803B44023840EA0140A3EB0C03002163
:100860001DB1F3400022C5E90032BDE8F0878B429C
:1008700005D90DB1C5E9000100210846F5E7B3FA35
:1008800083F1002946D1734502D3824200F20581EB
:10089000841A6EEB030201209046002DE5D0C5E9D5
:1008A0000048E2E7002A00F09080B2FA82F6002EBB
:1008B00040F0A4808A1A030C4FEA174E80B2BCB2F3
:1008C0000121B2FBFEFC0EFB1C2243EA024304FBA7
:1008D0000CF29A4207D9FB180CF1FF3802D29A4267
:1008E00000F2E080C4469B1AB3FBFEF20EFB12330B
:1008F00040EA034302FB04F49C4207D9FB1802F1CF
:10090000FF3002D29C4200F2CA8002461B1B42EA20
:100910000C40A5E7C1F120068B4022FA06F71F43E1
:100920000EFA01F420FA06F32EFA06FE4FEA1749F2
:10093000234300FA01F81FFA87FCBEFBF9F01C0CF8
:1009400009FB10EE44EA0E4400FB0CFEA64502FA39
:1009500001F209D93C1900F1FF3A80F09C80A645CC
:1009600040F2998002383C44A4EB0E041FFA83FE47
:10097000B4FBF9F309FB13444EEA044403FB0CFCFB
:10098000A44508D93C1903F1FF3E80F08280A445BC
:100990007FD9023B3C4443EA0040A4EB0C04A0FB9B
:1009A00002EC64457346E14662D35FD05DB1B8EBBB
:1009B000030264EB090404FA06F622FA01F31E436B
:1009C000CC40C5E9006400214FE7B1FBF2FC010C0B
:1009D00041EA0E4180B240EA01423B4638463C467D
:1009E000B846BE462026B1FBF7F1A2EB080241EA69
:1009F0000C4166E7014618E710462CE7C6F12002D5
:100A00002EFA02F3B740B14020FA02F24FEA174E35
:100A10000A43B3FBFEF8BCB20EFB1833110C41EADB
:100A2000034108FB04F9B04089454FEA104380B206
:100A30003ED9791808F1FF3C01D289451FD8A1EBB6
:100A40000901B1FBFEF909FB04F80EFB191192B282
:100A500042EA0142424529D2BA1809F1FF31C4D213
:100A60004245C2D2A9F102013A44BEE7F0459DD207
:100A7000BEEB02036CEB070C0138E14696E7A7EBEF
:100A800009094944A8F1020CB1FBFEF909FB04F87D
:100A9000DBE773467FE7504666E70846FDE63B44E2
:100AA000023A33E7ACF1020C3B441CE749469CE7B1
:100AB000A1EB0901C446B1FBFEF909FB04F8C4E748
:100AC000704700BFF0B587B014224FF4803001A901
:100AD00002F022FE244B019A9A4202D1029B012B82
:100AE00005D02249002000F0D9FA07B0F0BD039BE1
:100AF0000C2B05D1049B052B02D1059B0D2B01D09E
:100B00001B49EFE71B4942F2D8424FF480301A4CA0
:100B100002F002FE174900250E4622460B46002031
:100B20009F6C01300C330C3242F80C7C05281F6C92
:100B300042F8087C5F6C42F8047CF1D1013501F584
:100B400043713C340C2DE8D101240C4B0C4902209C
:100B50001C7000F0A3FA0B4B0220B2681C700A490B
:100B6000336900F09BFAC0E7BEBAFECA841A0108D6
:100B7000B31A0108B4060024E0030024DC030024B7
:100B8000D51A0108B0060024F41A01085F4B2DE9BC
:100B9000F0411B7863B901F13C0200230B600C317A
:100BA00041F8083C41F8043C8A42F7D1BDE8F081A5
:100BB000574B002293ED057A03F11805D3ED117A16
:100BC000B4EE407AF1EE10FA37FE000AB4EE670A8E
:100BD000F1EE10FA37FE800AF5EC016A1446013294
:100BE000F4EEC06AF1EE10FA40D4B4EEC70A4FF446
:100BF0004375F1EE10FA3DD805FB00330A4601F1CA
:100C00003C049D6C0C320C3342F80C5C1D6C42F8B9
:100C1000085C5D6C42F8045CA242F2D13D4B1B784B
:100C2000002BC3D0C0EB00133B4800EB830001F165
:100C30003C0390ED007A0C3151ED037A0C3077EEE5
:100C4000C77A41ED037A51ED027A10ED027A77EE20
:100C5000C77A41ED027A51ED017A10ED017A77EE13
:100C6000C77A41ED017A9942E3D19FE70C2AB3D1CB
:100C70001446BAE7B4EEE70AF1EE10FA15DB05FB0D
:100C800000330A4601F13C04D3F818530C320C33FC
:100C900042F80C5CD3F8105342F8085CD3F81453B4
:100CA00042F8045CA242EFD1B8E703EB840205FBF3
:100CB000003301F10C0892ED057AD2ED067A3C2260
:100CC00030EE470A77EEC77A04FB02220024A2F135
:100CD0003C0C5242C0EE276A634484331E196518E7
:100CE00008EB040E06EB0C07B6EC017A1744D7EDBF
:100CF000007A37EE677AE7EE267AE5EC017A7545F9
:100D0000F0D10C343C2CE9D188E700BFB0060024B8
:100D1000B4060024DC030024E00300242DE9F0479E
:100D2000484D00264FF0000ADFF82C8137462C464C
:100D3000DFF828910021444B202205F12D00EB61C2
:100D4000C5F810A0C5F814A0A961A96285F82C10F7
:100D5000C5E908110DF0B6FD7B1E0A2B07D8DFE8A8
:100D600003F00C121A2C353C434C565E6600374B90
:100D7000A3600123A381334614E0344BA36502230F
:100D8000A4F85C30F7E7324BC4F8A8304FF40053B6
:100D9000A4F8AC30EFE72D4BC4F8F8300823A4F8E2
:100DA000FC300C232B4A013704360C2FC5E90023F5
:100DB00005F15005BED1BDE8F087244BC4F8483199
:100DC0001023A4F84C31A6F1100314E01F4BC4F813
:100DD00098312023A4F89C31F5E71C4BC4F8E83186
:100DE0004023A4F8EC31EEE7184BC4F838328023E6
:100DF000A4F83C320C234A46D5E7144BC4F8883299
:100E00004FF48073A4F88C32A6F1200317E00F4B47
:100E1000C4F8D8324FF48063A4F8DC32F4E70B4B0B
:100E2000C4F828334FF48053A4F82C33ECE7074B75
:100E3000C4F878334FF40043A4F87C330C234246C3
:100E4000B1E700BFAC2B00240000C84100100258DD
:100E500000080258A06000240860002454600024A8
:100E60000B2838B505462DED028BB0EE408A70D8C0
:100E70003E4C502303FB004393F82C30002B68D1E9
:100E8000F7EE007AB4EEE70AF1EE10FA29DCFFEE95
:100E9000007AB4EEE70AF1EE10FA25D4B5EEC00AF6
:100EA000F1EE10FA22DB5023002203FB054399895F
:100EB000986805F017FB5022DFED2D7A6A4368EE43
:100EC000277AA118A258FCEEE77A49681268082927
:100ED00017EE903A43D014D8D1B104293CD0D36551
:100EE00018E0B0EE678ADEE7B0EE678A5023012291
:100EF000B1EE488A03FB05439989986805F0F2FA38
:100F0000D9E70C292ED01029E9D1C2ED167A01E0DB
:100F1000C2ED0D7AB5EEC08A502303FB0544F1EE15
:100F200010FA84ED058AB4BFF1EE487AF0EE487A03
:100F3000B0EEC88AC4ED047A04F09EF9DFED0D7AB4
:100F4000A061B4EEE78AF1EE10FAC2BFA36A0133E2
:100F5000A362BDEC028B38BDC2ED0E7ADAE7C2EDBA
:100F60000F7AD7E7C2ED107AD4E700BFAC2B00248C
:100F700000C079440AD7233C10B52DED028BB0EEAA
:100F8000408A0024E0B20134B0EE480AFFF768FF5F
:100F90000C2CF7D1BDEC028B10BD00009FED010AB7
:100FA000FFF7EABF000000000B2810B50FD8084C6F
:100FB00001232070237584ED010AC4ED020A84ED3B
:100FC000031A216104F058F90023A061E36110BD08
:100FD0008C2B0024034B00229FED030A18781A750E
:100FE000FFF73EBF8C2B00240000000038B51A4CE0
:100FF000237D7BB304F040F9A369C51A2369B5FBCF
:10100000F3F5E369AB4225D294ED037A07EE905AEB
:1010100094ED010AB5EEC07AF8EE677AF1EE10FAB7
:10102000A7EE270A0ADDD4ED027AF4EEC07AF1EEDB
:1010300010FA0BDABDE83840FFF7CCBFFAD5D4ED93
:10104000027AF4EEC07AF1EE10FAF3D82078FFF7C6
:1010500007FFE56138BD00BF8C2B00240B2810B5BD
:101060000ED85023084C03FB0044A189A06805F06A
:1010700033FA012894ED040A01D1B1EE400A10BD03
:101080009FED020AFBE700BFAC2B0024000000002C
:10109000014B1860704700BF6C2F002402280EB46B
:1010A00030B5ADF50E7D1ED8124C2368DBB103AD13
:1010B00092AB919A4FF48071284602930DF0F4FBA5
:1010C00004F0DAF80C4A03464FF4967143A80095F1
:1010D0000DF020FB43A8FFF763F9642382B243A914
:1010E000206809F0FCFE0DF50E7DBDE8304003B030
:1010F000704700BF6C2F0024241B0108104B07B55C
:10110000D3F8D8200B2042F00102C3F8D8200022E7
:10111000D3F8D830114603F001030193019B04F08A
:10112000E5F80B2004F014F900220C20114604F01D
:10113000DDF80C2003B05DF804EB04F009B900BF42
:1011400000440258F0B58DB014220021404F07A88A
:10115000404D0DF0B7FB404B384649F2FB51D3F8F8
:10116000E0200024012642F01002C3F8E020D3F86A
:10117000E02002F010020192019AD3F8E02042F040
:101180000402C3F8E020D3F8E02002F00402029247
:10119000029AD3F8E02042F08002C3F8E020D3F8AE
:1011A000E02002F080020392039AD3F8E02042F09C
:1011B0000102C3F8E020D3F8E02002F0010204921B
:1011C000049AD3F8E02042F00202C3F8E020D3F8FA
:1011D000E02002F002020592059AD3F8E02042F0E6
:1011E0000802C3F8E0200022D3F8E03003F008033F
:1011F0000693069B05F076F9284600224FF400512D
:1012000005F070F901222846FF2105F06BF949F23B
:10121000FB5307A93846CDE90736CDE9094405F067
:1012200073F842F2FF0307A92846CDE90736CDE956
:10123000094405F069F821464FF0806004F03AF85F
:1012400021464FF0006004F035F80DB0F0BD00BF4E
:101250000010025800080258004402580000000024
:1012600070B5494C00262DED088B9FED43AB25460C
:10127000DFED469A9FED46BA07EE906AB3EE099A03
:1012800001362035B8EEE70B20EE0A0BB7EEC08B27
:10129000B0EE480A10F0ECFA60EE098AB0EE480AA7
:1012A00045ED088A10F020FA20EE098A394B28EE25
:1012B000080A05ED078A45F8183CB1EE488AA8EE01
:1012C000A80AF1EE688A30EE290A10F049F8C8EE53
:1012D000807A042E45ED057AC8EE007A45ED047A51
:1012E000CBEE007A45ED037AC6D10025DFED2A9AD0
:1012F0009FED2ABA9FED22AB07EE905A01352034BC
:10130000B8EEE70B20EE0A0BB7EEC08BB0EE480A42
:1013100010F0AEFA60EE298AB0EE480AC4ED188AE1
:1013200010F0E2F920EE298A1D4B28EE080A84ED20
:10133000198AA366B1EE488AA8EEA80AF1EE688A77
:1013400030EE0B0A10F00CF8C8EE807A082DC4EDD0
:101350001B7AC8EE007AC4ED1C7AC9EE007AC4ED9F
:101360001D7AC9D10F490220BDEC088BBDE8704041
:10137000FFF794BEAFF30080182D4454FB21F93FD2
:10138000182D4454FB21E93FC82F002400001045CC
:10139000000040420000E0400000344200401C4495
:1013A0000000F0412F1B0108F0B50023224C00265D
:1013B000224F2DED068B85B0E36023614FF0804313
:1013C0006D46DFED1F8A63611E4B9FED17AB9FEDEE
:1013D000189B0FCB85E80F00B5EC017A0136C034BD
:1013E000B7EEC77A27EE0A7B87EE090BB7EEC08B04
:1013F000B0EE480A10F03CFA20EE280A84ED030A09
:10140000B0EE480A10F070F920EE280A042E676149
:1014100084ED040AE0D10C49022005B0BDEC068B36
:10142000BDE8F040FFF73ABE182D4454FB210940B7
:101430000000000000806640405800240000704119
:1014400000000C42681A0108531B0108000000004C
:1014500030B52DED088BB0EE40BA91B072B69C4B12
:101460000AAA03F110051868083353F8041C14463F
:10147000AB4203C42246F6D1186820609B88A38043
:10148000BDF92E3008EE103ABDF9303006EE103AB4
:10149000BDF9323007EE103ABDF934300AEE903A19
:1014A000BDF936300AEE103ABDF9383009EE903AFF
:1014B00062B6B8EEC88ADFED87BAB8EEC66A864C67
:1014C000B8EEC77A28EE2B8A26EE2B6A27EE2B7A07
:1014D000B7EEC88AB7EEC66AB7EEC77AF8EEEAAAE0
:1014E000B8EECAAAF8EEE99A6AEEABAA2AEE2BAADF
:1014F00069EEAB9A9FED745B28EE058B26EE056BCB
:1015000027EE057BB7EEC88BF7EEC68BB7EEC79B11
:1015100003F0B2FE2368C01A41F28833984212D910
:1015200003F0AAFEB7EEE97A206002206B498DED48
:10153000027BB7EECA7A8DED007BB7EEEA7A53EC08
:10154000172BFFF7ABFD664B04A8664A0021D3EDCD
:101550000F7A92ED047A93ED2A6A77EEC77A92EDCC
:10156000057AD3ED2B6AB1EE465ACDED047AF1EE51
:10157000665AD3ED107A77EEC77A92ED067A1A465C
:10158000CDED057AD3ED117A77EEC77ACDED067AF7
:10159000B3EC017AF0EC014AD3ED087A27EE247A15
:1015A00093ED024AE4EE8B7AF4EE467AF1EE10FA0D
:1015B00076FE277AB4EE675AF1EE10FAB4EEEBBA83
:1015C00075FE277AA4EE277AF1EE10FAC3ED087AB9
:1015D00083ED117A0DDDD3ED0B7AC3ED0B4A74EE7A
:1015E000E77A87EE8B4AD3ED057AA7EE847A83ED0E
:1015F000117AD3ED117A0131F4EE667AF1EE10FA38
:1016000076FEA77AF4EE675AF1EE10FA75FEA77A25
:101610000329C3ED117ABBD1D2ED247A07A9324B4D
:1016200077EEEA7ACDED077AD2ED257A77EECA7AAF
:10163000CDED087AD2ED267A002277EEE97ACDED6B
:10164000097AF3EC017AF1EC014A93ED087A67EE3E
:10165000A47A93ED024AA4EE8B7AB4EE476AF1EED7
:1016600010FA48BFB0EE467AB4EE475AF1EE10FADF
:1016700035FE077AE4EE077A83ED087AF2B1012AA3
:1016800008FE897A93ED054A0132C3ED0B4AE4EE78
:10169000077AF4EE676AF1EE10FA48BFF0EE667A68
:1016A000F4EE675AF1EE10FA75FEA77A032AC3ED3D
:1016B000117AC6D111B0BDEC088B30BDB0EE487ABE
:1016C000E0E700BFAFF30080399D52A246DF913FB3
:1016D000C93200246F12833AB82F0024791B010805
:1016E000040000244C3100245800002400000000B5
:1016F000974B2DE9F04F2DED0C8BD3ED04AAADF2F5
:10170000D44D93ED05BAF0EE409AD3ED06BAB0EEA3
:10171000609A904BF0EE418A054605AF8E4C5CAE68
:101720004FF000089FED8DAA9FED8DCA93E807004A
:1017300087E8070014ED027A54ED036A3BEE477A1E
:1017400054ED017A7AEEE66A7BEEE77A87EE0A8A52
:10175000C6EE8ADA87EE8ADA68EE08CA8DED398A33
:10176000EDEEADCACDED38DA8DED3ADAEDEE0DCA1B
:10177000B0EE6C0A0FF0F4FDB4EECC0AF1EE10FA04
:1017800039D5002310930F930E931693159314934A
:101790000E9B08F10108203446F8043BB8F10C0F09
:1017A000149BC6F88C300F9BF362159BC6F8BC30B7
:1017B000109BF365169BC6F8EC30BBD10024902239
:1017C00080A8CDED089A21468DED099ACDED0A8AC3
:1017D0000D94CDE90B440DF075F89022214614A824
:1017E0000DF070F814A95CAA0E465CAFB446002058
:1017F00002F13008A1E0B9EE086A94ED017A6CEECE
:10180000AC7A94ED004AFAEE0E6AD4ED024A28EE64
:10181000065A38AB67EE807A0EA9F0EE083ABE465B
:1018200028EE078A0846ADEEA65A9C4627EE067AB1
:10183000A14683EEA73A0022F2EE005AADEE848A6A
:10184000A4EE267AADEE255AADEE248AA4EEA57A52
:10185000F1EE044A65EE244A64EE884AFEEC017A11
:101860000132B9EC014A68EE277A032AE5EE047AE0
:10187000BCEC014AE7EE047A24EE244AC4EE2C2A9A
:1018800077EEE27A67EE837AE0EC017AE6D12CEE2D
:10189000800A0DF5247CB7EE007AA64628EE238A4E
:1018A00000206246C7EE007AC8EE2C4AB3EC015A1B
:1018B0000130BEEC017A032894EE857A27EE877A10
:1018C000ACEC017AF2D192ED015A002392ED027A4A
:1018D00065EEC57AE7EE067A26EEC77ACDED147A84
:1018E000D2ED007A14AAA7EEA57A66EE677AE5EE45
:1018F000267A8DED157A9FED1B7ACDED167AD1ED16
:10190000007A013367EE877A032BE1EC017AD2ED9E
:10191000007A67EE877AE2EC017AF0D138E7F3ECEF
:10192000016ABEEC017A4345E6EE877AF7D10130D1
:101930003037ECEC017A062804D0BE461346DFEDC2
:101940000A7AECE701341836062C11D01A464CE717
:101950004C310024781A0108D42F002400007A4466
:10196000BD37863595BFD63300000000BE378635BB
:1019700014AB00221FED037AD3ED007A0132184632
:101980001C3377EE877A062AC0ED007AF4D1B7EEE1
:10199000005BA4AC00229FEDA26B20460E46002304
:1019A000B6EC017A9A4203F10103B7EEC77AA0ECD4
:1019B000027B05FE067B062B80ED0A7BF0D101320F
:1019C00018316034062AE8D1A4A900224FF0600E35
:1019D00008469FED955B90ED007B16461746013259
:1019E0008446B0EEC77B33461446062C38D1B4EE9D
:1019F000C57BF1EE10FA00F18880B34243D10C466A
:101A0000002390ED006B94ED004B013384EE067BD8
:101A10000C2BA4EC027BF6D1FF00A4AB0024A64261
:101A200042D101346033062CF9D1062A00F1680056
:101A300001F16001CFD138AB0021B0AE1A46741865
:101A400003F11800B4EC027BB7EEC77BA3EC017A7C
:101A50009842F7D16031B1F5107F60D00346EEE7D0
:101A60009CED186BB0EEC66BB4EEC76BF1EE10FADE
:101A700007DCB0EE476BB0EE467B01340CF1600C36
:101A8000B3E72346F7E7A4AC8C460EFB03430024E0
:101A90000134DCE90089D3E900AB0C2CECE802ABA3
:101AA000E3E80289F4D1AAE703EB070C89469846DC
:101AB0009CED006B4FF0000CB1EE466B0CF1010C8D
:101AC00098ED007BB9EC024BBCF10C0FA4EE067B49
:101AD000A8EC027BF2D1A4E79DEDA67A0023DDED10
:101AE000A46A0220B7EEC77A136051498DED027BDC
:101AF0009DEDA57AB7EEC77A8DED007BB7EEE67A5D
:101B000053EC172BFFF7CAFA83E04A490020FFF78E
:101B1000C5FA30220021A4A80CF0D4FE66E01346DA
:101B20000EA8002208AC1E46DFED437A00210131E9
:101B3000F6EC016AB4EC017A0629E6EE877AF6D172
:101B400001321833E0EC017A062AEBD1A4AC002371
:101B500021465CAA0EAEDFED387A981800220746BF
:101B60000132B6EC017A3030D7ED006A062AE6EE93
:101B7000877AF4D10433E1EC017A302BE9D12246A3
:101B80009FED2D8A0023F2EC017A0133F0EEE77A23
:101B9000F4EE487AF1EE10FA37FE888A0C2BF2D177
:101BA000F7EE008AB4EEE88AF1EE10FA1EDD03F0DB
:101BB00063FB224A1368C31AB3F57A7F0AD9C8EEC9
:101BC000887A10601E490120B7EEE77A53EC172B94
:101BD000FFF764FA88EE887A0023D4ED007A0133A7
:101BE0000C2B67EE277AE4EC017AF6D1A4AB05F171
:101BF0003002F3EC017A77EEA77AE5EC017AAA429B
:101C0000F7D1104A13680133B3F5FA7FBFF464AF1C
:101C100013600DF2D44DBDEC0C8BBDE8F08F00BF0E
:101C2000000000000000000011EA2D819997713D2D
:101C3000CC1B0108F31B010800000000B02F00249A
:101C4000A41B0108B42F002430B5224985B002201E
:101C50000024FFF723FA204A0121204D94605461AB
:101C6000D462D4659466C2F88040C2E90044C2E9F7
:101C70000344C2E90944C2E91544C2E91844C2E96F
:101C80001E44174A11710221164A117095F85130FD
:101C900013B9E0B202F0ACF80134C035052CF5D12F
:101CA000114B0220114993ED117AD3ED0F6AB7EE73
:101CB000C77A8DED027B93ED107AB7EEC77A8DED82
:101CC000007BB7EEE67A53EC172BFFF7E7F905B088
:101CD00030BD00BF0D1C010828000024405800241E
:101CE0004C31002448310024040000242E1C01083B
:101CF00008B506490220FFF7D1F9FFF74FF9002395
:101D0000034A1371034A137008BD00BF5F1C01082A
:101D10004C31002448310024B7EEE07A1FB50C4B5B
:101D200002200C4983ED0F0AC3ED100A83ED111A4E
:101D3000B7EEC11A8DED007BB7EEC07A8DED021BB8
:101D400053EC172BFFF7AAF905B05DF804FB00BFB1
:101D500004000024801C0108B0EEC07A9FED256AC3
:101D6000F0EE406AB4EEC67AF1EE10FA0DD8C7EE86
:101D7000067A9FED217A27EE870AF5EEC06AF1EE2A
:101D800010FAB8BFB1EE400A7047F7EE007AB4EE31
:101D9000E77AF1EE10FA2ADA184A0023F2EC015A37
:101DA00019460133F4EEC75AF1EE10FA1AD8D2ED03
:101DB000007AF4EEC77AF1EE10FA13DB37EE657AAB
:101DC0000F4A77EEE57A02EB810102EB8302C7EE60
:101DD000275A91ED000A92ED006A36EE406AA6EEAF
:101DE000250ACAE7082BD9D19FED060AC5E79FED62
:101DF000060AC2E7CDCCCC3D0AD7233C843001088B
:101E000060300108000000000AD7E33FF0B52DED77
:101E1000048BADF55B7D044600250BAF3E46E8B272
:101E20000135FFF71BF9FFF797FF0C2DA6EC010A10
:101E3000F5D126AE0025E8B201353146B7EC010AEE
:101E4000FEF7A4FE0C2D06F13C06F4D1A34E17AD0F
:101E500000202A463146DFEDA27A26AB0027F0EEBD
:101E6000676AC318B0EE677A93ED006A01373C33B6
:101E700077EE867A13ED0E6A0C2F76EE866A13EDF6
:101E80000D6A37EE067AEFD191ED096A0C30C03158
:101E90000C3276EE677A3C2842ED037A51ED267AD1
:101EA00077EEE67A42ED027A51ED257A77EEC77A3F
:101EB00042ED017ACFD18B4A2B460021D3ED007A37
:101EC000013192ED007A0C33052902F10C0277EE14
:101ED000C77A12ED027A43ED037A53ED027A77EE78
:101EE000C77A12ED017A43ED027A53ED017A77EE6B
:101EF000C77A43ED017AE1D195ED010AD5ED007A7B
:101F000020EE000AA7EEA70AD5ED027AA7EEA70AEF
:101F10000FF026FAF2EE047AF0EE409AB4EEE70AF9
:101F2000F1EE10FA00F19B809FED6F0ADFED6F0A72
:101F300080EE290A0FF04CFAF0EE007A30EE270A14
:101F40009FED677A07AAF7EE005A6449B0EE476A38
:101F50001046012391F81171002F00F08380D5ED18
:101F6000047AD5ED036A67EEA77AE6EEA67AD5ED98
:101F7000056AE6EEA67AF4EEE57AF1EE10FA74DD83
:101F800037EE277A0133C0310C35E0EC017A052BAE
:101F9000E0D1B5EEC07AF1EE10FA69DDDFED507AEE
:101FA0000123F0EE676AD6ED335A0133B2EC016AD1
:101FB000C036052BE5EE866AD6ED045AE6EE257AA4
:101FC000F1D186EE876AC7EE876A494B9FED497A61
:101FD000D3ED008ADFED487A68EE878AE6EE278A3D
:101FE000C3ED008A454BC4ED008A93ED008A28EECC
:101FF000078AA6EEA78ADFED427A83ED008A414B7D
:1020000084ED018A93ED009A29EE279ADFED3E7A5E
:10201000A0EE279A28EE080AA8EEA80A84ED029AF4
:1020200083ED009A0FF09CF99FED387AB4EEC70A61
:10203000F1EE10FA09DDC7EE007A68EEA78A28EE05
:10204000278AC4ED008A84ED018AF1EE047AB4EEA9
:10205000E79AF1EE10FA10D5C4ED027A14E0B3EE6F
:10206000090A6DE7F0EE467A8CE7DFED1D7A89E725
:10207000DFED1B6AB0EE666AA7E7DFED257AB4EE06
:10208000E79AF1EE10FAE7DC224A13680133B3F560
:10209000FA7F05D213600DF55B7DBDEC048BF0BDBE
:1020A000B7EEE90A0023D4ED006A022013601A4952
:1020B0008DED040B94ED027AB7EEC77A8DED027BBD
:1020C00094ED017AB7EEC77A8DED007BB7EEE67A34
:1020D00053EC172BFEF7E2FFDDE700BF405800246A
:1020E00000000000A830010880096E4DABAAAA3E8E
:1020F000C42F00249899193E9A99593FC02F002463
:102100009A99993E000000243333333F00005C422B
:1021100000002042BC2F0024B01C01082DE9F04330
:10212000DFF8F8822DED048B95B003F0A5F8074693
:1021300003F0A2F8D8F80030054633B9C8F800001B
:1021400015B0BDEC048BBDE8F083C31A9FEDA07AF7
:1021500007EE903AF8EE677A87EE878ADFED9D7A90
:10216000B4EEE78AF1EE10FAEAD4DFED9B7A9B4EEB
:10217000B4EE678A96ED059AD6ED049A29EE090A1F
:10218000D6ED068AF1EE10FAA9EEA90A37FE888A82
:102190000FF0E6F8DFED927AB4EEE70AF1EE10FA0E
:1021A0000BDCF5EEC08AF1EE10FA06D4DFED8D7A85
:1021B000F4EEE78AF1EE10FA16DDB7EEE87A8A4916
:1021C00001208DED027BB7EEC97A8DED007BB7EE75
:1021D000E97A53EC172BFEF761FF15B0BDEC048BC9
:1021E000BDE8F043FFF784BDB0EE480A9FED7F9A4B
:1021F000FFF72EF97E4BF2EE087A9FED7E1A93EDF3
:10220000120AD3ED130A20EE270AD3ED271A60EE47
:10221000A70AD3ED147A93ED282AA7EE891AD3EDF5
:10222000292AF3EE027AB0EEC07AF4EEE78AF1EEF4
:10223000047AB0EE418AF1EE10FAB4EEE77A48BFC4
:1022400031EE098AF1EE10FA0BDDB5EEC00ABFEEF1
:10225000007AB7EE000AF1EE10FA30FE070A20EE1F
:10226000270AB0EEE07AB4EEE77AF1EE10FA0BDD71
:10227000F5EEC00ABFEE007AF7EE000AF1EE10FAB2
:1022800070FE870A60EEA70AB0EEC87AB4EEE77A6D
:10229000F1EE10FA0BDDB5EEC08AB7EE001ABFEE14
:1022A000007AF1EE10FA31FE071A21EE278AB0EE1D
:1022B000481A08A8FFF71CFA4F4A13680133C72BC6
:1022C00040F2838000239FED4D7A136008AA0C230F
:1022D000F2EC017AF0EEE77AF4EE477AF1EE10FADA
:1022E00037FE877A013BF3D177EE076A4449B7EEB0
:1022F000C77A02208DED007BB7EEE67A53EC172B00
:10230000FEF7CCFE0DF120093E4A0C249FED3E7AEB
:102310004B46D2ED007A013CD3ED006A67EE897A34
:10232000E6EE877AE2EC017AE3EC017AF1D1E0B2F1
:102330000134B9EC010AFEF793FD0C2CF7D1334AB6
:102340001368013313606422B3FBF2F102FB113313
:102350002BBB9DED080AB7EEC88A96ED064AFFF73B
:10236000FBFCB7EEC03A9DED090AFFF7F5FCB7EEAE
:10237000C02A9DED0A0AB7EEC44AFFF7EDFCB7EE9E
:10238000C00A2349022053EC142B8DED060B8DED72
:10239000042B8DED023B8DED008BFEF77FFEC8F820
:1023A000005002F069FF1B4A1368C31AB3F57A7F25
:1023B0007FF6C6AE1060C21B1749022015B0BDECF7
:1023C000048BBDE8F043FEF769BE13609AE700BFD7
:1023D00000007A44BD378635CDCCCC3D4C3100244D
:1023E00000005C4200002042D31C01089A99993EEB
:1023F000040000249A99D93FA82F0024000000006F
:10240000171D0108782F00243333333F742F002425
:10241000381D0108702F0024631D0108AC2F002413
:10242000164A10B51378012B07D0022B0DD01BB91B
:10243000AA2801D10123137010BD55284FF00003C5
:10244000F9D1022111700E4AF5E70D4B1C78611C81
:10245000C9B2197015290B4B1855EDD90A4903F16A
:10246000140053F8044B834241F8044BF9D11B8804
:102470000B800121054B19700023DCE7F7320024A3
:10248000E0320024E1320024C9320024C8320024A2
:1024900008B501F087F8431E02460333BDE8084043
:1024A0009DBF20F07F4203490220034988BF0020DE
:1024B000FEF7F4BD751D0108931D010830B53748BE
:1024C00095B0374C0125FEF7E3FD36490220FEF7B3
:1024D000E5FDFEF723FC2570FEF7C2FEFEF764FF64
:1024E000FEF7F0FA9FED300A05A90020FEF74EFB3B
:1024F0009DED077A2D490220B7EEC77A8DED027B5C
:102500009DED067AB7EEC77A8DED007BDDED057A9D
:10251000B7EEE77A53EC172BFEF7C0FDB7EE000AD3
:1025200005A90020FEF732FB9DED077A2049022025
:10253000B7EEC77A8DED027B9DED067AB7EEC77ACE
:102540008DED007BDDED057AB7EEE77A53EC172BC6
:10255000FEF7A4FD17490220FEF7A0FD01F068FF79
:10256000657001F057F888B91349FEF797FD6420AC
:1025700002F088FE11490220FEF790FD01F09EFC5A
:102580000F490220FEF78AFD15B030BD0D4902202B
:10259000FEF784FDFFF77CFFE9E700BF80610024C0
:1025A0004C310024B61D010800000000EB1D01089D
:1025B000211E0108571E01087A1E0108B71E0108D6
:1025C000D51E01089D1E010808B502F055FE074AF8
:1025D0001368C31AB3F57A7F06D3054B0021106048
:1025E000D9600021034B196008BD00BF7C31002475
:1025F0004C3100247031002408B502F03DFE014B3F
:10260000986008BD4C31002408B5FFF7F5FFBDE820
:102610000840FFF7D9BF000008B527490220FEF7A0
:102620003DFD26490220FEF739FD25490220FEF72F
:1026300035FD24490220FEF731FD23490220FEF733
:102640002DFD22490220FEF729FD21490220FEF737
:1026500025FD20490220FEF721FD1F490220FEF73B
:102660001DFD1E490220FEF719FD1D490220FEF73F
:1026700015FD1C490220FEF711FD1B490220FEF743
:102680000DFD1A490220FEF709FD19490220FEF747
:1026900005FD18490220FEF701FD17490220FEF74B
:1026A000FDFC16490220FEF7F9FC15490220BDE8A1
:1026B0000840FEF7F3BC00BFF71E01080D1F01081C
:1026C000251F0108431F0108651F0108AB1F0108F2
:1026D000D71F0108052001084A2001086E200108C3
:1026E00094200108BE200108F22001082A210108D7
:1026F0005E210108AD210108E12101082422010821
:10270000492201080A2304220149024808F0E7BBD4
:102710006A220108806100241FB5284C0220284944
:10272000FEF7BCFCA26827490220FEF7B7FCD4EDF7
:10273000037A25490220B7EEE77A53EC172BFEF710
:10274000ADFC227821490220FEF7A8FC62782049DE
:102750000220FEF7A3FCE2781E490220FEF79EFC51
:10276000A2781D490220FEF799FC22791B4902201C
:10277000FEF794FC94ED067AD4ED046A0220B7EEDD
:10278000C77A17498DED027B94ED057A154CB7EEAB
:10279000C77A8DED007BB7EEE67A53EC172BFEF788
:1027A0007DFC20464FF4807101F030FB22460E493B
:1027B000022004B0BDE81040FEF770BC4C3100248C
:1027C0006F2201088022010891220108A522010838
:1027D000B9220108CF220108E6220108FE220108E1
:1027E00016230108C83100242A1B01083C4B2DE99F
:1027F000F0411B78A6B0002B6AD002F03DFD3949AC
:1028000003460A68821A38480068824260D30B6027
:1028100006A8364A80210BF07DFF354D0446002680
:10282000344FDFF8D88006ABC4F18001181995F851
:102830005130002B4FD0D5ED107A424695ED0B7AF2
:1028400037EE277AB7EEC77A8DED047BD5ED0F7A98
:1028500095ED0A7A37EE277AB7EEC77A8DED027BCF
:10286000D5ED0E7A95ED097A37EE277AB7EEC77A6D
:102870008DED007B0BF04EFF01360444C035052E74
:10288000D1D11D4BC4F180011C4A93ED067AB7EEFD
:10289000C77A8DED047B93ED057AB7EEC77A8DED9F
:1028A000027B93ED047A06ABB7EEC77A18198DED6B
:1028B000007B0BF02FFF124906A80CF00BF806A8BE
:1028C000FDF76EFD0A2382B206A90E4808F007FB49
:1028D00026B0BDE8F0813A460BF01CFFCCE700BF04
:1028E0006C31002478310024B40000243E23010818
:1028F00040580024522301084C310024422301088F
:102900007D2901088061002473B50A460D460446FE
:1029100031490220FEF7C2FB42F2D842954207D06D
:102920002B462E49002002B0BDE87040FEF7B6BB32
:10293000D4E900232A490220FEF7B0FB2268294B84
:102940009A4206D02849002002B0BDE87040FEF748
:10295000A5BB6368012B01D02449F4E7D4E9022325
:1029600021690C2A03D1052B01D10D2906D0009134
:1029700000201F49FEF792FB02B070BD4FF4803576
:102980001C4E1D490220FEF789FB284600F048FE38
:102990002A4605F5805531460220FEF77FFBB5F546
:1029A000983FF2D115490220FEF778FB214642F20A
:1029B000D8424FF4803000F087FE4FF48032104947
:1029C0000220FEF76BFB642304220E490E4802B07E
:1029D000BDE8704008F083BA59230108722301084A
:1029E0009C230108BEBAFECABD230108D1230108F9
:1029F000E3230108292401081424010844240108C0
:102A00005E2401088A24010880610024026838B528
:102A1000244B9A4245D1244A1378D3B1234C2449FC
:102A2000236809688B420BD3002322481370FFF7F9
:102A30006BFF012220492148BDE8384008F0BABBAD
:102A4000581C206081421C4C25781A4CE554F0D863
:102A5000EAE719491A480A7803880D2A01D00A2A98
:102A60000AD113B1174B01221A700A230222164908
:102A7000124808F034FADCE7082A01D07F2A07D18F
:102A8000002BD6D0013B0322104903800A23EFE735
:102A90003E2BCED85C1C04800D48C2540A23012270
:102AA000E6E738BD00440040D8570024FC3200243B
:102AB000F832002400330024843100248061002493
:102AC000863100246D3100247C2901082F2501085E
:102AD000883100240449002008B5FEF7DFFA4FF4DE
:102AE000FA7002F0CFFBFAE73325010830B59DB04C
:102AF0004C22002109A80BF0E5FE2022002101A8AC
:102B00000BF0E0FE022004F04DFA00230093224B6C
:102B1000DA6A22F00102DA62DB6A03F00103009351
:102B20001E4B9A6942F440429A619A6902F440420B
:102B30000092009A9A699404FCD54FF480330121E5
:102B400002240C2040251494CDE909130423CDE977
:102B500017340023CDE9190309A81B93CDE91244CA
:102B6000CDE9155404F0C8FC08B1FFF7B3FF032307
:102B70003F220390214601A80695CDE901230823B1
:102B8000CDE904354FF48063CDE9073504F0FEFF4D
:102B90000028EAD11DB030BD00040058004802589A
:102BA0000268034B9A4202D1024B01221A7070470D
:102BB00000100040DF3200249E4A2DE9F0472DED41
:102BC000088B137886B0002B00F03A8300239A4ECE
:102BD00013703188994A535499490B6801330B603B
:102BE000144601322378093BDBB2172B04D89549F0
:102BF00021FA03F3D907F3D420460025FDF7D0FBD3
:102C000090492218A8B112F8013C093BDBB2172BFE
:102C100003D821FA03F3DB0718D420468A490BF0C6
:102C20007BFE044628B18949FDF75AFB90B9FFF7AE
:102C3000F3FC00214022814831800BF043FE06B0B6
:102C4000BDEC088BBDE8F047FFF75CBD013802F82A
:102C5000015DD7E77E492046FDF742FB10B9FFF73B
:102C60005BFDE6E77B492046FDF73AFB054648BB9E
:102C700075490BF051FE0446734928460BF04CFE93
:102C80000546ECB1E0B1204609F07FFF0446284636
:102C900009F078FF0B2C10D8B7EEC08BE0B2B0EE85
:102CA000480AFEF7DDF8B7EEC88A22466A498DED7C
:102CB000008B0220FEF7F2F9BBE7684900201CE018
:102CC0006749FBE767492046FDF70AFBC0B95E4943
:102CD0000BF022FE80B109F055FFB7EEC08BB0EECD
:102CE000480AFEF749F9B7EEC87A5F4953EC172B4B
:102CF0000220FEF7D3F99CE75C49FEF7CFF998E78D
:102D00005B492046FDF7ECFA20B9FEF747F959492F
:102D10000220F2E758492046FDF7E2FA60B94A4935
:102D20000BF0FAFD08B95549E7E709F02EFF07282F
:102D300040F21E815249C1E752492046FDF7D0FAC0
:102D4000054600285BD140490BF0E6FD3E490446AC
:102D500028460BF0E1FD3C49824628460BF0DCFD9D
:102D60003949814628460BF0D7FD37498046284629
:102D70000BF0D2FD0746002C3FD0BAF1000F3CD03B
:102D8000B9F1000F39D0B8F1000F36D0A8B3204602
:102D900009F0FBFE0446504609F0F4FE4846B0EE4A
:102DA000408B09F0EFFE4046B0EE409B09F0EAFE92
:102DB0003846B0EE40AB09F0E8FE0B2C07463FF674
:102DC0007CAF9FED31BAAC4204D0B0EE4B0AE8B212
:102DD000FEF746F801350C2DF5D13946B7EECA1B82
:102DE000F7EEC90BE0B2B7EEC80BFEF7DDF82246EE
:102DF00026490220FEF752F91BE725495EE72549DF
:102E00002046FDF76DFA00284AD10F490BF084FDEA
:102E100068B109F0B7FEB7EEC08BB0EE480AFEF716
:102E2000ABF8B7EEC87A1C4953EC172B60E71B4987
:102E300044E700BF6D31002486310024883100242E
:102E40007431002413008000523001085A25010813
:102E50005F25010864280108662501087C25010812
:102E600091250108AD250108B6250108CE250108E8
:102E7000E8250108F1250108082601080F260108A8
:102E8000252601083C26010800000000462601080E
:102E9000602601089C260108A5260108BD26010818
:102EA000A7492046FDF71CFA054680BBA54900202E
:102EB0000BF032FD0446A34900200BF02DFD074620
:102EC0001CB310B300222046DFED9F8A11460AF0A2
:102ED0001BFD04463846012709F054FEB7EEC08BAF
:102EE00007FA05F3E8B20135234214BFB0EE480AF1
:102EF000B0EE680AFDF7B4FF0C2DF1D1B7EEC88A29
:102F0000224692498DED008BD3E69149D6E6914950
:102F10002046FDF7E5F918B9FEF75CF88E49F7E6AB
:102F20008E492046FDF7DCF970B986490BF0F4FCB8
:102F300008B98B49E1E609F028FE07283FF6FAAE0A
:102F4000C0B200F067FD74E686492046FDF7C8F977
:102F500000283FF4DAAE84492046FDF7C1F958B99C
:102F600078490BF0D9FC00287FF4DFAE7F49C4E636
:102F7000C0B200F0EDFE5CE67D492046FDF7B0F9F9
:102F80000546002854D16F490BF0C6FC6D49044634
:102F900028460BF0C1FC6B49804628460BF0BCFC70
:102FA0006849074628460BF0B7FC0546002C3FF45D
:102FB00040AEB8F1000F3FF43CAE002F3FF439AE05
:102FC00000283FF436AE204609F0DFFD04464046B7
:102FD00009F0D8FD3846B0EE408B09F0D3FD284605
:102FE000B0EE409B09F0CEFD022C3FF622AE614BC5
:102FF000B7EEC88BB7EEC99B5F49B7EEC00B03EBCA
:103000008402022082ED008AB7EEC88A82ED039A1C
:10301000B7EEC99A82ED060AB7EEC00A22468DEDD8
:10302000040B8DED029B8DED008BFEF737F800E66B
:1030300052492046FDF754F900283FF4FAAD5049B3
:103040002046FDF74DF90546E0B93E490BF064FC1A
:1030500078B94C4C02204C49FEF720F894F85130D6
:1030600013B1E8B200F0B2FD0135C034052DF5D141
:10307000DFE509F08AFD07283FF65CAEC0B200F03C
:10308000A5FDD6E541492046FDF72AF910B900F023
:10309000D3FECEE53E492046FDF722F910B900F0F7
:1030A0000DFFC6E53B492046FDF71AF998B92549B9
:1030B000394C0BF031FC40B109F067FD40F2DE33D2
:1030C000A0F10A029A4298BF20600122334B344992
:1030D0001A7022688DE633492046FDF701F918B9C8
:1030E0002E4B3149187013E630492046FDF7F8F8A9
:1030F00010B9FEF7A9FD9CE52D492046FDF7F0F833
:1031000010B9FEF7F5FD94E52A492046FDF7E8F8E9
:10311000054600285CD142F2D84227490220FDF73B
:10312000BDFF0122254B42F2D84125481A70254B9C
:103130001D60254B19606423244907F0D0FE78E513
:10314000D72601085230010800000000E2260108DD
:10315000FA2601081D270108272701083B27010837
:10316000442701085C270108662701086F2701082A
:10317000872701080400002493270108B0270108CD
:10318000BC27010840580024C6270108EA27010887
:10319000F3270108FC270108B40000246C31002447
:1031A00009280108302801083C2801085528010891
:1031B000502801085E2801088F240108D8570024F0
:1031C00080610024FC320024F83200245D300108C4
:1031D0001E492046FDF784F8054650BB1C490BF0FC
:1031E0009BFB1B49804628460BF096FB1849074677
:1031F00028460BF091FB0446B8F1000F17D0B7B189
:10320000A8B1404609F0BEFC3846B7EEC08B09F0C5
:10321000B9FCF7EEC08B204609F0B4FCB7EEC01B3A
:10322000B0EE480AF0EE680AFEF776FD01E50949BE
:1032300044E5094922460020FDF730FF074967E5CC
:1032400006B0BDEC088BBDE8F08700BF6928010817
:1032500052300108742801088E280108A6280108A8
:1032600070B586B000211022052402A80BF02AFBBD
:1032700002F090F80123002202A8ADF8083048F2CD
:103280001F73CDE9032340F20113059302F0A0F868
:10329000042002F08DF801F0B5FFFFF727FCFDF7E1
:1032A00051FFFDF72BFF01F01FFA01F043FD01F084
:1032B000B7FD01F009FE01F05DFE01F08DFE00F0AA
:1032C00065FA09F073FA01F035FC604806F026FC57
:1032D000FFF7F4F84FF4FA7001F0D4FF00F090FF1C
:1032E0000A2001F0CFFF013CF8D10122584959488A
:1032F00007F060FF2146584806F000FF04215648B9
:1033000006F0FCFE0821544806F0F8FE0C21524855
:1033100006F0F4FE2146514806F0F0FE04214F4825
:1033200006F0ECFE08214D4806F0E8FE0C214B4863
:1033300006F0E4FE21464A4806F0E0FE0421484833
:1033400006F0DCFE0821464806F0D8FE0C21444871
:1033500006F0D4FE22460121362001F0C7FF3620B8
:1033600001F0F6FF224602210B2001F0BFFF0B20E7
:1033700001F0EEFF224602210C2001F0B7FF0C20E5
:1033800001F0E6FF374DFDF709FE37490220374EC1
:10339000FDF784FE36490220FDF780FE3549022004
:1033A000FDF77CFE08230C2233490220FDF776FE50
:1033B00032490220FDF772FEFFF72EF90A2304229C
:1033C0002F49244807F08BFD01F056FF2D4B186064
:1033D00001F052FF2C4B186000242B787BB10023A6
:1033E0002B7033795BB14FF07E5302A927480293CB
:1033F000039404940594FEF709FDFEF78FFEFFF792
:10340000DBFBFFF7F3F9FFF7FFF8FDF7EFFD00F047
:10341000F7FE1F4B1A78002ADFD01E4A00211970D0
:1034200013680133632B1360D6D911601A498A8A55
:10343000B1F90C30B1F90E00B1F91010CDE900016D
:1034400016490220FDF72AFEC6E700BFBC5F002434
:103450008431002480610024A06000245460002492
:1034600008600024DF3200247C2901084C3100244C
:10347000CA280108F52801081E2901085229010857
:103480006A220108803100247C3100245C31002450
:10349000C832002468310024C93200247F29010881
:1034A0000268044B9A4204D101220349034807F001
:1034B00081BE7047004400408431002480610024B4
:1034C00000B58FB03422002101A80BF0FBF90623D0
:1034D0004FF0FF32694600934FF480730348069320
:1034E00003F0B8FE0FB05DF804FB00BFDC5700240A
:1034F0002DE9F04194B015464FF4807804460E460D
:103500003822002106A80BF0DDF9182200216846B8
:103510000BF0D8F94FF08077FFF7D2FF45454FF019
:103520000203079428BF4546002406934FF48063A6
:10353000109506A91A4D4FF0FF320B9428461394AC
:10354000CDE90C834FF40053CDE90E470993CDE943
:10355000114403F07FFE31464FF0FF32284603F05E
:10356000BDFE012310224FF48001019328460094F0
:1035700004940B941394CDE902230522CDE90F7333
:10358000CDE905124FF0FF336A4606A9CDE90C8458
:10359000CDE9114403F05EFF14B0BDE8F08100BF37
:1035A000DC57002400B591B03422002103A80BF0B1
:1035B00089F900234FF080704FF0FF32ADF80430EE
:1035C00002A98DF806309F2302934FF4807308936D
:1035D0000323CDE90B030E4803F03CFE20B14FF06E
:1035E000FF3011B05DF804FB4FF0FF3201A908482D
:1035F00003F0D0FE0028F2D19DF805009DF80430BC
:10360000000240EA03409DF806301843E9E700BF96
:10361000DC57002408B5FFF7C5FF012008BD0000F6
:1036200030B59FB038220021044602A8234D0BF08C
:1036300049F96FF30B04FFF743FF20234FF4807C1D
:10364000039402934FF4806300244FF0FF3202A9E9
:103650001A4807940F94CDE908C34FF40053CDE9FD
:103660000A440593CDE90D4403F0F4FD3422002112
:1036700011A80BF027F905234FF080704FF0FF32AF
:1036800010934FF4807310A98DF80740169301230F
:10369000CDE91903094803F0DDFD0028E6D14FF01C
:1036A000FF320DF10701284603F074FE0028DDD13A
:1036B0009DF80730DB07D9D41FB030BDDC5700249C
:1036C0000AB1FFF715BF70472DE9F04722F0FF0858
:1036D00005460F4614465FFA82F980440646A1EB80
:1036E000000A46450BD1B9F1000F12D024F0FF04B7
:1036F0004A4639196019BDE8F047FFF7E1BF0AEB08
:10370000060130464FF4807206F58076FFF7F0FE32
:10371000E7E7BDE8F087000070B58EB014460646B6
:1037200030220D4602A800210BF0CCF803234FF401
:10373000807142F2107200934FF48063104801963A
:10374000CDE906134FF40053694603934FF080739D
:10375000CDE9093403F07EFD044628B10949002073
:10376000FDF79CFC0EB070BD42F210722946044871
:1037700003F010FE0028F5D003492046F0E700BF13
:10378000DC5700249A290108B229010808B50B4822
:1037900008230B4A0121C0E9002300231722C0E9B6
:1037A0000213C0E90423C0E90633036203F006FDF7
:1037B00018B1BDE80840FFF78DB908BDDC570024FB
:1037C00000500052F0B51422BBB0044600210DEBAE
:1037D00002000BF077F8C02200210AA80BF072F863
:1037E0002268364B9A4267D14FF0007200230AA834
:1037F000CDE90A2304F022FC08B1FFF76BF9304B46
:10380000022500240926D3F8D420042705A92D4831
:1038100042F48042C3F8D420D3F8D42002F480428A
:103820000192019AD3F8E02042F01002C3F8E020A0
:10383000D3F8E02002F010020292029AD3F8E020BE
:1038400042F00202C3F8E020D3F8E02002F00202C6
:103850000392039AD3F8E02042F00802C3F8E02074
:10386000D3F8E030099603F008030493049BCDE9F4
:103870000575CDE9074402F047FD05A912480996F0
:10388000CDE90575CDE9074402F03EFD4FF46053E4
:1038900005A90E480996CDE90535CDE9074402F0A2
:1038A00033FD402305A90848CDE905350A23CDE9B4
:1038B0000744099302F028FD3BB0F0BD00500052D0
:1038C000004402580010025800040258000C02582C
:1038D0001FB580230446018900224068ADF80830F6
:1038E00002F000FE002001F0CDFC642303AA02A92F
:1038F00000930223206805F001FC01222189606801
:1039000002F0F0FD002001F0BDFC04B010BD00008D
:1039100007282DE9F043054685B066D83A4E00EBFE
:1039200040074FF0C0084FF0640906EB871708FB0B
:1039300005F8384606EB0804FFF7CAFFF02300221B
:1039400021896068ADF8083002F0CCFD002001F05C
:1039500099FC022303AA02A9CDF8009056F80800AA
:1039600005F0CCFB01222189606802F0BBFD00203C
:1039700001F088FC3846FFF7ABFF0027142001F068
:1039800081FC4FF6FF733A4621896068ADF80C3030
:10399000ADF8087002F0A6FD384601F073FC022372
:1039A00003AA02A9CDF8009056F8080005F0A6FB7E
:1039B000012280462189606802F094FD384601F0BA
:1039C00061FCB8F1000F13D19DF80C309DF80D206B
:1039D0001340FF2B0CD001262A460C49022084F804
:1039E0005160FDF75BFB84F8536005B0BDE8F083E0
:1039F000C02300202A46064903FB056686F85100CD
:103A0000FDF74CFBF1E700BF40580024CA2901082C
:103A1000FB29010807282DE9F043054689B03CD869
:103A2000C027DFF8A481474308EB070494F851301E
:103A30009BB305EB45054FF0640901F01DFC0646FC
:103A400008EB8510FFF744FF022001F01BFC3F2329
:103A5000002221896068ADF8083002F043FD0020A3
:103A600001F010FCCDF8009005AA02A9022358F835
:103A7000070005F043FB054621890122606885B1F6
:103A800002F030FD002001F0FDFBA36D0133A365C2
:103A900094F85230013384F85230002009B0BDE868
:103AA000F08302F01FFD284601F0ECFB012001F03D
:103AB000E9FB4F232A4621896068ADF81050CDE913
:103AC000023502F00FFD284601F0DCFBCDF8009036
:103AD00005AA02A958F807000A2305F00FFB0746BC
:103AE000218901226068002FCAD102F0FBFC384610
:103AF00001F0C8FBBDF8163094F853205BBA072AD2
:103B00009BB228BF072207EE903ABDF81830DBBA07
:103B1000F8EE677A06EE103ABDF81A30DBBAB8EE66
:103B2000C66A06EE903ABDF81C30DBBAF8EEE66ADB
:103B300007EE103A1F4B03EBC203B8EEC77A93EDC2
:103B4000015AD3ED005A27EE057A636D66EEA56A39
:103B500026EE256A013384ED0B7A9FED177AC4EDCA
:103B60000A6A77EEC77ADFED156A636584ED096A44
:103B700087EEA67AF3EE097A77EE277AC4ED0C7A0F
:103B800001F07AFB636D6063801B012B07EE900AE6
:103B9000F8EE677A03D10120C4ED177A7EE79FED36
:103BA000087AD4ED176A67EE877A9FED067AE6EE1B
:103BB000877AF0E7E430010800A43447CDCC3442E2
:103BC000CDCCCC3D6666663F405800240728F0B552
:103BD00005462DED048B87B000F2A580544CC0261D
:103BE0002A4606FB004696F8510038B9514907B0FD
:103BF000BDEC048BBDE8F040FDF750BA9FED4E8A56
:103C000002204E490027F0EE488AFDF747FAB0EE51
:103C1000489A4B490220FDF741FA40F6B83001F0CE
:103C200031FB2846FFF7F6FEE0B196ED097A3A46F9
:103C300096ED0A6A022096ED0B5A39EE079A78EE55
:103C4000868A404938EE058AB7EEC66AB7EEC55A8D
:103C5000B7EEC77A8DED045B8DED026B8DED007BC9
:103C6000FDF71CFA0137642001F00CFB142FD8D1AA
:103C7000F3EE047AC023F1EE688A3349B1EE499A33
:103C800003FB0544B1EE488A012388EEA77A02209F
:103C900084F85030C9EE275A88EE276A84ED0F7AEF
:103CA000B7EEC77AC4ED0E5A84ED106AB7EEC66A55
:103CB0008DED007BB7EEE57A8DED026B53EC172BA3
:103CC000FDF7ECF92846FFF7A5FED4ED0E7A94ED4A
:103CD000099A94ED0A7A39EE279AD4ED0F7A37EEE5
:103CE000278A94ED0B7AD4ED107A28EE080A77EE45
:103CF000278AA9EE090AA8EEA80A0DF031FBB7EE53
:103D0000E87AB7EEC00A1149B7EEC88A02208DEDF5
:103D1000027BB7EEC97A8DED040B53EC172B8DEDBA
:103D2000008BFDF7BBF907B0BDEC048BF0BD00BF05
:103D300040580024162A0108000000002E2A01081D
:103D4000562A01087C2A01089E2A0108CC2A01086B
:103D500010B52DED048B88B00446FFF75BFE60B113
:103D6000C022204B02FB043393F850204AB922466C
:103D70001D490220FDF792F9012008B0BDEC048B2B
:103D800010BD93ED097AD3ED0E7A37EE278A93EDC5
:103D90000A7AD3ED0F7A77EE278A93ED0B7AD3ED7B
:103DA000107A28EEA80A37EE279AA8EE080AA9EE9C
:103DB000090A0DF0D5FAB7EEE87AB7EEC00A224646
:103DC000B7EEC99A0949B7EEC88A02208DED060BF5
:103DD0008DED049B8DED027B8DED008BFDF75EF983
:103DE000CAE700BF40580024092B0108372B0108FF
:103DF00007289FBF044BC02202FB003393F85100F9
:103E000088BF0020704700BF4058002437B500220B
:103E1000074C134694F8515005B101330132C034B8
:103E2000082AF7D10092034A0AF074FC03B030BDAF
:103E3000405800247C2B010870B51C49B4B0022006
:103E40000025FDF72BF90123194A03ACCDE9012325
:103E5000184B013504F1600693E8070084E8070079
:103E600003F10C02082D04F10C0403F1C00307CA8E
:103E700086E80700EDD101A8002304461A46013266
:103E800010F8011BC82A0B44F9D100203393FFF727
:103E9000C7FB2146CC220020FFF716FC0022064972
:103EA0000220FDF7FBF834B070BD00BF952B010870
:103EB000EFBEADDE78580024B42B0108F0B5B5B0E4
:103EC00020490220FDF7EAF8CC2201A90020FFF7E3
:103ED00023FC1D4B019A9A4205D01C490120FDF795
:103EE000DDF835B0F0BD029B012B01D01849F5E794
:103EF000002201AB1146013113F8010BC82902441D
:103F0000F9D1339B93421AD1124B03AC0025012700
:103F1000013503F10C0694E8070083E8070004F17B
:103F20006002082D03F1C00304F10C0407CA86E8FF
:103F3000070003F8A87CEBD107490220CFE7074927
:103F4000CCE700BFD12B0108EFBEADDEF32B01089B
:103F5000142C010878580024552C0108342C010831
:103F600002680F4B9A4210B519D10E4CD0F884302C
:103F7000002022780C49FDF791F82278C0210B4BE4
:103F800001FB02330022586883F86020012219895E
:103F900002F0A8FA0648BDE8104005F05DBB10BD70
:103FA0000030014039580024692C01084058002491
:103FB000305F002407282DE9FF4704460BD83C4F0B
:103FC000C02303FB007393F8512042B902463949DC
:103FD0000120FDF763F8002004B0BDE8F08793F8F6
:103FE000602002F0FF063AB1024693F86030324991
:103FF0000120FDF753F8EEE700EB40054F22ADF846
:104000000C60AD0105F18008CDE90126B84404AA91
:10401000C44612E90700ACE80300ACF80020BFF387
:104020004F8F264AC2F86882BFF34F8FBFF36F8F5E
:10403000A0353D44BFF34F8FC2F85C52BFF34F8FA2
:10404000BFF36F8F32461989586802F04BFA009619
:10405000009B092B25DD4FF0C00A01260AFB04FA5C
:1040600007EB0A0989F8606001F006F90A23C9F82C
:1040700064002A46414657F80A0005F0E7F903466E
:1040800098B122460E490020FDF708F83246B9F8EB
:104090000810D9F8040002F025FA002389F86030EE
:1040A00099E7009B01330093D2E7304694E700BFC5
:1040B000405800248C2C0108A52C010800ED00E0DC
:1040C000B92C01082DE9F0410525114EDFF84C808F
:1040D0002F463478631CB3FBF7F202EB82029B1A83
:1040E0003370C02303FB048393F8512062B193F82B
:1040F00060304BB9074B20461C70FFF75BFF28B9B7
:1041000022460549FCF7CAFF013DE2D1BDE8F08136
:104110002858002439580024E42C01084058002471
:10412000072810B562D8C023314C03FB004494F833
:104130006030022B5AD194F8A33094F8A22094F85E
:10414000A41043EA022294F8A53043EA012394F82C
:10415000A6101BB206EE903A94F8A73043EA01236A
:1041600094F8A8101BB207EE103A94F8A93043EA6D
:10417000012394F853101BB2072907EE903A28BF89
:1041800007211C4B03EBC10393ED006AD3ED015AE9
:1041900072B6F8EEE77AB8EEC77AF8EEE66A67EE3E
:1041A000A57A27EE067A66EE866AC4ED0B7A07EEEC
:1041B000902A84ED0A7AF8EE677A9FED0F7AC4EDC3
:1041C000096ADFED0E6A77EEC77A87EEA67AF3EE1C
:1041D000097A77EE277AC4ED0C7A62B6002384F868
:1041E000603001F049F86063012010BD0020FCE759
:1041F00040580024E430010800A43447CDCC3442B8
:104200002DE9F04F87B07F4D01F036F87E4A044625
:104210001368C31AB3F5FA6F08D97C4B10601B689A
:104220002A78C31A7A490220FCF738FF2B78012B31
:1042300065D0022B6DD0002B41D1DFF8F091D9F879
:104240000020A21A092A3AD9724AC02101FB032090
:1042500090F8600098BB0133052BF7D16D4F1E46D7
:10426000B84698F8513033B10022B8F80810D8F8A1
:10427000040002F037F9013E08F1C008F1D10596BB
:10428000059B092B37DD6448052605F0E5F90A236F
:1042900002226249604804F017FE97F8513023B1BA
:1042A00001223989786802F01DF9013E07F1C00743
:1042B000F3D1564BC9F800401C6001232B702878BD
:1042C000012815D1514B1B68E31AB3F5FA7F0FD9BA
:1042D0005349FCF7E3FE00234E4A2B7082F860300E
:1042E00082F8203182F8E03182F8A03282F860331F
:1042F00007B0BDE8F08F059B01330593C0E7434B42
:104300001B68E31A012BDAD902232B70FFF7DAFEC0
:10431000D5E7404E0027B146B046C02303FB0783D4
:1043200093F86030022B02D1F8B2FFF7F9FEC023F8
:1043300003FB078B9BF86030DAB2012B03921DD18F
:10434000D9F86430E31AC82B18D9DFF8CCA00020C4
:1043500034499AF88130DAF8842000923A46FCF722
:104360009DFE039AB9F80810D9F8040002F0BAF8D3
:10437000504605F071F900238BF86030013709F1E0
:10438000C009052FC9D100274FF0C00B0BFB0789CF
:1043900099F86030012B5FFA83FA13D1736EE31A38
:1043A000C82B0FD93A4620490020FCF777FE524629
:1043B0003189706802F096F8174805F04DF900232E
:1043C00089F860300137C036052FDFD10023C022C5
:1043D00002FB038191F8601001293FF470AF0133B3
:1043E000052BF5D10023C02000FB038292F860204A
:1043F00002F0FF01002A89D10133052BF4D1297085
:104400005DE700BF38580024305800243458002499
:10441000012D010840580024305F00242431010898
:10442000782D0108292D01085D2D01082C58002444
:104430002DE9F04F844985B00220844FFCF72EFE11
:10444000834805F009F90A2000F01CFF00233946D3
:104450003E46C0241A4604FB03600133C031082BDA
:1044600080F8602001F86F2CF5D1DFF800824FF062
:104470000009784C4FF0200B754BDFF8F4A188F859
:1044800000205FFA89F2013A44E9093A062A05D880
:10449000DFE802F0B6BABEC2C6C9CD000122328141
:1044A00034F81C1C01225046002502F01BF80022A3
:1044B0000721A560E26004F15C00A263E261A261F1
:1044C00062614FF07E5284F82F102946A262626228
:1044D0002262C02284F82D5002FB096209F1010911
:1044E00084F82C5084F82E502561C4E90055C4E9A5
:1044F0000C5582F8605020220AF0E4F904F17C00A7
:10450000202229460AF0DEF9B9F1080F04F1C004AF
:104510004F4BB6D14D4CA946DFF858B14FF6FF735B
:10452000002221896068ADF80C30ADF8089001F0E8
:10453000D9FF002000F0A6FE642303AA02A900937D
:104540000223206804F0DAFD012282462189606896
:1045500001F0C8FF002000F095FEBAF1000F6AD10B
:104560009DF80C309DF80D201340FF2B63D02A4698
:1045700059460220FCF792FDE8B2FFF7C9F994F81A
:10458000513013B10A2000F07DFE0135C034052DF5
:10459000C4D10024304D31490220FCF77FFD224672
:1045A000013497F8513029460220C037FCF776FDD8
:1045B000052CF4D12A490220FCF770FDFFF77EFCA0
:1045C0000023284A642086F86030736686F820311C
:1045D000C6F8243186F8E031C6F8E43186F8A03216
:1045E000C6F8A43286F86033C6F8643388F8003021
:1045F000136000F047FE05B0BDE8F04FFFF700BEC6
:104600000222A6F8C8204BE70422A6F8882147E733
:104610000822A6F8482243E71022A6F808233FE71D
:10462000A6F8C8B33CE74022A6F8882438E78022E1
:10463000A6F8482534E72A460B49012084F8519012
:10464000FCF72CFDA1E700BF571E010840580024CD
:10465000305F002464580024DA2D0108C62D0108BB
:104660007D29010834580024AD2D01083858002454
:1046700000080258982D010838B502680546154B08
:104680009A4226D1D0F884302BB1D0F88420002073
:104690001149FCF703FD114BC021114C1A78A023DE
:1046A00011FB02332344BFF34F8F0E48C0F85C3236
:1046B000BFF34F8FBFF36F8F01FB024401222189AB
:1046C000606801F00FFF284604F0C6FF022384F85B
:1046D000603038BD00300140E12D01083958002418
:1046E0004058002400ED00E008B514484FF4800362
:1046F000134A4FF08061C0E9002300230722C0E97C
:1047000002324FF00052C0E90433C0E90612C0E99A
:104710000833C0E90A33C0E90D33C0E90F33C0E9FB
:104720001133C0E91333C0E9153304F029FB18B184
:10473000BDE80840FEF7CEB908BD00BF305F0024D9
:1047400000300140F0B51422BBB0064600210DEB4D
:1047500002000AF0B7F8C02200210AA80AF0B2F855
:104760003268574B9A4240F0A9804FF480520023A0
:104770000AA8CDE90A2303F061FC08B1FEF7AAF903
:10478000504B002505240227D3F8F02005A94E48F8
:1047900042F48052C3F8F020D3F8F02002F48052A3
:1047A0000192019AD3F8E02042F00102C3F8E02020
:1047B000D3F8E02002F001020292029AD3F8E0203E
:1047C00042F00802C3F8E020D3F8E02002F008022B
:1047D0000392039AD3F8E02042F00202C3F8E020EB
:1047E000D3F8E030099403F002030493049B2023E0
:1047F000CDE90755CDE9053701F086FD802305A9F0
:1048000032480994CDE90537CDE9075501F07CFD23
:1048100010232F4805A909942E4CCDE90537CDE981
:10482000075501F071FD2C482523C4E900034FF41E
:1048300080632046C4E904354FF40033C4E90255CF
:10484000C4E90655C4E9083500F064FF08B1FEF775
:1048500041F9224A2623F4674021A663204CC4E98B
:10486000002300234FF480622046C4E904234FF460
:104870000032C4E90213C4E90633C4E9082300F096
:1048800049FF08B1FEF726F900222320B46711463C
:10489000A66300F02BFD232000F05AFD0022022128
:1048A0000B2000F023FD0B2000F052FD0C20002215
:1048B000022100F01BFD0C2000F04AFD3BB0F0BDD2
:1048C000003001400044025800000258000C025819
:1048D00000040258B85E0024100002402800024084
:1048E000405E0024074B82B0D3F8F42042F002026D
:1048F000C3F8F420D3F8F43003F002030193019BD2
:1049000002B0704700440258FEE7FEE7FEE7FEE70C
:10491000FEE770477047704700F0A2BC014801F005
:1049200021BB00BFB85E0024014801F01BBB00BFE3
:10493000405E0024014804F0D7BE00BF305F002471
:10494000014805F0A3BC00BF8061002408B5074BF7
:104950001B68DA69920603D5586AC0B2FDF760FD9C
:104960000248BDE8084005F091BC00BFEC6000249F
:10497000014805F015B900BFBC5F0024014801F0F3
:1049800071BF00BF0C6700240120704708B50AF012
:1049900069F8162303604FF0FF3008BD08B50AF030
:1049A00061F816230360FEE770B50D4614460E4607
:1049B000731B9C4201DC204670BDAFF3008006F8FB
:1049C000010BF5E770B50D4614460E46731B9C426D
:1049D00001DC204670BD16F8010BAFF30080F5E74F
:1049E0004FF0FF3070474FF4005300204B6070478A
:1049F00001207047002070470B4A0346116810B52C
:104A000009B90A491160106809490A4C0344091B95
:104A10008B4206D90AF026F80C2303604FF0FF30D2
:104A200010BD1360FCE700BFB85F0024406D002498
:104A300000000824000400002E4AD2F8883043F415
:104A40007003C2F888302C4A136803F00F03062B5A
:104A500005D8136823F00F0343F007031360274BB7
:104A60001A6842F001021A6000221A61244A196889
:104A70000A4021491A600A68100705D50A6822F021
:104A80000F0242F007020A6000221E499A61DA61B1
:104A90001A6299621C49D9621C4919635A63996365
:104AA000DA6319645A64196821F4802119601A665E
:104AB000174B1B686FF30F03B3F1005F03D2154B65
:104AC0000122C3F808210D4BD3F8D420D2040FD40F
:104AD000D3F8D42043F2D20142F48052C3F8D42058
:104AE0000D4A1160D3F8D42022F48052C3F8D420A8
:104AF000704700BF00ED00E0002000520044025863
:104B00007FEDF6EA000202020000FF0180020101CF
:104B10000010005C0080005100400052044BDA6835
:104B200042F00202DA605A689204FCD5704700BF76
:104B3000004802581FB50F481F230F4A0024C0E940
:104B4000002340F2E73303948460C3608023CDE9FF
:104B50000144836105F018F908B1FDF7BBFF01A915
:104B600004480194039405F0CBFA08B1FDF7B2FFB5
:104B700004B010BDBC5F002400100040036884B086
:104B8000194A93420ED1194BD3F8F02042F001029A
:104B9000C3F8F020D3F8F03003F001030193019B38
:104BA00004B07047B3F1804F0DD1104BD3F8E8201B
:104BB00042F00102C3F8E820D3F8E83003F0010323
:104BC0000293029BECE70A4A9342E9D1074BD3F8E0
:104BD000E82042F00202C3F8E820D3F8E83003F0FE
:104BE00002030393039BDBE70000014000440258EB
:104BF000000400400F4B07B502689A4217D10E4BD4
:104C000002213620D3F8E82042F01002C3F8E82051
:104C10000022D3F8E83003F010030193019B00F069
:104C200065FB362003B05DF804EB00F091BB03B0E8
:104C30005DF804FB001000400044025814220021DB
:104C400010B58AB004460DEB020009F03BFE236864
:104C5000324A934219D1324B4FF4D4413148D3F800
:104C6000E02042F01002C3F8E020D3F8E03003F077
:104C700010030193019B0223CDE90513012305A92C
:104C8000099301F041FB0AB010BDB3F1804F15D17B
:104C9000234B05A92448D3F8E02042F00102C3F8D1
:104CA000E0200F22D3F8E03003F001030293029BCF
:104CB0000223CDE9052301230993E2E71B4A93422E
:104CC000E1D1174B022405A91748D3F8E02042F0A0
:104CD0000102C3F8E020D3F8E02002F001020392C1
:104CE000039AD3F8E02042F00202C3F8E020D3F8A0
:104CF000E030099403F002030493049BC023CDE940
:104D0000053401F001FB032305A909480994CDE905
:104D100005340023CDE90733B3E700BF00000140AD
:104D200000440258001002580000025800040040DD
:104D30000004025810B5002496B01C22214604A895
:104D40000394CDE9014409F0BDFD2C2221460DEB71
:104D5000020009F0B7FD304840F28F132F4A8460FB
:104D60004461C0E9002340F2E733C0E90334802303
:104D7000836105F039F808B1FDF7ACFE01A92648BA
:104D80000394CDE9014405F0BBF908B1FDF7A2FE9B
:104D90000022602304A920480A92CDE90432CDE91B
:104DA0000622CDE9082205F08FF808B1FDF792FE42
:104DB000042204A9184805F087F808B1FDF78AFE17
:104DC000082204A9144805F07FF808B1FDF782FE17
:104DD0000C2204A9104805F077F808B1FDF77AFE17
:104DE00000234FF400520BA90B480F931293159315
:104DF000CDE910234FF00072CDE90B33CDE90D332F
:104E0000CDE9132305F0C6F908B1FDF763FE0248AA
:104E1000FFF714FF16B010BDA06000240000014091
:104E200010B500248AB01C22214603A80294CDE9C3
:104E3000004409F047FD234840F28F134FF08042B1
:104E40008460C0E9002340F2E733C0E903348023E3
:104E5000836104F0C9FF08B1FDF73CFE69461948BB
:104E60000094029405F04CF908B1FDF733FE0022DE
:104E7000602303A9134805920792CDE9033205F098
:104E800023F808B1FDF726FE042203A90D4805F01A
:104E90001BF808B1FDF71EFE082203A9094805F01A
:104EA00013F808B1FDF716FE0C2206480DEB0201BF
:104EB00005F00AF808B1FDF70DFE0248FFF7BEFE47
:104EC0000AB010BD5460002410B500248AB01C2222
:104ED000214603A80294CDE9004409F0F3FC2348DD
:104EE00040F28F13224A8460C0E9002340F2E73386
:104EF000C0E903348023836104F076FF08B1FDF735
:104F0000E9FD694619480094029405F0F9F808B1E2
:104F1000FDF7E0FD0022602303A9144805920792E3
:104F2000CDE9033204F0D0FF08B1FDF7D3FD042230
:104F300003A90E4804F0C8FF08B1FDF7CBFD082215
:104F400003A90A4804F0C0FF08B1FDF7C3FD0C2215
:104F500006480DEB020104F0B7FF08B1FDF7BAFDFA
:104F60000248FFF76BFE0AB010BD00BF08600024C6
:104F70000004004008B516484FF4E133154AC0E973
:104F8000002300230C22C0E902330361C0E905239A
:104F9000C0E90733C0E9093306F051F808B1FDF75D
:104FA00099FD00210A4806F067F908B1FDF792FD66
:104FB0000021074806F080F908B1FDF78BFD044891
:104FC00006F03FF918B1BDE80840FDF783BD08BD04
:104FD000806100240044004008B516484FF4E133D6
:104FE000154AC0E9002300230C22C0E90233036103
:104FF000C0E90523C0E90733C0E9093306F01FF80B
:1050000008B1FDF767FD00210A4806F035F908B13F
:10501000FDF760FD0021074806F04EF908B1FDF7E5
:1050200059FD044806F00DF918B1BDE80840FDF738
:1050300051BD08BDEC6000240048004010B51422AA
:10504000BAB0044600210DEB020009F03BFCC0227F
:1050500000210AA809F036FC23683C4A934239D162
:10506000022200230AA8CDE90A2302F0E7FF08B1D3
:10507000FDF730FD364B602100243648D3F8E82098
:1050800042F40032C3F8E820D3F8E82002F40032FA
:105090000192019AD3F8E02042F00802C3F8E02020
:1050A000D3F8E03003F008030293029B0223CDE91A
:1050B0000513072305A90993CDE9074401F024F955
:1050C00026202246214600F011F9262000F040F962
:1050D0003AB010BD204A9342FAD1022200230AA816
:1050E000CDE90A2302F0AAFF08B1FDF7F3FC184B43
:1050F000002405A91948D3F8E82042F48022C3F817
:10510000E820D3F8E82002F480220392039AD3F82F
:10511000E02042F00202C3F8E0204FF44062D3F8EE
:10512000E03003F002030493049B0223CDE905233E
:105130000723CDE90744099301F0E6F8272022462A
:10514000214600F0D3F82720C0E700BF004400400C
:1051500000440258000C0258004800400004025865
:10516000DFF838D0FFF7DAFCFFF766FC0C480D4992
:105170000D4A002302E0D458C4500433C4188C42B2
:10518000F9D30A4A0A4C002301E013600432A24218
:10519000FBD309F06DFCFEF763F8704700000824AC
:1051A00000000024A403002478370108C003002471
:1051B0003C6D0024FEE7000038B50F4B05461A7819
:1051C0000AB9012038BD4FF47A73B3FBF2F30B4AEE
:1051D0001068B0FBF3F000F0C9F804460028F0D1E5
:1051E0000F2DEED8024629464FF0FF3000F07EF832
:1051F000034B20461D60E5E7C0000024BC000024EE
:10520000C400002410B5032000F05EF802F01CFC7E
:105210000F49104A8B69C3F30323D35C03F01F03C8
:10522000D8408B6903F00F03D35C0B4A03F01F03D4
:1052300020FA03F31360094B18600F20FFF7BCFF3F
:10524000044618B9FFF74EFB204610BD0124FBE7CA
:105250000044025826310108B8000024BC00002494
:10526000034A044B11681B780B441360704700BF5E
:1052700014620024C0000024014B1868704700BF6E
:105280001462002438B50446FFF7F6FF0546631C98
:105290001EBF044B1B78E418FFF7EEFF431BA3422D
:1052A000FAD338BDC0000024014B1868000C7047C9
:1052B0000010005C034A536823EA00030B43536069
:1052C000704700BF0004005807490302CA6803F48E
:1052D000E06322F4E0621204120C134343F0BF6354
:1052E00043F40033CB60704700ED00E0164B30B55F
:1052F000DC68C4F30224C4F10703251D042B28BF76
:105300000423062D4FF0FF358CBF033C002405FA23
:1053100003F3002805FA04F521EA030322EA050253
:1053200003FA04F343EA02034FEA0313DBB206DB9A
:1053300000F1604000F5614080F8003330BD00F0BE
:105340000F00024A1354F9E700ED00E014ED00E00D
:10535000002807DB0123410900F01F00024A8340B7
:1053600042F82130704700BF00E100E00138B0F1A1
:10537000807F0BD24FF0E023054AF02158610020D6
:1053800082F82310072298611A6170470120704744
:1053900000ED00E0BFF35F8F044B5A6A22F48032C5
:1053A0005A620022C3F89420704700BF00ED00E06D
:1053B000064B40F00100C3F894005A6A42F4803270
:1053C0005A62BFF34F8FBFF36F8F704700ED00E05D
:1053D0004378144AC2F89830D2F8A03023F0010381
:1053E000C2F8A0304368C2F89C30C37A017B1B0628
:1053F00043EA017301780B43817A43EAC143417B5D
:1054000043EA8143817B43EA4143C17B43EA014351
:10541000417A43EA0123017A43EA4103C2F8A0300A
:10542000704700BF00ED00E0F0B5DFF844C104684C
:10543000876D644545D04C4DAC4242D01835AC42E6
:105440003FD01835AC423CD01835AC4239D0183575
:10545000AC4236D01835AC4233D01835AC4230D0DF
:1054600005F55675AC422CD01835AC4229D018350C
:10547000AC4226D01835AC4223D01835AC4220D0EF
:105480001835AC421DD01835AC421AD01835AC4294
:1054900017D0364DAC4214D01435AC4211D014356F
:1054A000AC420ED01435AC420BD01435AC4208D00F
:1054B0001435AC4205D01435AC4202D01435AC42A0
:1054C00048D1D0E919566E60C56E15B1D0E91C56A9
:1054D0006E606445C56D86682DD0234884422AD00D
:1054E0001830844227D01830844224D018308442A7
:1054F00021D0183084421ED0183084421BD018307E
:10550000844218D000F55670844214D0183084427A
:1055100011D0183084420ED0183084420BD018308D
:10552000844208D01830844205D01830844202D01A
:10553000183084420FD13F2005F01F0500FA05F511
:10554000BD60206820F480202060402E636008D178
:10555000A260E160F0BD05F01F050120A840786061
:10556000F3E7A160E260F5E7280002400854025822
:10557000100002400368024623498B4210B531D027
:1055800018318B422ED018318B422BD018318B42E0
:1055900028D018318B4225D018318B4222D01831B7
:1055A0008B421FD018318B421CD001F556718B42B3
:1055B00018D018318B4215D018318B4212D01831C7
:1055C0008B420FD018318B420CD018318B4209D04E
:1055D00018318B4206D018318B4203D023F0FF00E4
:1055E000906510BDDCB218210848103CB4FBF1F105
:1055F00001F007015F2C415C23F47F7020F0030071
:10560000D16588BF0430EBE7100002403631010855
:1056100002682049D3B28A4228D014318A4225D068
:1056200014318A4222D014318A421FD014318A4266
:105630001CD014318A4219D014318A4216D0143148
:105640008A4213D01821103BB3FBF1F312491144E5
:10565000A8291CD903F18052012103F01F0302F590
:10566000024201FA03F30D4992000CE01422083BB8
:105670000121B3FBF2F303F1B05201FA03F308493D
:1056800002F5164292008366C0E91821704708337C
:10569000E0E700BF08540258F0FBFDBF800802405D
:1056A000805802580279511E072910B521D8036885
:1056B000134CA3421ED01434A3421BD01434A34273
:1056C00018D01434A34215D01434A34212D0143489
:1056D000A3420FD01434A3420CD01434A34209D0F7
:1056E000084B1344084A9B00C0E91B3201238B403E
:1056F000436710BD054B1344054A9B00F4E700BF08
:10570000085402583F820010400902403F9600169C
:1057100040590258F8B50446FFF7AEFD0646002C86
:1057200000F0A98023686F4DAB4264D06E4A93426B
:1057300061D0183293425ED0183293425BD0183257
:10574000934258D01832934255D01832934252D0D7
:10575000183293424FD002F5567293424BD0183212
:10576000934248D01832934245D01832934242D0E7
:10577000183293423FD0183293423CD018329342B1
:1057800039D01832934236D0584A934240F02F8194
:10579000022284F83520002284F83420A268186898
:1057A000402A6FF3101000F04081A2F180014A42BC
:1057B0004A419203D4E90316314366693143A6692D
:1057C0003143E6693143266A40EA161040EAD101C6
:1057D00020460A431A60464A1A441423B2FBF3F2E5
:1057E0009200E265FFF7C6FEE36D03F01F0201239E
:1057F0009340436092E0022284F83520002284F82E
:1058000034201A6822F001021A6022681368DB074C
:1058100027D413683748A1691840D4E902363343C6
:105820002669334366693343E6690B433343266A8B
:105830003343666A042E43EA000302BFD4E90B0730
:10584000384303432C4800686FF30F00B0F1005F4A
:105850001BD360682E2810D8282816D943F480134B
:1058600013E0FFF709FD801B0528CED920236365CF
:10587000032384F835300120F8BD3F38132804D8BD
:105880001E4F27FA00F0C707E8D41360042E5369AF
:1058900023F0070343EA060336D1A06AE66A03430E
:1058A00096B339B9012815D030F002012CD1F0019E
:1058B0002AD512E0B1F5005F22D1032824D801A136
:1058C00051F820F0DB580008AF580008DB580008FA
:1058D000D5580008B6F1C07F16D140236365012377
:1058E000C7E700BF100002402800024008540258D9
:1058F000F8ABFDA73F8010FE0010005C0F030F0007
:105900000228EAD90328D2D053612046FFF732FE9D
:10591000E36D03F01F023F23934083602368AB4293
:1059200045D0454A934242D0183293423FD0183274
:1059300093423CD01832934239D01832934236D039
:105940001832934233D01832934230D002F5567257
:1059500093422CD01832934229D01832934226D049
:105960001832934223D01832934220D018329342F7
:105970001DD0183293421AD01832934217D02F4AB2
:10598000934214D01432934211D0143293420ED069
:10599000143293420BD01432934208D01432934203
:1059A00005D01432934202D01432934219D12046CA
:1059B0000025FFF72DFEA368226E802B04BF002375
:1059C00063606368D9B2013B1160072BD4E91921E8
:1059D00051602CD8FFF766FEE36E1D60D4E91C32DF
:1059E0005A6000200123606584F8353044E7144A8A
:1059F00093423FF4CDAE143293423FF4C9AE143219
:105A000093423FF4C5AE143293423FF4C1AE143218
:105A100093423FF4BDAE143293423FF4B9AE143218
:105A200093423FF4B5AE402321E71022C2E6C4E919
:105A30001B556567D5E700BF28000240085402588F
:105A40001C54025870B50546002800F0DA8090F822
:105A50003400012800F0D780012085F8340095F843
:105A6000350001284FF0000040F0C6800224674E48
:105A700085F835402C686865B4421ED0644884427D
:105A80001BD01830844218D01830844215D01830FA
:105A9000844212D0183084420FD0183084420CD087
:105AA0001830844209D000F55670844205D0183071
:105AB000844202D018308442FFD0206820F00100D8
:105AC00020602846FFF7B0FCB4422A6C53D0504BFC
:105AD0009C4250D018339C424DD018339C424AD03F
