:020000040800F2
:1000000000000824A1880008A17C0008A97C000841
:10001000B17C0008B97C0008C17C00080000000029
:10002000000000000000000000000000C97C000883
:10003000D77C000800000000E57C0008F37C000885
:10004000F5880008F5880008F5880008F58800089C
:10005000F5880008F5880008F5880008F58800088C
:10006000F5880008F5880008F5880008017D00087B
:10007000157D0008F5880008F5880008F588000857
:10008000F5880008F5880008F5880008F58800085C
:10009000F5880008F5880008F5880008F58800084C
:1000A000F5880008F5880008F5880008F58800083C
:1000B000F5880008F5880008F5880008F58800082C
:1000C000F5880008F5880008F5880008297D0008F3
:1000D000F5880008F58800083D7D0008517D00087E
:1000E000F5880008F588000800000000F588000881
:1000F000F5880008F5880008F5880008F5880008EC
:10010000F5880008F5880008F5880008F5880008DB
:10011000F5880008F5880008F5880008F5880008CB
:10012000F5880008F5880008F5880008F5880008BB
:10013000F5880008F5880008F5880008F5880008AB
:1001400000000000000000000000000000000000AF
:10015000F5880008F5880008F5880008F58800088B
:10016000F5880008F5880008F5880008F58800087B
:10017000F5880008F5880008F5880008F58800086B
:10018000F5880008F5880008F5880008F58800085B
:10019000F5880008F5880008F5880008F58800084B
:1001A000F5880008F5880008F5880008F58800083B
:1001B000F5880008F5880008F5880008F58800082B
:1001C000F5880008F5880008F5880008F58800081B
:1001D000F5880008897D0008F5880008F588000882
:1001E000F5880008F5880008F5880008F5880008FB
:1001F000F5880008F5880008F5880008F5880008EB
:10020000F5880008F5880008F5880008F5880008DA
:10021000F5880008F5880008F5880008F5880008CA
:10022000F5880008F5880008F5880008000000003F
:10023000F5880008F588000800000000F58800082F
:10024000F5880008F5880008F5880008F58800089A
:10025000F5880008F5880008F5880008F58800088A
:10026000F5880008F5880008F5880008F58800087A
:10027000F5880008F5880008F588000800000000EF
:10028000F5880008F5880008F588000800000000DF
:0802900000000000F5880008E1
:1002A00010B5054C237833B9044B13B10448AFF3B0
:1002B00000800123237010BDA4030024000000006F
:1002C000F8CA010808B5034B1BB103490348AFF353
:1002D000008008BD00000000A8030024F8CA01083F
:1002E00010F8012B11F8013B012A28BF9A42F7D0E0
:1002F000D01A70470000000000000000000000005D
:1003000001F0FF01102A2BDB10F0070F08D010F8C6
:10031000013B013A8B422DD010F0070F42B3F6D1CA
:10032000F0B441EA012141EA014122F007047FF0E3
:1003300000070023F0E80256083C85EA010586EA3A
:10034000010685FA47F5A3FA87F586FA47F6A5FA76
:1003500087F68EB9EED1F0BC01F0FF0102F0070282
:1003600032B110F8013B013A83EA010313B1F8D12D
:100370000020704701387047002D06BF354603380E
:10038000073815F0010F07D1013015F4807F02BF47
:10039000013015F4C03F0130F0BC0138704700BF98
:1003A000034613F8012B002AFBD1181A01387047B5
:1003B00081F0004102E000BF83F0004330B54FEA16
:1003C00041044FEA430594EA050F08BF90EA020F83
:1003D0001FBF54EA000C55EA020C7FEA645C7FEA16
:1003E000655C00F0E2804FEA5454D4EB5555B8BF39
:1003F0006D420CDD2C4480EA020281EA030382EAAA
:10040000000083EA010180EA020281EA0303362D3B
:1004100088BF30BD11F0004F4FEA01314FF4801C0E
:100420004CEA113102D0404261EB410113F0004F20
:100430004FEA03334CEA133302D0524263EB4303D7
:1004400094EA050F00F0A780A4F10104D5F1200E75
:100450000DDB02FA0EFC22FA05F2801841F10001D0
:1004600003FA0EF2801843FA05F359410EE0A5F1A4
:1004700020050EF1200E012A03FA0EFC28BF4CF0D5
:10048000020C43FA05F3C01851EBE37101F000458B
:1004900007D54FF0000EDCF1000C7EEB00006EEB98
:1004A0000101B1F5801F1BD3B1F5001F0CD3490822
:1004B0005FEA30004FEA3C0C04F101044FEA445279
:1004C00012F5800F80F09A80BCF1004F08BF5FEA00
:1004D000500C50F1000041EB045141EA050130BDE0
:1004E0005FEA4C0C404141EB0101013C28BFB1F5F2
:1004F000801FE9D291F0000F04BF01460020B1FA3D
:1005000081F308BF2033A3F10B03B3F120020CDA0F
:100510000C3208DD02F1140CC2F10C0201FA0CF0ED
:1005200021FA02F10CE002F11402D8BFC2F1200C52
:1005300001FA02F120FA0CFCDCBF41EA0C01904008
:10054000E41AA2BF01EB0451294330BD6FEA040451
:100550001F3C1CDA0C340EDC04F11404C4F120023C
:1005600020FA04F001FA02F340EA030021FA04F34E
:1005700045EA030130BDC4F10C04C4F1200220FAA5
:1005800002F001FA04F340EA0300294630BD21FAE3
:1005900004F0294630BD94F0000F83F4801306BFA9
:1005A00081F480110134013D4EE77FEA645C18BF9D
:1005B0007FEA655C29D094EA050F08BF90EA020F34
:1005C00005D054EA000C04BF1946104630BD91EA2C
:1005D000030F1EBF0021002030BD5FEA545C05D12F
:1005E0004000494128BF41F0004130BD14F580046E
:1005F0003CBF01F5801130BD01F0004545F0FE41E2
:1006000041F470014FF0000030BD7FEA645C1ABF16
:10061000194610467FEA655C1CBF0B46024650EA4D
:10062000013406BF52EA033591EA030F41F4002179
:1006300030BD00BF90F0000F04BF0021704730B5FF
:100640004FF4806404F132044FF000054FF00001D4
:1006500050E700BF90F0000F04BF0021704730B595
:100660004FF4806404F1320410F0004548BF40426A
:100670004FF000013EE700BF42004FEAE2014FEABF
:1006800031014FEA02701FBF12F07F4393F07F4F9A
:1006900081F06051704732F07F4208BF704793F09D
:1006A0007F4F04BF41F40021704730B54FF46074B0
:1006B00001F0004521F000411CE700BF50EA0102B3
:1006C00008BF704730B54FF000050AE050EA01025C
:1006D00008BF704730B511F0004502D5404261EBCC
:1006E00041014FF4806404F132045FEA915C3FF40D
:1006F000D8AE4FF003025FEADC0C18BF03325FEAAA
:10070000DC0C18BF033202EBDC02C2F1200300FA5A
:1007100003FC20FA02F001FA03FE40EA0E0021FA7F
:1007200002F11444BDE600BF53B94AB9002908BF1D
:1007300000281CBF4FF0FF314FF0FF3000F0C0B970
:10074000ADF1080C6DE904CE00F03EF8DDF804E0F0
:10075000DDE9022304B0704708B502460B4643ECBE
:10076000172BB5EEC07BF1EE10FA03D4BDE80840BC
:1007700000F00AB8B1EE477B51EC170B00F004F81B
:10078000404261EB410108BD9FED0B6B41EC170B43
:100790009FED0B5B27EE066BBCEEC66BB8EE464BCF
:1007A000A4EE457BFCEEC77B16EE101A17EE900AFE
:1007B000704700BFAFF30080000000000000F03D74
:1007C000000000000000F0412DE9F047089D8E4632
:1007D00004468846002B4AD18A42174662D9B2FAAB
:1007E00082F64EB1C6F1200301FA06F820FA03F3AF
:1007F000B74043EA0808B4404FEA174E1FFA87FC97
:10080000B8FBFEF1230C0EFB118843EA084301FB01
:100810000CF29A4209D9FB1801F1FF3080F0EA800E
:100820009A4240F2E78002393B449A1AA3B2B2FBE3
:10083000FEF00EFB102243EA024300FB0CFC9C4539
:1008400009D9FB1800F1FF3280F0D6809C4540F2B8
:10085000D3803B44023840EA0140A3EB0C03002163
:100860001DB1F3400022C5E90032BDE8F0878B429C
:1008700005D90DB1C5E9000100210846F5E7B3FA35
:1008800083F1002946D1734502D3824200F20581EB
:10089000841A6EEB030201209046002DE5D0C5E9D5
:1008A0000048E2E7002A00F09080B2FA82F6002EBB
:1008B00040F0A4808A1A030C4FEA174E80B2BCB2F3
:1008C0000121B2FBFEFC0EFB1C2243EA024304FBA7
:1008D0000CF29A4207D9FB180CF1FF3802D29A4267
:1008E00000F2E080C4469B1AB3FBFEF20EFB12330B
:1008F00040EA034302FB04F49C4207D9FB1802F1CF
:10090000FF3002D29C4200F2CA8002461B1B42EA20
:100910000C40A5E7C1F120068B4022FA06F71F43E1
:100920000EFA01F420FA06F32EFA06FE4FEA1749F2
:10093000234300FA01F81FFA87FCBEFBF9F01C0CF8
:1009400009FB10EE44EA0E4400FB0CFEA64502FA39
:1009500001F209D93C1900F1FF3A80F09C80A645CC
:1009600040F2998002383C44A4EB0E041FFA83FE47
:10097000B4FBF9F309FB13444EEA044403FB0CFCFB
:10098000A44508D93C1903F1FF3E80F08280A445BC
:100990007FD9023B3C4443EA0040A4EB0C04A0FB9B
:1009A00002EC64457346E14662D35FD05DB1B8EBBB
:1009B000030264EB090404FA06F622FA01F31E436B
:1009C000CC40C5E9006400214FE7B1FBF2FC010C0B
:1009D00041EA0E4180B240EA01423B4638463C467D
:1009E000B846BE462026B1FBF7F1A2EB080241EA69
:1009F0000C4166E7014618E710462CE7C6F12002D5
:100A00002EFA02F3B740B14020FA02F24FEA174E35
:100A10000A43B3FBFEF8BCB20EFB1833110C41EADB
:100A2000034108FB04F9B04089454FEA104380B206
:100A30003ED9791808F1FF3C01D289451FD8A1EBB6
:100A40000901B1FBFEF909FB04F80EFB191192B282
:100A500042EA0142424529D2BA1809F1FF31C4D213
:100A60004245C2D2A9F102013A44BEE7F0459DD207
:100A7000BEEB02036CEB070C0138E14696E7A7EBEF
:100A800009094944A8F1020CB1FBFEF909FB04F87D
:100A9000DBE773467FE7504666E70846FDE63B44E2
:100AA000023A33E7ACF1020C3B441CE749469CE7B1
:100AB000A1EB0901C446B1FBFEF909FB04F8C4E748
:100AC000704700BF80B586B000AF3B1D14221946A9
:100AD0004FF4803005F034FE7B68174A934202D110
:100AE000BB68012B04D01549002000F093FD1FE0E6
:100AF000FB680C2B05D13B69052B02D17B690D2BC3
:100B000004D00F49002000F085FD11E042F2D842E8
:100B10000C494FF4803005F013FE0B4B01221A7084
:100B2000084B9A68074B1B690849022000F072FDC8
:100B30001837BD4680BD00BFBEBAFECA10CB010843
:100B400040CB0108C00300249828002464CB01088E
:100B500090B492B000AF034687ED020A7960FB7350
:100B6000AA4B1B78002B20D100237B6419E00023C3
:100B70003B6410E07A6C13465B0013449B001A46FA
:100B80007B681A443B6C9B0013444FF000021A60D0
:100B90003B6C01333B643B6C022BEBDD7B6C013324
:100BA0007B647B6C042BE2DD2BE1994B5B693B6240
:100BB000974B5B6CFB6197ED027AD7ED087AB4EE48
:100BC000E77AF1EE10FA01D53B6ABB6097ED027A45
:100BD000D7ED077AB4EEE77AF1EE10FA01DDFB69A2
:100BE000BB600023FB6302E0FB6B0133FB63FB6B29
:100BF0000B2B0FDCFB6B0133854A04339B00134442
:100C00000433D3ED007A97ED027AB4EEE77AF1EE91
:100C100010FAE9DC7E4BD3ED057A97ED027AB4EE5B
:100C2000E77AF1EE10FA30D80023BB6329E0002305
:100C30007B6320E0F97BBA6B13465B0013449B0097
:100C40001A467B689818724CBB6B1A4652001A44BD
:100C50000B465B000B4499010B441A447B6B134415
:100C600012339B0023441A687B6B9B0003441A6079
:100C70007B6B01337B637B6B022BDBDDBB6B013357
:100C8000BB63BB6B042BD2DDBBE0614BD3ED117AB0
:100C900097ED027AB4EEE77AF1EE10FA30DB00233A
:100CA0003B6329E00023FB6220E0F97B3A6B1346AB
:100CB0005B0013449B001A467B689818544C3B6BAE
:100CC0001A4652001A440B465B000B4499010B4430
:100CD0001A44FB6A1344C6339B0023441A68FB6A18
:100CE0009B0003441A60FB6A0133FB62FB6A022B20
:100CF000DBDD3B6B01333B633B6B042BD2DD80E0E0
:100D0000434AFB6B04339B0013440433D3ED007A56
:100D100097ED027A77EE676AFB6B01333C4A043346
:100D20009B001344043393ED007A394AFB6B043380
:100D30009B0013440433D3ED007A37EE677AC6EE96
:100D4000877AC7ED067A0023BB6257E000237B62F7
:100D50004EE0F97B2E4CBB6AF86B1A4652001A44DF
:100D600003461B011B1A1A440B465B000B449901F6
:100D70000B441A447B6A134412339B0023441B68C0
:100D80007B61F97BFB6B581C214CBB6A1A465200F5
:100D90001A4403461B011B1A1A440B465B000B4402
:100DA00099010B441A447B6A134412339B00234479
:100DB0001B683B6197ED047AD7ED057A37EE677AC9
:100DC000D7ED067A27EE277ABA6A13465B001344FA
:100DD0009B001A467B681A44D7ED057A77EE277A8E
:100DE0007B6A9B001344C3ED007A7B6A01337B620C
:100DF0007B6A022BADDDBB6A0133BB62BB6A042B8D
:100E0000A4DD4837BD4690BC704700BF9828002439
:100E1000C003002480B582B000AF00237B600FE2E6
:100E2000B5497A6813469B0013441B010B441033E9
:100E30004FF000021A60B0497A6813469B001344D1
:100E40001B010B4414334FF000021A60AA497A6860
:100E500013469B0013441B010B44183300221A60F5
:100E6000A5497A6813469B0013441B010B441C33AD
:100E7000A24A1A60A0497A6813469B0013441B01DA
:100E80000B44203300221A609B497A6813469B006A
:100E900013441B010B44243300221A6096497A68DC
:100EA00013469B0013441B010B44283300221A6095
:100EB00091497A6813469B0013441B010B442C3361
:100EC00000221A707A6813469B0013441B012833D2
:100ED000894A1344053320220021184618F002FFE6
:100EE0007B680B2B00F2268101A252F823F000BF91
:100EF000210F00084B0F0008750F0008A10F000814
:100F0000CB0F0008F50F00081F100008491000085B
:100F1000731000089F100008CB100008091100088A
:100F200075497A6813469B0013441B010B44083330
:100F3000734A1A6070497A6813469B0013441B0178
:100F40000B440C3301221A8009E16B497A6813467D
:100F50009B0013441B010B440833694A1A6066491D
:100F60007A6813469B0013441B010B440C33022286
:100F70001A80F4E060497A6813469B0013441B0111
:100F80000B4408335F4A1A605B497A6813469B003A
:100F900013441B010B440C334FF400521A80DEE063
:100FA00055497A6813469B0013441B010B440833D0
:100FB000534A1A6050497A6813469B0013441B0138
:100FC0000B440C3308221A80C9E04B497A68134657
:100FD0009B0013441B010B440833494A1A604649DD
:100FE0007A6813469B0013441B010B440C331022F8
:100FF0001A80B4E040497A6813469B0013441B01F1
:101000000B4408333E4A1A603B497A6813469B00FA
:1010100013441B010B440C3320221A809FE03649F5
:101020007A6813469B0013441B010B440833344A6F
:101030001A6031497A6813469B0013441B010B4424
:101040000C3340221A808AE02B497A6813469B00B1
:1010500013441B010B440833294A1A6026497A6855
:1010600013469B0013441B010B440C3380221A804F
:1010700075E021497A6813469B0013441B010B4419
:1010800008331F4A1A601C497A6813469B001344B0
:101090001B010B440C334FF480721A805FE0164939
:1010A0007A6813469B0013441B010B440833144A0F
:1010B0001A6011497A6813469B0013441B010B44C4
:1010C0000C334FF480621A8049E00B497A6813466A
:1010D0009B0013441B010B440833094A1A6006495C
:1010E0007A6813469B0013441B010B440C334FF4E6
:1010F00080521A8033E000BF9C2800240000C841C1
:10110000001002580008025852497A6813469B00A2
:1011100013441B010B4408334F4A1A604D497A6847
:1011200013469B0013441B010B440C334FF4004245
:101130001A8014E047497A6813469B0013441B0148
:101140000B440833444A1A6042497A6813469B00AC
:1011500013441B010B440C3300221A8000BF7B6830
:10116000032B22DC3B497A6813469B0013441B0186
:101170000B443A4A1A607B68002B0BD07B68012B2A
:1011800006D07B68022B01D1082204E00C2202E089
:10119000042200E000222F4879680B469B000B4494
:1011A0001B01034404331A6047E07B68072B22DCF1
:1011B00028497A6813469B0013441B010B44284AB4
:1011C0001A607B68042B0BD07B68052B06D07B68EC
:1011D000062B01D1082204E00C2202E0042200E0E8
:1011E00000221C4879680B469B000B441B010344FA
:1011F00004331A6021E017497A6813469B001344B0
:101200001B010B44174A1A607B68082B0BD07B68C4
:10121000092B06D07B680A2B01D1082204E00C229E
:1012200002E0042200E000220A4879680B469B0095
:101230000B441B01034404331A607B6801337B6059
:101240007B680B2B7FF7ECAD00BF00BF0837BD46B6
:1012500080BD00BF9C28002400100258745900244F
:10126000C05900240C5A002480B586B002AF034652
:1012700087ED000AFB71FB79D7ED007AB7EEE77ACC
:101280008DED007B1A466149022000F0C3F9FB791D
:101290000B2B00F2B580FA795D4913469B0013448D
:1012A0001B010B442C331B78002B40F0AB80D7ED97
:1012B000007AB7EE007AF4EEC77AF1EE10FA02DDAA
:1012C0004FF07E533B60D7ED007ABFEE007AF4EE2C
:1012D000C77AF1EE10FA01D54E4B3B60FA7913460E
:1012E0009B0013441B014A4A1344FB60D7ED007A6C
:1012F000F5EEC07AF1EE10FA08DBFB689868FB683F
:101300009B89002219460AF02DF90DE0FB689868C8
:10131000FB689B89012219460AF024F9D7ED007A6F
:10132000F1EE677AC7ED007AD7ED007A9FED3A7A51
:1013300067EE877AFCEEE77A17EE903ABB60FB68BF
:101340005B68002B05D1FB681B681B68BA685A6391
:101350002CE0FB685B68042B05D1FB681B681A68EE
:10136000BB68936322E0FB685B68082B05D1FB68D0
:101370001B681A68BB68D36318E0FB685B680C2BBA
:1013800005D1FB681B681A68BB6813640EE0FB6834
:101390005B68102B05D1FB681B681A68BB689365F6
:1013A00004E0FB681B681A68BB68D365D7ED007A58
:1013B000F5EEC07AF1EE10FA02DBD7ED007A03E029
:1013C000D7ED007AF1EE677AFB68C3ED047AFB682B
:1013D0003A685A6107F016FB0246FB689A61D7ED3E
:1013E000007AF0EEE77A9FED0D7AF4EEC77AF1EE2F
:1013F00010FA08DDFB689B6A5A1CFB689A6202E0DF
:1014000000BF00E000BF1037BD4680BD94CB01088F
:101410009C280024000080BF00301C450AD7233CD4
:1014200080B584B000AF87ED010A0023FB6009E0BE
:10143000FB68DBB297ED010A1846FFF715FFFB6862
:101440000133FB60FB680B2BF2DD00BF00BF1037E0
:10145000BD4680BD80B500AF9FED020AFFF7E0FFFB
:1014600000BF80BD0000000080B483B000AF034621
:10147000FB71FB790B2B02D94FF0000308E0FA79DE
:10148000084913469B0013441B010B4410331B688F
:1014900007EE903AB0EE670A0C37BD465DF8047B64
:1014A000704700BF9C28002480B586B000AF03467B
:1014B00087ED040AC7ED030A87ED021A7960FB7510
:1014C000FB7D0B2B1AD80F4AFB7D13700D4A3B692D
:1014D00053600C4AFB6893600A4ABB68D360094AB0
:1014E0007B681361074B01221A7507F08BFA0346DC
:1014F000044A9361034B0022DA6100E000BF183711
:10150000BD4680BD5C2C002480B500AF054B002299
:101510001A75044B1B789FED040A1846FFF7A4FECA
:1015200000BF80BD5C2C00240000000080B584B0AA
:1015300000AF2F4B1B7D002B55D007F063FAF860EE
:101540002B4B9B69FA68D31ABB60294B1B69BA689D
:10155000B2FBF3F37B60264BDB697A689A4243D98E
:10156000234B93ED017A224BD3ED036A7B6807EEA0
:10157000903AF8EE677A66EEA77A77EE277AC7EDAB
:10158000007A1B4BD3ED037AF5EEC07AF1EE10FA38
:1015900009DD174BD3ED027A97ED007AB4EEE77AC6
:1015A000F1EE10FA11D9124BD3ED037AF5EEC07AB1
:1015B000F1EE10FA14D50E4BD3ED027A97ED007AC6
:1015C000B4EEE77AF1EE10FA0ADB094B1B7897EDDF
:1015D000000A1846FFF748FE054A7B68D36103E01E
:1015E000FFF792FF00E000BF1037BD4680BD00BF8F
:1015F0005C2C002480B483B000AF7860044A7B6820
:10160000136000BF0C37BD465DF8047B704700BF18
:101610007C2C00240EB490B5ADF5107D02AF0246CF
:1016200007F50E73A3F231231A70234B1B7807F5CD
:101630000E72A2F2312212789A4235D81F4B1B68E3
:10164000002B31D007F5127207F50E73A3F58273E4
:101650001A6007F50E73A3F5827307F59C701B687B
:10166000D7F844224FF4807118F02EFB07F0CAF926
:10167000024607F1080007F59C7300931346104AD1
:101680004FF4967118F056FA0C4B1C6807F10803DA
:101690001846FEF785FE03469AB207F10801642357
:1016A000204610F083FB00E000BF07F50E77BD4633
:1016B000BDE8904003B07047000000247C2C00245B
:1016C000D8CB010880B582B000AF114BD3F8D83029
:1016D0000F4A43F00103C2F8D8300D4BD3F8D8308D
:1016E00003F001037B607B68002200210B2007F0E0
:1016F000B6FA0B2007F0CDFA002200210C2007F0EB
:10170000AEFA0C2007F0C5FA00BF0837BD4680BD11
:101710000044025880B58CB000AF07F11C030022D2
:101720001A605A609A60DA601A614B4BD3F8E03065
:10173000494A43F01003C2F8E030474BD3F8E03099
:1017400003F01003BB61BB69434BD3F8E030424A5E
:1017500043F00403C2F8E0303F4BD3F8E03003F02D
:1017600004037B617B693C4BD3F8E0303A4A43F099
:101770008003C2F8E030384BD3F8E03003F0800348
:101780003B613B69344BD3F8E030334A43F001030B
:10179000C2F8E030304BD3F8E03003F00103FB60D7
:1017A000FB682D4BD3F8E0302B4A43F00203C2F81C
:1017B000E030294BD3F8E03003F00203BB60BB6894
:1017C000254BD3F8E030244A43F00803C2F8E03058
:1017D000214BD3F8E03003F008037B607B680022E4
:1017E00049F2FB511D4809F0BDFE00224FF40051A3
:1017F0001B4809F0B7FE0122FF21194809F0B2FE8B
:1018000049F2FB53FB6101233B6200237B6200230F
:10181000BB6207F11C031946104809F0F3FC42F2C1
:10182000FF03FB6101233B6200237B620023BB6259
:1018300007F11C0319460A4809F0E4FC00214FF0A7
:10184000806007F01BF900214FF0006007F016F9E7
:1018500000BF3037BD4680BD00440258001002581A
:101860000008025880B58EB000AFF860B9607A60A9
:101870003B607B6893ED007AFB68D3ED007A77EEEE
:10188000677AC7ED047A7B68043393ED007AFB68CE
:101890000433D3ED007A77EE677AC7ED057A7B687B
:1018A000083393ED007AFB680833D3ED007A77EEC6
:1018B000677AC7ED067A97ED047AD7ED047A27EEBA
:1018C000277AD7ED056AD7ED057A66EEA77A37EE67
:1018D000277AD7ED066AD7ED067A66EEA77A77EE15
:1018E000277AC7ED0D7A97ED0D0A1AF039FF87EDCB
:1018F0000C0AD7ED0C7A9FED4F7AF4EEC77AF1EE31
:1019000010FA0DD53B6803F108024FF00003136095
:101910003B68043312681A601A683B681A6086E0F4
:1019200097ED0D7AD7ED0C7A67EE277AC7ED0B7A33
:1019300097ED0B7AD7ED0D7A67EE277AC7ED0A7A25
:10194000BB6893ED007AD7ED047A27EE277ABB685F
:101950000433D3ED006AD7ED057A66EEA77A37EE49
:10196000277ABB680833D3ED006AD7ED067A66EEB6
:10197000A77A77EE277AC7ED097AD7ED097AB0EE24
:10198000087A67EE876A97ED0A7AC6EE877AC7ED1E
:10199000087AF7EE006A97ED0B7AC6EE877AC7ED04
:1019A000077A97ED047AD7ED087A27EE277ABB6895
:1019B000D3ED006AD7ED077A66EEA77A77EE677AFD
:1019C0009FED1D7A67EE877A3B68C3ED007A97ED4D
:1019D000057AD7ED087A27EE277ABB680433D3ED72
:1019E000006AD7ED077A66EEA77A77EE677A3B68EA
:1019F00004339FED117A67EE877AC3ED007A97ED95
:101A0000067AD7ED087A27EE277ABB680833D3ED3C
:101A1000006AD7ED077A66EEA77A77EE677A3B68B9
:101A200008339FED057A67EE877AC3ED007A383781
:101A3000BD4680BDBD37863595BFD63380B59AB0DB
:101A400000AFB9607A603B600346FB73FB7BB94A29
:101A50005B0113441B68FB62FB7BB64A5B011344CA
:101A600004331B683B63FB7BB24A5B0113440833BE
:101A70001B687B63BB6893ED007AD7ED0B7A37EE7A
:101A8000677ADFEDAD6AC7EE267AC7ED087ABB68E4
:101A9000043393ED007AD7ED0C7A37EE677ADFEDF9
:101AA000A66AC7EE267AC7ED097ABB68083393EDBC
:101AB000007AD7ED0D7A37EE677ADFED9F6AC7EED1
:101AC000267AC7ED0A7A97ED087AD7ED087A27EEDD
:101AD000277AD7ED096AD7ED097A66EEA77A37EE4D
:101AE000277AD7ED0A6AD7ED0A7A66EEA77A77EEFB
:101AF000277AC7ED167A97ED160A1AF031FE87EDB0
:101B0000150AD7ED157A9FED8D7AF4EEC77AF1EECE
:101B100010FA1AD53B6803F108024FF00003136076
:101B20003B68043312681A601A683B681A603B6F9E
:101B300003F108024FF0000313603B6F0433126897
:101B40001A601A683B6F1A608BE1D7ED167A67EE60
:101B5000A77A97ED157A67EE277AC7ED147A7B6836
:101B600093ED007AD7ED087A27EE277A7B68043365
:101B7000D3ED006AD7ED097A66EEA77A37EE277AB9
:101B80007B680833D3ED006AD7ED0A7A66EEA77A50
:101B900077EE277AC7ED137AFB7B664A5B01134425
:101BA0000C3393ED007AD7ED087A27EE277AFB7B8A
:101BB000604A5B0113441033D3ED006AD7ED097A14
:101BC00066EEA77A37EE277AFB7B5A4A5B0113440D
:101BD0001433D3ED006AD7ED0A7A66EEA77A77EE72
:101BE000277AC7ED127A7B6893ED007AFB7B514A26
:101BF0005B0113440C33D3ED007A27EE277A7B6820
:101C00000433D3ED006AFB7B4A4A5B011344103373
:101C1000D3ED007A66EEA77A37EE277A7B68083331
:101C2000D3ED006AFB7B434A5B0113441433D3EDCD
:101C3000007A66EEA77A77EE277AC7ED117AF0EE92
:101C4000086A97ED147AC6EE877AC7ED107A0023FA
:101C50007B664DE0FB7B3749DA007B6E1344023331
:101C60009B000B44043393ED007AD7ED137A27EEF3
:101C7000277A7B6E9B007A681344D3ED006AD7ED18
:101C8000127A66EEA77A37EE277A7B6E9B0068336E
:101C90003B44483BD3ED006AD7ED117A66EEA77A54
:101CA00037EE277AD7ED137AF1EE046A67EEA66A6B
:101CB000D7ED127A66EEA76A7B6E9B0068333B44D1
:101CC000483BD3ED007A26EEA76AD7ED166AC6EE3A
:101CD000267A37EE677A7B6E9B003A681344D7ED1D
:101CE000107A67EE277AC3ED007A7B6E01337B664C
:101CF0007B6E022BAEDD97ED167AD7ED157A67EE87
:101D0000277AC7ED0F7AF7EE006A97ED0F7AC6EEE5
:101D1000877AC7ED107AD7ED127AB0EE087A67EEBF
:101D2000876A97ED167AC6EE877AC7ED0E7A00239A
:101D30003B662BE0A02C002400007A44BD3786359A
:101D40003B6E9B0068333B44483B93ED007AD7EDF4
:101D50000E7A27EE277AFB7B4349DA003B6E134469
:101D600002339B000B440433D3ED007A37EE677ADD
:101D7000D7ED107A67EE277A3B6E9B0068333B44C1
:101D8000543BC3ED007A3B6E01333B663B6E022B46
:101D9000D6DD7B68043393ED007AD7ED077A27EE22
:101DA000277A7B680833D3ED006AD7ED067A66EEB2
:101DB000A77A77EE677A3B6FC3ED007A7B680833CA
:101DC00093ED007AD7ED057A27EE277A7B68D3ED7D
:101DD000006AD7ED077A66EEA77A3B6F043377EE99
:101DE000677AC3ED007A7B6893ED007AD7ED067AC7
:101DF00027EE277A7B680433D3ED006AD7ED057AA6
:101E000066EEA77A3B6F083377EE677AC3ED007A08
:101E10000023FB6522E0FB6D9B003A681344D3ED81
:101E2000007AFB6D9B003A6813449FED107A67EED1
:101E3000877AC3ED007AFB6D9B003A6F1344D3EDB4
:101E4000007AFB6D9B003A6F13449FED087A67EEB2
:101E5000877AC3ED007AFB6D0133FB65FB6D022BC6
:101E6000D9DD6837BD4680BDA02C002495BFD63390
:101E700080B592B002AFF860B9607A600023FB636E
:101E80003BE0FB6BD8B207F1200207F1140300938B
:101E90001346BA68F968FFF7D1FD0023BB6326E05B
:101EA000BA6B13465B0013441B011A467B689918F2
:101EB000BB6B9B0040333B44203B1A68FB6B9B0091
:101EC0000B441A60BA6B13465B0013441B0190333A
:101ED0007A68D118BB6B9B0040333B442C3B1A689B
:101EE000FB6B9B000B441A60BB6B0133BB63BB6B8A
:101EF000022BD5DDFB6B0133FB63FB6B0B2BC0DDD2
:101F00004FF000037B6300233B6320E00023FB6270
:101F100017E03A6B13465B0013441B011A467B68BB
:101F20001A44FB6A9B001344D3ED007AF0EEE77A83
:101F300097ED0D7A77EE277AC7ED0D7AFB6A0133BC
:101F4000FB62FB6A0B2BE4DD3B6B01333B633B6BBA
:101F5000052BDBDD97ED0D7ADFED076AC7EE267AFC
:101F6000B7EEE77A53EC172B04490220FFF752FB38
:101F700000BF4037BD4680BD00009042E4CB010861
:101F800090B4DAB000AF07F5B473A3F5B27318607C
:101F900007F5B473A3F5B47319600023C7F864316F
:101FA0004FE00023C7F8603142E0D7F864211346C0
:101FB0005B001344DB001A4607F5B473A3F5B27354
:101FC0001B681A44D7F860319B001344196807F561
:101FD000B473A3F5AE70D7F8642113465B001344C5
:101FE0009B00D7F8602113449B0003441960D7F885
:101FF0006421D7F860319A4202D14FF07E5101E05E
:102000004FF00001D7F860319C1D07F5B473A3F5BC
:10201000AE70D7F8642113465B0013449B00234441
:102020009B0003441960D7F860310133C7F8603171
:10203000D7F86031052BB8DDD7F864310133C7F824
:102040006431D7F86431052BABDD0023C7F85C3170
:1020500067E1D7F85C31C7F8583107F5B473A3F5D9
:10206000AE72D7F85C31342101FB03F31344D3ED96
:10207000007AF0EEE77AC7ED557AD7F85C31013394
:10208000C7F8503137E007F5B473A3F5AE71D7F850
:10209000502113465B0013449B00D7F85C21134486
:1020A0009B000B44D3ED007AF0EEE77A97ED557A7A
:1020B000B4EEE77AF1EE10FA18D507F5B473A3F58C
:1020C000AE71D7F8502113465B0013449B00D7F83C
:1020D0005C2113449B000B44D3ED007AF0EEE77AC9
:1020E000C7ED557AD7F85031C7F85831D7F8503185
:1020F0000133C7F85031D7F85031052BC3DDD7ED88
:10210000557A9FEDAC7AF4EEC77AF1EE10FA01D56C
:10211000002349E1D7F85821D7F85C319A4250D0D2
:102120000023C7F84C3148E007F5B473A3F5AE714E
:10213000D7F85C2113465B0013449B00D7F84C2171
:1021400013449B000B441B68C7F8343107F5B47384
:10215000A3F5AE71D7F8582113465B0013449B00DA
:10216000D7F84C2113449B000B44196807F5B4734E
:10217000A3F5AE70D7F85C2113465B0013449B00B7
:10218000D7F84C2113449B000344196007F5B4733E
:10219000A3F5AE71D7F8582113465B0013449B009A
:1021A000D7F84C2113449B000B44D7F834211A6014
:1021B000D7F84C310133C7F84C31D7F84C310B2BE1
:1021C000B2DD07F5B473A3F5AE72D7F85C313421F4
:1021D00001FB03F313441B68C7F830310023C7F831
:1021E00048312AE007F5B473A3F5AE71D7F85C2146
:1021F00013465B0013449B00D7F8482113449B000F
:102200000B44D3ED006A97ED4C7AC6EE877A07F55A
:10221000B473A3F5AE71D7F85C2113465B00134489
:102220009B00D7F8482113449B000B44C3ED007A70
:10223000D7F848310133C7F84831D7F848310B2B6C
:10224000D0DD0023C7F8443162E0D7F84421D7F845
:102250005C319A4257D007F5B473A3F5AE71D7F845
:10226000442113465B0013449B00D7F85C211344C0
:102270009B000B441B68C7F82C310023C7F8403182
:102280003DE007F5B473A3F5AE71D7F844211346CA
:102290005B0013449B00D7F8402113449B000B4480
:1022A00093ED007A07F5B473A3F5AE71D7F85C210E
:1022B00013465B0013449B00D7F8402113449B0056
:1022C0000B44D3ED006AD7ED4B7A66EEA77A77EE32
:1022D000677A07F5B473A3F5AE71D7F844211346B6
:1022E0005B0013449B00D7F8402113449B000B4430
:1022F000C3ED007AD7F840310133C7F84031D7F841
:1023000040310B2BBDDDD7F844310133C7F84431E0
:10231000D7F84431052B98DDD7F85C310133C7F885
:102320005C31D7F85C31052B7FF793AE0023C7F8FB
:102330003C3134E00023C7F8383127E0D7F8383192
:102340009C1DD7F83C2113465B001344DB001A4662
:1023500007F5B473A3F5B4731B68991807F5B47344
:10236000A3F5AE70D7F83C2113465B0013449B00E5
:1023700023449B0003441A68D7F838319B000B4470
:102380001A60D7F838310133C7F83831D7F8383107
:10239000052BD3DDD7F83C310133C7F83C31D7F8F2
:1023A0003C31052BC6DD0123184607F5B477BD4641
:1023B00090BC7047BD37863580B5E4B004AF07F5F3
:1023C000C073A3F5BA73186007F5C073A3F5BC73A7
:1023D000196007F5C073A3F5BE731A6007F5C073E3
:1023E000A3F5C07383ED000A07F1B8039022002122
:1023F000184617F077FC0023C7F87C3161E0002312
:10240000C7F8783154E04FF00003C7F87431002367
:10241000C7F8703132E0D7F87C2113465B001344D3
:102420001B011A4607F5C073A3F5BA731B681A445B
:10243000D7F870319B00134493ED007AD7F87821D8
:1024400013465B0013441B011A4607F5C073A3F53E
:10245000BA731B681A44D7F870319B001344D3ED4C
:10246000007A67EE277A97ED5D7A77EE277AC7EDE7
:102470005D7AD7F870310133C7F87031D7F8703111
:102480000B2BC8DDD7F87C2113465B0013445B009F
:10249000D7F8782113449B0003F5C0733B44C83B35
:1024A000D7F874211A60D7F878310133C7F878313A
:1024B000D7F87831052BA6DDD7F87C310133C7F882
:1024C0007C31D7F87C31052B99DD0023C7F86C31BE
:1024D00026E0D7F86C211346DB009B1A9B0003F51E
:1024E000C0733B44C83B93ED007A07F5C073A3F576
:1024F000C073D3ED007A67EEA77A77EE277AD7F824
:102500006C211346DB009B1A9B0003F5C0733B4410
:10251000C83BC3ED007AD7F86C310133C7F86C3192
:10252000D7F86C31052BD4DD07F1280207F1B80389
:1025300011461846FFF724FD0346002B0DD1BB4979
:102540000020FFF767F807F5C073A3F5BE733022CC
:102550000021186817F0C6FB64E10023C7F8683152
:1025600050E007F5C073A3F5B872D7F868319B0047
:1025700013444FF000021A600023C7F8643138E0BA
:1025800007F5C073A3F5B872D7F868319B00134400
:1025900093ED007A07F5C073A3F5AC71D7F8682105
:1025A00013465B0013445B00D7F8642113449B007F
:1025B0000B44D3ED006AD7F864319B0007F5C07275
:1025C000A2F5BC7212681344D3ED007A66EEA77AC6
:1025D00077EE277A07F5C073A3F5B872D7F868319C
:1025E0009B001344C3ED007AD7F864310133C7F878
:1025F0006431D7F86431052BC2DDD7F86831013377
:10260000C7F86831D7F86831052BAADD0023C7F871
:10261000603154E0D7F860319B0007F5C072A2F535
:10262000BE72126813444FF000021A600023C7F80C
:102630005C313BE0D7F860319B0007F5C072A2F532
:10264000BE721268134493ED007AD7F85C211346EA
:102650005B0013441B011A4607F5C073A3F5BA7358
:102660001B681A44D7F860319B001344D3ED006A0D
:1026700007F5C073A3F5B872D7F85C319B0013441B
:10268000D3ED007A66EEA77AD7F860319B0007F5A4
:10269000C072A2F5BE721268134477EE277AC3EDBA
:1026A000007AD7F85C310133C7F85C31D7F85C3178
:1026B000052BBFDDD7F860310133C7F86031D7F89B
:1026C00060310B2BA6DD4FF00003C7F85831002313
:1026D000C7F8543120E0D7F854319B0007F5C07299
:1026E000A2F5BE7212681344D3ED007AF0EEE77AD9
:1026F000C7ED527A97ED527AD7ED567AB4EEE77A73
:10270000F1EE10FA03DDD7F84831C7F85831D7F8A1
:1027100054310133C7F85431D7F854310B2BDADD7B
:10272000D7ED567AB7EE007AF4EEC77AF1EE10FAEA
:1027300038DDF7EE006A97ED567AC6EE877AC7ED78
:10274000537A0023C7F850311EE0D7F850319B0070
:1027500007F5C072A2F5BE721268134493ED007AB9
:10276000D7F850319B0007F5C072A2F5BE7212680F
:102770001344D7ED537A67EE277AC3ED007AD7F882
:1027800050310133C7F85031D7F850310B2BDCDD15
:10279000D7ED537AB7EEE77A53EC172B2449022092
:1027A000FEF738FF07F5C073A3F5BE731B68D3EDC2
:1027B000007AB7EEE75A07F5C073A3F5BE731B683E
:1027C0000433D3ED007AB7EEE77A07F5C073A3F5CB
:1027D000BE731B680833D3ED006AB7EEE66A8DED71
:1027E000026B8DED007B53EC152B12490220FEF796
:1027F00011FF07F1280207F1B80311461846FFF749
:10280000BFFB0346002B0DD10B490020FEF702FF52
:1028100007F5C073A3F5BE7330220021186817F0C6
:1028200061FA00BF07F5C077BD4680BDFCCB01084B
:1028300028CC010848CC010874CC010880B58EB0C2
:1028400002AFF860B9607A603B600023FB629DE0F4
:102850005349FA6A13465B0013445B010B440C3383
:1028600093ED007ADFED4F6AC7EE267AC7ED087A5E
:102870004B49FA6A13465B0013445B010B44103367
:1028800093ED007ADFED476AC7EE267AC7ED097A45
:102890004349FA6A13465B0013445B010B4414334B
:1028A00093ED007ADFED3F6AC7EE267AC7ED0A7A2C
:1028B00007F1140307F12002B968F868FEF7D2FFA8
:1028C00097ED057AFA6A13465B0013449B001A469B
:1028D0007B681344D3ED007AFA6A13465B00134415
:1028E0009B001A463B68134477EE677AC3ED007A83
:1028F00097ED067AFA6A13465B0013449B001A466A
:102900007B681344D3ED017AFA6A13465B001344E3
:102910009B0004333A68134477EE677AC3ED007A7C
:1029200097ED077AFA6A13465B0013449B001A4638
:102930007B681344D3ED027AFA6A13465B001344B2
:102940009B0008333A68134477EE677AC3ED007A48
:10295000FB6A002B17D1D7ED057AB7EEE76AFA6A62
:1029600013465B0013449B001A467B681344D3ED67
:10297000007AB7EEE77A8DED007B53EC162B0A490F
:102980000220FEF747FEFB6A0133FB62FB6A042B61
:102990007FF75EAF00BF00BF3037BD4680BD00BFD0
:1029A000F854002400007A4490CC010880B5A8B007
:1029B00000AFF860B9607A603B603A4BC7F894307A
:1029C00007F158037A68B968F868FFF737FF002302
:1029D000C7F89C305DE0FB681B68FB64FB68043350
:1029E0001B683B65FB6808331B687B65D7F89C3028
:1029F0009B00A0333B44543B93ED007AD7ED257AFE
:102A000077EE277AD7F89C309B00A0333B44543BA9
:102A1000C3ED007A07F1100307F14C007A68B9683A
:102A2000FFF70CFF0023C7F8983029E0D7F898305B
:102A30009B00A0333B44903B93ED007AD7F898304D
:102A40009B00A0333B44483BD3ED007A77EE676AA6
:102A5000D7F8982013465B0013449B001A463B6846
:102A60001A4497ED257AC6EE877AD7F89C309B00FA
:102A70001344C3ED007AD7F898300133C7F8983083
:102A8000D7F898300E2BD1DDD7F89C300133C7F83A
:102A90009C30D7F89C30022B9DDD00BF00BFA037D3
:102AA000BD4680BDBD37863580B5F0B00AAF07F5AD
:102AB000CC73A3F5C673186007F5CC73A3F5C87380
:102AC000196007F5CC73A3F5CA731A6007F1800388
:102AD00007F5CC72A2F5CA7207F5CC71A1F5C871E1
:102AE00007F5CC70A0F5C670126809680068FFF79A
:102AF000A5FE07F1BC0307F5CC72A2F5CA7207F573
:102B0000CC71A1F5C87107F5CC70A0F5C67012683C
:102B100009680068FFF74AFF07F5CC73A3F59E73B9
:102B2000184624231A46002117F0DCF807F5CC7369
:102B3000A3F5A4731A460023136053609360002327
:102B4000C7F8943192E00023C7F8903184E007F58C
:102B5000CC73A3F5A472D7F890319B00134493ED86
:102B6000007AD7F8942113465B001344D7F89021DC
:102B700013449B0003F5CC733B44DC3BD3ED006A6C
:102B800007F5CC73A3F58C72D7F894319B001344EE
:102B9000D3ED007A66EEA77A77EE277A07F5CC7345
:102BA000A3F5A472D7F890319B001344C3ED007ACB
:102BB0000023C7F88C3146E007F5CC73A3F59E716E
:102BC000D7F8902113465B001344D7F88C211344A7
:102BD0009B000B4493ED007AD7F8942113465B00D9
:102BE0001344D7F8902113449B0003F5CC733B4466
:102BF000DC3BD3ED006AD7F8942113465B00134405
:102C0000D7F88C2113449B0003F5CC733B44DC3B89
:102C1000D3ED007A66EEA77A77EE277A07F5CC73C4
:102C2000A3F59E71D7F8902113465B001344D7F8A3
:102C30008C2113449B000B44C3ED007AD7F88C31F0
:102C40000133C7F88C31D7F88C31022BB4DDD7F8BB
:102C500090310133C7F89031D7F89031022B7FF7CC
:102C600076AFD7F894310133C7F89431D7F894315F
:102C70000E2B7FF768AFD74BC7F874310023C7F826
:102C8000883128E007F5CC73A3F59E72D7F8883118
:102C90001B01134493ED007A07F5CC73A3F59E72E4
:102CA000D7F888311B011344D3ED006AD7ED5D7A64
:102CB00066EEA77A77EE277A07F5CC73A3F59E72B6
:102CC000D7F888311B011344C3ED007AD7F8883157
:102CD0000133C7F88831D7F88831022BD2DD07F5E8
:102CE000CC73A3F59E7393ED007A07F5CC73A3F52F
:102CF0009E73D3ED046A07F5CC73A3F59E73D3EDF1
:102D0000087A66EEA76A07F5CC73A3F59E7393ED78
:102D1000056A07F5CC73A3F59E73D3ED077A66EECB
:102D2000277A76EEE77A27EE277A07F5CC73A3F5B4
:102D30009E73D3ED016A07F5CC73A3F59E7393EDF3
:102D4000036A07F5CC73A3F59E73D3ED087A26EEDC
:102D5000276A07F5CC73A3F59E73D3ED055A07F5E3
:102D6000CC73A3F59E73D3ED067A65EEA77A76EE63
:102D7000677A66EEA77A37EE677A07F5CC73A3F524
:102D80009E73D3ED026A07F5CC73A3F59E7393EDA2
:102D9000036A07F5CC73A3F59E73D3ED077A26EE8D
:102DA000276A07F5CC73A3F59E73D3ED045A07F594
:102DB000CC73A3F59E73D3ED067A65EEA77A76EE13
:102DC000677A66EEA77A77EE277AC7ED617AD7ED54
:102DD000617AB7EEE73A07F5CC73A3F59E73D3EDAE
:102DE000007AB7EEE77A07F5CC73A3F5A473D3EDB9
:102DF000006AB7EEE66A07F5CC73A3F5A473D3EDCA
:102E0000015AB7EEE55A07F5CC73A3F5A473D3EDD9
:102E1000024AB7EEE44A8DED064B8DED045B8DED75
:102E2000026B8DED007B53EC132B6B490220FEF7F8
:102E3000F1FBD7ED617AF0EEE77A9FED687AF4EE78
:102E4000C77AF1EE10FA40F1CF8065490220FEF713
:102E5000E1FBD7ED5D7AB2EE047A67EE877AC7EDD3
:102E60005D7A0023C7F8803128E007F5CC73A3F51D
:102E70009E72D7F880311B01134493ED007A07F559
:102E8000CC73A3F59E72D7F880311B011344D3EDA8
:102E9000006AD7ED5D7A66EEA77A77EE277A07F5B6
:102EA000CC73A3F59E72D7F880311B011344C3ED98
:102EB000007AD7F880310133C7F88031D7F88031F4
:102EC000022BD2DD07F5CC73A3F59E7393ED007A48
:102ED00007F5CC73A3F59E73D3ED046A07F5CC73A5
:102EE000A3F59E73D3ED087A66EEA76A07F5CC7357
:102EF000A3F59E7393ED056A07F5CC73A3F59E7356
:102F0000D3ED077A66EE277A76EEE77A27EE277A10
:102F100007F5CC73A3F59E73D3ED016A07F5CC7367
:102F2000A3F59E7393ED036A07F5CC73A3F59E7327
:102F3000D3ED087A26EE276A07F5CC73A3F59E73C6
:102F4000D3ED055A07F5CC73A3F59E73D3ED067A3E
:102F500065EEA77A76EE677A66EEA77A37EE677A3D
:102F600007F5CC73A3F59E73D3ED026A07F5CC7316
:102F7000A3F59E7393ED036A07F5CC73A3F59E73D7
:102F8000D3ED077A26EE276A07F5CC73A3F59E7377
:102F9000D3ED045A07F5CC73A3F59E73D3ED067AEF
:102FA00065EEA77A76EE677A66EEA77A77EE277AED
:102FB000C7ED617AD7ED617AF0EEE77A9FED077A97
:102FC000F4EEC77AF1EE10FA0ED506490220FEF7AC
:102FD00021FB83E26F12833AC0CC0108CCBC8C2B5E
:102FE000F4CC010824CD0108F7EE006A97ED617A70
:102FF000C6EE877AC7ED5C7A07F5CC73A3F59E73AE
:1030000093ED047A07F5CC73A3F59E73D3ED087A9C
:1030100027EE277A07F5CC73A3F59E73D3ED056AE7
:1030200007F5CC73A3F59E73D3ED077A66EEA77A06
:1030300037EE677AD7ED5C7A67EE277A07F5CC73BF
:10304000A3F5B673C3ED007A07F5CC73A3F59E73B1
:1030500093ED027A07F5CC73A3F59E73D3ED077A4F
:1030600027EE277A07F5CC73A3F59E73D3ED016A9B
:1030700007F5CC73A3F59E73D3ED087A66EEA77AB5
:1030800037EE677AD7ED5C7A67EE277A07F5CC736F
:10309000A3F5B673C3ED017A07F5CC73A3F59E7360
:1030A00093ED017A07F5CC73A3F59E73D3ED057A02
:1030B00027EE277A07F5CC73A3F59E73D3ED026A4A
:1030C00007F5CC73A3F59E73D3ED047A66EEA77A69
:1030D00037EE677AD7ED5C7A67EE277A07F5CC731F
:1030E000A3F5B673C3ED027A07F5CC73A3F59E730F
:1030F00093ED057A07F5CC73A3F59E73D3ED067AAD
:1031000027EE277A07F5CC73A3F59E73D3ED036AF8
:1031100007F5CC73A3F59E73D3ED087A66EEA77A14
:1031200037EE677AD7ED5C7A67EE277A07F5CC73CE
:10313000A3F5B673C3ED037A07F5CC73A3F59E73BD
:1031400093ED007A07F5CC73A3F59E73D3ED087A5F
:1031500027EE277A07F5CC73A3F59E73D3ED026AA9
:1031600007F5CC73A3F59E73D3ED067A66EEA77AC6
:1031700037EE677AD7ED5C7A67EE277A07F5CC737E
:10318000A3F5B673C3ED047A07F5CC73A3F59E736C
:1031900093ED027A07F5CC73A3F59E73D3ED037A12
:1031A00027EE277A07F5CC73A3F59E73D3ED006A5B
:1031B00007F5CC73A3F59E73D3ED057A66EEA77A77
:1031C00037EE677AD7ED5C7A67EE277A07F5CC732E
:1031D000A3F5B673C3ED057A07F5CC73A3F59E731B
:1031E00093ED037A07F5CC73A3F59E73D3ED077ABD
:1031F00027EE277A07F5CC73A3F59E73D3ED046A07
:1032000007F5CC73A3F59E73D3ED067A66EEA77A25
:1032100037EE677AD7ED5C7A67EE277A07F5CC73DD
:10322000A3F5B673C3ED067A07F5CC73A3F59E73C9
:1032300093ED017A07F5CC73A3F59E73D3ED067A6F
:1032400027EE277A07F5CC73A3F59E73D3ED006ABA
:1032500007F5CC73A3F59E73D3ED077A66EEA77AD4
:1032600037EE677AD7ED5C7A67EE277A07F5CC738D
:10327000A3F5B673C3ED077A07F5CC73A3F59E7378
:1032800093ED007A07F5CC73A3F59E73D3ED047A22
:1032900027EE277A07F5CC73A3F59E73D3ED016A69
:1032A00007F5CC73A3F59E73D3ED037A66EEA77A88
:1032B00037EE677AD7ED5C7A67EE277A07F5CC733D
:1032C000A3F5B673C3ED087A07F5CC73A3F5A47321
:1032D000D3ED007AF1EE677A07F5CC73A3F5BC73F2
:1032E000C3ED007A07F5CC73A3F5A473D3ED017A8F
:1032F000F1EE677A07F5CC73A3F5BC73C3ED017AE1
:1033000007F5CC73A3F5A473D3ED027AF1EE677AD7
:1033100007F5CC73A3F5BC73C3ED027A07F5CC7344
:10332000A3F5C2731A460023136053609360002311
:10333000C7F87C3143E00023C7F8783136E007F561
:10334000CC73A3F5C272D7F87C319B00134493ED84
:10335000007A07F5CC73A3F5B671D7F87C21134634
:103360005B001344D7F8782113449B000B44D3ED42
:10337000006A07F5CC73A3F5BC72D7F878319B00CF
:103380001344D3ED007A66EEA77A77EE277A07F535
:10339000CC73A3F5C272D7F87C319B001344C3ED04
:1033A000007AD7F878310133C7F87831D7F8783117
:1033B000022BC4DDD7F87C310133C7F87C31D7F854
:1033C0007C31022BB7DD07F5CC73A3F5C6731B6800
:1033D00093ED007A07F5CC73A3F5C273D3ED007AB1
:1033E00077EE277A07F5CC73A3F5C6731B68C3ED98
:1033F000007A07F5CC73A3F5C6731B68043393ED0D
:10340000007A07F5CC73A3F5C273D3ED017A07F503
:10341000CC73A3F5C6731B68043377EE277AC3ED2C
:10342000007A07F5CC73A3F5C6731B68083393EDD8
:10343000007A07F5CC73A3F5C273D3ED027A07F5D2
:10344000CC73A3F5C6731B68083377EE277AC3EDF8
:10345000007A07F5CC73A3F5C273D3ED007AB7EE0B
:10346000E72A07F5CC73A3F5C273D3ED017AB7EE63
:10347000E77A07F5CC73A3F5C273D3ED026AB7EE12
:10348000E66A07F5CC73A3F5C6731B68D3ED005A43
:10349000B7EEE55A07F5CC73A3F5C6731B68043382
:1034A000D3ED004AB7EEE44A07F5CC73A3F5C67333
:1034B0001B680833D3ED003AB7EEE33A8DED083BD5
:1034C0008DED064B8DED045B8DED026B8DED007B7C
:1034D00053EC122B03490220FEF79CF807F5CC773A
:1034E000BD4680BD44CD010880B590B000AFA44B6F
:1034F0007B63A44B3B630023FB6391E0FB6B07EE14
:10350000903AB8EEE77B9FED9A6B27EE067BF7EEDD
:10351000C77BC7ED047A97ED040A19F02DFAB0EED7
:10352000407AD7ED0D7A67EE277A974AFB6B5B01FD
:103530001344C3ED007A97ED040A19F059F9B0EE7F
:10354000407AD7ED0D7A67EE277A8F4AFB6B5B01E5
:1035500013440433C3ED007A8B4AFB6B5B011344C5
:1035600008333A6B1A60884AFB6B5B011344D3ED56
:10357000007AF1EE677AC7ED037A834AFB6B5B0151
:1035800013440433D3ED007AF1EE677AC7ED027A83
:10359000B3EE047AD7ED0C7A77EE677AC7ED017A4D
:1035A000D7ED037A27EEA77AD7ED027A67EEA77AEE
:1035B00037EE277AD7ED017A67EEA77A77EE277A8A
:1035C000B0EE670A19F0CCF887ED000AD7ED036A70
:1035D00097ED007AC6EE877A6B4AFB6B5B0113446A
:1035E0000C33C3ED007AD7ED026A97ED007AC6EE90
:1035F000877A654AFB6B5B0113441033C3ED007A95
:10360000D7ED016A97ED007AC6EE877A5E4AFB6BCA
:103610005B0113441433C3ED007AFB6B0133FB638E
:10362000FB6B032B7FF76AAF584BFB62544BBB62BB
:103630000423BB6392E0BB6B043B07EE903AB8EE09
:10364000E77B9FED4D6B27EE067BF7EEC77BC7ED63
:10365000097A97ED090A19F08FF9B0EE407AD7EDA3
:103660000B7A67EE277A484ABB6B5B011344C3EDC4
:10367000007A97ED090A19F0BBF8B0EE407AD7ED61
:103680000B7A67EE277A404ABB6B5B011344043325
:10369000C3ED007A3C4ABB6B5B0113440833BA6A42
:1036A0001A60394ABB6B5B011344D3ED007AF1EE2B
:1036B000677AC7ED087A344ABB6B5B011344043365
:1036C000D3ED007AF1EE677AC7ED077AB3EE047AAC
:1036D000D7ED0A7A77EE677AC7ED067AD7ED087AE2
:1036E00027EEA77AD7ED077A67EEA77A37EE277A23
:1036F000D7ED067A67EEA77A77EE277AB0EE670AFB
:1037000019F02EF887ED050AD7ED086A97ED057ACE
:10371000C6EE877A1C4ABB6B5B0113440C33C3EDC6
:10372000007AD7ED076A97ED057AC6EE877A164AD2
:10373000BB6B5B0113441033C3ED007AD7ED066A0F
:1037400097ED057AC6EE877A0F4ABB6B5B0113448F
:103750001433C3ED007ABB6B0133BB63BB6B0B2B24
:103760007FF769AF00BF00BF4037BD4680BD00BFD7
:10377000182D4454FB21F93F182D4454FB21E93FF7
:103780000000C8410000A040A02C002400003442EA
:1037900080B584B000AF324B4FF00002DA60304B9E
:1037A0004FF000021A612E4B4FF000025A612D4B70
:1037B000BB602D4B7B600123FB6042E0FB68013B5B
:1037C00007EE903AB8EEE77B9FED236B27EE067B82
:1037D000F7EEC77BC7ED007A97ED000A19F0CCF839
:1037E000B0EE407AD7ED027A67EE277A1C49FA6884
:1037F00013465B0013445B010B440C33C3ED007AAA
:1038000097ED000A18F0F4FFB0EE407AD7ED027A97
:1038100067EE277A1249FA6813465B0013445B018E
:103820000B441033C3ED007A0D49FA6813465B0070
:1038300013445B010B4414337A681A60FB6801334C
:10384000FB60FB68042BB9DD00BF00BF1037BD462D
:1038500080BD00BFAFF30080182D4454FB21F93F19
:10386000F854002400005C420000A04180B592B0F2
:1038700006AF78604FF00003FB620023BB627AE082
:10388000AD49BA6A13465B0013445B010B445133E4
:103890001B78002B64D0A849BA6A13465B00134416
:1038A0005B010B44243393ED007AA349BA6A1346B3
:1038B0005B0013445B010B442433D3ED007A27EE05
:1038C000277A9D49BA6A13465B0013445B010B4497
:1038D0002833D3ED006A9849BA6A13465B00134453
:1038E0005B010B442833D3ED007A66EEA77A37EEFE
:1038F000277A9149BA6A13465B0013445B010B4473
:103900002C33D3ED006A8C49BA6A13465B0013442A
:103910005B010B442C33D3ED007A66EEA77A77EE89
:10392000277AB0EE670A18F01BFF87ED080AD7ED7B
:10393000087A67EEA77ABB6A9B0030333B44243B8E
:10394000C3ED007ABB6A9B0030333B44243BD3ED8C
:10395000007A97ED0B7A77EE277AC7ED0B7A07E0BE
:10396000BB6A9B0030333B44243B4FF000021A609B
:10397000BB6A0133BB62BB6A042B81DDD7ED0B7AD6
:103980009FED6E7AF4EEC77AF1EE10FA10D57B68EF
:103990004FF000021A607B684FF000025A607B68AB
:1039A0004FF000029A607B684FF00002DA60BFE0DF
:1039B0007B684FF000021A607B684FF000025A608B
:1039C0007B684FF000029A6000237B6253E07B68C3
:1039D00093ED007A58497A6A13465B0013445B0101
:1039E0000B440C33D3ED006A7B6A9B0030333B44BD
:1039F000243BD3ED007A66EEA77A77EE277A7B68D0
:103A0000C3ED007A7B6893ED017A4B497A6A1346DD
:103A10005B0013445B010B441033D3ED006A7B6AF7
:103A20009B0030333B44243BD3ED007A66EEA77A0B
:103A300077EE277A7B68C3ED017A7B6893ED027A93
:103A40003D497A6A13465B0013445B010B4414330F
:103A5000D3ED006A7B6A9B0030333B44243BD3EDBB
:103A6000007A66EEA77A77EE277A7B68C3ED027A52
:103A70007B6A01337B627B6A042BA8DD7B68D3ED14
:103A8000006A97ED0B7AC6EE877A7B68C3ED007A01
:103A90007B68D3ED016A97ED0B7AC6EE877A7B6877
:103AA000C3ED017A7B68D3ED026A97ED0B7AC6EE1F
:103AB000877A7B68C3ED027A97ED0B7ADFED206A97
:103AC000C7EE267A7B68C3ED037A7B68D3ED037A71
:103AD000B7EE007AF4EEC77AF1EE10FA03DD7B68F8
:103AE0004FF07E52DA6004F08DFF02467B681A6167
:103AF0007B68D3ED007AB7EEE74A7B68D3ED017AB5
:103B0000B7EEE77A7B68D3ED026AB7EEE66A7B68C8
:103B1000D3ED035AB7EEE55A8DED045B8DED026BE4
:103B20008DED007B53EC142B06490220FDF772FD4E
:103B30003037BD4680BD00BFF85400246F12833A71
:103B40000050434778CD0108B0B5A2B004AF87ED6F
:103B5000010A07F13C031846FFF788FEFB6B604A39
:103B600013613B6C5E4A53617B6C5D4A936172B634
:103B700000BF5C4B07F124041D4628686968AA68E9
:103B8000EB680FC428692060AB8AA38062B600BFCF
:103B9000B7F9303007EE903AF8EEE77A9FED527AB7
:103BA00067EE877AC7ED1B7AB7F9323007EE903AA5
:103BB000F8EEE77A9FED4C7A67EE877AC7ED1A7ACE
:103BC000B7F9343007EE903AF8EEE77A9FED467A8F
:103BD00067EE877AC7ED197AB7F92A3007EE903A7F
:103BE000F8EEE77A9FED407A67EE877AB7EEE77AEC
:103BF0009FED396B27EE067BF7EEC77BC7ED187A92
:103C0000B7F92C3007EE903AF8EEE77A9FED367A66
:103C100067EE877AB7EEE77A9FED2F6B27EE067B8C
:103C2000F7EEC77BC7ED177AB7F92E3007EE903A5B
:103C3000F8EEE77A9FED2C7A67EE877AB7EEE77AAF
:103C40009FED256B27EE067BF7EEC77BC7ED167A57
:103C500004F0D8FE0246254B1B68D31AB3F57A7FD1
:103C60001AD904F0CFFE0346204A1360D7ED1B7A21
:103C7000B7EEE75AD7ED1A7AB7EEE77AD7ED196AB9
:103C8000B7EEE66A8DED026B8DED007B53EC152BE4
:103C900017490220FDF7BEFC164B93ED0F7AD7EDC6
:103CA0000F7A77EE677AC7ED067A124B93ED107AAA
:103CB000D7ED107A77EE677AC7ED077A0D4B93ED63
:103CC000117AD7ED117A77EE677AC7ED087A00237B
:103CD0007B671DE1AFF30080399D52A246DF913F23
:103CE000802C0024285300246F12833A202E0024B5
:103CF000A4CD010804000024964A7B6F9B00134466
:103D000093ED007A7B6F9B0078333B44603BD3EDAF
:103D1000007A67EE277A8F4A7B6F12339B00134439
:103D2000C3ED007A8B4A7B6F08339B001344043346
:103D300093ED007A7B6F9B0078333B44603BD3ED7F
:103D4000006AD7ED017A66EEA77A77EE277A814A84
:103D50007B6F08339B0013440433C3ED007A7D4A24
:103D60007B6F08339B001344043393ED007A794B47
:103D7000D3ED2A7AB4EEE77AF1EE10FA09DD754B4D
:103D8000D3F8A82073497B6F08339B000B4404339E
:103D90001A60704A7B6F08339B001344043393ED21
:103DA000007A6C4BD3ED2A7AF1EE677AB4EEE77ABB
:103DB000F1EE10FA0CD5674BD3ED2A7AF1EE677A63
:103DC000644A7B6F08339B0013440433C3ED007ACD
:103DD000604A7B6F12339B00134493ED007A5D4A77
:103DE0007B6F02339B0013440433D3ED006A594ABE
:103DF0007B6F08339B0013440433D3ED007A66EEE7
:103E0000A77A77EE277A534A7B6F12339B001344CD
:103E1000C3ED007AD7ED017A9FED4F7AF4EEC77AC1
:103E2000F1EE10FA3CDD7B6F9B0078333B44603B46
:103E300093ED007A474A7B6F0C339B001344D3ED1C
:103E4000007A77EE676A97ED017AC6EE877AC7ED5A
:103E5000147A404A7B6F12339B00134493ED007A2F
:103E60003C4A7B6F06339B001344D3ED006AD7EDC9
:103E7000147A66EEA77A77EE277A364A7B6F12338A
:103E80009B001344C3ED007A7B6F9B0078333B4467
:103E9000603B1A682F497B6F0C339B000B441A6000
:103EA0002C4A7B6F12339B00134493ED007A294B0D
:103EB000D3ED2B7AB4EEE77AF1EE10FA08DD254B5C
:103EC000D3F8AC2023497B6F12339B000B441A605C
:103ED000204A7B6F12339B00134493ED007A1D4BF5
:103EE000D3ED2B7AF1EE677AB4EEE77AF1EE10FAC1
:103EF0000BD5184BD3ED2B7AF1EE677A154A7B6F11
:103F000012339B001344C3ED007A7B6F01337B6750
:103F10007B6F022B7FF7F0AE0E4B93ED247AD7ED3B
:103F20001B7A77EE677AC7ED037A0A4B93ED257A11
:103F3000D7ED1A7A77EE677AC7ED047A054B93EDE1
:103F4000267AD7ED197A77EE677AC7ED057A0023DE
:103F50003B6701E1040000246F12833A834A3B6F00
:103F600014339B001344043393ED007A3B6F9B00A2
:103F700078333B446C3BD3ED007A67EE277A7B4A7B
:103F80003B6F26339B0013440433C3ED007A774A1A
:103F90003B6F1E339B00134493ED007A3B6F9B00F5
:103FA00078333B446C3BD3ED006AD7ED017A66EE83
:103FB000A77A77EE277A6D4A3B6F1E339B00134436
:103FC000C3ED007A694A3B6F1E339B00134493EDA7
:103FD000007A664BD3ED2A7AB4EEE77AF1EE10FA66
:103FE00008DD624BD3F8A82060493B6F1E339B006D
:103FF0000B441A605D4A3B6F1E339B00134493EDE4
:10400000007A5A4BD3ED2A7AF1EE677AB4EEE77A6A
:10401000F1EE10FA0BD5554BD3ED2A7AF1EE677A13
:10402000524A3B6F1E339B001344C3ED007A4F4A44
:104030003B6F26339B001344043393ED007A4B4AC5
:104040003B6F18339B001344D3ED006A474A3B6F24
:104050001E339B001344D3ED007A66EEA77A77EE09
:10406000277A424A3B6F26339B0013440433C3ED47
:10407000007A3B6F002B06D03B6F012B01D1FB6D0B
:1040800002E0BB6D00E03B6E7B65384A3B6F263338
:104090009B001344043393ED007A344A3B6F1A3388
:1040A0009B0013440433D3ED006AD7ED157A66EE16
:1040B000A77A77EE277A2D4A3B6F26339B0013446D
:1040C0000433C3ED007A294A3B6F26339B00134427
:1040D000043393ED007A254BD3ED2B7AB4EEE77AD7
:1040E000F1EE10FA09DD214BD3F8AC201F493B6FEC
:1040F00026339B000B4404331A601C4A3B6F263363
:104100009B001344043393ED007A184BD3ED2B7AC4
:10411000F1EE677AB4EEE77AF1EE10FA0CD5134BB4
:10412000D3ED2B7AF1EE677A104A3B6F26339B0072
:1041300013440433C3ED007A3B6F9B0078333B4458
:104140006C3B1A6809493B6F20339B000B440433D6
:104150001A603B6F01333B673B6F022B7FF7FEAE6C
:1041600000BF00BF7837BD46B0BD00BF04000024CB
:1041700080B5EAB000AF07F5D473A3F5C67383ED3D
:10418000000A07F5D473A3F5C873C3ED000A07F559
:10419000D473A3F5CA7383ED001A07F5D473A3F59E
:1041A000CC73C3ED001A07F5D473A3F5CE7383ED7A
:1041B000002A07F5D473A3F5D073C3ED002A07F5E1
:1041C000D473A3F5D2731860464B1B69C7F89831B6
:1041D000444B5B69C7F89C31424B9B69C7F8A031DF
:1041E0004FF00003C7F88C314FF00003C7F890314F
:1041F0004FF07E53C7F8943107F16C0207F5C67192
:1042000007F5CC731846FDF733FE07F5D473A3F515
:10421000AA7307F5D472A2F5C67212681A6007F580
:10422000D473A3F5AA7307F5D472A2F5C872126805
:104230005A6007F5D473A3F5AA7307F5D472A2F5F3
:10424000CA7212689A6007F5D473A3F5AA7307F5CA
:10425000D472A2F5CC721268DA6007F5D473A3F5B4
:10426000AA7307F5D472A2F5CE7212681A6107F527
:10427000D473A3F5AA7307F5D472A2F5D0721268AD
:104280005A6107F1240207F1540107F16C039FED15
:10429000160A1846FEF790F80023C7F8A43117E075
:1042A000D7F8A4319B0007F5D472A2F5D272126838
:1042B000134407F5D472A2F5C271D7F8A421920075
:1042C0000A4412681A60D7F8A4310133C7F8A43140
:1042D000D7F8A4310B2BE3DD00BF00BF07F5D4777F
:1042E000BD4680BD802C00246F12833A80B596B005
:1042F00000AF04F087FB38653E4B1B68002B03D1F1
:104300003C4A3B6D136071E03A4B1B683A6DD31A1F
:1043100007EE903AB8EE677ADFED376AC7EE267A95
:10432000C7ED137AD7ED137A9FED347AF4EEC77A9E
:10433000F1EE10FA59D497ED130AFFF705FC304B54
:10434000D3ED127AB2EE047A67EE877AC7ED127A6D
:104350002B4BD3ED137AB2EE047A67EE877AC7ED72
:10436000117A274BD3ED147AB2EE047A67EE877A8E
:104370009FED247A77EE877AC7ED107A204BD3F839
:104380009C30FB631E4BD3F8A030BB631C4BD3F8AF
:10439000A4307B633B1D1846D7ED0D2A97ED0E2AFE
:1043A000D7ED0F1A97ED101AD7ED110A97ED120AF3
:1043B000FFF7DEFE00237B6510E07B6DDAB27B6DDC
:1043C0009B0058333B44543BD3ED007AB0EE670A70
:1043D0001046FCF749FF7B6D01337B657B6D0B2B32
:1043E000EBDD044A3B6D136000E000BF5837BD466B
:1043F00080BD00BF242E002400007A446F12833A4F
:1044000004000024CDCC1C4180B586B004AF2F49F8
:104410000220FDF7FFF80C2200212D4815F062FC68
:104420000C2200212B4815F05DFC0C2200212A48AB
:1044300015F058FC0C220021284815F053FC0C22E2
:104440000021274815F04EFC0C220021254815F0CC
:1044500049FC254B01221A71244B02221A700023B9
:104460007B6012E022497A6813465B0013445B01CB
:104470000B4451331B78002B04D17B68DBB2184608
:1044800003F00EF97B6801337B607B68042BE9DD68
:10449000184BD3ED0F7AB7EEE75A164BD3ED107ADF
:1044A000B7EEE77A134BD3ED116AB7EEE66A8DEDFE
:1044B000026B8DED007B53EC152B0F490220FDF7AD
:1044C000A9F800BF0837BD4680BD00BFD0CD0108A8
:1044D00028000024340000244C0000247C00002428
:1044E00088000024A0000024802C00249C2C0024A0
:1044F000F854002404000024F4CD010880B500AF76
:1045000006490220FDF786F8FCF7A4FF044B0022C1
:104510001A71044B00221A7000BF80BD28CE01081A
:10452000802C00249C2C002480B588B004AF87ED3B
:10453000030AC7ED020A87ED011A114AFB68D3632B
:104540000F4ABB6813640E4A7B685364D7ED037A45
:10455000B7EEE75AD7ED027AB7EEE77AD7ED016A00
:10456000B7EEE66A8DED026B8DED007B53EC152BFB
:1045700004490220FDF74EF800BF1037BD4680BD4C
:10458000040000244CCE010880B5D6B004AF07F576
:10459000A473A3F5A273186007F5A473A3F5A4731D
:1045A000196007F588731846FFF760F9D7ED477A69
:1045B0009FEDE17AF4EEC77AF1EE10FA18DD97ED8F
:1045C000447ADFEDE26AC7EE267AC7ED417A97EDCD
:1045D000457ADFEDDE6AC7EE267AC7ED427A97EDBF
:1045E000467ADFEDDA6AC7EE267AC7ED437A40E015
:1045F00007F5A473A3F5A2731B6893ED007ADFEDB2
:10460000D36AC7EE267AC7ED417A07F5A473A3F5FE
:10461000A2731B68043393ED007ADFEDCC6AC7EE1A
:10462000267AC7ED427A07F5A473A3F5A2731B6837
:10463000083393ED007ADFEDC56AC7EE267AC7ED41
:10464000437AD7ED417AF5EE407AF1EE10FA10D1C7
:10465000D7ED427AF5EE407AF1EE10FA09D1D7EDB6
:10466000437AF5EE407AF1EE10FA02D1B34BC7F877
:104670000C31D7ED417AB7EEE75AD7ED427AB7EE73
:10468000E77AD7ED436AB7EEE66A8DED026B8DED02
:10469000007B53EC152BAA490220FCF7BBFF00233B
:1046A000C7F8443115E0D7F84431DBB21846FCF7BF
:1046B000DBFEF0EE407AD7F844319B0003F5A4739B
:1046C0003B44743BC3ED007AD7F844310133C7F85B
:1046D0004431D7F844310B2BE5DD07F198033C2238
:1046E0000021184615F0FEFA0023C7F8403162E0B9
:1046F000D7F84031DAB2D7F840319B0003F5A47304
:104700003B44743BD3ED007A07F108031946B0EE41
:10471000670A1046FCF71CFA0023C7F83C3141E059
:104720000023C7F8383134E0D7F83C2113465B004A
:104730001344D7F8382113449B0003F5A4733B447A
:10474000B03B93ED007A07F5A473A3F5A071D7F8F9
:104750003C2113465B001344D7F8382113449B00D7
:104760000B44D3ED007A77EE277AD7F83C21134635
:104770005B001344D7F8382113449B0003F5A4735E
:104780003B44B03BC3ED007AD7F838310133C7F86A
:104790003831D7F83831022BC6DDD7F83C31013338
:1047A000C7F83C31D7F83C31042BB9DDD7F840319C
:1047B0000133C7F84031D7F840310B2B98DD002387
:1047C000C7F83431A6E05F49D7F8342113465B00BF
:1047D00013445B010B44243393ED007A5949D7F815
:1047E000342113465B0013445B010B443833D3ED93
:1047F000007A37EE677AD7F8342113465B0013440A
:104800009B0003F5A4733B44B03BD3ED007A77EEF5
:10481000677A9FED4D7A67EE877AD7F83421134691
:104820005B0013449B0003F5A4733B44EC3BC3EDD6
:10483000007A4449D7F8342113465B0013445B01E6
:104840000B44283393ED007A3E49D7F834211346C0
:104850005B0013445B010B443C33D3ED007A37EE2D
:10486000677AD7F8342113465B0013449B0003F5A5
:10487000A4733B44AC3BD3ED007A77EE677A9FEDAF
:10488000327A67EE877AD7F8342113465B001344F7
:104890009B0003F5A4733B44E83BC3ED007A294930
:1048A000D7F8342113465B0013445B010B442C33CF
:1048B00093ED007A2349D7F8342113465B00134463
:1048C0005B010B444033D3ED007A37EE677AD7F8BB
:1048D000342113465B0013449B0003F5A4733B444F
:1048E000A83BD3ED007A77EE677A9FED177A67EEF3
:1048F000877AD7F8342113465B0013449B0003F5F5
:10490000A4733B44E43BC3ED007AD7F83431013360
:10491000C7F83431D7F83431042B7FF754AF4FF058
:1049200000033B654FF000037B654FF07E53BB6592
:104930000023C7F830311BE0CDCCCC3DCDCCCC3CF6
:104940000CCF0108F8540024BD37863500007A44A6
:104950000000204207F15C0207F1500107F5827365
:104960001846FEF7A1F8D7F830310133C7F83031D7
:10497000D7F83031042BEDDDD7ED417A1FED0D7AFC
:1049800067EE877A07F5A473A3F58273C3ED007A07
:10499000D7ED427A1FED137A67EE877A07F5A47395
:1049A000A3F58273C3ED017AD7ED437A1FED197A2F
:1049B00067EE877A07F5A473A3F58273C3ED027AD5
:1049C00007F5A473A3F58273D3ED027AF5EEC07AEE
:1049D000F1EE10FA06D507F5A473A3F582734FF034
:1049E00000029A6007F5A473A3F58273D3ED027AEF
:1049F0001FED297AF4EEC77AF1EE10FA05DD07F51E
:104A0000A473A3F58273544A9A60544BC7F82C31AF
:104A100007F5A473A3F5827393ED007A07F5A473E9
:104A2000A3F58273D3ED007A27EE277A07F5A473F6
:104A3000A3F58273D3ED016A07F5A473A3F582731E
:104A4000D3ED017A66EEA77A77EE277AB0EE670AA1
:104A500017F086FE87ED4A0A97ED4A7AD7ED4B7A32
:104A6000B4EEE77AF1EE10FA27DDD7ED4B6A97ED59
:104A70004A7AC6EE877AC7ED497A07F5A473A3F59B
:104A8000827393ED007AD7ED497A67EE277A07F5BE
:104A9000A473A3F58273C3ED007A07F5A473A3F59D
:104AA000827393ED017AD7ED497A67EE277A07F59D
:104AB000A473A3F58273C3ED017A07F5A473A3F57C
:104AC00082731A6807F5A473A3F5A2731B681A60B2
:104AD00007F5A473A3F5A2731B68043307F5A4724A
:104AE000A2F5827252681A6007F5A473A3F5A27347
:104AF0001B68083307F5A472A2F5827292681A60E7
:104B000007F5A473A3F5A2731B68D3ED007AB7EE83
:104B1000E75A07F5A473A3F5A2731B680433D3ED1A
:104B2000007AB7EEE77A07F5A473A3F5A2731B68C2
:104B30000833D3ED006AB7EEE66A8DED026B8DEDBA
:104B4000007B53EC152B06490220FCF763FD00BFE8
:104B500007F5A477BD4680BD0000204200005C42FE
:104B60003CCF010880B500AF1B48FCF743FD1B4953
:104B70000220FCF74FFDFCF74DF9194B01221A708A
:104B8000FEF7B2FCFEF704FEFBF79CFF154902207E
:104B9000FCF740FD02F0E4F8114B01225A7001F0DD
:104BA00084FC034683F00103DBB2002B04D00E49E2
:104BB0000020FCF72FFD03E00C490220FCF72AFD42
:104BC0000B490220FCF726FD02F036FE09490220BF
:104BD000FCF720FD00BF80BD585A00246CCF0108AF
:104BE000802C0024A4CF0108C8CF0108ECCF010815
:104BF00008D0010828D00108B0B483B000AF034644
:104C0000FB71244B1B78022B1BD0022B3CDC002BAE
:104C100002D0012B07D037E0FB79AA2B31D11D4BF5
:104C200001221A702DE0FB79552B06D1194B022277
:104C30001A70194B00221A7026E0164B00221A70C7
:104C400022E0154B1B785A1CD1B2134A1170194639
:104C5000124AFB795354104B1B78152B13D9104A69
:104C60000E4B14461D460FCD0FC495E8030020607F
:104C7000043421800B4B01221A70064B00221A705B
:104C800001E000BF00E000BF00BF0C37BD46B0BC74
:104C9000704700BF0C5300242653002410530024F7
:104CA000285300243E53002480B500AF00F02AF8BA
:104CB00000F002F800BF80BD80B584B000AF03F003
:104CC000A1FEF8600C4B1B68FA68D31ABB60BB6886
:104CD000B3F57A7F0BD34FF000037B60074A7B6804
:104CE000D360074B00221A60034AFB68136000BFC1
:104CF0001037BD4680BD00BF88540024802C00249E
:104D00009454002480B500AF03F07CFE0346024AB1
:104D1000936000BF80BD00BF802C002480B500AF31
:104D200026490220FCF776FC25490220FCF772FC9C
:104D300024490220FCF76EFC23490220FCF76AFCA0
:104D400022490220FCF766FC21490220FCF762FCA4
:104D500020490220FCF75EFC1F490220FCF75AFCA8
:104D60001E490220FCF756FC1D490220FCF752FCAC
:104D70001C490220FCF74EFC1B490220FCF74AFCB0
:104D80001A490220FCF746FC19490220FCF742FCB4
:104D900018490220FCF73EFC17490220FCF73AFCB8
:104DA00016490220FCF736FC15490220FCF732FCBC
:104DB00014490220FCF72EFC00BF80BD90D00108F2
:104DC000A8D00108C0D00108E0D0010804D1010832
:104DD0004CD1010878D10108A8D10108F0D101080F
:104DE00014D201083CD2010868D201089CD2010803
:104DF000D4D2010808D3010858D301088CD3010884
:104E0000D0D30108F8D3010880B500AF0A230422EB
:104E1000024903480CF0CAFF00BF80BD1CD4010842
:104E2000585A002480B584B004AF2F490220FCF703
:104E3000F1FB2E4B9B681A462D490220FCF7EAFB3A
:104E40002A4BD3ED037AB7EEE77A53EC172B2949B7
:104E50000220FCF7DFFB254B1B781A46264902206F
:104E6000FCF7D8FB214B5B781A4624490220FCF75B
:104E7000D1FB1E4BDB781A4621490220FCF7CAFB06
:104E80001A4B9B781A461F490220FCF7C3FB174BAD
:104E90001B791A461C490220FCF7BCFB134BD3EDCF
:104EA000047AB7EEE75A114BD3ED057AB7EEE77AFD
:104EB0000E4BD3ED066AB7EEE66A8DED026B8DED13
:104EC000007B53EC152B11490220FCF7A3FB4FF498
:104ED00080710F4802F000FC0D4A0E490220FCF7D9
:104EE00099FB00BFBD4680BD24D40108802C00245E
:104EF00038D401084CD4010860D4010874D40108E6
:104F00008CD40108A4D40108BCD40108D4D401086D
:104F100040530024FCD4010880B5ACB006AF824BEE
:104F20001B78002B00F0FA8003F06CFDC7F88C00B2
:104F30007E4B1B68D7F88C20D21A7D4B1B689A4297
:104F4000C0F0EE80794AD7F88C3013603846D7F835
:104F50008C30784A802114F0EDFDC7F894000023CE
:104F6000C7F8903095E07449D7F8902013465B005D
:104F700013445B010B4451331B78002B72D06E49F4
:104F8000D7F8902013465B0013445B010B44243395
:104F900093ED007A6849D7F8902013465B001344DC
:104FA0005B010B443833D3ED007A77EE277AC7EDF7
:104FB000227A6149D7F8902013465B0013445B01C5
:104FC0000B44283393ED007A5B49D7F890201346C1
:104FD0005B0013445B010B443C33D3ED007A77EE66
:104FE000277AC7ED217A5449D7F8902013465B0001
:104FF00013445B010B442C3393ED007A4E49D7F8F0
:10500000902013465B0013445B010B444033D3ED07
:10501000007A77EE277AC7ED207AD7F894303A46AF
:10502000D018D7F89430C3F18003D7ED227AB7EEC9
:10503000E77AD7ED216AB7EEE66AD7ED205AB7EEE8
:10504000E55A8DED045B8DED026B8DED007B3B4AE7
:10505000194614F06FFD0246D7F894301344C7F890
:10506000943011E0D7F894303A46D018D7F89430FD
:10507000C3F18003324A194614F05CFD0246D7F8AA
:1050800094301344C7F89430D7F890300133C7F800
:105090009030D7F89030042B7FF765AFD7F8943075
:1050A0003A46D018D7F89430C3F18003254AD2EDA0
:1050B000047AB7EEE77A234AD2ED056AB7EEE66ADC
:1050C000204AD2ED065AB7EEE55A8DED045B8DED20
:1050D000026B8DED007B194A194614F02BFD024638
:1050E000D7F894301344C7F894303B461846FBF782
:1050F00057F903461A463B46134413491A460B46D2
:105100001B8813803B461846FBF74AF903469AB2C0
:1051100039460A230D480CF049FE02E000BF00E0CA
:1051200000BF9837BD4680BD995400248C5400249C
:10513000B400002404D50108F854002408D501085F
:1051400018D50108802C002420D50108585A0024C5
:1051500080B586B002AF786039603A683C49022079
:10516000FCF758FA3B6842F2D842934207D03B68BA
:1051700042F2D84237490020FCF74CFA64E07B68E1
:10518000BB60BB681A68BB685B6833490220FCF7E8
:1051900041FABB681B68314A934204D03049002071
:1051A000FCF738FA50E0BB685B68012B04D02D494E
:1051B0000020FCF72FFA47E0BB689B680C2B07D157
:1051C000BB68DB68052B03D1BB681B690D2B0CD0BA
:1051D000BB689A68BB68D968BB681B6900930B46BB
:1051E00021490020FCF716FA2EE020490220FCF7A6
:1051F00011FA4FF48033FB600BE0F86801F0AEF970
:10520000FA681B490220FCF705FAFB6803F5805396
:10521000FB60FB68174A9342EFD917490220FCF75D
:10522000F9F942F2D84279684FF4803001F050FA2F
:105230004FF4803211490220FCF7ECF96423042278
:105240000F4910480CF0B2FD1037BD4680BD00BFBD
:1052500024D5010840D501086CD50108BEBAFECAA4
:1052600090D50108A4D50108B8D50108ECD50108EE
:1052700004D60108D724010020D601083CD6010835
:1052800068D60108585A0024F0B52DED088BA1B05E
:1052900016AF03F031FB01F05FF803F02DFB00F0D7
:1052A000E1F9FCF737FAFCF70DFA02F067FB02F0C0
:1052B000F3FE02F0A5FF03F01DF803F08FF903F0F1
:1052C000D9F901F08DFA12F0FDF9FFF74BFC01223C
:1052D000344935480CF0F8FD002134480BF04CFE01
:1052E000042132480BF048FE082130480BF044FE00
:1052F0000C212E480BF040FE00212D480BF03CFE07
:1053000004212B480BF038FE082129480BF034FE0D
:105310000C2127480BF030FE002126480BF02CFE14
:10532000042124480BF028FE082122480BF024FE1B
:105330000C2120480BF020FE1F490220FCF76AF9DF
:105340001E490220FCF766F91D490220FCF762F9AC
:1053500008230C221B490220FCF75CF91A490220A1
:10536000FCF758F9FFF7DAFC0A23042217490E4824
:105370000CF01CFD03F046FB0346154A136003F0D6
:1053800041FB0346134A136003F03CFB386200F014
:1053900083FA114B1B683A6AD31A132B37D90023AF
:1053A0007B622EE082540024585A00247459002451
:1053B000C05900240C5A002418D701081CD7010832
:1053C00048D7010874D70108A8D701081CD40108E0
:1053D00084540024885400249C54002493497A6AFD
:1053E00013465B0013445B010B4451331B78002BC5
:1053F00004D07B6ADBB2184601F0B6FE7B6A01334B
:105400007B627B6A042BE9DD894A3B6A1360894B26
:105410001B78DBB2002B62D0864B00221A70864BC1
:105420009B8A9BB29C46844B1B881BB29E46824B38
:105430005B881BB21A46804B9B881BB219467E4B79
:10544000DB881BB218467C4B1B891BB21C467A4B6F
:105450005B891BB21D46784B9B891BB21E46764B5F
:10546000DB891BB27B60744B1B8A1BB23B60724BA7
:105470009B7CDBB208933B6807937B680693059699
:1054800004950394029001910092734662466B4921
:105490000220FCF7BFF803F0B5FAF861684B1B680F
:1054A000FA69D31AB3F57A7F19D9654AFB69136093
:1054B000614B9B8A9BB219465F4B9B891BB2184676
:1054C0005D4BDB891BB21A465B4B1B8A1BB20193F7
:1054D000009203460A465B490220FCF79BF8FFF75F
:1054E0001BFD594B1B79002B1BD0584B1B683A6A8C
:1054F0009A4216D04FF07E53FB604FF000033B61A1
:105500004FF000037B614FF00003BB6107F10C0318
:1055100019464F48FFF738F8FEF7E8FE4B4A3B6A5A
:105520001360494B1B79002B6FD04A4B1B683A6ABA
:10553000D31AC82B69D9474A3B6A1360424BD3ED53
:10554000047AB7EEE7BA404BD3ED057AB7EEE77AC7
:105550003D4BD3ED066AB7EEE66A3F4BD3ED0F5AEB
:10556000B7EEE55A3C4BD3ED104AB7EEE44A3A4B5E
:10557000D3ED113AB7EEE33A374B93ED0F2A324BA6
:10558000D3ED042A72EE622AB7EEE22A324B93ED93
:10559000101A2D4BD3ED051A71EE611AB7EEE11A10
:1055A0002D4B93ED110A284BD3ED060A70EE600ADD
:1055B000B7EEE00A284B93ED128AB7EEC88A264B65
:1055C00093ED139AB7EEC99A234B93ED14AAB7EE55
:1055D000CAAA8DED14AB8DED129B8DED108B8DED68
:1055E0000E0B8DED0C1B8DED0A2B8DED083B8DED1B
:1055F000064B8DED045B8DED026B8DED007B53EC66
:105600001B2B16490220FCF705F8FFF74DFBFBF7B3
:105610008DFF134B1B78002B03D1012003F0FEF903
:10562000B2E6002003F0FAF9AEE600BFF854002419
:105630009C5400243E53002428530024D8D701084A
:10564000A05400242CD80108802C0024A454002449
:10565000902C0024A85400240400002448D80108F9
:105660009954002480B59CB000AF07F124034C226C
:105670000021184614F036FB3B1D2022002118465D
:1056800014F030FB022007F00FFA00233B60304B90
:10569000DB6A2F4A23F00103D3622D4BDB6A03F050
:1056A00001033B602B4B9B692A4A43F440439361BF
:1056B000284B9B6903F440433B603B6800BF254B8C
:1056C0009B6903F40053B3F5005FF8D101237B62BB
:1056D0004FF48033BB620223BB640223FB640223CA
:1056E0003B6540237B650223BB650423FB650223E6
:1056F0003B660C237B660023BB660023FB6607F139
:105700002403184607F06EFE0346002B01D000F07C
:10571000B5F83F237B600323BB600023FB600823B5
:105720003B6140237B614023BB614FF48063FB619D
:1057300040233B623B1D0221184608F0ADFA0346A8
:10574000002B01D000F09AF800BF7037BD4680BD35
:10575000000400580048025880B582B000AF78605D
:105760007B681B68394A93426BD1394B1B78002BFD
:105770001ED0384B1A68384B1B689A4208D2354BFA
:105780001B685A1C33490A60344A1178344AD15490
:10579000304B1A68304B1B689A424DD32C4B002279
:1057A0001A702D4B1B6819462D48FFF7D1FC43E0BA
:1057B0002A4B1B780D2B03D0284B1B780A2B0DD1BD
:1057C000284B1B88002B02D0274B01221A700A237A
:1057D0000222264926480CF0E9FA2DE01F4B1B78DF
:1057E000082B03D01D4B1B787F2B10D11D4B1B8822
:1057F000002B21D01B4B1B88013B9AB2194B1A80FE
:105800000A2303221B491A480CF0D0FA14E0154B66
:105810001B883E2B10D8134B1B885A1C91B2114A7F
:1058200011801A460D4B1978134B99540A23012203
:105830000A490F480CF0BAFA012208490C480CF04A
:1058400043FB00BF0837BD4680BD00BF0044004099
:10585000282E0024045300240853002482540024DA
:105860002C2E0024805400249854002418D70108BA
:10587000585A0024A8D801084054002480B500AF2D
:1058800004490020FBF7C6FE4FF4FA7003F0C6F897
:10589000FAE700BFACD8010880B5BAB006AFAF4B8D
:1058A0001B78002B00F03885AC4B00221A70AC4BF3
:1058B0001B881A46AB4B00219954AB4B1B68013334
:1058C000A94A1360A74BC7F8CC3004E0D7F8CC3016
:1058D0000133C7F8CC30D7F8CC301B78202BF5D06B
:1058E000D7F8CC301B78092BF0D0D7F8CC301B7808
:1058F0000D2BEBD0D7F8CC301B780A2BE6D0D7F89D
:10590000CC00FAF74DFD0346C7F8C8300BE0D7F8D6
:10591000C830013BC7F8C830D7F8C830D7F8CC201A
:10592000134400221A70D7F8C830002B23DDD7F8B3
:10593000C830013BD7F8CC2013441B78202BE6D08D
:10594000D7F8C830013BD7F8CC2013441B78092B7B
:10595000DDD0D7F8C830013BD7F8CC2013441B78F2
:105960000D2BD4D0D7F8C830013BD7F8CC20134446
:105970001B780A2BCBD0D7F8C830002B0BD1784B33
:1059800000221A8040220021764814F0ABF9FFF77C
:105990003BFA00F0C2BC7549D7F8CC0014F0BCF952
:1059A000C7F8B800D7F8B830002B0BD16C4B0022E9
:1059B0001A80402200216B4814F094F9FFF724FA72
:1059C00000F0ABBC6A49D7F8B800FAF789FC034687
:1059D000002B03D1FFF7A2F900F093BC6549D7F87B
:1059E000B800FAF77DFC0346002B03D1FFF71AFA43
:1059F00000F087BC6049D7F8B800FAF771FC03469D
:105A0000002B42D15949002014F086F9F86057491B
:105A1000002014F081F9B860FB68002B2FD0BB6820
:105A2000002B2CD0F86812F0BEFA7860B86812F03B
:105A3000B7FAB0EE407BF7EEC77BC7ED007A7B6824
:105A4000002B16DB7B680B2B13DC7B68DBB297ED3E
:105A5000000A1846FBF708FCD7ED007AB7EEE77AA4
:105A60008DED007B7A6845490220FBF7D3FD00F0FD
:105A700048BC43490020FBF7CDFD00F042BC414942
:105A80000020FBF7C7FD00F03CBC3F49D7F8B80049
:105A9000FAF726FC0346002B26D13449002014F0E7
:105AA0003BF978617B69002B18D0786912F078FA9D
:105AB000B0EE407BF7EEC77BC7ED047A97ED040AA2
:105AC000FBF7AEFCD7ED047AB7EEE77A53EC172B71
:105AD0002E490220FBF79EFD00F013BC2C4900204C
