:020000040800F2
:100000000000082491820008E9760008F1760008D3
:10001000F976000801770008097700080000000061
:100020000000000000000000000000001177000840
:100030001F770008000000002D7700083B770008BC
:10004000E5820008E5820008E5820008E5820008F4
:10005000E5820008E5820008E5820008E5820008E4
:10006000E5820008E5820008E5820008497700087B
:100070005D770008E5820008E5820008E582000857
:10008000E5820008E5820008E5820008E5820008B4
:10009000E5820008E5820008E5820008E5820008A4
:1000A000E5820008E5820008E5820008E582000894
:1000B000E5820008E5820008E5820008E582000884
:1000C000E5820008E5820008E582000871770008F3
:1000D000E5820008E582000885770008E5820008CF
:1000E000E5820008E582000800000000E5820008C3
:1000F000E5820008E5820008E5820008E582000844
:10010000E5820008E5820008E5820008E582000833
:10011000E5820008E5820008E5820008E582000823
:10012000E5820008E5820008E5820008E582000813
:10013000E5820008E5820008E5820008E582000803
:1001400000000000000000000000000000000000AF
:10015000E5820008E5820008E5820008E5820008E3
:10016000E5820008E5820008E5820008E5820008D3
:10017000E5820008E5820008E5820008E5820008C3
:10018000E5820008E5820008E5820008E5820008B3
:10019000E5820008E5820008E5820008E5820008A3
:1001A000E5820008E5820008E5820008E582000893
:1001B000E5820008E5820008E5820008E582000883
:1001C000E5820008E5820008E5820008E582000873
:1001D000E5820008E5820008E5820008E582000863
:1001E000E5820008E5820008E5820008E582000853
:1001F000E5820008E5820008E5820008E582000843
:10020000E5820008E5820008E5820008E582000832
:10021000E5820008E5820008E5820008E582000822
:10022000E5820008E5820008E58200080000000081
:10023000E5820008E582000800000000E582000871
:10024000E5820008E5820008E5820008E5820008F2
:10025000E5820008E5820008E5820008E5820008E2
:10026000E5820008E5820008E5820008E5820008D2
:10027000E5820008E5820008E58200080000000031
:10028000E5820008E5820008E58200080000000021
:0802900000000000E5820008F7
:1002A00010B5054C237833B9044B13B10448AFF3B0
:1002B00000800123237010BD3C02002400000000D8
:1002C0008075010808B5034B1BB103490348AFF320
:1002D000008008BD00000000400200248075010875
:1002E00010F8012B11F8013B012A28BF9A42F7D0E0
:1002F000D01A70470000000000000000000000005D
:1003000001F0FF01102A2BDB10F0070F08D010F8C6
:10031000013B013A8B422DD010F0070F42B3F6D1CA
:10032000F0B441EA012141EA014122F007047FF0E3
:1003300000070023F0E80256083C85EA010586EA3A
:10034000010685FA47F5A3FA87F586FA47F6A5FA76
:1003500087F68EB9EED1F0BC01F0FF0102F0070282
:1003600032B110F8013B013A83EA010313B1F8D12D
:100370000020704701387047002D06BF354603380E
:10038000073815F0010F07D1013015F4807F02BF47
:10039000013015F4C03F0130F0BC0138704700BF98
:1003A000034613F8012B002AFBD1181A01387047B5
:1003B00081F0004102E000BF83F0004330B54FEA16
:1003C00041044FEA430594EA050F08BF90EA020F83
:1003D0001FBF54EA000C55EA020C7FEA645C7FEA16
:1003E000655C00F0E2804FEA5454D4EB5555B8BF39
:1003F0006D420CDD2C4480EA020281EA030382EAAA
:10040000000083EA010180EA020281EA0303362D3B
:1004100088BF30BD11F0004F4FEA01314FF4801C0E
:100420004CEA113102D0404261EB410113F0004F20
:100430004FEA03334CEA133302D0524263EB4303D7
:1004400094EA050F00F0A780A4F10104D5F1200E75
:100450000DDB02FA0EFC22FA05F2801841F10001D0
:1004600003FA0EF2801843FA05F359410EE0A5F1A4
:1004700020050EF1200E012A03FA0EFC28BF4CF0D5
:10048000020C43FA05F3C01851EBE37101F000458B
:1004900007D54FF0000EDCF1000C7EEB00006EEB98
:1004A0000101B1F5801F1BD3B1F5001F0CD3490822
:1004B0005FEA30004FEA3C0C04F101044FEA445279
:1004C00012F5800F80F09A80BCF1004F08BF5FEA00
:1004D000500C50F1000041EB045141EA050130BDE0
:1004E0005FEA4C0C404141EB0101013C28BFB1F5F2
:1004F000801FE9D291F0000F04BF01460020B1FA3D
:1005000081F308BF2033A3F10B03B3F120020CDA0F
:100510000C3208DD02F1140CC2F10C0201FA0CF0ED
:1005200021FA02F10CE002F11402D8BFC2F1200C52
:1005300001FA02F120FA0CFCDCBF41EA0C01904008
:10054000E41AA2BF01EB0451294330BD6FEA040451
:100550001F3C1CDA0C340EDC04F11404C4F120023C
:1005600020FA04F001FA02F340EA030021FA04F34E
:1005700045EA030130BDC4F10C04C4F1200220FAA5
:1005800002F001FA04F340EA0300294630BD21FAE3
:1005900004F0294630BD94F0000F83F4801306BFA9
:1005A00081F480110134013D4EE77FEA645C18BF9D
:1005B0007FEA655C29D094EA050F08BF90EA020F34
:1005C00005D054EA000C04BF1946104630BD91EA2C
:1005D000030F1EBF0021002030BD5FEA545C05D12F
:1005E0004000494128BF41F0004130BD14F580046E
:1005F0003CBF01F5801130BD01F0004545F0FE41E2
:1006000041F470014FF0000030BD7FEA645C1ABF16
:10061000194610467FEA655C1CBF0B46024650EA4D
:10062000013406BF52EA033591EA030F41F4002179
:1006300030BD00BF90F0000F04BF0021704730B5FF
:100640004FF4806404F132044FF000054FF00001D4
:1006500050E700BF90F0000F04BF0021704730B595
:100660004FF4806404F1320410F0004548BF40426A
:100670004FF000013EE700BF42004FEAE2014FEABF
:1006800031014FEA02701FBF12F07F4393F07F4F9A
:1006900081F06051704732F07F4208BF704793F09D
:1006A0007F4F04BF41F40021704730B54FF46074B0
:1006B00001F0004521F000411CE700BF50EA0102B3
:1006C00008BF704730B54FF000050AE050EA01025C
:1006D00008BF704730B511F0004502D5404261EBCC
:1006E00041014FF4806404F132045FEA915C3FF40D
:1006F000D8AE4FF003025FEADC0C18BF03325FEAAA
:10070000DC0C18BF033202EBDC02C2F1200300FA5A
:1007100003FC20FA02F001FA03FE40EA0E0021FA7F
:1007200002F11444BDE600BF53B94AB9002908BF1D
:1007300000281CBF4FF0FF314FF0FF3000F0C0B970
:10074000ADF1080C6DE904CE00F03EF8DDF804E0F0
:10075000DDE9022304B0704708B502460B4643ECBE
:10076000172BB5EEC07BF1EE10FA03D4BDE80840BC
:1007700000F00AB8B1EE477B51EC170B00F004F81B
:10078000404261EB410108BD9FED0B6B41EC170B43
:100790009FED0B5B27EE066BBCEEC66BB8EE464BCF
:1007A000A4EE457BFCEEC77B16EE101A17EE900AFE
:1007B000704700BFAFF30080000000000000F03D74
:1007C000000000000000F0412DE9F047089D8E4632
:1007D00004468846002B4AD18A42174662D9B2FAAB
:1007E00082F64EB1C6F1200301FA06F820FA03F3AF
:1007F000B74043EA0808B4404FEA174E1FFA87FC97
:10080000B8FBFEF1230C0EFB118843EA084301FB01
:100810000CF29A4209D9FB1801F1FF3080F0EA800E
:100820009A4240F2E78002393B449A1AA3B2B2FBE3
:10083000FEF00EFB102243EA024300FB0CFC9C4539
:1008400009D9FB1800F1FF3280F0D6809C4540F2B8
:10085000D3803B44023840EA0140A3EB0C03002163
:100860001DB1F3400022C5E90032BDE8F0878B429C
:1008700005D90DB1C5E9000100210846F5E7B3FA35
:1008800083F1002946D1734502D3824200F20581EB
:10089000841A6EEB030201209046002DE5D0C5E9D5
:1008A0000048E2E7002A00F09080B2FA82F6002EBB
:1008B00040F0A4808A1A030C4FEA174E80B2BCB2F3
:1008C0000121B2FBFEFC0EFB1C2243EA024304FBA7
:1008D0000CF29A4207D9FB180CF1FF3802D29A4267
:1008E00000F2E080C4469B1AB3FBFEF20EFB12330B
:1008F00040EA034302FB04F49C4207D9FB1802F1CF
:10090000FF3002D29C4200F2CA8002461B1B42EA20
:100910000C40A5E7C1F120068B4022FA06F71F43E1
:100920000EFA01F420FA06F32EFA06FE4FEA1749F2
:10093000234300FA01F81FFA87FCBEFBF9F01C0CF8
:1009400009FB10EE44EA0E4400FB0CFEA64502FA39
:1009500001F209D93C1900F1FF3A80F09C80A645CC
:1009600040F2998002383C44A4EB0E041FFA83FE47
:10097000B4FBF9F309FB13444EEA044403FB0CFCFB
:10098000A44508D93C1903F1FF3E80F08280A445BC
:100990007FD9023B3C4443EA0040A4EB0C04A0FB9B
:1009A00002EC64457346E14662D35FD05DB1B8EBBB
:1009B000030264EB090404FA06F622FA01F31E436B
:1009C000CC40C5E9006400214FE7B1FBF2FC010C0B
:1009D00041EA0E4180B240EA01423B4638463C467D
:1009E000B846BE462026B1FBF7F1A2EB080241EA69
:1009F0000C4166E7014618E710462CE7C6F12002D5
:100A00002EFA02F3B740B14020FA02F24FEA174E35
:100A10000A43B3FBFEF8BCB20EFB1833110C41EADB
:100A2000034108FB04F9B04089454FEA104380B206
:100A30003ED9791808F1FF3C01D289451FD8A1EBB6
:100A40000901B1FBFEF909FB04F80EFB191192B282
:100A500042EA0142424529D2BA1809F1FF31C4D213
:100A60004245C2D2A9F102013A44BEE7F0459DD207
:100A7000BEEB02036CEB070C0138E14696E7A7EBEF
:100A800009094944A8F1020CB1FBFEF909FB04F87D
:100A9000DBE773467FE7504666E70846FDE63B44E2
:100AA000023A33E7ACF1020C3B441CE749469CE7B1
:100AB000A1EB0901C446B1FBFEF909FB04F8C4E748
:100AC000704700BF80B483B000AF00237B6023E198
:100AD00097497A6813469B0013441B010B4410335B
:100AE0004FF000021A6092497A6813469B00134443
:100AF0001B010B4414334FF000021A608C497A68D2
:100B000013469B0013441B010B442C3300221A7024
:100B100087497A6813469B0013441B010B44083332
:100B2000844A1A607B680B2B00F2A48001A252F861
:100B300023F000BF650B00087B0B0008910B000839
:100B4000A70B0008BD0B0008D30B0008E90B000839
:100B5000FF0B0008150C00082D0C0008450C0008C0
:100B60005D0C000872497A6813469B0013441B0110
:100B70000B440C3301221A8086E06D497A681346D3
:100B80009B0013441B010B440C3302221A807BE0B0
:100B900067497A6813469B0013441B010B440C33CE
:100BA00004221A8070E062497A6813469B0013445D
:100BB0001B010B440C3308221A8065E05C497A68FB
:100BC00013469B0013441B010B440C3310221A8064
:100BD0005AE057497A6813469B0013441B010B44A3
:100BE0000C3320221A804FE051497A6813469B004B
:100BF00013441B010B440C3340221A8044E04C493F
:100C00007A6813469B0013441B010B440C3380226B
:100C10001A8039E046497A6813469B0013441B0149
:100C20000B440C334FF480721A802DE040497A68EF
:100C300013469B0013441B010B440C334FF480629A
:100C40001A8021E03A497A6813469B0013441B013D
:100C50000B440C334FF480521A8015E034497A6803
:100C600013469B0013441B010B440C334FF400420A
:100C70001A8009E02E497A6813469B0013441B0131
:100C80000B440C3301221A807B68032B13DC2849A8
:100C90007A6813469B0013441B010B44264A1A60D2
:100CA000796823487A6813469B0013441B01034468
:100CB000043319602DE07B68072B15DC1C497A682A
:100CC00013469B0013441B010B441C4A1A607B68AB
:100CD000043B184616497A6813469B0013441B01CF
:100CE0000B440433186014E011497A6813469B00E2
:100CF00013441B010B44124A1A607B68083B1846D8
:100D00000B497A6813469B0013441B010B440433C0
:100D100018607B6801337B607B680B2B7FF7D8AE54
:100D200000BF00BF0C37BD465DF8047B704700BFB5
:100D300058020024001002580C10002458100024FF
:100D4000A410002480B586B002AF034687ED000AE8
:100D5000FB71FB790B2B00F2A080D7ED007AB7EE88
:100D6000007AF4EEC77AF1EE10FA02DD4FF07E530E
:100D70003B60D7ED007ABFEE007AF4EEC77AF1EE71
:100D800010FA01D5474B3B60FA7913469B00134498
:100D90001B01454A1344FB60D7ED007AF5EEC07A9B
:100DA000F1EE10FA08DBFB689868FB689B8900226B
:100DB00019460AF0E7F80DE0FB689868FB689B8924
:100DC000012219460AF0DEF8D7ED007AF1EE677AD3
:100DD000C7ED007AD7ED007A9FED347A67EE877A17
:100DE000FCEEE77A17EE903ABB60FB685B68002B7D
:100DF00005D1FB681B681B68BA685A632CE0FB6866
:100E00005B68042B05D1FB681B681A68BB68936399
:100E100022E0FB685B68082B05D1FB681B681A6839
:100E2000BB68D36318E0FB685B680C2B05D1FB68DB
:100E30001B681A68BB6813640EE0FB685B68102BC4
:100E400005D1FB681B681A68BB68936504E0FB6802
:100E50001B681A68BB68D365FA79134913469B006F
:100E600013441B010B4410333A681A60FA790E4997
:100E700013469B0013441B010B4414333A681A6059
:100E8000FB79D7ED007AB7EEE77A8DED007B1A4655
:100E90000749022000F022FA00E000BF1037BD46EB
:100EA00080BD00BF000080BF5802002400C079440C
:100EB0009875010880B584B000AF87ED010A002362
:100EC000FB6009E0FB68DBB297ED010A1846FFF70B
:100ED00039FFFB680133FB60FB680B2BF2DD00BFC1
:100EE00000BF1037BD4680BD80B500AF9FED020A40
:100EF000FFF7E0FF00BF80BD0000000080B586B0B6
:100F000000AF034687ED040AC7ED030A87ED021A16
:100F10007960FB750E4AFB7D13700D4A3B69536087
:100F20000B4AFB6893600A4ABB68D360084A7B6837
:100F30001361074B01221A7507F05CFA0346044A55
:100F40009361034B0022DA6100BF1837BD4680BDB4
:100F50001806002480B400AF034B00221A7500BFAE
:100F6000BD465DF8047B70471806002480B586B046
:100F700002AF384B1B7D002B67D007F03BFAF860BF
:100F8000344B9B69FA68D31ABB60324B1B69BA6851
:100F9000B2FBF3F37B602F4BDB697A689A4255D939
:100FA0002C4B93ED017A2B4BD3ED036A7B6807EE54
:100FB000903AF8EE677A66EEA77A77EE277AC7ED71
:100FC000007A244BD3ED037AF5EEC07AF1EE10FAF5
:100FD00009DD204BD3ED027A97ED007AB4EEE77A83
:100FE000F1EE10FA11D91B4BD3ED037AF5EEC07A6E
:100FF000F1EE10FA1FD5174BD3ED027A97ED007A78
:10100000B4EEE77AF1EE10FA15DB124B1B7897ED90
:10101000000A1846FFF796FE0E4A7B68D361D7EDAB
:10102000007AB7EEE77A8DED007B7A680A490220F4
:1010300000F054F90AE0FFF78DFF064B1B789FED97
:10104000070A1846FFF77EFE00E000BF1037BD46D6
:1010500080BD00BF18060024B07501080000000024
:1010600080B400AF034B1B7D1846BD465DF8047B82
:10107000704700BF1806002490B583B000AF00236E
:101080007B609DE053497A6813469B0013441B0123
:101090000B441033D3ED007AF0EEE77A9FED4E7AF1
:1010A000F4EEC77AF1EE10FA26DD4A497A68134663
:1010B0009B0013441B010B442C331B78002B40D1A5
:1010C00044497A6813469B0013441B010B442C339C
:1010D00001221A707A6813469B0013441B012833BF
:1010E0003C4A134405333D491A460B4603CB106076
:1010F00051601B88138124E036497A6813469B00AF
:1011000013441B010B442C331B78002B19D07A6835
:1011100013469B0013441B0128332E4A1344053306
:101120002E491846FFF7DCF80346002B09D1294960
:101130007A6813469B0013441B010B442C33002296
:101140001A7024497A6813469B0013441B010B4410
:1011500020331B6840F6C41293422ED91D497A6889
:1011600013469B0013441B010B442C3301221A70BD
:101170007A6813469B0013441B012833154A134415
:101180000533174A1C46134607CB20606160A260F6
:101190007B68DBB29FED130A1846FFF7D3FD7A6830
:1011A00013469B0013441B0128330A4A134405339A
:1011B0007A680D49002000F091F87B6801337B606C
:1011C0007B680B2B7FF75EAF00BF00BF0C37BD46BF
:1011D00090BD00BF58020024CDCC4C3FCC75010817
:1011E000D875010800000000E475010880B582B0E0
:1011F00000AF0346FB71FB790B2B17D8FA790D4929
:1012000013469B0013441B010B442C3300221A701D
:10121000FA7913469B0013441B012833054A1344F3
:10122000053320220021184612F05AFE00BF08376D
:10123000BD4680BD5802002490B58BB002AF7860E7
:101240000B467B807B881A4A1946786812F042FD6B
:101250000023FB6124E01749FA6913469B001344FD
:101260001B010B441033D3ED007AB7EEE77A07F198
:101270000C038DED007B104A1021184612F02AFD58
:101280007C887868FFF78CF80346E31A5A1E07F14A
:101290000C031946786812F02BFEFB690133FB61E1
:1012A000FB690B2BD7DD00BF00BF2437BD4690BDC7
:1012B00000760108580200240876010880B483B043
:1012C00000AF7860044A7B68136000BF0C37BD46EE
:1012D0005DF8047B704700BF380600240EB490B55B
:1012E000ADF5107D02AF024607F50E73A3F2312370
:1012F0001A70234B1B7807F50E72A2F23122127876
:101300009A4235D81F4B1B68002B31D007F512725B
:1013100007F50E73A3F582731A6007F50E73A3F534
:10132000827307F59C701B68D7F844224FF48071D4
:1013300012F0C8FD07F05EF8024607F1080007F555
:101340009C7300931346104A4FF4967112F0C2FC3E
:101350000C4B1C6807F108031846FFF721F80346F9
:101360009AB207F10801642320460EF05DFB00E00D
:1013700000BF07F50E77BD46BDE8904003B070474B
:1013800000000024380600241076010880B500AF64
:1013900002490220FFF7A2FF00BF80BD1C760108B2
:1013A00080B500AF02490220FFF798FF00BF80BD63
:1013B0003C76010880B500AF02490220FFF78EFF9E
:1013C00000BF80BD6076010880B582B000AF114BD0
:1013D000D3F8D8300F4A43F00103C2F8D8300D4B90
:1013E000D3F8D83003F001037B607B680022002132
:1013F0000B2007F02CF90B2007F043F90022002105
:101400000C2007F024F90C2007F03BF900BF083747
:10141000BD4680BD0044025880B58CB000AF07F1D6
:101420001C0300221A605A609A60DA601A61484B05
:10143000D3F8E030464A43F01003C2F8E030444BA2
:10144000D3F8E03003F01003BB61BB69404BD3F825
:10145000E0303F4A43F08003C2F8E0303C4BD3F821
:10146000E03003F080037B617B69394BD3F8E030D7
:10147000374A43F00403C2F8E030354BD3F8E0308C
:1014800003F004033B613B69314BD3F8E030304A51
:1014900043F00103C2F8E0302D4BD3F8E03003F005
:1014A0000103FB60FB682A4BD3F8E030284A43F085
:1014B0000203C2F8E030264BD3F8E03003F0020319
:1014C000BB60BB68224BD3F8E030214A43F00803ED
:1014D000C2F8E0301E4BD3F8E03003F008037B6025
:1014E0007B68002249F2FF511A4809F04BFD0122A6
:1014F000FF21194809F046FD49F2FF53FB61012322
:101500003B6200237B620023BB6207F11C03194688
:10151000104809F06FFBFF23FB6101233B620023AE
:101520007B620023BB6207F11C0319460A4809F0DD
:1015300061FB00214FF0806006F098FF00214FF022
:10154000006006F093FF00BF3037BD4680BD00BF8E
:1015500000440258001002580008025880B58CB0B0
:1015600000AF78604FF00003FB620023BB6234E001
:10157000874ABB6A8C2101FB03F3134474331B7845
:10158000002B1FD0BB6ADBB2184605F055FD87ED76
:10159000070AD7ED077A67EEA77ABB6A9B0030335C
:1015A0003B44283BC3ED007ABB6A9B0030333B448D
:1015B000283BD3ED007A97ED0B7A77EE277AC7EDCB
:1015C0000B7A07E0BB6A9B0030333B44283B4FF06B
:1015D00000021A60BB6A0133BB62BB6A042BC7DD21
:1015E000D7ED0B7A9FED6B7AF4EEC77AF1EE10FA35
:1015F00004D57B684FF00002DA60C5E07B684FF0ED
:1016000000021A607B684FF000025A607B684FF05E
:1016100000029A6000237B6279E07B6A9B00303392
:101620003B44283BD3ED007AF5EEC07AF1EE10FA98
:101630006ADD7B6A9B0030333B44283BD3ED007A64
:10164000B7EE007A37EE877AF7EE006AC6EE877A51
:10165000C7ED087A7B6893ED007A4D4A7B6A8C214E
:1016600001FB03F313440C33D3ED006AD7ED087A82
:1016700066EEA76A7B6A9B0030333B44283BD3ED80
:10168000007A66EEA77A77EE277A7B68C3ED007A58
:101690007B6893ED017A3E4A7B6A8C2101FB03F360
:1016A00013441033D3ED006AD7ED087A66EEA76ACB
:1016B0007B6A9B0030333B44283BD3ED007A66EED7
:1016C000A77A77EE277A7B68C3ED017A7B6893ED82
:1016D000027A2F4A7B6A8C2101FB03F313441433F3
:1016E000D3ED006AD7ED087A66EEA76A7B6A9B00A5
:1016F00030333B44283BD3ED007A66EEA77A77EE91
:10170000277A7B68C3ED027A7B6A01337B627B6A4E
:10171000042B82DD7B68D3ED006A97ED0B7AC6EE71
:10172000877A7B68C3ED007A7B68D3ED016A97ED19
:101730000B7AC6EE877A7B68C3ED017A7B68D3EDBE
:10174000026A97ED0B7AC6EE877A7B68C3ED027A60
:1017500097ED0B7ADFED106AC7EE267A7B68C3ED52
:10176000037A7B68D3ED037AB7EE007AF4EEC77A9A
:10177000F1EE10FA03DD7B684FF07E52DA6006F07E
:1017800039FE02467B681A613037BD4680BD00BF16
:101790002C0A00246F12833A0050434780B58EB064
:1017A00000AF87ED010A07F114031846FFF7D6FED4
:1017B000D7ED087A9FEDAE7AF4EEC77AF1EE10FA23
:1017C00000F151817B69AB4A1361BB69A94A53613E
:1017D000FB69A84A9361A84B93ED0F7AD7ED057A80
:1017E00077EE677AC7ED027AA34B93ED107AD7EDC7
:1017F000067A77EE677AC7ED037A9F4B93ED117AFD
:10180000D7ED077A77EE677AC7ED047A9A4B93EDB6
:10181000007AD7ED027A67EE277A974BC3ED127AFA
:10182000954B93ED017AD7ED037A67EE277A924BC9
:10183000C3ED137A904B93ED027AD7ED047A67EEFD
:10184000277A8D4BC3ED147A00237B637AE08A4AB2
:101850007B6B08339B001344043393ED007A7B6B5E
:101860009B0038333B44303BD3ED006AD7ED017A1F
:1018700066EEA77A77EE277A7F4A7B6B08339B0068
:1018800013440433C3ED007A7B4A7B6B08339B001F
:101890001344043393ED007A774BD3ED157AB4EE0D
:1018A000E77AF1EE10FA09DD734B5A6D72497B6BE2
:1018B00008339B000B4404331A601EE06E4A7B6BB6
:1018C00008339B001344043393ED007A6A4BD3ED45
:1018D000157AF1EE677AB4EEE77AF1EE10FA0CD5EC
:1018E000654BD3ED157AF1EE677A634A7B6B08336B
:1018F0009B0013440433C3ED007A5F4A7B6B1233C1
:101900009B00134493ED007A5B4A7B6B02339B0090
:1019100013440433D3ED006A574A7B6B08339B00B2
:1019200013440433D3ED007A66EEA77A77EE277A74
:10193000514A7B6B12339B001344C3ED007A7B6BDF
:1019400001337B637B6B022B81DDD7ED017A9FED49
:101950004B7AF4EEC77AF1EE10FA45DD00233B63D3
:101960003FE03B6B9B0038333B44303B93ED007AC8
:10197000414A3B6B0C339B001344D3ED007A77EE66
:10198000676A97ED017AC6EE877AC7ED0A7A3A4A16
:101990003B6B12339B00134493ED007A364A3B6B4A
:1019A00006339B001344D3ED006AD7ED0A7A66EE46
:1019B000A77A77EE277A304A3B6B12339B001344A9
:1019C000C3ED007A3B6B9B0038333B44303B1A68D5
:1019D00029493B6B0C339B000B441A603B6B013372
:1019E0003B633B6B022BBCDD0023FB6237E0224AEA
:1019F000FB6A12339B00134493ED007A1E4BD3ED28
:101A0000167AB4EEE77AF1EE10FA08DD1A4B9A6D09
:101A10001949FB6A12339B000B441A601CE0164AFA
:101A2000FB6A12339B00134493ED007A124BD3ED03
:101A3000167AF1EE677AB4EEE77AF1EE10FA0BD58A
:101A40000D4BD3ED167AF1EE677A0B4AFB6A12332F
:101A50009B001344C3ED007AFB6A0133FB62FB6A0F
:101A6000022BC4DD00E000BF3837BD4680BD00BF9B
:101A70009A99993E60070024040000246F12833A6B
:101A800080B58CB000AF87ED030AC7ED020A87ED81
:101A9000011A38600023FB62BDE08B49FA6A1346E5
:101AA0005B001344DB000B440C3393ED007AD7ED5D
:101AB000037A27EE277A8449FA6A13465B001344B7
:101AC000DB000B441033D3ED006AD7ED027A66EEEB
:101AD000A77A37EE277A7C49FA6A13465B001344EB
:101AE000DB000B441433D3ED006AD7ED017A66EEC8
:101AF000A77A77EE277AC7ED067A7349FA6A134612
:101B00005B001344DB000B4493ED007A6E49FA6AE4
:101B100013465B001344DB000B44D3ED007A27EE41
:101B2000277A6949FA6A13465B001344DB000B44C9
:101B30000433D3ED006A6449FA6A13465B00134428
:101B4000DB000B440433D3ED007A66EEA77A37EE60
:101B5000277A5D49FA6A13465B001344DB000B44A5
:101B60000833D3ED006A5849FA6A13465B00134400
:101B7000DB000B440833D3ED007A66EEA77A77EEEC
:101B8000277AB0EE670A15F013FB87ED050AD7ED4B
:101B9000057AB7EE007A37EE877AF7EE006AC6EE7E
:101BA000877AC7ED047A97ED067AD7ED047A67EE67
:101BB000277AFB6A9B003A68134477EEA77AC3ED55
:101BC000007AFB6A9B003A681344D3ED007AB7EEC3
:101BD000007AF4EEC77AF1EE10FA06DDFB6A9B009C
:101BE0003A6813444FF07E521A60FB6A9B003A68D1
:101BF0001344D3ED007ABFEE007AF4EEC77AF1EE2B
:101C000010FA05D5FB6A9B003A6813442F4A1A6004
:101C1000FB6A0133FB62FB6A0B2B7FF73EAF4FF091
:101C20000003BB6200237B621BE07B6A9B003A6877
:101C30001344D3ED007AF0EEE77A97ED0A7AB4EE2A
:101C4000E77AF1EE10FA09D57B6A9B003A681344F3
:101C5000D3ED007AF0EEE77AC7ED0A7A7B6A0133BA
:101C60007B627B6A0B2BE0DDD7ED0A7A9FED187A59
:101C7000F4EEC77AF1EE10FA00DC20E0DFED146A32
:101C800097ED0A7AC6EE877AC7ED077A00233B62A2
:101C900012E03B6A9B003A68134493ED007A3B6A7A
:101CA0009B003A681344D7ED077A67EE277AC3EDB5
:101CB000007A3B6A01333B623B6A0B2BE9DD00BFD4
:101CC0003037BD4680BD00BF3C060024000080BF09
:101CD000CDCC4C3F80B592B000AF06F08BFB3864A2
:101CE000374B1B68002B03D1354A3B6C136063E014
:101CF000334B1B683A6CD31A07EE903AB8EE677A0A
:101D0000DFED306AC7EE267AC7ED0F7AD7ED0F7A8E
:101D10009FED2D7AF4EEC77AF1EE10FA4BD497EDE1
:101D20000F0AFFF73BFD294BD3ED127AB2EE047A8E
:101D300067EE877AC7ED0E7A244BD3ED137AB2EEB5
:101D4000047A67EE877AC7ED0D7A204BD3ED147ACB
:101D5000B2EE047A67EE877AC7ED0C7AD7ED0C7A8B
:101D60009FED1B7A77EE877AC7ED0C7A3B461846D3
:101D700097ED0C1AD7ED0D0A97ED0E0AFFF780FECE
:101D800000237B6410E07B6CDAB27B6C9B004833F1
:101D90003B44483BD3ED007AB0EE670A1046FEF7AD
:101DA000D1FF7B6C01337B647B6C0B2BEBDD044A36
:101DB0003B6C136000E000BF4837BD4680BD00BFEC
:101DC0005C07002400007A446F12833A0400002468
:101DD000CDCC1C4180B586B004AF27490220FFF767
:101DE0007DFA0C220021254812F07AF80C220021FD
:101DF000234812F075F80C220021224812F070F8E6
:101E0000214B01221A73214B07221A7000237B6099
:101E100011E01F4A7B688C2101FB03F313447433E8
:101E20001B78002B04D17B68DBB2184605F04AF919
:101E30007B6801337B607B68042BEADD154BD3EDB7
:101E40000F7AB7EEE75A134BD3ED107AB7EEE77A75
:101E5000104BD3ED116AB7EEE66A8DED026B8DED96
:101E6000007B53EC152B0C490220FFF737FA00BF1B
:101E70000837BD4680BD00BF7C76010828000024DD
:101E8000340000244C00002460070024880700244C
:101E90002C0A002404000024A076010880B500AFBD
:101EA00006490220FFF71AFAFFF71EF8044B00223A
:101EB0001A73044B00221A7000BF80BDD47601084B
:101EC000600700248807002480B588B004AF87ED40
:101ED000030AC7ED020A87ED011A114AFB68D363B2
:101EE0000F4ABB6813640E4A7B685364D7ED037ACC
:101EF000B7EEE75AD7ED027AB7EEE77AD7ED016A87
:101F0000B7EEE66A8DED026B8DED007B53EC152B81
:101F100004490220FFF7E2F900BF1037BD4680BD3B
:101F200004000024F876010880B52DED048B9CB0E8
:101F300014AF78600B467B8007F10C031846FFF75F
:101F40000DFB7988294B1B7B002B01D0284B00E02F
:101F5000284BD7ED037AB7EEE77AD7ED046AB7EEF0
:101F6000E66AD7ED055AB7EEE55AD7ED064AB7EE61
:101F7000E44A214AD2ED0F3AB7EEE33A1E4AD2EDD7
:101F8000102AB7EEE22A1C4AD2ED111AB7EEE11A76
:101F9000194AD2ED120AB7EEE00A174A92ED138AF7
:101FA000B7EEC88A144A92ED149AB7EEC99A8DED2D
:101FB000129B8DED108B8DED0E0B8DED0C1B8DEDB1
:101FC0000A2B8DED083B8DED064B8DED045B8DED01
:101FD000026B8DED007B094A786811F07BFE00BF33
:101FE0002037BD46BDEC048B80BD00BF60070024D8
:101FF0002877010830770108040000243C770108A5
:1020000080B586B000AF3B1D00221A605A609A600E
:10201000DA601A613748FFF751F937490220FFF7B4
:102020005DF9364BD3F8E030344A43F00403C2F88C
:10203000E030324BD3F8E03003F004033B603B6800
:1020400001237B600123BB600023FB6000233B6115
:102050003B1D19462A4808F0CDFD012201212848E0
:1020600008F090FF27490220FFF738F9FEF72AFD14
:10207000254B01221A7025490220FFF72FF904F0A1
:10208000ADFC214B01225A7000F082FA0021204859
:102090000CF0B0FD04211E480CF0ACFD08211C48DA
:1020A0000CF0A8FD0C211A480CF0A4FD00211948E1
:1020B0000CF0A0FD042117480CF09CFD08211548E8
:1020C0000CF098FD0C2113480CF094FD00211248EF
:1020D0000CF090FD042110480CF08CFD08210E48F6
:1020E0000CF088FD0C210C480CF084FD00BF183763
:1020F000BD4680BDF0100024B877010800440258A6
:1021000000080258F07701086007002410780108E1
:102110000C10002458100024A410002480B500AF37
:1021200000F020FA00F0C6F9FEF7A6FF00BF80BD60
:1021300080B500AFFEF7D8FE05490020FFF7CEF8C6
:10214000044B00221A70044B08221A7000BF80BD95
:1021500034780108250A00248807002480B59EB041
:1021600008AF0346FB71FB791A46B3490220FFF71B
:10217000B5F8FB79072B07D9FB791A46AF49002040
:10218000FFF7ACF8002352E1FB798C2202FB03F34A
:10219000AB4A13443B653B6D93F87430002B05D17B
:1021A000FB791A46A7490220FFF798F83B6D58685B
:1021B0003B6D1B890022194608F0E4FE012006F061
:1021C00025F9F0233B870023BB863B6D186807F198
:1021D000340207F138016423009302230BF076FEEA
:1021E000142006F013F980233B860023BB853B6D4A
:1021F000186807F12C0207F13001642300930223D1
:102200000BF064FE142006F001F93F233B85002308
:10221000BB843B6D186807F1240207F12801642391
:10222000009302230BF052FE034687F84F3097F8D5
:102230004F30002B10D097F84F301A4682490020BB
:10224000FFF74CF83B6D58683B6D1B89012219461E
:1022500008F098FE0023EAE097F824301A4697F831
:1022600025307A490220FFF739F8142006F0CEF81D
:102270004F23BB6107F11C0300221A609A8007F10B
:102280000C0300221A605A601A813B6D186807F12E
:102290000C0207F11801642300930A230BF016FEC9
:1022A000034687F84F303B6D58683B6D1B89012210
:1022B000194608F067FE97F84F30002B10D097F8BA
:1022C0004F301A4660490020FFF708F83B6D586808
:1022D0003B6D1B890122194608F054FE0023A6E03D
:1022E0005B490220FEF7FAFF00237B650CE007F153
:1022F0000C027B6D13441B781A4656490220FEF7E8
:10230000EDFF7B6D01337B657B6D092BEFDD524962
:102310000220FEF7E3FF3B7B03F01003002B07D006
:10232000FA793B7B4D490120FEF7D8FF00237EE080
:10233000BB7B1BB21B021AB2FB7B1BB21343A7F879
:102340004C303B7C1BB21B021AB27B7C1BB213438A
:10235000A7F84A30BB7C1BB21B021AB2FB7C1BB233
:102360001343A7F848303B7D1BB21B021AB27B7D9A
:102370001BB21343A7F84630394B3B64394BFB6320
:10238000B7F94A3007EE903AB8EEE77AD7ED107A0F
:1023900067EE277A3B6DC3ED097AB7F9483007EE4F
:1023A000903AB8EEE77AD7ED107A67EE277A3B6D70
:1023B000C3ED0A7AB7F9463007EE903AB8EEE77AFD
:1023C000D7ED0F7A67EE277A3B6DC3ED0B7AB7F93D
:1023D0004C30184600F0C4FBF0EE407A3B6DC3ED84
:1023E0000C7AFA793B6DD3ED097AB7EEE77A3B6D5B
:1023F000D3ED0A6AB7EEE66A3B6DD3ED0B5AB7EE42
:10240000E55A3B6DD3ED0C4AB7EEE44A8DED064B31
:102410008DED045B8DED026B8DED007B124902208A
:10242000FEF75CFF11490220FEF758FF0123184612
:102430005837BD4680BD00BFE87801081079010813
:102440002C0A0024307901086C7901088879010888
:10245000A8790108B8790108C0790108C479010890
:102460008941403F48E19A3FF0790108207A01080C
:1024700080B500AF0C490220FEF730FFAA2004F01F
:102480006FFE04F0D7FE04F0DFFE0346002B04D0FD
:1024900006490220FEF722FF03E005490020FEF76F
:1024A0001DFF00BF80BD00BF407B01085C7B0108B1
:1024B0007C7B010880B584B000AF05F09BFFF8601D
:1024C000214B1B68FA68D31ABB60BB68B3F57A7FEF
:1024D00035D31E4B1B681E4AA2FB03239B09BA6817
:1024E00002FB03F307EE903AF8EE677AC7ED017A44
:1024F000184B1B6807EE903AF8EE677A9FED167A54
:1025000067EE876A97ED017AC6EE877A9FED127AB9
:1025100077EE677AC7ED007A104A3B689360D7ED93
:10252000007AB7EEE77A53EC172B0D490320FEF73C
:10253000D5FE084B00221A60034AFB68136000BFF7
:102540001037BD4680BD00BF140A0024640000247B
:10255000D34D6210180A00240000C842600700240E
:10256000D87B010880B500AF05F044FF0346024A5E
:10257000536000BF80BD00BF6007002480B500AF7E
:1025800002490220FEF7AAFE00BF80BDEC7B0108D5
:1025900080B500AF03490220FEF7A0FE04F042FD23
:1025A00000BF80BD107C010880B500AF5C490220EF
:1025B000FEF794FE5B490220FEF790FE5A49022086
:1025C000FEF78CFE59490220FEF788FE584902208A
:1025D000FEF784FE52490220FEF780FE5149022098
:1025E000FEF77CFE50490220FEF778FE514902209A
:1025F000FEF774FE50490220FEF770FE4F4902209C
:10260000FEF76CFE4E490220FEF768FE4D4902209F
:10261000FEF764FE4C490220FEF760FE4B490220A3
:10262000FEF75CFE4A490220FEF758FE49490220A7
:10263000FEF754FE48490220FEF750FE47490220AB
:10264000FEF74CFE46490220FEF748FE45490220AF
:10265000FEF744FE44490220FEF740FE43490220B3
:10266000FEF73CFE42490220FEF738FE41490220B7
:10267000FEF734FE40490220FEF730FE3F490220BB
:10268000FEF72CFE3E490220FEF728FE3D490220BF
:10269000FEF724FE3C490220FEF720FE3B490220C3
:1026A000FEF71CFE3A490220FEF718FE39490220C7
:1026B000FEF714FE38490220FEF710FE37490220CB
:1026C000FEF70CFE36490220FEF708FE35490220CF
:1026D000FEF704FE34490220FEF700FE33490220D3
:1026E000FEF7FCFD32490220FEF7F8FD31490220D9
:1026F000FEF7F4FD30490220FEF7F0FD2F490220DD
:10270000FEF7ECFD2E490220FEF7E8FD2D490220E0
:10271000FEF7E4FD2C490220FEF7E0FD00BF80BD7E
:10272000387C0108507C0108687C0108887C01081D
:10273000B07C0108D47C01081C7D0108407D0108A3
:102740005C7D0108807D0108A07D0108C07D010835
:10275000D87D0108F07D0108187E0108387E010847
:10276000507E0108687E0108847E0108AC7E010865
:10277000DC7E0108047F01082C7F0108507F0108DE
:10278000887F0108BC7F0108DC7F010810800108F8
:10279000408001087C800108A4800108D4800108E1
:1027A000088101083C81010884810108A881010891
:1027B000D0810108F88101082082010848820108BF
:1027C000688201088C820108BC82010880B500AFD4
:1027D00027490220FEF782FD264B1B781A46264920
:1027E0000220FEF77BFD254B5B681A462449022038
:1027F000FEF774FD214BD3ED027AB7EEE77A53EC86
:10280000172B20490220FEF769FD1C4B1B781A4646
:102810001D490220FEF762FD184B5B781A461B49E2
:102820000220FEF75BFD154BDB781A4618490220A3
:10283000FEF754FD114B9B781A4616490220FEF70D
:102840004DFD4FF400711448FEF7F6FC124A13498F
:102850000220FEF743FD4FF400710F4804F052FCD4
:102860000D4A0E490220FEF739FD00BF80BD00BFB2
:10287000E482010888070024F88201086007002428
:1028800004830108D87B0108188301082C83010800
:10289000448301085C8301088C07002474830108C9
:1028A00080B588B000AF3B1D00221A605A609A6064
:1028B000DA601A6135490220FEF710FD002201217D
:1028C000334808F05FFB0121314808F043FB034621
:1028D0001A4630490220FEF701FD2F490220FEF77B
:1028E000FDFC0023FB6112E000220121284808F0D2
:1028F00049FB642005F08AFD01220121244808F0EB
:1029000041FB642005F082FDFB690133FB61FB693B
:10291000022BE9DD20237B600123BB600023FB60E9
:1029200000233B613B1D19461C4808F063F91C4914
:102930000220FEF7D3FC0023BB6112E0012220211C
:10294000164808F01FFB322005F060FD0022202110
:10295000124808F017FB322005F058FDBB6901331F
:10296000BB61BB69042BE9DD0223BB6005237B61EE
:102970003B1D1946094808F03DF90A490220FEF7B7
:10298000ADFC00BF2037BD4680BD00BF7C83010881
:102990000008025894830108A4830108000002582B
:1029A000C0830108DC83010880B588B002AF3349D9
:1029B0000220FEF793FC324BBB6000237B600022B9
:1029C0000121304808F0DEFA012005F01FFD3A1D14
:1029D00007F108016423009304232B480BF076FAD7
:1029E0000346FB7301220121264808F0CBFAFB7B4A
:1029F000002B39D125490220FEF770FC2449022022
:102A0000FEF76CFC00237B610CE007F108027B6998
:102A100013441B781A461F490220FEF75FFC7B69AE
:102A200001337B617B69032BEFDD1B490220FEF73D
:102A300055FC1A490220FEF751FC00233B610BE0D4
:102A40003A1D3B6913441B781A4612490220FEF7CF
:102A500045FC3B6901333B613B69032BF0DD0E49CB
:102A60000220FEF73BFC05E0FB7B1A460C490020E8
:102A7000FEF734FC00BF1837BD4680BDF88301085F
:102A8000AA5500FF00080258900E00241C8401087B
:102A900034840108B87901083C84010840840108A5
:102AA0004C84010880B582B000AF78607B681B68F9
:102AB000244A934241D1244B1B780D2B03D0224B47
:102AC0001B780A2B07D1214B1B88002B2AD0204BC7
:102AD00001221A7026E01C4B1B78082B03D01A4BDE
:102AE0001B787F2B0AD1194B1B88002B1AD0174B50
:102AF0001B88013B9AB2154B1A8013E0134B1B88BD
:102B00007E2B0FD8114B1B885A1C91B20F4A118093
:102B10001A460D4B19780F4B99540F4B1B68013314
:102B20000D4A13600A23012207490C480CF07CFF70
:102B30000122054909480DF005F800BF0837BD46D8
:102B400080BD00BF004400400E0A00240C0A00248F
:102B5000240A00248C090024200A0024F0100024F8
:102B600080B483B000AF0346FB80B7F9063007EEB0
:102B7000903AF8EEE77A9FED097A37EEC77ADFED03
:102B8000086AC7EE267AB3EE097A77EE877AB0EE56
:102B9000670A0C37BD465DF8047B704700A43447D4
:102BA000CDCC344280B594B002AFB9607A603B605E
:102BB0000346FB73FB7B072B01D90023C9E0FB7B9A
:102BC0008C2202FB03F3654A13447B647B6C93F80D
:102BD0007430002B01D10023BBE03F233B86002350
:102BE000BB857B6C58687B6C1B890022194608F0FA
:102BF000C9F9012005F00AFC7B6C186807F12C026A
:102C000007F130016423009302230BF05FF97B6C22
:102C100058687B6C1B890122194608F0B3F905201E
:102C200005F0F4FB4F233B6207F1240300221A60F6
:102C30009A8007F1140300221A605A601A817B6C93
:102C400058687B6C1B890022194608F09BF901200B
:102C500005F0DCFB7B6C186807F1140207F120011A
:102C6000642300930A230BF031F97B6C58687B6C6A
:102C70001B890122194608F085F93B7E1BB21B0215
:102C80001AB27B7E1BB21343A7F84230BB7E1BB245
:102C90001B021AB2FB7E1BB21343A7F840303B7FE6
:102CA0001BB21B021AB27B7F1BB21343FB872C4B58
:102CB000BB632C4B7B63B7F9423007EE903AB8EE1A
:102CC000E77AD7ED0E7A67EE277ABB68C3ED007A14
:102CD000B7F9403007EE903AB8EEE77AD7ED0E7AC2
:102CE00067EE277A7B68C3ED007AB7F93E3007EECE
:102CF000903AB8EEE77AD7ED0D7A67EE277A3B681F
:102D0000C3ED007A7B6C93F87530002B20D0BB6844
:102D100093ED007A7B6CD3ED0E7A77EE677ABB6821
:102D2000C3ED007A7B6893ED007A7B6CD3ED0F7A6C
:102D300077EE677A7B68C3ED007A3B6893ED007AA3
:102D40007B6CD3ED107A77EE677A3B68C3ED007A3F
:102D5000012318464837BD4680BD00BF2C0A002419
:102D60008941403F48E19A3F80B59CB006AF224B75
:102D70001B78002B3AD005F03DFB78651F4B1B6894
:102D80007A6DD21A1E4B1B689A4231D31B4A7B6D57
:102D9000136007F1440307F1480207F14C010020DA
:102DA000FFF700FF0346002B23D0D7ED137AB7EED1
:102DB000E77AD7ED126AB7EEE66AD7ED115AB7EEA9
:102DC000E55A3B1D8DED045B8DED026B8DED007BB7
:102DD0000C4A4021184610F07DFF38653B6D9AB2D1
:102DE000391D0A2308480CF01FFE02E000BF00E076
:102DF00000BF5837BD4680BD260A0024280A00249B
:102E0000600000246C840108F010002480B586B0B6
:102E100004AF46490220FEF761FA45490220FEF759
:102E20005DFA00237B6029E07A6842490220FEF7C0
:102E300055FA7B68DBB29FED400A1846FDF782FF2A
:102E4000642005F0E3FA7B68DBB29FED3C0A18468C
:102E5000FDF778FF642005F0D9FA7B68DBB29FEDBF
:102E6000380A1846FDF76EFF36490220FEF736FA9B
:102E7000322005F0CBFA7B6801337B607B680B2B3B
:102E8000D2DD31490220FEF729FA00233B6042E0FF
:102E90003A682E490220FEF721FA3B68DBB2184659
:102EA000FFF75CF90346002B2BD0294A3B688C21A5
:102EB00001FB03F313442433D3ED007AB7EEE75A52
:102EC000234A3B688C2101FB03F313442833D3EDE1
:102ED000007AB7EEE77A1E4A3B688C2101FB03F3C8
:102EE00013442C33D3ED006AB7EEE66A8DED026B26
:102EF0008DED007B53EC152B16490220FEF7EEF901
:102F000003E015490220FEF7E9F9642005F07EFA96
:102F10003B6801333B603B68042BB9DD0F4902205D
:102F2000FEF7DCF900BF0837BD4680BD7C84010890
:102F3000A0840108B8840108CDCCCC3DCDCCCCBD5B
:102F400000000000C4840108CC840108E884010862
:102F50002C0A0024F484010818850108248501083E
:102F600080B58EB006AF5A490220FEF7B7F959492D
:102F70000220FEF7B3F94FF4FA6005F047FAFDF7C7
:102F8000B3FF0023FB6196E0FB698C2202FB03F395
:102F9000514A1344BB60BB6893F87430002B05D1D1
:102FA000FA694E490120FEF799F981E0FA694C4926
:102FB0000220FEF793F94FF00003BB614FF00003CE
:102FC0007B614FF000033B6114237B600023FB60B7
:102FD00028E0FB69DBB21846FFF7C0F80346002B78
:102FE0001AD0BB68D3ED097A97ED067A77EE277A87
:102FF000C7ED067ABB68D3ED0A7A97ED057A77EECE
:10300000277AC7ED057ABB68D3ED0B7A97ED047A82
:1030100077EE277AC7ED047A322005F0F7F9FB68DE
:103020000133FB60FA687B689A42D2DB7B6807EE6B
:10303000903AB8EEE77AD7ED066AC6EE877ABB68B3
:10304000C3ED0E7A7B6807EE903AB8EEE77AD7EDDB
:10305000056AC6EE877ABB68C3ED0F7A7B6807EE18
:10306000903AB8EEE77AD7ED046AC6EE877ABB6885
:10307000C3ED107ABB68012283F87520BB68D3EDDD
:103080000E7AB7EEE77ABB68D3ED0F6AB7EEE66A61
:10309000BB68D3ED105AB7EEE55A8DED045B8DEDAC
:1030A000026B8DED007BFA690E490220FEF716F9DE
:1030B000FB690133FB61FB69042B7FF765AF0A49AC
:1030C0000220FEF70BF900BF2037BD4680BD00BFD0
:1030D00040850108648501082C0A00248C850108BC
:1030E000B0850108CC850108FC85010880B500AFDA
:1030F00005F0FAF803F0BEF800F086F8FEF78CF958
:10310000FEF762F904F062F904F0C4FC04F076FD05
:1031100004F0F0FD04F062FF04F0ACFFFEF770FF76
:1031200001222A492A480CF00DFD05F063F90346F7
:10313000284A136005F05EF90346274A13602749C1
:103140000220FEF7CBF826490220FEF7C7F82549F2
:103150000220FEF7C3F8244B244A25490220FEF73B
:10316000BDF808230C2223490220FEF7B7F82249B4
:103170000220FEF7B3F8FFF717FAFFF791FB00F014
:10318000D3F81E4B1B7B002B01D0FEF7A3FDFFF7EE
:10319000EBFDFEF7C3FFFDF763FF0346002B01D0F5
:1031A000FDF7E4FE03F032FF154B1B78002B01D036
:1031B000FEF7BEFF134B1B78002B03D1012005F057
:1031C00025F9DCE7002005F021F9D8E70E0A0024F4
:1031D000F0100024100A0024140A00243C84010882
:1031E00014860108408601086C860108788601086B
:1031F00084860108A8860108C886010860070024A3
:10320000250A0024260A002480B59CB000AF07F1EF
:1032100024034C220021184610F062FE3B1D2022A0
:103220000021184610F05CFE022007F0DFFE0023AC
:103230003B60304BDB6A2F4A23F00103D3622D4BF6
:10324000DB6A03F001033B602B4B9B692A4A43F482
:1032500040439361284B9B6903F440433B603B68C8
:1032600000BF254B9B6903F40053B3F5005FF8D111
:1032700001237B624FF48033BB620223BB640223D1
:10328000FB6402233B6540237B650223BB6504236B
:10329000FB6502233B660C237B660023BB66002391
:1032A000FB6607F12403184607F0DAFE0346002BFD
:1032B00001D000F023F83F237B600323BB60002391
:1032C000FB6008233B6140237B614023BB614FF4DB
:1032D0008063FB6140233B623B1D0221184608F0DE
:1032E00019FB0346002B01D000F008F800BF70372F
:1032F000BD4680BD000400580048025880B500AFAC
:1033000007490020FDF7EAFF4FF40051054807F098
:1033100052FE4FF4FA7005F079F800BFF4E700BFF1
:10332000F88601080008025890B52DED028BADF229
:103330000C4D06AFC04B1B78002B02F05A87BE4BDA
:1033400000221A70BD4B1B881A46BD4B00219954B0
:10335000BC4B1B680133BB4A1360BB490220FDF71D
:10336000BDFFB64B1B881A46B8490220FDF7B6FFD1
:103370000023C7F8EC330EE0B14AD7F8EC3313441E
:103380001B781A46B2490220FDF7A8FFD7F8EC33A4
:103390000133C7F8EC33A94B1B881A46D7F8EC3336
:1033A0009342E9DBAB490220FDF798FFA44AAA4902
:1033B0000220FDF793FFA14B1B88C7F8E8330AE012
:1033C000D7F8E833013B9E4A0021D154D7F8E833BF
:1033D000013BC7F8E833D7F8E833002B14DDD7F802
:1033E000E833013B964AD35C0D2BE9D0D7F8E8339C
:1033F000013B934AD35C0A2BE2D0D7F8E833013B78
:103400008F4AD35C202BDBD08D48FCF7C9FF0346E5
:103410008B4A92490220FDF761FF07F513731A46A4
:103420008F49874810F0AEFC0346012B42F0D0864E
:1034300007F513731A468B490220FDF74FFF07F576
:10344000137389491846FCF74BFF0346002B03D141
:10345000FFF7AAF802F0C0BE07F5137383491846B8
:10346000FCF73EFF0346002B03D1FFF7CFFC02F031
:10347000B3BE07F513737E491846FCF731FF0346C8
:10348000002B03D1FEF7A6FC02F0A6BE07F51373CE
:1034900078491846FCF724FF0346002B03D1FEF7BA
:1034A000FDFC02F099BE07F5137373491846FCF74B
:1034B00017FF0346002B46D107F513731846FCF798
:1034C0006FFF03465E4A1344C7F8E43304E0D7F8BD
:1034D000E4330133C7F8E433D7F8E4331B78202B07
:1034E000F5D007F5117107F5127207F51073009307
:1034F0000B466249D7F8E40310F044FC0346032B63
:103500001BD107F57C73A3F5D473D3ED007A07F5CF
:103510007C73A3F5D67393ED007A07F57C73A3F55E
:10352000D873D3ED006AB0EE661AF0EE470AB0EE3B
:10353000670AFEF7C9FC02F04FBE51490020FDF7B3
:10354000CDFE02F049BE07F513734E491846FCF74D
:10355000C7FE0346002B0FD107F108034FF480711B
:103560001846FEF7E1FC07F108031A464649022017
:10357000FDF7B4FE02F030BE07F513734349184659
:10358000FCF7AEFE0346002B03D1FFF7E9FC02F087
:1035900023BE07F513733E491846FCF7A1FE034608
:1035A000002B7FD107F513731846FCF7F9FE03468D
:1035B000234A1344C7F8E03304E0D7F8E03301337B
:1035C000C7F8E033D7F8E0331B78202BF5D0D7F8D5
:1035D000E0331B78002B1ED007F57C73A3F5C27473
:1035E000D7F8E0030EF01DFE206007F57C73A3F50D
:1035F000C2731B68092B0EDD07F57C73A3F5C2733C
:103600001B68B3F57A7F06DC07F57C73A3F5C273FC
:103610001B68204A1360204B01221A701D4B1B6847
:103620001A461E490220FDF759FE1D490220FDF7EA
:1036300055FE02F0D1BD00BF240A00240C0A00246C
:103640008C0900241C0A0024208701083C870108FB
:103650005C8701083C8401086487010878870108B9
:10366000948701089C870108B4870108BC8701087A
:10367000C4870108D0870108E0870108EC870108AA
:10368000F88701081888010824880108288801089B
:103690003888010860000024260A002448880108B0
:1036A0007088010807F51373BE491846FCF718FE29
:1036B0000346002B08D1BC4B00221A70BB490220E4
:1036C000FDF70CFE02F088BD07F51373B8491846E4
:1036D000FCF706FE0346002B0BD1B64B0A221A60FC
:1036E000B14B01221A70B4490220FDF7F7FD02F038
:1036F00073BD07F51373B1491846FCF7F1FD034696
:10370000002B0BD1AB4B64221A60A74B01221A701D
:10371000AB490220FDF7E2FD02F05EBD07F5137331
:10372000A8491846FCF7DCFD0346002B40F0D78083
:10373000A5490220FDF7D2FD07F57C73A3F5B87308
:10374000A24A1A6007F57C73A3F5BA734FF0000222
:103750001A6007F57C73A3F5BC734FF000021A6082
:1037600007F57C73A3F5B873D3ED007AB7EEE75A8B
:1037700007F57C73A3F5BA73D3ED007AB7EEE77A59
:1037800007F57C73A3F5BC73D3ED006AB7EEE66A68
:103790008DED026B8DED007B53EC152B8C490220D7
:1037A000FDF79CFD4FF00003C7F8DC3307F57C7391
:1037B000A3F5BE73874A1A600023C7F8D8337EE0AA
:1037C00007F50D7307F50E7207F50F710020FFF76F
:1037D000E9F90346002B65D007F57C73A3F5DA738E
:1037E000D3ED007A07F57C73A3F5C07307F57C72FF
:1037F000A2F5B87292ED007A77EE677AC3ED007A9F
:1038000007F57C73A3F5BE7207F57C73A3F5C0734F
:1038100092ED007AD3ED007A67EE277A97EDF77A8A
:1038200077EE277AC7EDF77AD7EDF77AF5EEC07A1B
:10383000F1EE10FA03D54FF00003C7F8DC33D7EDF3
:10384000F77AB7EE007AF4EEC77AF1EE10FA03DDFC
:103850004FF07E53C7F8DC3397EDF70A0020FDF7F1
:1038600071FA07F57C73A3F5DA73D3ED007AB7EE3E
:10387000E77A07F57C73A3F5C073D3ED006AB7EE62
:10388000E66AD7EDF75AB7EEE55A8DED045B8DED9C
:10389000026B8DED007BD7F8D8234F490220FDF74E
:1038A0001DFD03E04D490020FDF718FD4FF4FA70AF
:1038B00004F0ACFDD7F8D8330133C7F8D833D7F8C4
:1038C000D833092B7FF77CAF9FED450A0020FDF729
:1038D00039FA44490220FDF701FD02F07DBC07F5ED
:1038E000137341491846FCF7FBFC0346002B2AD111
:1038F0003E490220FDF7F2FC0023C7F8D4331CE058
:103900003B4AD7F8D4338C2101FB03F313447433BF
:103910001B78002B06D0D7F8D42336490220FDF7B8
:10392000DDFC05E0D7F8D42333490120FDF7D6FCB0
:10393000D7F8D4330133C7F8D433D7F8D433072BAF
:10394000DEDD02F049BC07F513732C491846FCF77D
:10395000C7FC0346002B40F0398229490220FDF7BD
:10396000BDFC28490220FDF7B9FC07F57C73A3F5DF
:10397000A6731F4A1A604FF00003C7F8D0334FF008
:103980000003C7F8CC334FF00003C7F8C83307F57E
:103990007C73A3F5A8730A221A600023C7F8C43306
:1039A00097E100BF8C880108260A00249888010846
:1039B000AC88010860000024B8880108DC88010890
:1039C000E88801080C8901081C8901080000C84228
:1039D0003C8901086F12833A68890108A0890108AF
:1039E00000000000B8890108D4890108E0890108B5
:1039F0002C0A0024008A0108188A0108348A010868
:103A0000488A0108688A010807F57C73A3F5E0730A
:103A10003F221A8007F57C73A3F5E27300221A8017
:103A200007F57C73A3F5A6731B68586807F57C73CC
:103A3000A3F5A6731B681B890022194607F0A2FA9A
:103A4000012004F0E3FC07F57C73A3F5A6731B6863
:103A5000186807F50B7207F50C71642300930223B5
:103A60000AF034FA07F57C73A3F5A6731B6858684F
:103A700007F57C73A3F5A6731B681B890122194601
:103A800007F080FA142004F0C1FC07F57C73A3F55D
:103A9000E8734F221A60043300221A609A8007F5F7
:103AA0007C73A3F5EE7300221A605A601A8107F541
:103AB0007C73A3F5A6731B68586807F57C73A3F5A0
:103AC000A6731B681B890022194607F05BFA0120C8
:103AD00004F09CFC07F57C73A3F5A6731B681868BB
:103AE00007F5057207F50871642300930A230AF0AD
:103AF000EDF907F57C73A3F5A6731B68586807F505
:103B00007C73A3F5A6731B681B890122194607F075
:103B100039FA07F57C73A3F5EE731B791BB21B0210
:103B200019B207F57C73A3F5EE735B791AB207F54A
:103B30007C73A3F5A9730A431A8007F57C73A3F578
:103B4000EE739B791BB21B0219B207F57C73A3F5C8
:103B5000EE73DB791AB207F57C73A3F5AA730A43F7
:103B60001A8007F57C73A3F5EE731B7A1BB21B0258
:103B700019B207F57C73A3F5EE735B7A1AB207F5F9
:103B80007C73A3F5AB730A431A8007F57C73A3F526
:103B9000AE738A4A1A6007F57C73A3F5B073884A3E
:103BA0001A6007F57C73A3F5A973B3F9003007EE2B
:103BB000903AF8EEE77A07F57C73A3F5B27307F550
:103BC0007C72A2F5AE7292ED007A67EE277AC3EDB1
:103BD000007A07F57C73A3F5AA73B3F9003007EEFA
:103BE000903AF8EEE77A07F57C73A3F5B47307F51E
:103BF0007C72A2F5AE7292ED007A67EE277AC3ED81
:103C0000007A07F57C73A3F5AB73B3F9003007EEC8
:103C1000903AF8EEE77A07F57C73A3F5B67307F5EB
:103C20007C72A2F5B07292ED007A67EE277AC3ED4E
:103C3000007A07F57C73A3F5B27397EDF47AD3EDB0
:103C4000007A77EE277AC7EDF47A07F57C73A3F54F
:103C5000B47397EDF37AD3ED007A77EE277AC7ED58
:103C6000F37A07F57C73A3F5B67397EDF27AD3ED8B
:103C7000007A77EE277AC7EDF27A07F57C73A3F521
:103C8000B273D3ED007AB7EEE77A07F57C73A3F54C
:103C9000B473D3ED006AB7EEE66A07F57C73A3F55B
:103CA000B673D3ED005AB7EEE55A8DED045B8DED9A
:103CB000026B8DED007BD7F8C42342490220FDF74B
:103CC0000DFB642004F0A2FBD7F8C4330133C7F81E
:103CD000C43307F57C73A3F5A873D7F8C4231B6816
:103CE0009A42FFF691AE07F57C73A3F5A8731B68A3
:103CF00007EE903AB8EEE77AD7EDF46AC6EE877A27
:103D000007F57C73A3F5A6731B68C3ED0E7A07F560
:103D10007C73A3F5A8731B6807EE903AB8EEE77AB8
:103D2000D7EDF36AC6EE877A07F57C73A3F5A67321
:103D30001B68C3ED0F7A07F57C73A3F5A8731B68A6
:103D400007EE903AB8EEE77AD7EDF26AC6EE877AD8
:103D500007F57C73A3F5A6731B68C3ED107A07F50E
:103D60007C73A3F5A6731B68012283F8752007F501
:103D70007C73A3F5A6731B68D3ED0E7AB7EEE75AF2
:103D800007F57C73A3F5A6731B68D3ED0F7AB7EE26
:103D9000E77A07F57C73A3F5A6731B68D3ED106A69
:103DA000B7EEE66A8DED026B8DED007B53EC152BC3
:103DB00005490220FDF792FA02F00EBA8941403F10
:103DC00048E19A3F908A0108B88A010807F5137301
:103DD000DC491846FCF784FA0346002B40F01482B5
:103DE000D9490220FDF77AFA07F57C73A3F58C73A5
:103DF000D64A1A6007F57C73A3F5F0733F221A8048
:103E000007F57C73A3F5F27300221A8007F57C7323
:103E1000A3F58C731B68586807F57C73A3F58C7346
:103E20001B681B890022194607F0ACF8012004F03A
:103E3000EDFA07F57C73A3F58C731B68186807F51A
:103E4000037207F504716423009302230AF03EF81D
:103E500007F57C73A3F58C731B68586807F57C73B2
:103E6000A3F58C731B681B890122194607F08AF899
:103E7000142004F0CBFA07F57C73A3F5F8734F22F6
:103E80001A60043300221A609A8007F57C73A3F548
:103E9000FE7300221A605A601A8107F57C73A3F53D
:103EA0008C731B68586807F57C73A3F58C731B68CB
:103EB0001B890022194607F065F8012004F0A6FAD4
:103EC00007F57C73A3F58C731B68186807F5FA7205
:103ED00007F50071642300930A2309F0F7FF07F543
:103EE0007C73A3F58C731B68586807F57C73A3F586
:103EF0008C731B681B890122194607F043F807F5EC
:103F00007C73A3F5FE739B781BB21B0219B207F5F5
:103F10007C73A3F5FE73DB781AB207F57C73A3F507
:103F20008D730A431A8007F57C73A3F5FE731B7922
:103F30001BB21B0219B207F57C73A3F5FE735B7904
:103F40001AB207F57C73A3F58E730A431A8007F53E
:103F50007C73A3F5FE739B791BB21B0219B207F5A4
:103F60007C73A3F5FE73DB791AB207F57C73A3F5B6
:103F70008F730A431A8007F57C73A3F5FE731B7ACF
:103F80001BB21B0219B207F57C73A3F5FE735B7AB3
:103F90001AB207F57C73A3F590730A431A8007F5EC
:103FA0007C73A3F592736A4A1A6007F57C73A3F5D4
:103FB0009473684A1A6007F57C73A3F58E73B3F99E
:103FC000003007EE903AF8EEE77A07F57C73A3F538
:103FD000967307F57C72A2F5927292ED007A67EE05
:103FE000277AC3ED007A07F57C73A3F58F73B3F9D5
:103FF000003007EE903AF8EEE77A07F57C73A3F508
:10400000987307F57C72A2F5927292ED007A67EED2
:10401000277AC3ED007A07F57C73A3F59073B3F9A3
:10402000003007EE903AF8EEE77A07F57C73A3F5D7
:104030009A7307F57C72A2F5947292ED007A67EE9E
:10404000277AC3ED007A07F57C73A3F59C7407F516
:104050007C73A3F58D73B3F900301846FEF780FD2D
:1040600084ED000A07F57C73A3F58C731B68D3ED10
:104070000E7A07F57C73A3F59E7307F57C72A2F5A3
:10408000967292ED007A77EE677AC3ED007A07F5C3
:104090007C73A3F58C731B68D3ED0F7A07F57C73E3
:1040A000A3F5A07307F57C72A2F5987292ED007AE1
:1040B00077EE677AC3ED007A07F57C73A3F58C730E
:1040C0001B68D3ED107A07F57C73A3F5A27307F58F
:1040D0007C72A2F59A7292ED007A77EE677AC3ED60
:1040E000007A07F57C73A3F59E73D3ED007A27EE73
:1040F000A77A07F57C73A3F5A073D3ED007A67EE7A
:10410000A77A37EE277A07F57C73A3F5A273D3ED70
:10411000007A67EEA77A77EE277A07F57C73A3F526
:10412000A474B0EE670A13F043F884ED000A07F5B3
:104130007C73A3F59673D3ED007AB7EEE75A07F5D3
:104140007C7309E0E88A0108FC8A01082C0A002433
:104150008941403F48E19A3FA3F59873D3ED007A37
:10416000B7EEE77A07F57C73A3F59A73D3ED006A8F
:10417000B7EEE66A8DED026B8DED007B53EC152BEF
:1041800082490220FDF7AAF807F57C73A3F59E7318
:10419000D3ED007AB7EEE75A07F57C73A3F5A07369
:1041A000D3ED007AB7EEE77A07F57C73A3F5A27337
:1041B000D3ED006AB7EEE66A8DED026B8DED007B04
:1041C00053EC152B72490220FDF788F807F57C7334
:1041D000A3F5A473D3ED007AB7EEE77A53EC172B6F
:1041E0006C490220FDF77AF807F57C73A3F59C7300
:1041F000D3ED007AB7EEE77A53EC172B664902202D
:10420000FDF76CF801F0E8BF07F513736349184632
:10421000FCF766F80346002B1FD161490220FDF729
:104220005DF860490220FDF759F85F490220FDF76B
:1042300055F89FED5E0A0020FCF784FD4FF4FA70FC
:1042400004F0E4F89FED5A0A0020FCF77BFD4FF4E0
:10425000FA7004F0DBF801F0BFBF07F5137355499E
:104260001846FCF73DF80346002B40F0AF8052495A
:104270000220FDF733F807F57C73A3F500734FF4C4
:104280008A621A6007F57C73A3F5017300221A6035
:1042900000220121494806F075FE012004F0B6F81D
:1042A00007F5F67207F5F871642300930423444878
:1042B00009F00CFE01220121404806F063FE07F5DB
:1042C0007C73A3F501731B78194607F57C73A3F57E
:1042D00001735B78184607F57C73A3F501739B782F
:1042E0001A4607F57C73A3F50173DB7801930092FE
:1042F00003460A4633490220FCF7F0FF0023C7F8C3
:10430000C0333DE007F57C73A3F5027300221A80E9
:1043100007F57C73A3F5037300221A8000220121A4
:10432000264806F02FFE012004F070F807F5F2721F
:1043300007F5F471642300930223214809F0C6FDB8
:10434000012201211D4806F01DFE07F57C73A3F52F
:1043500003731B781A4607F57C73A3F503735B7828
:1043600000931346D7F8C02317490220FCF7B6FF85
:104370000A2004F04BF8D7F8C0330133C7F8C03334
:10438000D7F8C033022BBDDD01F026BF188B010822
:104390003C8B0108688B0108908B0108A88B0108F1
:1043A000B88B0108DC8B0108F08B0108CDCCCC3D2B
:1043B00000000000088C0108148C01080008025855
:1043C000900E0024348C0108688C010807F51373E3
:1043D000C0491846FBF784FF0346002B40F08E814E
:1043E000BD490220FCF77AFF4BF25633A7F8FE32A4
:1043F00040F24C53A7F8FC322023A7F8FA3240F2DF
:104400005453A7F8F832B7F9FE12B7F9FC02B7F91E
:10441000FA32B7F9F8220192009303460A46AF49EF
:104420000220FCF75BFFAE4BC7F8F43207F57C7354
:10443000A3F58073AB4A1A6007F57C73A3F5827409
:10444000B7F9FE321846FEF78BFB84ED000A07F53C
:104450007C73A3F584734FF07A521A6007F57C736E
:10446000A3F58673A04A1A60B7F9FC3207EE903ABA
:10447000B8EEE77AD7EDBD7A67EE277AB7EEE74A6E
:10448000B7F9FA3207EE903AB8EEE77AD7EDBD7A8F
:1044900067EE277AB7EEE77AB7F9F83206EE903A88
:1044A000B8EEE66A07F57C73A3F58073D3ED006A76
:1044B00066EE266AB7EEE66A07F57C73A3F58273AB
:1044C000D3ED005AB7EEE55A8DED045B8DED026B2E
:1044D0008DED007B53EC142B84490220FCF7FEFE8B
:1044E000B7F9FC3207EE903AB8EEE77A07F57C733D
:1044F000A3F58473D3ED007A67EE277AB7EEE74A27
:10450000B7F9FA3207EE903AB8EEE77A07F57C731E
:10451000A3F58473D3ED007A67EE277AB7EEE77AD6
:10452000B7F9F83206EE903AB8EEE66A07F57C7312
:10453000A3F58673D3ED006A66EE266AB7EEE66AE7
:1045400007F57C73A3F58273D3ED005AB7EEE55AF5
:104550008DED045B8DED026B8DED007B53EC142B28
:1045600063490220FCF7BAFEB7F9FC3207EE903A35
:10457000B8EEE77AD7EDBD7A67EE277AF0EE000A5B
:10458000B0EE670A12F04CFEB0EE408AB7F9FA328C
:1045900007EE903AB8EEE77AD7EDBD7A67EE277A64
:1045A000F0EE000AB0EE670A12F03AFEF0EE407A42
:1045B00038EE278AB7F9F83207EE903AB8EEE77A84
:1045C00007F57C73A3F58073D3ED007A67EE277A45
:1045D000F0EE000AB0EE670A12F022FEF0EE407A2A
:1045E00078EE277A07F57C73A3F58874B0EE670A36
:1045F00012F0DEFD84ED000AB7F9FC3207EE903AC6
:10460000B8EEE77A07F57C73A3F58473D3ED007AEF
:1046100067EE277AF0EE000AB0EE670A12F000FEAD
:10462000B0EE408AB7F9FA3207EE903AB8EEE77A80
:1046300007F57C73A3F58473D3ED007A67EE277AD0
:10464000F0EE000AB0EE670A12F0EAFDF0EE407AF2
:1046500038EE278AB7F9F83207EE903AB8EEE77AE3
:1046600007F57C73A3F58673D3ED007A67EE277A9E
:10467000F0EE000AB0EE670A12F0D2FDF0EE407ADA
:1046800078EE277A07F57C73A3F58A74B0EE670A93
:1046900012F08EFD84ED000A07F57C73A3F5887394
:1046A000D3ED007AB7EEE77A53EC172B11490220CD
:1046B000FCF714FE07F57C73A3F58A73D3ED007A3B
:1046C000B7EEE77A53EC172B0B490220FCF706FEF6
:1046D00001F082BD888C0108948C0108C08C01080F
:1046E0008941403F48E19A3F0456CE3EE08C0108A4
:1046F000148D0108488D01086C8D010807F51373AE
:10470000B4491846FBF7ECFD0346002B40F044810A
:10471000B1490220FCF7E2FDB04BC7F8243307F59E
:104720007C73A3F504733F221A8007F57C73A3F50D
:10473000057300221A80D7F824335868D7F8243339
:104740001B890022194606F01DFC012003F05EFEC5
:10475000D7F82433186807F5EE7207F5F071642373
:104760000093022309F0B2FBD7F824335868D7F836
:1047700024331B890122194606F004FC142003F09F
:1047800045FE07F57C73A3F508734F221A600433C6
:1047900000221A609A8007F57C73A3F50B73002240
:1047A0001A605A601A81D7F824335868D7F824332E
:1047B0001B890022194606F0E5FB012003F026FEC6
:1047C000D7F82433186807F5E27207F5E871642317
:1047D00000930A2309F07AFBD7F824335868D7F8F6
:1047E00024331B890122194606F0CCFB07F57C73A4
:1047F000A3F50B739B781BB21B021AB207F57C73EF
:10480000A3F50B73DB781BB21343A7F8223307F52C
:104810007C73A3F50B731B791BB21B021AB207F54D
:104820007C73A3F50B735B791BB21343A7F820339A
:1048300007F57C73A3F50B739B791BB21B021AB2AD
:1048400007F57C73A3F50B73DB791BB21343A7F851
:104850001E3307F57C73A3F50B731B7A1BB21B0287
:104860001AB207F57C73A3F50B735B7A1BB2134383
:10487000A7F81C335A4BC7F818335A4BC7F81433F0
:10488000B7F9203307EE903AF8EEE77A97EDC67A5B
:1048900067EE277AC7EDC47AB7F91E3307EE903A70
:1048A000F8EEE77A97EDC67A67EE277AC7EDC37A16
:1048B000B7F91C3307EE903AF8EEE77A97EDC57A30
:1048C00067EE277AC7EDC27AB7F922331846FEF7AA
:1048D00047F987EDC10AD7EDC47A27EEA77AD7ED5D
:1048E000C37A67EEA77A37EE277AD7EDC27A67EEFA
:1048F000A77A77EE277AB0EE670A12F059FC87EDB7
:10490000C00AB7F92213B7F92003B7F91E33B7F974
:104910001C230192009303460A4633490220FCF708
:10492000DDFCD7EDC47AB7EEE75AD7EDC37AB7EE20
:10493000E77AD7EDC26AB7EEE66A8DED026B8DEDD0
:10494000007B53EC152B29490220FCF7C7FCD7ED5F
:10495000C07AB7EEE77A53EC172B25490220FCF713
:10496000BDFCD7EDC17AB7EEE77A53EC172B21499E
:104970000220FCF7B3FCB7F92223B7F922331E4912
:104980000220FCF7ABFCB7F922331A461B49022080
:10499000FCF7A4FC01F020BC07F513731849184676
:1049A000FBF79EFC0346002B32D116490220FCF790
:1049B00095FC15490220FCF791FC06480EF082FA9E
:1049C00012490220FCF78AFC02480EF07BFA01F043
:1049D00003BC00BF908D0108A08D01082C0A0024A3
:1049E0008941403F48E19A3FC08C0108C88D0108C9
:1049F000688B0108EC8D0108188E0108388E0108BB
:104A0000688E0108748E0108908E0108C08E01081E
:104A100007F51373C4491846FBF762FC0346002BE5
:104A200040F09C81C1490220FCF758FCC04BC7F8FC
:104A30003C3307F57C73A3F50C7300221A8007F54D
:104A40007C73A3F50D7300221A80D7F83C335868A5
:104A5000D7F83C331B890022194606F093FA01204F
:104A600003F0D4FCD7F83C33186807F5DE7207F57D
:104A7000E07164230093022309F028FAD7F83C334D
:104A80005868D7F83C331B890122194606F07AFA98
:104A900007F57C73A3F50D731B781A4607F57C7335
:104AA000A3F50D735B78A3490220FCF717FC07F50B
:104AB0007C73A3F50E733F221A8007F57C73A3F570
:104AC0000F7300221A80D7F83C335868D7F83C336C
:104AD0001B890022194606F055FA012003F096FCC6
:104AE000D7F83C33186807F5DA7207F5DC716423F0
:104AF0000093022309F0EAF9D7F83C335868D7F855
:104B00003C331B890122194606F03CFA07F57C73F9
:104B1000A3F50F731B781A4607F57C73A3F50F7383
:104B20005B7885490220FCF7D9FB142003F06EFC6A
:104B300007F57C73A3F512734F221A600433002229
:104B40001A609A8007F57C73A3F5157300221A602A
:104B50005A601A81D7F83C335868D7F83C331B8920
:104B60000022194606F00EFA012003F04FFCD7F898
:104B70003C33186807F5CE7207F5D47164230093AF
:104B80000A2309F0A3F9D7F83C335868D7F83C3327
:104B90001B890122194606F0F5F968490220FCF745
:104BA0009DFB0023C7F8BC3311E007F57C73A3F528
:104BB0001572D7F8BC3313441B781A46604902209B
:104BC000FCF78CFBD7F8BC330133C7F8BC33D7F8FC
:104BD000BC33092BE9DD5B490220FCF77FFB07F5BD
:104BE0007C73A3F515739B781BB21B021AB207F5F1
:104BF0007C73A3F51573DB781BB21343A7F83A3324
:104C000007F57C73A3F515731B791BB21B021AB24F
:104C100007F57C73A3F515735B791BB21343A7F8F3
:104C2000383307F57C73A3F515739B791BB21B0210
:104C30001AB207F57C73A3F51573DB791BB2134326
:104C4000A7F8363307F57C73A3F515731B7A1BB2EF
:104C50001B021AB207F57C73A3F515735B7A1BB2BE
:104C60001343A7F83433B7F93A13B7F93803B7F950
:104C70003633B7F934230192009303460A4632498A
:104C80000220FCF72BFB4FF07A53C7F830332F4B41
:104C9000C7F82C33B7F93A3307EE903AF8EEE77AD3
:104CA0009FED2B7A37EEC77ADFED2A6AC7EE267AB8
:104CB000B3EE097A77EE877AC7EDCA7AB7F9383357
:104CC00007EE903AB8EEE77AD7EDCC7A67EE277A1E
:104CD000B7EEE74AB7F9363307EE903AB8EEE77A1F
:104CE000D7EDCC7A67EE277AB7EEE77AB7F93433A7
:104CF00006EE903AB8EEE66AD7EDCB6A66EE266A23
:104D0000B7EEE66AD7EDCA5AB7EEE55A8DED045B09
:104D10008DED026B8DED007B53EC142B0E490220C0
:104D2000FCF7DCFA01F058BAE88E0108F08E0108B1
:104D30002C0A0024108F0108288F0108408F0108D9
:104D4000B87901083C840108C08C01080456CE3EA5
:104D500000A43447CDCC3442488F010807F51373C3
:104D600091491846FBF7BCFA0346002B40F02C8112
:104D70008E490220FCF7B2FA07F57C73A3F516738F
:104D800050221A6007F57C73A3F5177300221A608E
:104D900000220121864806F0F5F8012003F036FBD9
:104DA00007F5CA7207F5CC71642300930423814888
:104DB00009F08CF8012201217D4806F0E3F807F59F
:104DC0007C73A3F517739B781BB21B021AB207F50D
:104DD0007C73A3F51773DB781BB213431BB2A7F8E0
:104DE0004A33B7F84A331A4673490220FCF776FA79
:104DF000B7F84A339B0A9BB203F00702B7F84A336D
:104E00009B099BB203F00F036C490220FCF766FA82
:104E10000023C7F8B833BFE007F57C73A3F5187318
:104E20003F221A8007F57C73A3F5197300221A80BC
:104E3000002201215E4806F0A5F8012003F0E6FA01
:104E400007F5C67207F5C871642300930223594819
:104E500009F03CF801220121554806F093F807F5C6
:104E60007C73A3F519731B781A4607F57C73A3F5B9
:104E700019735B7800931346D7F8B8235049022082
:104E8000FCF72CFA142003F0C1FA07F57C73A3F5A4
:104E90001C734F221A60043300221A609A8007F5AF
:104EA0007C73A3F51F7300221A605A601A810022D6
:104EB00001213F4806F066F8012003F0A7FA07F544
:104EC000BA7207F5C071642300930A23394808F0C9
:104ED000FDFF01220121364806F054F807F57C73E6
:104EE000A3F51F739B781BB21B021AB207F57C73E4
:104EF000A3F51F73DB781BB21343A7F8483307F5FC
:104F00007C73A3F51F731B791BB21B021AB207F542
:104F10007C73A3F51F735B791BB21343A7F8463369
:104F200007F57C73A3F51F739B791BB21B021AB2A2
:104F300007F57C73A3F51F73DB791BB21343A7F846
:104F4000443307F57C73A3F51F731B7A1BB21B0256
:104F50001AB207F57C73A3F51F735B7A1BB2134378
:104F6000A7F84233B7F94803B7F94633B7F94423F2
:104F7000B7F942130291019200930346D7F8B82380
:104F800010490220FCF7AAF9642003F03FFAD7F891
:104F9000B8330133C7F8B833D7F8B833042B7FF7E9
:104FA0003BAF01F019B900BF7C8F0108888F010861
:104FB00000080258900E0024A08F0108B88F010845
:104FC000D88F0108FC8F010807F51373854918462F
:104FD000FBF786F90346002B40F0948082490220BB
:104FE000FCF77CF981490220FCF778F9804902201E
:104FF000FCF774F94BF21143A7F86A334FF4FA63E4
:10500000A7F86833A723A7F8663340F61113A7F86B
:1050100064334FF07A53C7F86033764BC7F85C338C
:10502000B7F9683307EE903AF8EEE77A97EDD87A59
:1050300067EE277AC7EDD67AB7F9663307EE903A6E
:10504000F8EEE77A97EDD87A67EE277AC7EDD57A4A
:10505000B7F9643307EE903AF8EEE77A97EDD77A2E
:1050600067EE277AC7EDD47AB7F96A3307EE903A3C
:10507000F8EEE77A9FED607A37EEC77ADFED5F6A88
:10508000C7EE267AB3EE097A77EE877AC7EDD37A40
:105090005B490220FCF722F9B7F96A33D7EDD37ADE
:1050A000B7EEE77A8DED007B1A4656490220FCF7F1
:1050B00015F9B7F96833D7EDD67AB7EEE77A8DED03
:1050C000007B1A4650490220FCF708F9B7F966330D
:1050D000D7EDD57AB7EEE77A8DED007B1A464B49CE
:1050E0000220FCF7FBF8B7F96433D7EDD47AB7EEBA
:1050F000E77A8DED007B1A4645490220FCF7EEF871
:1051000001F06AB807F5137342491846FBF7E8F84F
:105110000346002B59D140490220FCF7DFF83F49F4
:105120000220FCF7DBF83E4B5B68B3F5800F01D142
:105130003C4B00E03C4B1A463C490220FCF7CEF8C1
:10514000374B9B68002B01D1394B00E0394B1A4695
:1051500039490220FCF7C2F8314BDB68072B01D13B
:10516000082300E010231A4634490220FCF7B6F861
:105170002B4B1B69002B01D1314B00E0314B1A4600
:1051800031490220FCF7AAF8254B5B69002B01D1BD
:105190002E4B00E02E4B1A462E490220FCF79EF8BB
:1051A0001F4BDB691A462C490220FCF797F81C4B71
:1051B0001B6A002B01D1294B00E0294B1A462949D3
:1051C0000220FCF78BF801F007B807F513732649A6
:1051D0001846FBF785F80346002B47D1FDF7F6FA92
:1051E00000F0FABF209001082890010844900108BF
:1051F000649001080456CE3E00A43447CDCC34421E
:1052000098900108AC900108D0900108E89001083E
:1052100000910108189101082491010840910108AA
:10522000900E0024589101086091010868910108CE
:10523000749101087C9101088491010894910108FE
:10524000A8910108B0910108BC910108D091010812
:10525000D8910108E0910108F09101080892010835
:105260000C920108109201082092010807F51373AF
:105270008D491846FBF734F80346002B40F028818F
:105280008A490220FCF72AF807F57C73A3F52073FE
:1052900000221A8007F57C73A3F5217300221A807F
:1052A00000220121824805F06DFE012003F0AEF8D6
:1052B00007F5B67207F5B8716423009302237D48A1
:1052C00008F004FE01220121794805F05BFE07F594
:1052D0007C73A3F521731B781A4607F57C73A3F53D
:1052E00021735B7874490220FBF7F8FF07F57C73A4
:1052F000A3F522733F221A8007F57C73A3F523736D
:1053000000221A8000220121694805F03BFE01209D
:1053100003F07CF807F5B27207F5B47164230093CB
:105320000223644808F0D2FD01220121604805F003
:1053300029FE07F57C73A3F523731B781A4607F53E
:105340007C73A3F523735B785C490220FBF7C6FFEF
:105350000A2003F05BF807F57C73A3F526734F2250
:105360001A60043300221A609A8007F57C73A3F553
:10537000297300221A605A601A81002201214C48C8
:1053800005F000FE012003F041F807F5A67207F5CD
:10539000AC71642300930A23464808F097FD01226C
:1053A0000121434805F0EEFD45490220FBF796FF39
:1053B0000023C7F8B43311E007F57C73A3F5297215
:1053C000D7F8B43313441B781A463E490220FBF742
:1053D00085FFD7F8B4330133C7F8B433D7F8B43303
:1053E000092BE9DD38490220FBF778FF07F57C73CC
:1053F000A3F529731B78FF2B00F0EE8607F57C736D
:10540000A3F529739B781BB21B021AB207F57C73B4
:10541000A3F52973DB781BB21343A7F8723307F5A2
:105420007C73A3F529731B791BB21B021AB207F513
:105430007C73A3F529735B791BB21343A7F8703310
:1054400007F57C73A3F529739B791BB21B021AB273
:1054500007F57C73A3F52973DB791BB21343A7F817
:105460006E3307F57C73A3F529731B7A1BB21B02FD
:105470001AB207F57C73A3F529735B7A1BB2134349
:10548000A7F86C33B7F97213B7F97003B7F96E3335
:10549000B7F96C230192009303460A460B49022098
:1054A000FBF71CFF00F098BE289201083492010817
:1054B00000080258900E00245492010874920108CA
:1054C000A0920108B87901083C840108C08C010849
:1054D00007F51373CD491846FAF702FF0346002B70
:1054E00040F0C680CA490220FBF7F8FE002001F018
:1054F000E5FE07F5A5731A460021002001F0BEFE67
:105500000346002B1FD007F57C73A3F2A6231B884C
:105510001A46C0490220FBF7E1FE07F57C73A3F2AF
:10552000A6231B889B0A9BB203F0070207F57C7336
:10553000A3F2A6231B889B099BB203F00F03B64975
:105540000220FBF7CBFE07F5A27007F5A37207F563
:10555000A47107F5A17300930346002001F0F6FE45
:105560000346002B00F0388607F57C73A3F52A73F9
:10557000B3F90030194607F57C73A3F2AA23B3F9F7
:105580000030184607F57C73A3F52B73B3F9003090
:105590001A4607F57C73A3F2AE23B3F900300193EA
:1055A000009203460A469D490220FBF797FE4FF002
:1055B0007A53C7F87C339A4BC7F8783307F57C7376
:1055C000A3F52A73B3F9003007EE903AF8EEE77AC4
:1055D0009FED947A37EEC77ADFED936AC7EE267AAD
:1055E000B3EE097A77EE877AC7EDDD7A07F57C733B
:1055F000A3F2AA23B3F9003007EE903AB8EEE77AA7
:10560000D7EDDF7A67EE277AB7EEE74A07F57C73C6
:10561000A3F52B73B3F9003007EE903AB8EEE77AB2
:10562000D7EDDF7A67EE277AB7EEE77A07F57C7376
:10563000A3F2AE23B3F9003006EE903AB8EEE66A74
:10564000D7EDDE6A66EE266AB7EEE66AD7EDDD5A7A
:10565000B7EEE55A8DED045B8DED026B8DED007BB1
:1056600053EC142B71490220FBF738FE00F0B4BD57
:1056700007F513736E491846FAF732FE0346002BFE
:1056800071D16C490220FBF729FE07F51373184608
:10569000FAF786FE0346684A1344C7F8B03304E0BD
:1056A000D7F8B0330133C7F8B033D7F8B0331B782D
:1056B000202BF5D007F59E7107F2411207F598737C
:1056C000029307F59A73019307F59C7300930B46B9
:1056D0005A49D7F8B0030EF055FBC7F88003D7F846
:1056E000802357490220FBF7F9FDD7F88033052BBB
:1056F00027D107F57C73A3F2AF231A7807F57C73E3
:10570000A3F52D73D3ED007A07F57C73A3F52E7303
:1057100093ED007A07F57C73A3F52F73D3ED006A40
:1057200007F57C73A3F530731B681946B0EE661A53
:10573000F0EE470AB0EE670A1046FBF7DFFB00F019
:105740004BBD40490020FBF7C9FDD7F8B0233E49C7
:105750000020FBF7C3FDD7F880233C490020FBF76E
:10576000BDFD00F039BD07F5137339491846FAF746
:10577000B7FD0346002B1DD136490220FBF7AEFDD5
:1057800035490220FBF7AAFD0020FCF7E7FC0346A1
:1057900087F8873397F88733002B05D02F490220ED
:1057A000FBF79CFD00F018BD2D490020FBF796FD8E
:1057B00000F012BD07F513732A491846FAF790FD59
:1057C0000346002B54D107F513731846FAF7E8FD8A
:1057D00003460133184A134407F22F122249184690
:1057E0000EF0D0FA0346012B09D107F57C73A3F222
:1057F000C1231B78184601F067FA00F0EDBC1B4985
:105800000020FBF76BFD00F0E7BC00BFB092010881
:10581000888F0108BC920108B88F0108C08C01086C
:105820000456CE3E00A43447CDCC3442488F010804
:10583000CC920108D89201088C090024F892010842
:105840000C93010830930108689301087C930108C8
:1058500098930108A4930108C0930108D893010804
:10586000F49301080C94010818940108209401088D
:1058700007F51373AE491846FAF732FD0346002BBD
:1058800040F0CC80AB490220FBF728FDAA4B1B68F7
:105890001A46AA490220FBF721FDA74B5B68B3F526
:1058A000800F01D1A64B00E0A64B1A46A649022064
:1058B000FBF714FDA04B9B68002B01D1A34B00E02C
:1058C000A34B1A46A3490220FBF708FD9A4BDB685D
:1058D000072B01D1A04B00E0A04B1A46A0490220A3
:1058E000FBF7FCFC944B1B69002B01D19D4B00E0A6
:1058F0009D4B1A469D490220FBF7F0FC8E4B5B69DD
:10590000002B01D19A4B00E09A4B1A469A4902208B
:10591000FBF7E4FC884BDB691A4698490220FBF749
:10592000DDFC06F06DFBC7F88C030223C7F8AC332F
:10593000814BDB69B3F1E04F42D0B3F1E04F44D883
:10594000B3F1C04F38D0B3F1C04F3ED8B3F1A04F40
:105950002ED0B3F1A04F38D8B3F1804F24D0B3F19B
:10596000804F32D8B3F1405F1AD0B3F1405F2CD8EA
:10597000B3F1005F10D0B3F1005F26D8002B03D045
:10598000B3F1805F04D020E00223C7F8AC331CE001
:105990000423C7F8AC3318E00823C7F8AC3314E08D
:1059A0001023C7F8AC3310E02023C7F8AC330CE069
:1059B0004023C7F8AC3308E08023C7F8AC3304E0D9
:1059C0004FF48073C7F8AC3300BFD7F88C23D7F8F7
:1059D000AC33B2FBF3F3C7F88833D7F88C236849AC
:1059E0000220FBF77BFCD7F8882366490220FBF7EF
:1059F00075FC0121644805F0ADFA03461A46634977
:105A00000220FBF76BFC2021614805F0A3FA034656
:105A10001A4660490220FBF761FCDDE307F51373CA
:105A20005D491846FAF75CFC0346002B40F01781ED
:105A30005A490220FBF752FC594BC7F89033D7F86C
:105A400090335868D7F890331B890022194605F027
:105A500099FA012002F0DAFC07F57C73A3F53173A3
:105A6000F0221A8007F57C73A3F5327300221A80A6
:105A7000D7F89033186807F5947207F59671642388
:105A80000093022308F022FAD7F890335868D7F829
:105A900090331B890122194605F074FA022002F0A6
:105AA000B5FC07F57C73A3F532731B781A4607F52E
:105AB0007C73A3F532735B783A490220FBF70EFC46
:105AC000D7F890335868D7F890331B8900221946CD
:105AD00005F058FA012002F099FC07F57C73A3F554
