:020000040800F2
:1000000000000824594000089D340008A534000869
:10001000AD340008B5340008BD340008000000000D
:10002000000000000000000000000000C5340008CF
:10003000D334000800000000E1340008EF34000869
:10004000AD400008AD400008AD400008AD400008DC
:10005000AD400008AD400008AD400008AD400008CC
:10006000AD400008AD400008AD400008FD34000878
:1000700011350008AD400008AD400008AD40000853
:10008000AD400008AD400008AD400008AD4000089C
:10009000AD400008AD400008AD400008AD4000088C
:1000A000AD400008AD400008AD400008AD4000087C
:1000B000AD400008AD400008AD400008AD4000086C
:1000C000AD400008AD400008AD40000825350008EF
:1000D000AD400008AD40000839350008AD400008CB
:1000E000AD400008AD40000800000000AD40000831
:1000F000AD400008AD400008AD400008AD4000082C
:10010000AD400008AD400008AD400008AD4000081B
:10011000AD400008AD400008AD400008AD4000080B
:10012000AD400008AD400008AD400008AD400008FB
:10013000AD400008AD400008AD400008AD400008EB
:1001400000000000000000000000000000000000AF
:10015000AD400008AD400008AD400008AD400008CB
:10016000AD400008AD400008AD400008AD400008BB
:10017000AD400008AD400008AD400008AD400008AB
:10018000AD400008AD400008AD400008AD4000089B
:10019000AD400008AD400008AD400008AD4000088B
:1001A000AD400008AD400008AD400008AD4000087B
:1001B000AD400008AD400008AD400008AD4000086B
:1001C000AD400008AD400008AD400008AD4000085B
:1001D000AD4000084D350008AD400008AD400008B6
:1001E000AD400008AD400008AD400008AD4000083B
:1001F000AD400008AD400008AD400008AD4000082B
:10020000AD400008AD400008AD400008AD4000081A
:10021000AD400008AD400008AD400008AD4000080A
:10022000AD400008AD400008AD40000800000000EF
:10023000AD400008AD40000800000000AD400008DF
:10024000AD400008AD400008AD400008AD400008DA
:10025000AD400008AD400008AD400008AD400008CA
:10026000AD400008AD400008AD400008AD400008BA
:10027000AD400008AD400008AD400008000000009F
:10028000AD400008AD400008AD400008000000008F
:0802900000000000AD40000871
:1002A00010B5054C237833B9044B13B10448AFF3B0
:1002B00000800123237010BD5003002400000000C3
:1002C0004883010808B5034B1BB103490348AFF34A
:1002D000008008BD0000000054030024488301088A
:1002E00010F8012B11F8013B012A28BF9A42F7D0E0
:1002F000D01A70470000000000000000000000005D
:1003000001F0FF01102A2BDB10F0070F08D010F8C6
:10031000013B013A8B422DD010F0070F42B3F6D1CA
:10032000F0B441EA012141EA014122F007047FF0E3
:1003300000070023F0E80256083C85EA010586EA3A
:10034000010685FA47F5A3FA87F586FA47F6A5FA76
:1003500087F68EB9EED1F0BC01F0FF0102F0070282
:1003600032B110F8013B013A83EA010313B1F8D12D
:100370000020704701387047002D06BF354603380E
:10038000073815F0010F07D1013015F4807F02BF47
:10039000013015F4C03F0130F0BC0138704700BF98
:1003A000034613F8012B002AFBD1181A01387047B5
:1003B00081F0004102E000BF83F0004330B54FEA16
:1003C00041044FEA430594EA050F08BF90EA020F83
:1003D0001FBF54EA000C55EA020C7FEA645C7FEA16
:1003E000655C00F0E2804FEA5454D4EB5555B8BF39
:1003F0006D420CDD2C4480EA020281EA030382EAAA
:10040000000083EA010180EA020281EA0303362D3B
:1004100088BF30BD11F0004F4FEA01314FF4801C0E
:100420004CEA113102D0404261EB410113F0004F20
:100430004FEA03334CEA133302D0524263EB4303D7
:1004400094EA050F00F0A780A4F10104D5F1200E75
:100450000DDB02FA0EFC22FA05F2801841F10001D0
:1004600003FA0EF2801843FA05F359410EE0A5F1A4
:1004700020050EF1200E012A03FA0EFC28BF4CF0D5
:10048000020C43FA05F3C01851EBE37101F000458B
:1004900007D54FF0000EDCF1000C7EEB00006EEB98
:1004A0000101B1F5801F1BD3B1F5001F0CD3490822
:1004B0005FEA30004FEA3C0C04F101044FEA445279
:1004C00012F5800F80F09A80BCF1004F08BF5FEA00
:1004D000500C50F1000041EB045141EA050130BDE0
:1004E0005FEA4C0C404141EB0101013C28BFB1F5F2
:1004F000801FE9D291F0000F04BF01460020B1FA3D
:1005000081F308BF2033A3F10B03B3F120020CDA0F
:100510000C3208DD02F1140CC2F10C0201FA0CF0ED
:1005200021FA02F10CE002F11402D8BFC2F1200C52
:1005300001FA02F120FA0CFCDCBF41EA0C01904008
:10054000E41AA2BF01EB0451294330BD6FEA040451
:100550001F3C1CDA0C340EDC04F11404C4F120023C
:1005600020FA04F001FA02F340EA030021FA04F34E
:1005700045EA030130BDC4F10C04C4F1200220FAA5
:1005800002F001FA04F340EA0300294630BD21FAE3
:1005900004F0294630BD94F0000F83F4801306BFA9
:1005A00081F480110134013D4EE77FEA645C18BF9D
:1005B0007FEA655C29D094EA050F08BF90EA020F34
:1005C00005D054EA000C04BF1946104630BD91EA2C
:1005D000030F1EBF0021002030BD5FEA545C05D12F
:1005E0004000494128BF41F0004130BD14F580046E
:1005F0003CBF01F5801130BD01F0004545F0FE41E2
:1006000041F470014FF0000030BD7FEA645C1ABF16
:10061000194610467FEA655C1CBF0B46024650EA4D
:10062000013406BF52EA033591EA030F41F4002179
:1006300030BD00BF90F0000F04BF0021704730B5FF
:100640004FF4806404F132044FF000054FF00001D4
:1006500050E700BF90F0000F04BF0021704730B595
:100660004FF4806404F1320410F0004548BF40426A
:100670004FF000013EE700BF42004FEAE2014FEABF
:1006800031014FEA02701FBF12F07F4393F07F4F9A
:1006900081F06051704732F07F4208BF704793F09D
:1006A0007F4F04BF41F40021704730B54FF46074B0
:1006B00001F0004521F000411CE700BF50EA0102B3
:1006C00008BF704730B54FF000050AE050EA01025C
:1006D00008BF704730B511F0004502D5404261EBCC
:1006E00041014FF4806404F132045FEA915C3FF40D
:1006F000D8AE4FF003025FEADC0C18BF03325FEAAA
:10070000DC0C18BF033202EBDC02C2F1200300FA5A
:1007100003FC20FA02F001FA03FE40EA0E0021FA7F
:1007200002F11444BDE600BF53B94AB9002908BF1D
:1007300000281CBF4FF0FF314FF0FF3000F0C0B970
:10074000ADF1080C6DE904CE00F03EF8DDF804E0F0
:10075000DDE9022304B0704708B502460B4643ECBE
:10076000172BB5EEC07BF1EE10FA03D4BDE80840BC
:1007700000F00AB8B1EE477B51EC170B00F004F81B
:10078000404261EB410108BD9FED0B6B41EC170B43
:100790009FED0B5B27EE066BBCEEC66BB8EE464BCF
:1007A000A4EE457BFCEEC77B16EE101A17EE900AFE
:1007B000704700BFAFF30080000000000000F03D74
:1007C000000000000000F0412DE9F047089D8E4632
:1007D00004468846002B4AD18A42174662D9B2FAAB
:1007E00082F64EB1C6F1200301FA06F820FA03F3AF
:1007F000B74043EA0808B4404FEA174E1FFA87FC97
:10080000B8FBFEF1230C0EFB118843EA084301FB01
:100810000CF29A4209D9FB1801F1FF3080F0EA800E
:100820009A4240F2E78002393B449A1AA3B2B2FBE3
:10083000FEF00EFB102243EA024300FB0CFC9C4539
:1008400009D9FB1800F1FF3280F0D6809C4540F2B8
:10085000D3803B44023840EA0140A3EB0C03002163
:100860001DB1F3400022C5E90032BDE8F0878B429C
:1008700005D90DB1C5E9000100210846F5E7B3FA35
:1008800083F1002946D1734502D3824200F20581EB
:10089000841A6EEB030201209046002DE5D0C5E9D5
:1008A0000048E2E7002A00F09080B2FA82F6002EBB
:1008B00040F0A4808A1A030C4FEA174E80B2BCB2F3
:1008C0000121B2FBFEFC0EFB1C2243EA024304FBA7
:1008D0000CF29A4207D9FB180CF1FF3802D29A4267
:1008E00000F2E080C4469B1AB3FBFEF20EFB12330B
:1008F00040EA034302FB04F49C4207D9FB1802F1CF
:10090000FF3002D29C4200F2CA8002461B1B42EA20
:100910000C40A5E7C1F120068B4022FA06F71F43E1
:100920000EFA01F420FA06F32EFA06FE4FEA1749F2
:10093000234300FA01F81FFA87FCBEFBF9F01C0CF8
:1009400009FB10EE44EA0E4400FB0CFEA64502FA39
:1009500001F209D93C1900F1FF3A80F09C80A645CC
:1009600040F2998002383C44A4EB0E041FFA83FE47
:10097000B4FBF9F309FB13444EEA044403FB0CFCFB
:10098000A44508D93C1903F1FF3E80F08280A445BC
:100990007FD9023B3C4443EA0040A4EB0C04A0FB9B
:1009A00002EC64457346E14662D35FD05DB1B8EBBB
:1009B000030264EB090404FA06F622FA01F31E436B
:1009C000CC40C5E9006400214FE7B1FBF2FC010C0B
:1009D00041EA0E4180B240EA01423B4638463C467D
:1009E000B846BE462026B1FBF7F1A2EB080241EA69
:1009F0000C4166E7014618E710462CE7C6F12002D5
:100A00002EFA02F3B740B14020FA02F24FEA174E35
:100A10000A43B3FBFEF8BCB20EFB1833110C41EADB
:100A2000034108FB04F9B04089454FEA104380B206
:100A30003ED9791808F1FF3C01D289451FD8A1EBB6
:100A40000901B1FBFEF909FB04F80EFB191192B282
:100A500042EA0142424529D2BA1809F1FF31C4D213
:100A60004245C2D2A9F102013A44BEE7F0459DD207
:100A7000BEEB02036CEB070C0138E14696E7A7EBEF
:100A800009094944A8F1020CB1FBFEF909FB04F87D
:100A9000DBE773467FE7504666E70846FDE63B44E2
:100AA000023A33E7ACF1020C3B441CE749469CE7B1
:100AB000A1EB0901C446B1FBFEF909FB04F8C4E748
:100AC000704700BF80B483B000AF00237B6023E198
:100AD00097497A6813469B0013441B010B4410335B
:100AE0004FF000021A6092497A6813469B00134443
:100AF0001B010B4414334FF000021A608C497A68D2
:100B000013469B0013441B010B442C3300221A7024
:100B100087497A6813469B0013441B010B44083332
:100B2000844A1A607B680B2B00F2A48001A252F861
:100B300023F000BF650B00087B0B0008910B000839
:100B4000A70B0008BD0B0008D30B0008E90B000839
:100B5000FF0B0008150C00082D0C0008450C0008C0
:100B60005D0C000872497A6813469B0013441B0110
:100B70000B440C3301221A8086E06D497A681346D3
:100B80009B0013441B010B440C3302221A807BE0B0
:100B900067497A6813469B0013441B010B440C33CE
:100BA00004221A8070E062497A6813469B0013445D
:100BB0001B010B440C3308221A8065E05C497A68FB
:100BC00013469B0013441B010B440C3310221A8064
:100BD0005AE057497A6813469B0013441B010B44A3
:100BE0000C3320221A804FE051497A6813469B004B
:100BF00013441B010B440C3340221A8044E04C493F
:100C00007A6813469B0013441B010B440C3380226B
:100C10001A8039E046497A6813469B0013441B0149
:100C20000B440C334FF480721A802DE040497A68EF
:100C300013469B0013441B010B440C334FF480629A
:100C40001A8021E03A497A6813469B0013441B013D
:100C50000B440C334FF480521A8015E034497A6803
:100C600013469B0013441B010B440C334FF400420A
:100C70001A8009E02E497A6813469B0013441B0131
:100C80000B440C3301221A807B68032B13DC2849A8
:100C90007A6813469B0013441B010B44264A1A60D2
:100CA000796823487A6813469B0013441B01034468
:100CB000043319602DE07B68072B15DC1C497A682A
:100CC00013469B0013441B010B441C4A1A607B68AB
:100CD000043B184616497A6813469B0013441B01CF
:100CE0000B440433186014E011497A6813469B00E2
:100CF00013441B010B44124A1A607B68083B1846D8
:100D00000B497A6813469B0013441B010B440433C0
:100D100018607B6801337B607B680B2B7FF7D8AE54
:100D200000BF00BF0C37BD465DF8047B704700BFB5
:100D30006C03002400100258D80E0024240F002455
:100D4000700F002480B586B002AF034687ED000A1D
:100D5000FB71FB790B2B00F2A080D7ED007AB7EE88
:100D6000007AF4EEC77AF1EE10FA02DD4FF07E530E
:100D70003B60D7ED007ABFEE007AF4EEC77AF1EE71
:100D800010FA01D5474B3B60FA7913469B00134498
:100D90001B01454A1344FB60D7ED007AF5EEC07A9B
:100DA000F1EE10FA08DBFB689868FB689B8900226B
:100DB000194605F0B3FF0DE0FB689868FB689B8956
:100DC0000122194605F0AAFFD7ED007AF1EE677A05
:100DD000C7ED007AD7ED007A9FED347A67EE877A17
:100DE000FCEEE77A17EE903ABB60FB685B68002B7D
:100DF00005D1FB681B681B68BA685A632CE0FB6866
:100E00005B68042B05D1FB681B681A68BB68936399
:100E100022E0FB685B68082B05D1FB681B681A6839
:100E2000BB68D36318E0FB685B680C2B05D1FB68DB
:100E30001B681A68BB6813640EE0FB685B68102BC4
:100E400005D1FB681B681A68BB68936504E0FB6802
:100E50001B681A68BB68D365FA79134913469B006F
:100E600013441B010B4410333A681A60FA790E4997
:100E700013469B0013441B010B4414333A681A6059
:100E8000FB79D7ED007AB7EEE77A8DED007B1A4655
:100E90000749022000F042F800E000BF1037BD46CD
:100EA00080BD00BF000080BF6C03002400007A44B6
:100EB0006083010880B584B000AF87ED010A00238C
:100EC000FB6009E0FB68DBB297ED010A1846FFF70B
:100ED00039FFFB680133FB60FB680B2BF2DD00BFC1
:100EE00000BF1037BD4680BD80B500AF9FED020A40
:100EF000FFF7E0FF00BF80BD0000000080B483B0BA
:100F000000AF7860044A7B68136000BF0C37BD46B1
:100F10005DF8047B704700BF2C0700240EB490B529
:100F2000ADF5107D02AF024607F50E73A3F2312333
:100F30001A70234B1B7807F50E72A2F23122127839
:100F40009A4235D81F4B1B68002B31D007F512721F
:100F500007F50E73A3F582731A6007F50E73A3F5F8
:100F6000827307F59C701B68D7F844224FF4807198
:100F700013F03CFB03F022F9024607F1080007F5E5
:100F80009C7300931346104A4FF4967113F036FA8F
:100F90000C4B1C6807F108031846FFF701FA0346DB
:100FA0009AB207F10801642320460CF0A7F900E08B
:100FB00000BF07F50E77BD46BDE8904003B070470F
:100FC000000000242C070024D883010880B582B0DB
:100FD00000AF114BD3F8D8300F4A43F00103C2F8E9
:100FE000D8300D4BD3F8D83003F001037B607B6819
:100FF000002200210B2003F00EFA0B2003F025FA4B
:10100000002200210C2003F006FA0C2003F01DFA48
:1010100000BF0837BD4680BD0044025880B58CB083
:1010200000AF07F11C0300221A605A609A60DA6070
:101030001A614A4BD3F8E030484A43F01003C2F833
:10104000E030464BD3F8E03003F01003BB61BB69DE
:10105000424BD3F8E030414A43F00403C2F8E03099
:101060003E4BD3F8E03003F004037B617B693B4BDC
:10107000D3F8E030394A43F08003C2F8E030374B10
:10108000D3F8E03003F080033B613B69334BD3F886
:10109000E030324A43F00103C2F8E0302F4BD3F87E
:1010A000E03003F00103FB60FB682C4BD3F8E03029
:1010B0002A4A43F00203C2F8E030284BD3F8E0306C
:1010C00003F00203BB60BB68244BD3F8E030234A33
:1010D00043F00803C2F8E030204BD3F8E03003F0CF
:1010E00008037B607B68002249F2FB511C4805F035
:1010F00015FE002204211A4805F010FE0122FF21EE
:10110000184805F00BFE49F2FB53FB6101233B62DB
:1011100000237B620023BB6207F11C0319461048C1
:1011200005F04CFCFF23FB6101233B6200237B6243
:101130000023BB6207F11C0319460A4805F03EFC78
:1011400000214FF0806003F075F800214FF000603F
:1011500003F070F800BF3037BD4680BD0044025830
:10116000001002580008025880B586B004AF274925
:101170000220FFF7D3FE0C220021254813F044FA89
:101180000C220021234813F03FFA0C2200212248B0
:1011900013F03AFA214B01221A71214B02221A70E4
:1011A00000237B6011E01F4A7B688C2101FB03F365
:1011B000134474331B78002B04D17B68DBB21846D0
:1011C00001F07EFF7B6801337B607B68042BEADDE6
:1011D000154BD3ED0F7AB7EEE75A134BD3ED107AD8
:1011E000B7EEE77A104BD3ED116AB7EEE66A8DEDF4
:1011F000026B8DED007B53EC152B0C490220FFF7A1
:101200008DFE00BF0837BD4680BD00BF4484010885
:1012100028000024340000244C000024300700245F
:101220004C070024F8080024040000246884010806
:1012300080B500AF06490220FFF770FEFFF754FEAD
:10124000044B00221A71044B00221A7000BF80BDAB
:101250009C840108300700244C07002480B588B026
:1012600004AF87ED030AC7ED020A87ED011A114AA0
:10127000FB68D3630F4ABB6813640E4A7B685364F0
:10128000D7ED037AB7EEE75AD7ED027AB7EEE77AF1
:10129000D7ED016AB7EEE66A8DED026B8DED007B4E
:1012A00053EC152B04490220FFF738FE00BF10371E
:1012B000BD4680BD04000024C084010880B500AF95
:1012C0001848FFF71BFE18490220FFF727FEFFF71B
:1012D000F9FB164B01221A7015490220FFF71EFE7A
:1012E00001F048FA114B01225A7000F008FE034643
:1012F00083F00103DBB2002B04D00E490020FFF77E
:101300000DFE03E00C490220FFF708FE0B49022006
:10131000FFF704FE01F0FEFD09490220FFF7FEFD84
:1013200000BF80BDBC0F0024808501083007002469
:10133000B8850108DC850108008601081C860108C3
:101340003C86010880B500AF00F04EF800F026F8AA
:1013500000BF80BD80B582B000AF00F0DBFD7860DB
:101360007B68B3F1FF3F0BD07B68002B08D07B6814
:1013700023F07F431A4607490220FFF7CFFD05E01F
:101380007A6805490020FFF7C9FD00BF00BF083794
:10139000BD4680BD608601088086010880B584B0A6
:1013A00000AF02F00BFFF8600C4B1B68FA68D31A11
:1013B000BB60BB68B3F57A7F0BD34FF000037B6053
:1013C000074A7B68D360074B00221A60034AFB6818
:1013D000136000BF1037BD4680BD00BF98080024D1
:1013E00030070024A408002480B500AF02F0E6FE18
:1013F0000346024A936000BF80BD00BF300700244F
:1014000080B500AF18490220FFF788FD1749022078
:10141000FFF784FD16490220FFF780FD15490220E1
:10142000FFF77CFD14490220FFF778FD13490220E5
:10143000FFF774FD12490220FFF770FD11490220E9
:10144000FFF76CFD10490220FFF768FD0F490220ED
:10145000FFF764FD0E490220FFF760FD0D490220F1
:10146000FFF75CFD00BF80BDA4860108BC860108B3
:10147000D4860108F48601081887010858870108F6
:1014800084870108B4870108FC87010820880108C7
:10149000488801087488010880B584B004AF2F49DA
:1014A0000220FFF73BFD2E4B9B681A462D49022078
:1014B000FFF734FD2A4BD3ED037AB7EEE77A53EC0E
:1014C000172B29490220FFF729FD254B1B781A46C7
:1014D00026490220FFF722FD214B5B781A4624495A
:1014E0000220FFF71BFD1E4BDB781A462149022024
:1014F000FFF714FD1A4B9B781A461F490220FFF78D
:101500000DFD174B1B791A461C490220FFF706FDFB
:10151000134BD3ED047AB7EEE75A114BD3ED057AAE
:10152000B7EEE77A0E4BD3ED066AB7EEE66A8DEDBD
:10153000026B8DED007B53EC152B11490220FFF758
:10154000EDFC4FF480710F4801F0DAFD0D4A0E49B1
:101550000220FFF7E3FC00BFBD4680BDA88801085C
:1015600030070024BC880108D0880108E4880108FD
:10157000F8880108108901082889010840890108B4
:1015800058890108500700248089010880B59CB063
:1015900006AF244B1B78002B3DD002F00FFE786580
:1015A000214B1B687A6DD21A204B1B689A4234D3A8
:1015B0001D4A7B6D1360002001F0D0FD0346002B17
:1015C0002CD01B4B5B6A3B65194B9B6AFB64184B29
:1015D000DB6ABB64D7ED147AB7EEE77AD7ED136A0E
:1015E000B7EEE66AD7ED125AB7EEE55A3B1D8DED20
:1015F000045B8DED026B8DED007B0E4A4021184699
:1016000012F0FCFE78647B6C9AB2391D0A230A48FA
:101610000BF074FE02E000BF00E000BF5837BD468B
:1016200080BD00BFA90800249C080024600000249D
:10163000F808002488890108BC0F002480B500AF99
:1016400002F036FD00F0B2FB02F032FD00F06EF861
:10165000FFF7E4FCFFF7BAFC01F08EFD02F0FEF8A4
:1016600002F0B0F902F02AFA02F09CFB02F0E6FB6D
:1016700000F0E0FDFFF76EFE11F0CCFAFFF71EFE62
:1016800001221F491F480BF0C7FE1F490220FFF728
:1016900045FC1E490220FFF741FC1D490220FFF7CF
:1016A0003DFC08230C221B490220FFF737FC1A4996
:1016B0000220FFF733FCFFF7A3FE0A230422174999
:1016C00010480BF01BFE02F079FD0346144A13602C
:1016D00002F074FD0346134A136000F015F9FFF79A
:1016E00055FFFFF72FFE104B1B78002B03D1012075
:1016F00002F070FDF1E7002002F06CFDEDE700BFA5
:1017000092080024BC0F0024988901089C890108D4
:10171000C8890108F4890108288A0108588A010843
:101720009408002498080024A908002480B59CB0DF
:1017300000AF07F124034C220021184612F064FF89
:101740003B1D20220021184612F05EFF022006F009
:1017500087FD00233B60304BDB6A2F4A23F00103F7
:10176000D3622D4BDB6A03F001033B602B4B9B697B
:101770002A4A43F440439361284B9B6903F4404356
:101780003B603B6800BF254B9B6903F40053B3F5F6
:10179000005FF8D101237B624FF48033BB620223E8
:1017A000BB640223FB6402233B6540237B65022369
:1017B000BB650423FB6502233B660C237B66002389
:1017C000BB660023FB6607F12403184607F0E6F921
:1017D0000346002B01D000F023F83F237B60032356
:1017E000BB600023FB6008233B6140237B614023F7
:1017F000BB614FF48063FB6140233B623B1D0221D0
:10180000184607F025FE0346002B01D000F008F82B
:1018100000BF7037BD4680BD000400580048025824
:1018200080B500AF04490020FFF778FB4FF4FA7051
:1018300002F0D0FCFAE700BF608A010880B582B0F0
:1018400000AF78607B681B68274A934248D1274BDA
:101850001B780D2B03D0254B1B780A2B0DD1244B65
:101860001B88002B02D0234B01221A700A2302226C
:10187000214922480BF042FD2DE01C4B1B78082B20
:1018800003D01A4B1B787F2B10D1194B1B88002BD0
:1018900021D0174B1B88013B9AB2154B1A800A23A3
:1018A0000322174915480BF029FD14E0104B1B8843
:1018B0003E2B10D80E4B1B885A1C91B20C4A11803B
:1018C0001A460A4B19780F4B99540A2301220749EB
:1018D0000A480BF013FD0122044908480BF09CFD57
:1018E00000BF0837BD4680BD004400409208002478
:1018F00090080024A808002498890108BC0F00243F
:10190000888A010850080024B0B598B008AFAF4BE2
:101910001B78002B00F02282AC4B00221A70AC4BDB
:101920001B881A46AB4B00219954AB4B1B68013303
:10193000A94A1360A64B1B88FB6307E0FB6B013BC6
:10194000A44A0021D154FB6B013BFB63FB6B002BD2
:1019500011DDFB6B013B9F4AD35C0D2BEED0FB6B83
:10196000013B9C4AD35C0A2BE8D0FB6B013B994AB4
:10197000D35C202BE2D007F110031A469749954813
:1019800012F094FD0346012B40F0D58107F11003BE
:1019900093491846FEF7A4FC0346002B02D1FFF73B
:1019A0002FFDCCE107F110038E491846FEF798FC95
:1019B0000346002B02D1FFF76FFDC0E107F11003D2
:1019C00089491846FEF78CFC0346002B40F09B80AB
:1019D00007F110031846FEF7E3FC034601337D4A86
:1019E000134407F10F028149184612F05FFD0346C8
:1019F000012B40F08380FB7B072B79D8FB7B1846BB
:101A000001F056F8034687F83330FB7B1A4697F807
:101A1000333077490220FFF781FA97F83330002BF3
:101A20003FD0FB7B1846FB7B1946724A8C2301FB97
:101A300003F313442433D3ED007AB7EEE77AFB7B4C
:101A400019466C4A8C2301FB03F313442833D3ED6E
:101A5000006AB7EEE66AFB7B1946664A8C2301FBF7
:101A600003F313442C33D3ED005AB7EEE55AFB7B56
:101A70001946604A8C2301FB03F313443033D3ED42
:101A8000004AB7EEE44A8DED064B8DED045B8DED1B
:101A9000026B8DED007B024657490220FFF73EFAAC
:101AA0004DE1FB7B1C46FB7B1946524A8C2301FB14
:101AB00003F3134476331B781D46FB7B19464D4ACE
:101AC0008C2301FB03F3134484331B68FA7B104619
:101AD00048498C2200FB02F20A44803212680192CB
:101AE00000932B46224645490020FFF717FA26E1CE
:101AF000072243490020FFF711FA20E14149002065
:101B0000FFF70CFA1BE107F110033F491846FEF7F7
:101B1000E7FB0346002B09D13C490220FFF7FEF901
:101B200001F0E0F83A4B0122DA7008E107F1100306
:101B300038491846FEF7D4FB0346002B02D101F0CA
:101B400061F9FCE007F1100333491846FEF7C8FBC2
:101B50000346002B02D101F0DDF9F0E007F110039C
:101B60002E491846FEF7BCFB0346002B5ED107F159
:101B700010031846FEF714FC0346164A1344BB63D1
:101B800002E0BB6B0133BB63BB6B1B78202BF8D02F
:101B9000BB6B1B78002B0DD0B86B11F0A9FC7863E0
:101BA0007B6B092B06DD7B6BB3F57A7F02DC7B6BED
:101BB0001B4A13601B4B01221A70194B1B681A46F3
:101BC00019490220FFF7AAF9B9E000BFA8080024CC
:101BD0009008002450080024A00800248C8A0108E2
:101BE000948A01089C8A0108A48A0108AC8A010829
:101BF000B48A0108F8080024D48A01080C8B010873
:101C0000448B0108688B0108808B01088C8B0108CC
:101C100030070024BC8B0108C88B0108D48B010855
:101C200060000024A9080024E48B010807F11003D8
:101C30004C491846FEF754FB0346002B07D14A4B8C
:101C400000221A7049490220FFF768F977E007F18E
:101C5000100347491846FEF743FB0346002B06D105
:101C600044490220FFF75AF9FFF77EFA67E007F1CF
:101C7000100341491846FEF733FB0346002B06D1FB
:101C80003E490220FFF74AF9FFF7D2FA57E007F181
:101C900010033B491846FEF723FB0346002B3ED1B9
:101CA00007F110031846FEF77BFB03460133354A64
:101CB0009818391D07F108023B4600930B4632493C
:101CC00012F0F4FB0346032B24D1D7ED027AB7EED2
:101CD000E75AD7ED017AB7EEE77AD7ED006AB7EEAB
:101CE000E66A8DED026B8DED007B53EC152B2749D9
:101CF0000220FFF713F9D7ED027A97ED017AD7EDBD
:101D0000006AB0EE661AF0EE470AB0EE670AFFF717
:101D1000A5FA14E01E490020FFF700F90FE007F1D3
:101D200010031A461B490020FFF7F8F81A49022051
:101D3000FFF7F4F803E019490020FFF7EFF8184B1C
:101D400000221A80402200210E4812F05DFC0A2376
:101D50000422144914480BF0D1FA00E000BF4037C8
:101D6000BD46B0BD0C8C0108A9080024188C0108E0
:101D70002C8C0108388C01085C8C01086C8C0108E3
:101D8000908C0108500800249C8C0108A88C010844
:101D9000DC8C0108F88C0108108D0108348D0108D5
:101DA00090080024588A0108BC0F002480B584B034
:101DB00000AF3B4600221A605A609A60DA6002F077
:101DC0005FFB01233B7000237B7000237B601F239C
:101DD0003B7287237B720023BB720023FB720123BB
:101DE0003B7301237B730023BB730023FB733B46D0
:101DF000184602F07DFB042002F05AFB00BF1037AA
:101E0000BD4680BD80B58EB000AF3B463822002174
:101E1000184612F0F9FB06233B604FF48073BB6158
:101E20000023FB6100233B6200237B6200237B6174
:101E30000023FB6200233B6300237B633B464FF0A0
:101E4000FF321946034806F0C9FA0346002B38371B
:101E5000BD4680BDAC08002480B590B000AF07F14E
:101E6000080338220021184612F0CEFB0023FB7134
:101E70000523BB604FF480733B6200237B62002329
:101E8000BB624FF08073FB6201233B630023FB6165
:101E900000237B630023BB630023FB6307F108037C
:101EA0004FF0FF3219460C4806F098FA0346002B13
:101EB00001D0FF230CE0FB1D4FF0FF32194606480E
:101EC00006F07CFB0346002B01D0FF2300E0FB79EA
:101ED00018464037BD4680BDAC08002480B582B0AE
:101EE00000AFFFF7B9FF0346FB71FB7903F0010375
:101EF000002BF6D100BF00BF0837BD4680BD80B5BE
:101F000082B000AF00F006F8786001231846083769
:101F1000BD4680BD80B590B000AF07F10803382200
:101F20000021184612F070FB3B1D00210A461A8062
:101F30000A469A709F23BB604FF480733B62002374
:101F40007B620023BB624FF08073FB6203233B6321
:101F50000023FB6100237B630023BB630023FB633F
:101F600007F108034FF0FF321946104806F036FA21
:101F70000346002B02D04FF0FF3313E03B1D4FF020
:101F8000FF321946094806F019FB0346002B02D020
:101F90004FF0FF3306E03B791A047B791B021343B1
:101FA000BA79134318464037BD4680BDAC080024BB
:101FB00080B590B000AF786007F1080338220021A7
:101FC000184612F021FB7A68154B13407B60FFF72F
:101FD00019FF2023BB604FF480733B624FF4806392
:101FE0007B624FF400537B617B68FB600023BB6224
:101FF0000023FB620023FB6100237B630023BB63A0
:102000000023FB6307F108034FF0FF321946054830
:1020100006F0E4F9FFF762FF00BF4037BD4680BD20
:1020200000F0FFFFAC08002480B598B000AFF86066
:10203000B9607A607B68002B6DD07B68B3F5807FD8
:1020400002D94FF480737B6007F128033822002106
:10205000184612F0D9FA07F1100300221A605A60EC
:102060009A60DA601A615A61FFF7CCFE0223BB6204
:102070004FF480733B644FF480637B644FF40053F0
:102080007B63FB68FB620023BB644FF08073FB64DF
:102090007B683B650023FB6300237B650023BB65F6
:1020A0000023FB6507F128034FF0FF3219461C4857
:1020B00006F094F94FF0FF32B968194806F0ECF9D0
:1020C00000233B6101237B6100233B621023BB6142
:1020D0000123FB614FF480037B620523BB624FF455
:1020E00080733B6400237B644FF08073FB640123A7
:1020F0003B650023FB6300237B650023BB65002356
:10210000FB6507F1100207F128014FF0FF33044887
:1021100006F0F1FA00E000BF6037BD4680BD00BFA9
:10212000AC08002480B588B000AFF860B9607A6070
:10213000FB68BB617B681B0A7B617B68DBB23B6130
:102140000023FB610FE0FB691A02BB69D018FB6931
:102150001B02BA6813444FF480721946FFF764FFFC
:10216000FB690133FB61FA697B699A42EBD33B69F6
:10217000002B0BD07B691A02BB69D0187B691B024C
:10218000BA6813443A691946FFF74EFF00BF20377B
:10219000BD4680BD80B592B000AFF860B9607A608E
:1021A00007F1100338220021184612F02DFA0323FC
:1021B0003B614FF48073BB624FF48063FB624FF46A
:1021C0000053FB61FB687B6100233B634FF080732E
:1021D0007B637B68BB6300237B620023FB6300237C
:1021E0003B6400237B6407F1100341F288321946F7
:1021F0000D4806F0F3F80346002B04D00B490020ED
:10220000FEF78CFE0DE041F28832B968064806F010
:10221000D5F90346002B04D005490020FEF77EFEC9
:1022200000BF4837BD4680BDAC080024508D010872
:10223000688D010880B500AF124B134A1A60114B2C
:1022400008225A600F4B01229A600E4B1022DA606E
:102250000C4B17221A610B4B4FF480625A61094BE9
:1022600000229A61074B0022DA61064B00221A62B3
:10227000044806F03FF80346002B01D0FFF7D0FAE0
:1022800000BF80BDAC0800240050005280B5BCB037
:1022900000AF786007F1DC0300221A605A609A6090
:1022A000DA601A6107F11803C0220021184612F003
:1022B000ABF97B681B68554A934240F0A3804FF00E
:1022C00000724FF00003C7E9062300237B6607F185
:1022D0001803184607F048FC0346002B01D0FFF70F
:1022E0009FFA4B4BD3F8D430494A43F48043C2F8A9
:1022F000D430474BD3F8D43003F480437B617B69FF
:10230000434BD3F8E030424A43F01003C2F8E030C8
:102310003F4BD3F8E03003F010033B613B693C4B8B
:10232000D3F8E0303A4A43F00203C2F8E030384BC9
:10233000D3F8E03003F00203FB60FB68344BD3F8C2
:10234000E030334A43F00803C2F8E030304BD3F8B2
:10235000E03003F00803BB60BB680423C7F8DC303F
:102360000223C7F8E0300023C7F8E4300023C7F8A1
:10237000E8300923C7F8EC3007F1DC03194625489B
:1023800004F01CFB0423C7F8DC300223C7F8E0305C
:102390000023C7F8E4300023C7F8E8300923C7F862
:1023A000EC3007F1DC0319461B4804F007FB4FF43F
:1023B0006053C7F8DC300223C7F8E0300023C7F8C9
:1023C000E4300023C7F8E8300923C7F8EC3007F100
:1023D000DC031946114804F0F1FA4023C7F8DC3059
:1023E0000223C7F8E0300023C7F8E4300023C7F821
:1023F000E8300A23C7F8EC3007F1DC031946064839
:1024000004F0DCFA00BFF037BD4680BD005000523A
:10241000004402580010025800040258000C0258F0
:1024200080B586B002AF7860F023BB8100233B818A
:102430007B6858687B681B890022194604F06EFC93
:10244000012001F0C7FE7B68186807F1080207F158
:102450000C0164230093022309F0D6FA0346002BF3
:102460000CD07B6858687B681B890122194604F0F0
:1024700055FC022001F0AEFE00230BE07B6858689B
:102480007B681B890122194604F048FC022001F0F8
:10249000A1FE012318461037BD4680BD80B586B029
:1024A00002AF78608023BB8100233B817B68586842
:1024B0007B681B890022194604F030FC012001F0E2
:1024C00089FE7B68186807F1080207F10C01642394
:1024D0000093022309F098FA0346002B0CD07B6886
:1024E00058687B681B890122194604F017FC0220FA
:1024F00001F070FE00230BE07B6858687B681B8945
:102500000122194604F00AFC022001F063FE0123B7
:1025100018461037BD4680BD80B586B002AF7860E2
:1025200039603F23BB8100233B817B6858687B680F
:102530001B890022194604F0F1FB012001F04AFE3C
:102540007B68186807F1080207F10C016423009307
:10255000022309F059FA0346002B09D07B6858681A
:102560007B681B890122194604F0D8FB002318E080
:102570007B6858687B681B890122194604F0CEFBF2
:102580003B68002B02D03A7A3B681A703B7A03F022
:102590001003002B01D0002303E0052001F01AFEF8
:1025A000012318461037BD4680BD80B58CB002AF00
:1025B000F860B9607A603B604F23FB6107F120034C
:1025C00000221A609A8007F1100300221A605A60F4
:1025D0001A81FB685868FB681B890022194604F0C1
:1025E0009DFB012001F0F6FDFB68186807F1100261
:1025F00007F11C01642300930A2309F005FA03463E
:10260000002B09D0FB685868FB681B89012219461A
:1026100004F084FB002347E0FB685868FB681B89D3
:102620000122194604F07AFB3B7C87F8273097F8A3
:10263000273003F01003002B01D0002334E0BB68E7
:10264000002B09D0BB7C1BB21B021AB2FB7C1BB255
:1026500013431AB2BB681A807B68002B09D03B7DFC
:102660001BB21B021AB27B7D1BB213431AB27B68EA
:102670001A803B68002B09D0BB7D1BB21B021AB22B
:10268000FB7D1BB213431AB23B681A803B6B002BD5
:1026900009D03B7E1BB21B021AB27B7E1BB21343D6
:1026A0001AB23B6B1A80012318462837BD4680BDFD
:1026B00080B588B002AF0346FB71FB79072B52D877
:1026C000FB798C2202FB03F3294A13447B617B696B
:1026D00058687B691B890122194604F01FFB64209E
:1026E00001F078FD7869FFF7D9FE7869FFF798FE69
:1026F0007869FFF7D3FE00233B824FF6FF73BB815F
:102700007B6958687B691B890022194604F006FB27
:10271000012001F05FFD7B69186807F10C0207F1E9
:10272000100164230093022309F06EF90346FB7441
:102730007B6958687B691B890122194604F0EEFA0F
:10274000FB7C002B0AD13B7BFF2B02D17B7BFF2B39
:1027500004D07B69012283F8742005E07B690022A4
:1027600083F8742000E000BF1837BD4680BD00BF6D
:10277000F808002480B588B002AFAF490220FEF708
:10278000CDFB0023FB75EFE0FB7DAC4A8C2101FB08
:1027900003F31344AA4A1A60FB7DA84A8C2101FB6B
:1027A00003F313440433A74A1A60FB7D072B63D855
:1027B00001A252F823F000BFD9270008ED27000836
:1027C0000128000815280008292800083D280008CD
:1027D0005128000865280008FB7D984A8C2101FBE0
:1027E00003F31344083301221A804FE0FB7D934A20
:1027F0008C2101FB03F31344083302221A8045E0C5
:10280000FB7D8E4A8C2101FB03F313440833042221
:102810001A803BE0FB7D894A8C2101FB03F31344C2
:10282000083308221A8031E0FB7D844A8C2101FBA9
:1028300003F31344083310221A8027E0FB7D7F4AFC
:102840008C2101FB03F31344083320221A801DE07E
:10285000FB7D7A4A8C2101FB03F3134408334022A9
:102860001A8013E0FB7D754A8C2101FB03F31344AE
:10287000083380221A8009E0FB7D704A8C2101FB1D
:1028800003F31344083301221A8000BFFB7D6B4A17
:102890008C2101FB03F3134404331868FB7D674A62
:1028A0008C2101FB03F3134408331B8801221946D2
:1028B00004F034FAFB7D8C2202FB03F320335F4AE1
:1028C000134404330C220021184611F09DFEFB7DB9
:1028D0005A4A8C2101FB03F3134430334FF00002BA
:1028E0001A60FB7D554A8C2101FB03F313447433BA
:1028F00000221A70FB7D514A8C2101FB03F3134423
:10290000753300221A70FB7D4C4A8C2101FB03F3C6
:102910001344803300221A60FB7D484A8C2101FB5E
:1029200003F31344843300221A60FB7D434A8C2155
:1029300001FB03F31344763300221A70FB7D3F4AF8
:102940008C2101FB03F31344343300221A60FB7D16
:102950003A4A8C2101FB03F3134488334FF0000201
:102960001A60FB7D0133FB75FB7D072B7FF60CAFF7
:102970000023BB758CE001F021FC38610023BB8093
:102980004FF6FF733B80BB7D2C4A8C2101FB03F388
:10299000134404331868BB7D284A8C2101FB03F3E0
:1029A000134408331B880022194604F0B7F90120AC
:1029B00001F010FCBB7D214A8C2101FB03F3134481
:1029C00018683A46391D64230093022309F01CF865
:1029D0000346FB73BB7D194A8C2101FB03F31344AF
:1029E00004331868BB7D154A8C2101FB03F31344A3
:1029F00008331B880122194604F090F9FB7B002B59
:102A000024D13B78FF2B02D17B78FF2B1ED0BB7DDE
:102A10000A4A8C2101FB03F31344743301221A7018
:102A2000BB7D1A4608490220FEF778FABB7D18469E
:102A3000FFF73EFE1DE000BF808D0108F80800246E
:102A40005C0D002400080258A48D0108BB7D154AC6
:102A50008C2101FB03F31344743300221A70BA7DF6
:102A6000FB7B39787878019000910F490120FEF7BF
:102A700055FA01F0A3FB02463B69D31ABB60BA7D4D
:102A8000BB680A490320FEF749FABB7D0133BB75D9
:102A9000BB7D042B7FF66FAF00F03CFA00BF183708
:102AA000BD4680BDF8080024BC8D0108F48D0108E6
:102AB00080B58EB002AF0346FB71FB79072B01D9BD
:102AC000002300E1FB798C2202FB03F3804A1344CC
:102AD000FB62FB6A93F87430002B01D10023F2E013
:102AE00001F06CFBB862F86AFFF79AFC0346002B12
:102AF00010D1FB6A93F876300133DAB2FB6A83F8BF
:102B00007620FB6AD3F884305A1CFB6AC3F8842011
:102B10000023D8E0F86AFFF7C1FC0346002B10D170
:102B2000FB6A93F876300133DAB2FB6A83F87620D9
:102B3000FB6AD3F884305A1CFB6AC3F88420002354
:102B4000C1E00023FB7507F117031946F86AFFF788
:102B5000E3FC0346002B10D1FB6A93F87630013377
:102B6000DAB2FB6A83F87620FB6AD3F884305A1C09
:102B7000FB6AC3F884200023A5E00023BB82002366
:102B80007B8200233B820023FB8107F1100007F1C9
:102B9000120207F1140107F10E0300930346F86ACD
:102BA000FFF703FD0346002B10D1FB6A93F8763044
:102BB0000133DAB2FB6A83F87620FB6AD3F88430FB
:102BC0005A1CFB6AC3F8842000237CE0414B7B62E3
:102BD000414B3B62B7F9123007EE903AB8EEE77A14
:102BE000D7ED097A67EE277AFB6AC3ED097AB7F960
:102BF000103007EE903AB8EEE77AD7ED097A67EE33
:102C0000277AFB6AC3ED0A7AB7F90E3007EE903ADD
:102C1000B8EEE77AD7ED087A67EE277AFB6AC3ED5C
:102C20000B7AB7F9143007EE903AF8EEE77A9FED99
:102C30002B7A37EEC77ADFED2A6AC7EE267AB3EE33
:102C4000097A77EE877AFB6AC3ED0C7A01F0B6FA5F
:102C5000F861FB6AFA695A63FB6AD3F880305A1C40
:102C6000FB6AC3F88020FB6AD3F88030012B0AD1BD
:102C7000FA69BB6AD31A07EE903AF8EE677AFB6AF4
:102C8000C3ED227A1EE0FB6AD3F88830BB61FA6993
:102C9000BB6AD31A07EE903AB8EE677AD7ED067A98
:102CA00077EE676AFB6AD3F8803007EE903AF8EE69
:102CB000677A86EEA77AD7ED067A77EE277AFB6AEF
:102CC000C3ED227A012318463037BD4680BD00BFD0
:102CD000F80800248941403F48E19A3F00A4344766
:102CE000CDCC344280B582B000AF304B01221A7097
:102CF0002F490220FEF712F90023FB714AE0FB790D
:102D00001846FFF7D5FE0346002B40D000233B605A
:102D100031E0FA79274913469B001344DA00D21AAE
:102D20003B68134408339B000B440433D3ED007A13
:102D3000FA79F1EE677A1F4913469B001344DA00D3
:102D4000D21A3B6813440E339B000B44C3ED007A48
:102D5000FA79184913469B001344DA00D21A3B68EB
:102D6000134410339B000B4404334FF07E521A601F
:102D70003B6801333B603B68022BCADDFB790D4A9F
:102D80008C2101FB03F31344753301221A70FB7984
:102D90000133FB71FB79042BB1D907490220FEF7FF
:102DA000BDF800BF0837BD4680BD00BF580D0024E8
:102DB000148E0108F8080024348E010880B487B00E
:102DC00000AF786000237B617B68FB60C823BB6039
:102DD00000233B610AE0FA683B6913441B781A46FA
:102DE0007B6913447B613B6901333B613A69BB6892
:102DF0009A42F0D37B6918461C37BD465DF8047BC8
:102E00007047000080B5B6B000AF3E490220FEF723
:102E100085F83D4B3B6001237B600023C7F8D4302D
:102E20004CE00023C7F8D0303FE03849D7F8D42031
:102E300013469B001344DA00D21AD7F8D03013445B
:102E40000E339B000B441968D7F8D42013465B005F
:102E50001344D7F8D020134402339B00D8333B44AB
:102E6000D83B19602949D7F8D42013469B00134456
:102E7000DA00D21AD7F8D030134410339B000B4439
:102E800004331968D7F8D42013465B001344D7F8ED
:102E9000D02013441A339B00D8333B44D83B1960ED
:102EA000D7F8D0300133C7F8D030D7F8D030022B64
:102EB000BBDDD7F8D4300133C7F8D430D7F8D430DD
:102EC000072BAEDD3B461846FFF778FF0346C7F8F1
:102ED000C8300023C7F8CC30D7F8CC00FFF768F82B
:102EE0003B46CC221946D7F8CC00FFF71BF9D7F8A0
:102EF000CC2007490220FEF711F800BFD837BD46A5
:102F000080BD00BF4C8E0108EFBEADDEF808002486
:102F1000708E010880B5BAB000AF62490220FDF79B
:102F2000FDFF0023C7F8D4303B46CC2200211846D1
:102F300011F06AFB3B46CC221946D7F8D400FFF7C4
:102F400029F9012387F8E7303B46C7F8D030002342
:102F5000C7F8E03010E0D7F8E030D7F8D0201344BD
:102F60001B78FF2B03D0002387F8E73008E0D7F861
:102F7000E0300133C7F8E030D7F8E030CB2BEAD9A6
:102F800097F8E730002B04D047490220FDF7C6FF31
:102F900084E03B68454A934206D03A68434B444933
:102FA0000120FDF7BBFF79E03B461846FFF706FF1F
:102FB000C7F8CC00D7F8C830D7F8CC209A4208D050
:102FC000D7F8C820D7F8CC303A490120FDF7A6FF42
:102FD00064E00023C7F8DC3056E00023C7F8D8309F
:102FE0003FE0D7F8DC2013465B001344D7F8D82025
:102FF000134402339B00E8333B44E83B19682E48F6
:10300000D7F8DC2013469B001344DA00D21AD7F815
:10301000D83013440E339B0003441960D7F8DC20EA
:1030200013465B001344D7F8D82013441A339B008F
:10303000E8333B44E83B19681F48D7F8DC201346C7
:103040009B001344DA00D21AD7F8D8301344103357
:103050009B00034404331960D7F8D8300133C7F814
:10306000D830D7F8D830022BBBDD134AD7F8DC3084
:103070008C2101FB03F31344753301221A70D7F836
:10308000DC300133C7F8DC30D7F8DC30072BA4DDA7
:10309000D7F8D42009490220FDF740FFE837BD46A4
:1030A00080BD00BFA88E0108CC8E0108EFBEADDE4A
:1030B000FC8E01083C8F0108F80800247C8F010871
:1030C00080B483B000AF0346FB71FB79072B01D9B5
:1030D00000230CE0FB79094A8C2101FB03F3134424
:1030E00074331B78002B14BF01230023DBB2184676
:1030F0000C37BD465DF8047B704700BFF80800241C
:1031000080B586B002AF78600B467B800023FB6001
:103110000023BB600FE00F4ABB688C2101FB03F367
:10312000134474331B78002B02D0FB680133FB601F
:10313000BB680133BB60BB68072BECDD79880823D3
:103140000093FB68044A786811F058F900BF103703
:10315000BD4680BDF8080024D48F010880B582B038
:1031600000AF0346FB71FB791846FFF7A1FC03464D
:1031700018460837BD4680BD80B500AF274B284AAA
:103180001A60264B4FF480025A60244B00229A604A
:10319000224B0722DA60214B00221A611F4B0022CA
:1031A0005A611E4B4FF080629A611C4B4FF0C04237
:1031B000DA611A4B00221A62184B00225A62174B2E
:1031C00000229A62154B0022DA62144B00225A63E5
:1031D000124B00229A63114B0022DA630F4B00223C
:1031E0001A640E4B00225A640C4B00229A640B4B5B
:1031F0000022DA64094B00221A65084B00225A6546
:10320000064B00229A65054808F0DAFA0346002BBF
:1032100001D0FEF705FB00BF80BD00BF5C0D0024A0
:103220000030014080B5BCB000AF786007F1DC032E
:1032300000221A605A609A60DA601A6107F1180376
:10324000C0220021184611F0DFF97B681B687D4A17
:10325000934240F0F2804FF480524FF00003C7E9F0
:1032600006230023BB6707F11803184606F07CFC11
:103270000346002B01D0FEF7D3FA734BD3F8F0309E
:10328000714A43F48053C2F8F0306F4BD3F8F030FA
:1032900003F480537B617B696B4BD3F8E0306A4A5F
:1032A00043F00103C2F8E030674BD3F8E03003F09D
:1032B00001033B613B69644BD3F8E030624A43F061
:1032C0000803C2F8E030604BD3F8E03003F00803A5
:1032D000FB60FB685C4BD3F8E0305B4A43F00203D1
:1032E000C2F8E030584BD3F8E03003F00203BB6083
:1032F000BB682023C7F8DC300223C7F8E030002386
:10330000C7F8E4300023C7F8E8300523C7F8EC30ED
:1033100007F1DC0319464D4803F050FB8023C7F842
:10332000DC300223C7F8E0300023C7F8E430002384
:10333000C7F8E8300523C7F8EC3007F1DC0319467D
:10334000434803F03BFB1023C7F8DC300223C7F8E7
:10335000E0300023C7F8E4300023C7F8E830052345
:10336000C7F8EC3007F1DC0319463A4803F026FBB6
:10337000394B3A4A1A60384B25225A60364B0022A4
:103380009A60354B0022DA60334B4FF480621A6149
:10339000314B00225A61304B00229A612E4B4FF480
:1033A0008072DA612C4B4FF400321A622A4B0022F1
:1033B0005A62294801F0DCF80346002B01D0FEF7E1
:1033C0002FFA7B68244ADA67234A7B689363244B8D
:1033D000244A1A60224B26225A60214B40229A60CE
:1033E0001F4B0022DA601E4B4FF480621A611C4BA7
:1033F00000225A611A4B00229A61194B0022DA61AD
:10340000174B4FF400321A62154B00225A621448CF
:1034100001F0AEF80346002B01D0FEF701FA7B68FD
:103420000F4A9A670E4A7B6893630022002123208B
:1034300000F0F1FF232001F008F800BFF037BD468F
:1034400080BD00BF00300140004402580000025817
:10345000000C025800040258E40D00241000024041
:103460005C0E00242800024080B483B000AF0A4BF9
:10347000D3F8F430084A43F00203C2F8F430064BA4
:10348000D3F8F43003F002037B607B6800BF0C3795
:10349000BD465DF8047B70470044025880B400AF1D
:1034A00000BFFDE780B400AF00BFFDE780B400AF10
:1034B00000BFFDE780B400AF00BFFDE780B400AF00
:1034C00000BFFDE780B400AF00BFBD465DF8047BE0
:1034D000704780B400AF00BFBD465DF8047B704705
:1034E00080B400AF00BFBD465DF8047B704780B577
:1034F00000AF00F04FFE00BF80BD000080B500AF00
:10350000024802F0F5F800BF80BD00BFE40D0024C2
:1035100080B500AF024802F0EBF800BF80BD00BFED
:103520005C0E002480B500AF024808F0A7FD00BF84
:1035300080BD00BF5C0D002480B500AF024809F0DB
:10354000B7FF00BF80BD00BFBC0F002480B500AF37
:10355000024803F03DFD00BF80BD00BFC815002438
:1035600080B400AF01231846BD465DF8047B704768
:1035700080B582B000AF7860396011F097F80346EB
:1035800016221A604FF0FF3318460837BD4680BD3B
:1035900080B582B000AF78604FF0FF317868FFF7F8
:1035A000E7FF00BFFDE780B586B000AFF860B96007
:1035B0007A6000237B610AE0AFF300800146BB68BC
:1035C0005A1CBA60CAB21A707B6901337B617A698E
:1035D0007B689A42F0DB7B6818461837BD4680BD91
:1035E00080B586B000AFF860B9607A6000237B6177
:1035F00009E0BB685A1CBA601B781846AFF300801C
:103600007B6901337B617A697B689A42F1DB7B6875
:1036100018461837BD4680BD80B483B000AF7860CF
:103620004FF0FF3318460C37BD465DF8047B7047FA
:1036300080B483B000AF786039603B684FF40052CB
:103640005A60002318460C37BD465DF8047B70476E
:1036500080B483B000AF7860012318460C37BD46B4
:103660005DF8047B704780B485B000AFF860B96046
:103670007A60002318461437BD465DF8047B704716
:1036800080B586B000AF7860144A154BD31A7B61C1
:103690007B693B61134B1B68002B02D1114B124A13
:1036A0001A60104B1A687B6813443A699A4207D231
:1036B00010F0FCFF03460C221A604FF0FF3309E0C4
:1036C000084B1B68FB60074B1A687B681344054A6C
:1036D0001360FB6818461837BD4680BD00000824FB
:1036E00000040000D40E0024101C002480B400AF9D
:1036F000434BD3F88830424A43F47003C2F8883011
:10370000404B1B6803F00F03062B07D83D4B1B688B
:1037100023F00F033B4A43F0070313603A4B1B6847
:10372000394A43F001031360374B00221A61364BCC
:103730001A683549354B13400B60324B1B6803F058
:103740000803002B07D02F4B1B6823F00F032D4AD3
:1037500043F0070313602C4B00229A612A4B00228E
:10376000DA61294B00221A62274B294A9A62264BBA
:10377000284ADA62244B284A1A63234B00225A63F0
:10378000214B254A9A63204B0022DA631E4B224AC2
:103790001A641D4B00225A641B4B1B681A4A23F4FF
:1037A00080231360184B00221A661C4B1A681C4BAE
:1037B0001340B3F1005F02D21A4B01221A60124B80
:1037C000D3F8D43003F48053002B13D10E4BD3F82D
:1037D000D4300D4A43F48053C2F8D430124B43F234
:1037E000D2021A60084BD3F8D430074A23F480532E
:1037F000C2F8D43000BFBD465DF8047B704700BFFF
:1038000000ED00E000200052004402587FEDF6EA8F
:10381000000202020000FF01800201010010005CB2
:103820000000FFFF088100510040005280B400AF4B
:10383000094BDB68084A43F00203D36000BF064B24
:103840005B6803F40053002BF9D000BF00BFBD46F6
:103850005DF8047B704700BF0048025880B596B001
:1038600000AF07F14C0300221A605A609A6007F11A
:10387000300300221A605A609A60DA601A615A6155
:103880009A613B1D2C220021184610F0BDFE4B4BC7
:103890004B4A1A60494B40F28F125A60474B002244
:1038A0009A60464B40F2E732DA60444B00221A61DC
:1038B000424B00225A61414B80229A613F4808F0F6
:1038C000E0FE0346002B01D0FDF7AAFF0023FB64B6
:1038D00000233B6500237B6507F14C0319463748FD
:1038E00009F0B0FB0346002B01D0FDF799FF6023E0
:1038F0003B6300237B630023BB630023FB63002344
:103900003B6400237B640023BB6407F13003002287
:1039100019462A4808F00CFF0346002B01D0FDF79A
:103920007FFF07F1300304221946244808F000FF06
:103930000346002B01D0FDF773FF07F13003082287
:1039400019461E4808F0F4FE0346002B01D0FDF78F
:1039500067FF07F130030C221946184808F0E8FE0B
:103960000346002B01D0FDF75BFF00237B600023A3
:10397000BB600023FB6000233B6100237B614FF4AD
:103980000053BB610023FB6100233B624FF00073D7
:103990007B620023BB620023FB623B1D1946074884
:1039A00009F0DEFB0346002B01D0FDF739FF034889
:1039B00000F04EF900BF5837BD4680BDD80E002438
:1039C0000000014080B58AB000AF07F11C0300225F
:1039D0001A605A609A603B4600221A605A609A60E8
:1039E000DA601A615A619A61334B4FF080421A6073
:1039F000314B40F28F125A602F4B00229A602E4BAF
:103A000040F2E732DA602C4B00221A612A4B802206
:103A10009A61294808F035FE0346002B01D0FDF7D6
:103A2000FFFE0023FB6100237B6207F11C031946A4
:103A3000214809F007FB0346002B01D0FDF7F0FEFB
:103A400060233B6000237B600023BB6000233B615D
:103A50003B4600221946184808F06AFE0346002B30
:103A600001D0FDF7DDFE3B4604221946124808F05E
:103A70005FFE0346002B01D0FDF7D2FE3B46082235
:103A800019460D4808F054FE0346002B01D0FDF7FF
:103A9000C7FE3B460C221946074808F049FE03467C
:103AA000002B01D0FDF7BCFE034800F0D1F800BFA9
:103AB0002837BD4680BD00BF240F002480B58AB0E2
:103AC00000AF07F11C0300221A605A609A603B465F
:103AD00000221A605A609A60DA601A615A619A612B
:103AE000324B334A1A60314B40F28F125A602F4BDF
:103AF00000229A602D4B40F2E732DA602B4B002215
:103B00001A612A4B80229A61284808F0BAFD0346C0
:103B1000002B01D0FDF784FE0023FB6100237B62B4
:103B200007F11C031946214809F08CFA0346002BC3
:103B300001D0FDF775FE60233B6000237B6000230E
:103B4000BB6000233B613B4600221946174808F042
:103B5000EFFD0346002B01D0FDF762FE3B46042239
:103B60001946124808F0E4FD0346002B01D0FDF78A
:103B700057FE3B46082219460C4808F0D9FD03467B
:103B8000002B01D0FDF74CFE3B460C22194607489E
:103B900008F0CEFD0346002B01D0FDF741FE03489F
:103BA00000F056F800BF2837BD4680BD700F0024D6
:103BB0000004004080B487B000AF78607B681B6869
:103BC000204A93420FD1204BD3F8F0301E4A43F0E5
:103BD0000103C2F8F0301C4BD3F8F03003F00103BE
:103BE0007B617B6928E07B681B68B3F1804F0FD154
:103BF000154BD3F8E830144A43F00103C2F8E8301B
:103C0000114BD3F8E83003F001033B613B6913E04B
:103C10007B681B680D4A93420ED10B4BD3F8E830FA
:103C2000094A43F00203C2F8E830074BD3F8E83002
:103C300003F00203FB60FB6800BF1C37BD465DF864
:103C4000047B70470000014000440258000400401B
:103C500080B58CB000AF786007F11C0300221A60B9
:103C60005A609A60DA601A617B681B68474A93421F
:103C700020D1474BD3F8E030454A43F01003C2F857
:103C8000E030434BD3F8E03003F01003BB61BB6975
:103C90004FF4D443FB6102233B6200237B62002389
:103CA000BB620123FB6207F11C031946394802F08D
:103CB00085FE67E07B681B68B3F1804F1FD1344BF2
:103CC000D3F8E030324A43F00103C2F8E030304B21
:103CD000D3F8E03003F001037B617B690F23FB61C4
:103CE00002233B6200237B620023BB620123FB6251
:103CF00007F11C031946284802F060FE42E07B6889
:103D00001B68264A93423DD1214BD3F8E030204A2C
:103D100043F00103C2F8E0301D4BD3F8E03003F06C
:103D200001033B613B691A4BD3F8E030184A43F07A
:103D30000203C2F8E030164BD3F8E03003F0020380
:103D4000FB60FB68C023FB6102233B6200237B62B4
:103D50000023BB620223FB6207F11C0319460E48D5
:103D600002F02CFE0323FB6102233B6200237B62F3
:103D70000023BB620223FB6207F11C0319460848BB
:103D800002F01CFE00BF3037BD4680BD0000014080
:103D9000004402580010025800000258000400407D
:103DA0000004025880B500AF224B234A1A60214B11
:103DB0004FF4E1325A601F4B00229A601D4B0022E3
:103DC000DA601C4B00221A611A4B0C225A61194B03
:103DD00000229A61174B0022DA61164B00221A6208
:103DE000144B00225A62134B00229A62114809F0C8
:103DF00035FA0346002B01D0FDF712FD00210D48D6
:103E00000BF0ABFD0346002B01D0FDF709FD0021AF
:103E100008480BF0E0FD0346002B01D0FDF700FD44
:103E200004480BF061FD0346002B01D0FDF7F8FCC0
:103E300000BF80BDBC0F00240044004080B500AF2F
:103E4000224B234A1A60214B4FF4E1325A601F4B38
:103E500000229A601D4B0022DA601C4B00221A617E
:103E60001A4B0C225A61194B00229A61174B0022FF
:103E7000DA61164B00221A62144B00225A62134B6D
:103E800000229A62114809F0E9F90346002B01D09B
:103E9000FDF7C6FC00210D480BF05FFD0346002B2B
:103EA00001D0FDF7BDFC002108480BF094FD03464E
:103EB000002B01D0FDF7B4FC04480BF015FD0346C0
:103EC000002B01D0FDF7ACFC00BF80BD50100024DA
:103ED0000048004080B5BCB000AF786007F1DC035B
:103EE00000221A605A609A60DA601A6107F11803BA
:103EF000C0220021184610F087FB7B681B68514ADE
:103F000093424ED14FF002024FF00003C7E906235F
:103F10000023C7F8903007F11803184605F024FE77
:103F20000346002B01D0FDF77BFC474BD3F8E8306C
:103F3000454A43F40033C2F8E830434BD3F8E83045
:103F400003F400337B617B693F4BD3F8E0303E4A9A
:103F500043F00803C2F8E0303B4BD3F8E03003F005
:103F600008033B613B696023C7F8DC300223C7F8D4
:103F7000E0300023C7F8E4300023C7F8E830072317
:103F8000C7F8EC3007F1DC031946304802F016FDA3
:103F900000220021262000F03EFA262000F055FAEB
:103FA0004BE07B681B682A4A934246D14FF00202DD
:103FB0004FF00003C7E906230023C7F8903007F14C
:103FC0001803184605F0D0FD0346002B01D0FDF77D
:103FD00027FC1D4BD3F8E8301B4A43F48023C2F87A
:103FE000E830194BD3F8E83003F48023FB60FB681A
:103FF000154BD3F8E030144A43F00203C2F8E03026
:10400000114BD3F8E03003F00203BB60BB684FF400
:104010004063C7F8DC300223C7F8E0300023C7F85C
:10402000E4300023C7F8E8300723C7F8EC3007F185
:10403000DC031946074802F0C1FC00BFF037BD465B
:1040400080BD00BF0044004000440258000C0258EC
:104050000048004000040258DFF838D0FFF7E6FBC4
:10406000FFF744FB0C480D490D4A002302E0D458E9
:10407000C4500433C4188C42F9D30A4A0A4C0023B2
:1040800001E013600432A242FBD310F015FBFDF7F0
:10409000D5FA7047000008240000002450030024D3
:1040A000D0940108500300240C1C0024FEE70000FB
:1040B00080B582B000AF032000F0A2F905F07EFBCE
:1040C0000246154B9B691B0A03F00F031349CB5C97
:1040D00003F01F0322FA03F37B600F4B9B6903F08D
:1040E0000F030E4AD35C03F01F037A6822FA03F32E
:1040F0000B4A13600B4A7B6813600F2000F014F822
:104100000346002B01D0012302E0FFF7ADF90023A5
:1041100018460837BD4680BD004402584490010847
:10412000680000246400002480B582B000AF78608D
:10413000154B1B78002B01D1012321E0134B1A688A
:10414000114B1B7819464FF47A73B3FBF1F3B2FBB2
:10415000F3F3184600F087F90346002B01D0012342
:104160000EE07B680F2B0AD8002279684FF0FF30F1
:1041700000F051F9064A7B681360002300E0012338
:1041800018460837BD4680BD700000246400002436
:104190006C00002480B400AF064B1B781A46064B17
:1041A0001B681344044A136000BFBD465DF8047BDE
:1041B000704700BF70000024E410002480B400AFFA
:1041C000034B1B681846BD465DF8047B704700BF73
:1041D000E410002480B584B000AF7860FFF7EEFFF4
:1041E000B8607B68FB60FB68B3F1FF3F05D00A4B0A
:1041F0001B781A46FB681344FB6000BFFFF7DEFF25
:104200000246BB68D31AFA689A42F7D800BF00BFCB
:104210001037BD4680BD00BF7000002480B400AFE1
:10422000034B1B681B0C1846BD465DF8047B7047AA
:104230000010005C80B483B000AF78603960074B39
:104240005A687B68DB431A4004493B6813434B6060
:1042500000BF0C37BD465DF8047B70470004005872
:1042600080B485B000AF78607B6803F00703FB6023
:104270000B4BDB68BB60BA684FF6FF031340BB60B3
:10428000FB681A02BB681A43064B1343BB60044A1F
:10429000BB68D36000BF1437BD465DF8047B704730
:1042A00000ED00E00000FA0580B400AF044BDB68CD
:1042B0001B0A03F007031846BD465DF8047B7047F0
:1042C00000ED00E080B483B000AF0346FB80B7F997
:1042D0000630002B0BDBFB8803F01F020749B7F900
:1042E00006305B09012000FA02F241F8232000BFEA
:1042F0000C37BD465DF8047B704700BF00E100E06D
:1043000080B483B000AF03463960FB80B7F9063054
:10431000002B0ADB3B68DAB20C49B7F90630120110
:10432000D2B20B4483F800230AE03B68DAB20849B2
:10433000FB8803F00F03043B1201D2B20B441A7640
:1043400000BF0C37BD465DF8047B704700E100E01C
:1043500000ED00E080B489B000AFF860B9607A6029
:10436000FB6803F00703FB61FB69C3F10703042B40
:1043700028BF0423BB61FB690433062B02D9FB6908
:10438000033B00E000237B614FF0FF32BB6902FA80
:1043900003F3DA43BB681A407B699A404FF0FF3160
:1043A0007B6901FA03F3D9437B680B40134318463A
:1043B0002437BD465DF8047B7047000080B582B0AD
:1043C00000AF78607B68013BB3F1807F01D30123AC
:1043D0000FE00A4A7B68013B53600F214FF0FF302A
:1043E000FFF78EFF054B00229A60044B07221A60EC
:1043F000002318460837BD4680BD00BF10E000E02E
:1044000080B582B000AF78607868FFF729FF00BF01
:104410000837BD4680BD80B586B000AF0346B960A1
:104420007A60FB81FFF740FF78617A68B968786944
:10443000FFF790FF0246B7F90E3011461846FFF716
:104440005FFF00BF1837BD4680BD80B582B000AFAA
:104450000346FB80B7F906301846FFF733FF00BF6D
:104460000837BD4680BD80B582B000AF78607868FF
:10447000FFF7A4FF034618460837BD4680BD00007D
:1044800080B400AFBFF35F8F00BF074B5B6A064A83
:1044900023F480335362054B00225A6000BFBD46AF
:1044A0005DF8047B704700BF00ED00E090ED00E098
:1044B00080B483B000AF78600B4A7B6843F001039F
:1044C00053600A4B5B6A094A43F480335362BFF37B
:1044D0004F8F00BFBFF36F8F00BF00BF0C37BD46CB
:1044E0005DF8047B704700BF90ED00E000ED00E058
:1044F00080B483B000AF78607B685A781B4B9A60B9
:104500001A4B1B69194A23F001031361174A7B6890
:104510005B68D3607B681B7B1A077B68DB7A1B06B2
:104520001A437B689B7ADB041A437B685B7B9B04A2
:104530001A437B689B7B5B041A437B68DB7B1B0411
:104540001A437B685B7A1B021A437B681B7A5B0009
:1045500013437A6812781146044A0B43136100BF73
:104560000C37BD465DF8047B704700BF90ED00E05E
:1045700080B586B000AF7860FFF720FE38617B68B9
:10458000002B01D1012316E37B681B68664A934226
:104590004AD07B681B68654A934245D07B681B689C
:1045A000634A934240D07B681B68624A93423BD087
:1045B0007B681B68604A934236D07B681B685F4A01
:1045C000934231D07B681B685D4A93422CD07B6854
:1045D0001B685C4A934227D07B681B685A4A934207
:1045E00022D07B681B68594A93421DD07B681B68A8
:1045F000574A934218D07B681B68564A934213D09F
:104600007B681B68544A93420ED07B681B68534AF0
:10461000934209D07B681B68514A934204D07B685F
:104620001B68504A934201D1012300E00023002B74
:1046300000F03B817B68022283F835207B680022F2
:1046400083F834207B681B68374A93424AD07B68E2
:104650001B68364A934245D07B681B68344A9342B4
:1046600040D07B681B68334A93423BD07B681B6811
:10467000314A934236D07B681B68304A934231D02E
:104680007B681B682E4A93422CD07B681B682D4A9E
:10469000934227D07B681B682B4A934222D07B68C9
:1046A0001B682A4A93421DD07B681B68284A9342A4
:1046B00018D07B681B68274A934213D07B681B681D
:1046C000254A93420ED07B681B68244A934209D046
:1046D0007B681B68224A934204D07B681B68214A8E
:1046E000934208D17B681B681A687B681B6822F0BC
:1046F00001021A6007E07B681B681A687B681B6808
:1047000022F001021A602FE0FFF758FD02463B69D4
:10471000D31A052B28D97B6820225A657B6803228F
:1047200083F83520012346E21000024028000240B1
:1047300040000240580002407000024088000240E1
:10474000A0000240B80002401004024028040240C9
:1047500040040240580402407004024088040240B1
:10476000A0040240B80402407B681B681B6803F089
:104770000103002BC8D17B681B681B687B617A69C9
:10478000834B13407B617B689A687B68DB681A43C4
:104790007B681B691A437B685B691A437B689B696A
:1047A0001A437B68DB691A437B681B6A13437A6987
:1047B00013437B617B685B6A042B07D17B68DA6AF1
:1047C0007B681B6B13437A6913437B61714B1A68D7
:1047D000714B1340B3F1005F28D37B685B68282BD3
:1047E00003D97B685B682E2B17D97B685B683E2BEF
:1047F00003D97B685B68422B0FD97B685B68462BCB
:1048000003D97B685B68482B07D97B685B684E2BB4
:1048100005D97B685B68522B01D8012300E0002397
:10482000002B03D07B6943F480137B617B681B689A
:104830007A691A607B681B685B697B617B6923F01E
:1048400007037B617B685B6A7A6913437B617B68E2
:104850005B6A042B17D17B689B6A7A6913437B617F
:104860007B68DB6A002B0ED0786801F01DFF0346E1
:10487000002B08D07B6840225A657B68012283F8B0
:104880003520012397E17B681B687A695A61786853
:1048900001F058FE0346BB607B68DB6D03F01F032D
:1048A0003F229A40BB689A60CDE07B681B683B4A18
:1048B000934222D07B681B68394A93421DD07B68A3
:1048C0001B68384A934218D07B681B68364A93426B
:1048D00013D07B681B68354A93420ED07B681B68F7
:1048E000334A934209D07B681B68324A934204D012
:1048F0007B681B68304A934201D1012300E000230A
:10490000002B00F097807B681B68244A934221D0DB
:104910007B681B68224A93421CD07B681B68214A33
:10492000934217D07B681B681F4A934212D07B6862
:104930001B681E4A93420DD07B681B681C4A934239
:1049400008D07B681B681B4A934203D07B681B68B6
:10495000194A93427B68022283F835207B68002243
:1049600083F834207B681B681B687B617A69134B72
:1049700013407B617B689B68402B21D07B689B68E0
:10498000802B02D14FF480431BE0002319E000BFCD
:104990003F8010FE0010005C0000FFFF085402582A
:1049A0001C54025830540258445402585854025867
:1049B0006C54025880540258945402580F00FEFF61
:1049C00010237A68D268D2081A437B681B69DB0817
:1049D0001A437B685B69DB081A437B689B69DB08C9
:1049E0001A437B68DB69DB081A437B681B6A1B0977
:1049F00013437A6913437B617B681B687A691A6089
:104A00007B681B681A466E4B13446E4AA2FB032355
:104A10001B099A007B68DA65786801F093FD03460C
:104A2000FB607B68DB6D03F01F0301229A40FB688B
:104A30005A6008E07B6840225A657B68032283F84D
:104A400035200123B7E07B681B685F4A934272D030
:104A50007B681B685D4A93426DD07B681B685C4A2B
:104A6000934268D07B681B685A4A934263D07B6844
:104A70001B68594A93425ED07B681B68574A934231
:104A800059D07B681B68564A934254D07B681B6898
:104A9000544A93424FD07B681B68534A93424AD092
:104AA0007B681B68514A934245D07B681B68504A1B
:104AB000934240D07B681B684E4A93423BD07B6850
:104AC0001B684D4A934236D07B681B684B4A934221
:104AD00031D07B681B684A4A93422CD07B681B68A4
:104AE000484A934227D07B681B68474A934222D0AA
:104AF0007B681B68454A93421DD07B681B68444A0B
:104B0000934218D07B681B68424A934213D07B685B
:104B10001B68414A93420ED07B681B683F4A934210
:104B200009D07B681B683E4A934204D07B681B68AF
:104B30003C4A934201D1012300E00023002B32D0F4
:104B4000786801F02DFE7B689B68802B02D17B6822
:104B500000225A607B685A687B681B6ED2B21A606A
:104B60007B685B6E7A68926E5A607B685B68002B2C
:104B700010D07B685B68082B0CD8786801F0AAFE1F
:104B80007B68DB6E00221A607B681B6F7A68526F4D
:104B90005A6008E07B680022DA667B6800221A67A8
:104BA0007B6800225A677B6800225A657B68012275
:104BB00083F83520002318461837BD4680BD00BF56
:104BC000F8ABFDA7CDCCCCCC1000024028000240B1
:104BD000400002405800024070000240880002403D
:104BE000A0000240B8000240100402402804024025
:104BF000400402405804024070040240880402400D
:104C0000A0040240B8040240085402581C54025840
:104C10003054025844540258585402586C540258A4
:104C2000805402589454025880B586B000AF786022
:104C3000FFF7C4FA38617B68002B01D10123DCE265
:104C40007B6893F83530DBB2022B08D07B6880227A
:104C50005A657B68002283F834200123CDE27B680B
:104C60001B68764A93424AD07B681B68744A934219
:104C700045D07B681B68734A934240D07B681B68B1
:104C8000714A93423BD07B681B68704A934236D08E
:104C90007B681B686E4A934231D07B681B686D4A03
:104CA00093422CD07B681B686B4A934227D07B6869
:104CB0001B686A4A934222D07B681B68684A934209
:104CC0001DD07B681B68674A934218D07B681B68BD
:104CD000654A934213D07B681B68644A93420ED0A6
:104CE0007B681B68624A934209D07B681B68614AF3
:104CF000934204D07B681B685F4A934201D1012331
:104D000000E00023002B13D07B681B681A687B68C7
:104D10001B6822F01E021A607B681B685A697B6858
:104D20001B6822F080025A617B681B687B610AE085
:104D30007B681B681A687B681B6822F00E021A6089
:104D40007B681B687B617B681B683C4A934272D01E
:104D50007B681B683A4A93426DD07B681B68394A6E
:104D6000934268D07B681B68374A934263D07B6864
:104D70001B68364A93425ED07B681B68344A934274
:104D800059D07B681B68334A934254D07B681B68B8
:104D9000314A93424FD07B681B68304A93424AD0D5
:104DA0007B681B682E4A934245D07B681B682D4A5E
:104DB000934240D07B681B682B4A93423BD07B6870
:104DC0001B682A4A934236D07B681B68284A934264
:104DD00031D07B681B68274A93422CD07B681B68C4
:104DE000254A934227D07B681B68244A934222D0ED
:104DF0007B681B68224A93421DD07B681B68214A4E
:104E0000934218D07B681B681F4A934213D07B687B
:104E10001B681E4A93420ED07B681B681C4A934253
:104E200009D07B681B681B4A934204D07B681B68CF
:104E3000194A934232D1012331E000BF10000240F1
:104E4000280002404000024058000240700002402A
:104E500088000240A0000240B80002401004024056
:104E600028040240400402405804024070040240FA
:104E700088040240A0040240B804024008540258CA
:104E80001C54025830540258445402585854025882
:104E90006C54025880540258945402580023002B3A
:104EA00007D07B681B6E1A687B681B6E22F48072C9
:104EB0001A607B681B686D4A93424AD07B681B6806
:104EC0006B4A934245D07B681B686A4A934240D044
:104ED0007B681B68684A93423BD07B681B68674AC3
:104EE000934236D07B681B68654A934231D07B6819
:104EF0001B68644A93422CD07B681B68624A9342C9
:104F000027D07B681B68614A934222D07B681B686C
:104F10005F4A93421DD07B681B685E4A934218D05B
:104F20007B681B685C4A934213D07B681B685B4AB2
:104F300093420ED07B681B68594A934209D07B6824
:104F40001B68584A934204D07B681B68564A9342B8
:104F500008D17B681B681A687B681B6822F0010215
:104F60001A6007E07B681B681A687B681B6822F080
:104F700001021A6013E0FFF721F902463B69D31AD8
:104F8000052B0CD97B6820225A657B68032283F8A5
:104F900035207B68002283F8342001232DE17B69D2
:104FA0001B6803F00103002BE5D17B681B682F4AC7
:104FB00093424AD07B681B682D4A934245D07B6858
:104FC0001B682C4A934240D07B681B682A4A934254
:104FD0003BD07B681B68294A934236D07B681B68AC
:104FE000274A934231D07B681B68264A93422CD0D3
:104FF0007B681B68244A934227D07B681B68234A3E
:10500000934222D07B681B68214A93421DD07B6863
:105010001B68204A934218D07B681B681E4A934243
:1050200013D07B681B681D4A93420ED07B681B68B7
:105030001B4A934209D07B681B681A4A934204D0EA
:105040007B681B68184A934201D1012300E00023CA
:10505000002B2BD07B689B6DBB607B68DB6D03F006
:105060001F033F229A40BB689A602AE0100002406A
:1050700028000240400002405800024070000240F8
:1050800088000240A0000240B80002401004024024
:1050900028040240400402405804024070040240C8
:1050A00088040240A0040240B80402407B689B6D63
:1050B000FB607B68DB6D03F01F0301229A40FB68F5
:1050C0005A607B681B684F4A934272D07B681B68AA
:1050D0004D4A93426DD07B681B684C4A934268D01E
:1050E0007B681B684A4A934263D07B681B68494AC5
:1050F00093425ED07B681B68474A934259D07B68D5
:105100001B68464A934254D07B681B68444A9342CA
:105110004FD07B681B68434A93424AD07B681B6828
:10512000414A934245D07B681B68404A934240D035
:105130007B681B683E4A93423BD07B681B683D4AB4
:10514000934236D07B681B683B4A934231D07B68E0
:105150001B683A4A93422CD07B681B68384A9342BA
:1051600027D07B681B68374A934222D07B681B6834
:10517000354A93421DD07B681B68344A934218D04D
:105180007B681B68324A934213D07B681B68314AA4
:1051900093420ED07B681B682F4A934209D07B68EC
:1051A0001B682E4A934204D07B681B682C4A9342AA
:1051B00001D1012300E00023002B15D07B685B6E3A
:1051C0007A68926E5A607B68DB6E002B0CD07B682D
:1051D000DB6E1A687B68DB6E22F480721A607B6873
:1051E0001B6F7A68526F5A607B68012283F8352002
:1051F0007B68002283F83420002318461837BD4608
:1052000080BD00BF10000240280002404000024064
:10521000580002407000024088000240A000024096
:10522000B80002401004024028040240400402403A
:10523000580402407004024088040240A004024066
:10524000B8040240085402581C5402583054025802
:1052500044540258585402586C540258805402580E
:105260009454025880B584B000AF78607B68002BFE
:1052700001D1012337E27B6893F83530DBB2022B92
:1052800004D07B6880225A6501232CE27B681B686E
:105290005C4A93424AD07B681B685B4A934245D084
:1052A0007B681B68594A934240D07B681B68584A08
:1052B00093423BD07B681B68564A934236D07B684A
:1052C0001B68554A934231D07B681B68534A93420E
:1052D0002CD07B681B68524A934227D07B681B689E
:1052E000504A934222D07B681B684F4A93421DD09C
:1052F0007B681B684D4A934218D07B681B684C4AF8
:10530000934213D07B681B684A4A93420ED07B6855
:105310001B68494A934209D07B681B68474A9342FD
:1053200004D07B681B68464A934201D1012300E008
:105330000023002B00F086807B68042283F8352050
:105340007B681B682F4A93424AD07B681B682E4AB1
:10535000934245D07B681B682C4A934240D07B68BF
:105360001B682B4A93423BD07B681B68294A9342B7
:1053700036D07B681B68284A934231D07B681B6813
:10538000264A93422CD07B681B68254A934227D03B
:105390007B681B68234A934222D07B681B68224AA1
:1053A00093421DD07B681B68204A934218D07B68CB
:1053B0001B681F4A934213D07B681B681D4A9342A7
:1053C0000ED07B681B681C4A934209D07B681B681F
:1053D0001A4A934204D07B681B68194A934208D149
:1053E0007B681B681A687B681B6822F001021A60E0
:1053F00078E17B681B681A687B681B6822F00102F1
:105400001A606FE110000240280002404000024094
:10541000580002407000024088000240A000024094
:10542000B800024010040240280402404004024038
:10543000580402407004024088040240A004024064
:10544000B80402407B681B681A687B681B6822F0FE
:105450000E021A607B681B686C4A93424AD07B68D4
:105460001B686B4A934245D07B681B68694A93422C
:1054700040D07B681B68684A93423BD07B681B68BE
:10548000664A934236D07B681B68654A934231D0A6
:105490007B681B68634A93422CD07B681B68624A16
:1054A000934227D07B681B68604A934222D07B6876
:1054B0001B685F4A93421DD07B681B685D4A93421C
:1054C00018D07B681B685C4A934213D07B681B68CA
:1054D0005A4A93420ED07B681B68594A934209D0BE
:1054E0007B681B68574A934204D07B681B68564A06
:1054F000934208D17B681B681A687B681B6822F09E
:1055000001021A6007E07B681B681A687B681B68E9
:1055100022F001021A607B681B683C4A934272D0F9
:105520007B681B683A4A93426DD07B681B68394A96
:10553000934268D07B681B68374A934263D07B688C
:105540001B68364A93425ED07B681B68344A93429C
:1055500059D07B681B68334A934254D07B681B68E0
:10556000314A93424FD07B681B68304A93424AD0FD
:105570007B681B682E4A934245D07B681B682D4A86
:10558000934240D07B681B682B4A93423BD07B6898
:105590001B682A4A934236D07B681B68284A93428C
:1055A00031D07B681B68274A93422CD07B681B68EC
:1055B000254A934227D07B681B68244A934222D015
:1055C0007B681B68224A93421DD07B681B68214A76
:1055D000934218D07B681B681F4A934213D07B68A4
:1055E0001B681E4A93420ED07B681B681C4A93427C
:1055F00009D07B681B681B4A934204D07B681B68F8
:10560000194A934232D1012331E000BF1000024019
:105610002800024040000240580002407000024052
:1056200088000240A0000240B8000240100402407E
:105630002804024040040240580402407004024022
:1056400088040240A0040240B804024008540258F2
:105650001C540258305402584454025858540258AA
:105660006C54025880540258945402580023002B62
:1056700028D07B681B6E1A687B681B6E22F48072D0
:105680001A607B689B6DFB607B68DB6D03F01F031A
:1056900001229A40FB685A607B685B6E7A68926E62
:1056A0005A607B68DB6E002B0CD07B68DB6E1A685F
:1056B0007B68DB6E22F480721A607B681B6F7A68ED
:1056C000526F5A607B68012283F835207B68002284
:1056D00083F834207B681B6D002B03D07B681B6D27
:1056E00078689847002318461037BD4680BD00BF34
:1056F00080B58AB000AF78600023FB60674B1B6801
:10570000674AA2FB03239B0A7B627B689B6D3B621B
:105710007B689B6DFB613B6A1B68BB61FB691B6817
:105720007B617B681B685F4A93424AD07B681B6839
:105730005D4A934245D07B681B685C4A934240D0E7
:105740007B681B685A4A93423BD07B681B68594A66
:10575000934236D07B681B68574A934231D07B68AE
:105760001B68564A93422CD07B681B68544A93426C
:1057700027D07B681B68534A934222D07B681B6802
:10578000514A93421DD07B681B68504A934218D0FF
:105790007B681B684E4A934213D07B681B684D4A56
:1057A00093420ED07B681B684B4A934209D07B68BA
:1057B0001B684A4A934204D07B681B68484A93425C
:1057C00001D1012300E00023002B00F02B847B6833
:1057D000DB6D03F01F0308229A40BB691340002BC6
:1057E00000F0A2807B681B682E4A93424AD07B68F7
:1057F0001B682D4A934245D07B681B682B4A934215
:1058000040D07B681B682A4A93423BD07B681B6868
:10581000284A934236D07B681B68274A934231D08E
:105820007B681B68254A93422CD07B681B68244AFE
:10583000934227D07B681B68224A934222D07B6820
:105840001B68214A93421DD07B681B681F4A934204
:1058500018D07B681B681E4A934213D07B681B6874
:105860001C4A93420ED07B681B681B4A934209D0A6
:105870007B681B68194A934204D07B681B68184AEE
:1058800093422FD17B681B681B6803F00403002B35
:1058900014BF01230023DBB22EE000BF640000240C
:1058A000B5814E1B1000024028000240400002401B
:1058B000580002407000024088000240A0000240F0
:1058C000B800024010040240280402404004024094
:1058D000580402407004024088040240A0040240C0
:1058E000B80402407B681B681B6803F00803002BA8
:1058F00014BF01230023DBB2002B15D07B681B688B
:105900001A687B681B6822F004021A607B68DB6DF2
:1059100003F01F0308229A403B6A9A607B685B6D24
:1059200043F001027B685A657B68DB6D03F01F035F
:10593000BA6922FA03F303F00103002B6ED07B68EF
:105940001B68694A93424AD07B681B68674A934246
:1059500045D07B681B68664A934240D07B681B68D1
:10596000644A93423BD07B681B68634A934236D0BB
:105970007B681B68614A934231D07B681B68604A30
:1059800093422CD07B681B685E4A934227D07B6889
:105990001B685D4A934222D07B681B685B4A934236
:1059A0001DD07B681B685A4A934218D07B681B68DD
:1059B000584A934213D07B681B68574A93420ED0D3
:1059C0007B681B68554A934209D07B681B68544A20
:1059D000934204D07B681B68524A93420AD17B6889
:1059E0001B685B6903F08003002B14BF01230023B5
:1059F000DBB203E07B681B681B680023002B0DD023
:105A00007B68DB6D03F01F0301229A403B6A9A60BA
:105A10007B685B6D43F002027B685A657B68DB6DD7
:105A200003F01F0304229A40BB691340002B00F0CF
:105A30008F807B681B682C4A93424AD07B681B6826
:105A40002A4A934245D07B681B68294A934240D03A
:105A50007B681B68274A93423BD07B681B68264AB9
:105A6000934236D07B681B68244A934231D07B68CE
:105A70001B68234A93422CD07B681B68214A9342BF
:105A800027D07B681B68204A934222D07B681B6822
:105A90001E4A93421DD07B681B681D4A934218D052
:105AA0007B681B681B4A934213D07B681B681A4AA9
:105AB00093420ED07B681B68184A934209D07B68DA
:105AC0001B68174A934204D07B681B68154A9342AF
:105AD0002AD17B681B681B6803F00203002B14BFEC
