:020000040800F2
:10000000000008247D440008C1380008C9380008F1
:10001000D1380008D9380008E13800080000000095
:10002000000000000000000000000000E9380008A7
:10003000F7380008000000000539000813390008EF
:10004000D1440008D1440008D1440008D14400083C
:10005000D1440008D1440008D1440008D14400082C
:10006000D1440008D1440008D144000821390008D7
:1000700035390008D1440008D1440008D1440008B3
:10008000D1440008D1440008D1440008D1440008FC
:10009000D1440008D1440008D1440008D1440008EC
:1000A000D1440008D1440008D1440008D1440008DC
:1000B000D1440008D1440008D1440008D1440008CC
:1000C000D1440008D1440008D1440008493900084F
:1000D000D1440008D14400085D390008D14400082B
:1000E000D1440008D144000800000000D1440008B9
:1000F000D1440008D1440008D1440008D14400088C
:10010000D1440008D1440008D1440008D14400087B
:10011000D1440008D1440008D1440008D14400086B
:10012000D1440008D1440008D1440008D14400085B
:10013000D1440008D1440008D1440008D14400084B
:1001400000000000000000000000000000000000AF
:10015000D1440008D1440008D1440008D14400082B
:10016000D1440008D1440008D1440008D14400081B
:10017000D1440008D1440008D1440008D14400080B
:10018000D1440008D1440008D1440008D1440008FB
:10019000D1440008D1440008D1440008D1440008EB
:1001A000D1440008D1440008D1440008D1440008DB
:1001B000D1440008D1440008D1440008D1440008CB
:1001C000D1440008D1440008D1440008D1440008BB
:1001D000D144000871390008D1440008D144000816
:1001E000D1440008D1440008D1440008D14400089B
:1001F000D1440008D1440008D1440008D14400088B
:10020000D1440008D1440008D1440008D14400087A
:10021000D1440008D1440008D1440008D14400086A
:10022000D1440008D1440008D14400080000000077
:10023000D1440008D144000800000000D144000867
:10024000D1440008D1440008D1440008D14400083A
:10025000D1440008D1440008D1440008D14400082A
:10026000D1440008D1440008D1440008D14400081A
:10027000D1440008D1440008D14400080000000027
:10028000D1440008D1440008D14400080000000017
:0802900000000000D144000849
:1002A00010B5054C237833B9044B13B10448AFF3B0
:1002B00000800123237010BD5003002400000000C3
:1002C0002480010808B5034B1BB103490348AFF371
:1002D000008008BD000000005403002424800108B1
:1002E00010F8012B11F8013B012A28BF9A42F7D0E0
:1002F000D01A70470000000000000000000000005D
:1003000001F0FF01102A2BDB10F0070F08D010F8C6
:10031000013B013A8B422DD010F0070F42B3F6D1CA
:10032000F0B441EA012141EA014122F007047FF0E3
:1003300000070023F0E80256083C85EA010586EA3A
:10034000010685FA47F5A3FA87F586FA47F6A5FA76
:1003500087F68EB9EED1F0BC01F0FF0102F0070282
:1003600032B110F8013B013A83EA010313B1F8D12D
:100370000020704701387047002D06BF354603380E
:10038000073815F0010F07D1013015F4807F02BF47
:10039000013015F4C03F0130F0BC0138704700BF98
:1003A000034613F8012B002AFBD1181A01387047B5
:1003B00081F0004102E000BF83F0004330B54FEA16
:1003C00041044FEA430594EA050F08BF90EA020F83
:1003D0001FBF54EA000C55EA020C7FEA645C7FEA16
:1003E000655C00F0E2804FEA5454D4EB5555B8BF39
:1003F0006D420CDD2C4480EA020281EA030382EAAA
:10040000000083EA010180EA020281EA0303362D3B
:1004100088BF30BD11F0004F4FEA01314FF4801C0E
:100420004CEA113102D0404261EB410113F0004F20
:100430004FEA03334CEA133302D0524263EB4303D7
:1004400094EA050F00F0A780A4F10104D5F1200E75
:100450000DDB02FA0EFC22FA05F2801841F10001D0
:1004600003FA0EF2801843FA05F359410EE0A5F1A4
:1004700020050EF1200E012A03FA0EFC28BF4CF0D5
:10048000020C43FA05F3C01851EBE37101F000458B
:1004900007D54FF0000EDCF1000C7EEB00006EEB98
:1004A0000101B1F5801F1BD3B1F5001F0CD3490822
:1004B0005FEA30004FEA3C0C04F101044FEA445279
:1004C00012F5800F80F09A80BCF1004F08BF5FEA00
:1004D000500C50F1000041EB045141EA050130BDE0
:1004E0005FEA4C0C404141EB0101013C28BFB1F5F2
:1004F000801FE9D291F0000F04BF01460020B1FA3D
:1005000081F308BF2033A3F10B03B3F120020CDA0F
:100510000C3208DD02F1140CC2F10C0201FA0CF0ED
:1005200021FA02F10CE002F11402D8BFC2F1200C52
:1005300001FA02F120FA0CFCDCBF41EA0C01904008
:10054000E41AA2BF01EB0451294330BD6FEA040451
:100550001F3C1CDA0C340EDC04F11404C4F120023C
:1005600020FA04F001FA02F340EA030021FA04F34E
:1005700045EA030130BDC4F10C04C4F1200220FAA5
:1005800002F001FA04F340EA0300294630BD21FAE3
:1005900004F0294630BD94F0000F83F4801306BFA9
:1005A00081F480110134013D4EE77FEA645C18BF9D
:1005B0007FEA655C29D094EA050F08BF90EA020F34
:1005C00005D054EA000C04BF1946104630BD91EA2C
:1005D000030F1EBF0021002030BD5FEA545C05D12F
:1005E0004000494128BF41F0004130BD14F580046E
:1005F0003CBF01F5801130BD01F0004545F0FE41E2
:1006000041F470014FF0000030BD7FEA645C1ABF16
:10061000194610467FEA655C1CBF0B46024650EA4D
:10062000013406BF52EA033591EA030F41F4002179
:1006300030BD00BF90F0000F04BF0021704730B5FF
:100640004FF4806404F132044FF000054FF00001D4
:1006500050E700BF90F0000F04BF0021704730B595
:100660004FF4806404F1320410F0004548BF40426A
:100670004FF000013EE700BF42004FEAE2014FEABF
:1006800031014FEA02701FBF12F07F4393F07F4F9A
:1006900081F06051704732F07F4208BF704793F09D
:1006A0007F4F04BF41F40021704730B54FF46074B0
:1006B00001F0004521F000411CE700BF50EA0102B3
:1006C00008BF704730B54FF000050AE050EA01025C
:1006D00008BF704730B511F0004502D5404261EBCC
:1006E00041014FF4806404F132045FEA915C3FF40D
:1006F000D8AE4FF003025FEADC0C18BF03325FEAAA
:10070000DC0C18BF033202EBDC02C2F1200300FA5A
:1007100003FC20FA02F001FA03FE40EA0E0021FA7F
:1007200002F11444BDE600BF53B94AB9002908BF1D
:1007300000281CBF4FF0FF314FF0FF3000F0C0B970
:10074000ADF1080C6DE904CE00F03EF8DDF804E0F0
:10075000DDE9022304B0704708B502460B4643ECBE
:10076000172BB5EEC07BF1EE10FA03D4BDE80840BC
:1007700000F00AB8B1EE477B51EC170B00F004F81B
:10078000404261EB410108BD9FED0B6B41EC170B43
:100790009FED0B5B27EE066BBCEEC66BB8EE464BCF
:1007A000A4EE457BFCEEC77B16EE101A17EE900AFE
:1007B000704700BFAFF30080000000000000F03D74
:1007C000000000000000F0412DE9F047089D8E4632
:1007D00004468846002B4AD18A42174662D9B2FAAB
:1007E00082F64EB1C6F1200301FA06F820FA03F3AF
:1007F000B74043EA0808B4404FEA174E1FFA87FC97
:10080000B8FBFEF1230C0EFB118843EA084301FB01
:100810000CF29A4209D9FB1801F1FF3080F0EA800E
:100820009A4240F2E78002393B449A1AA3B2B2FBE3
:10083000FEF00EFB102243EA024300FB0CFC9C4539
:1008400009D9FB1800F1FF3280F0D6809C4540F2B8
:10085000D3803B44023840EA0140A3EB0C03002163
:100860001DB1F3400022C5E90032BDE8F0878B429C
:1008700005D90DB1C5E9000100210846F5E7B3FA35
:1008800083F1002946D1734502D3824200F20581EB
:10089000841A6EEB030201209046002DE5D0C5E9D5
:1008A0000048E2E7002A00F09080B2FA82F6002EBB
:1008B00040F0A4808A1A030C4FEA174E80B2BCB2F3
:1008C0000121B2FBFEFC0EFB1C2243EA024304FBA7
:1008D0000CF29A4207D9FB180CF1FF3802D29A4267
:1008E00000F2E080C4469B1AB3FBFEF20EFB12330B
:1008F00040EA034302FB04F49C4207D9FB1802F1CF
:10090000FF3002D29C4200F2CA8002461B1B42EA20
:100910000C40A5E7C1F120068B4022FA06F71F43E1
:100920000EFA01F420FA06F32EFA06FE4FEA1749F2
:10093000234300FA01F81FFA87FCBEFBF9F01C0CF8
:1009400009FB10EE44EA0E4400FB0CFEA64502FA39
:1009500001F209D93C1900F1FF3A80F09C80A645CC
:1009600040F2998002383C44A4EB0E041FFA83FE47
:10097000B4FBF9F309FB13444EEA044403FB0CFCFB
:10098000A44508D93C1903F1FF3E80F08280A445BC
:100990007FD9023B3C4443EA0040A4EB0C04A0FB9B
:1009A00002EC64457346E14662D35FD05DB1B8EBBB
:1009B000030264EB090404FA06F622FA01F31E436B
:1009C000CC40C5E9006400214FE7B1FBF2FC010C0B
:1009D00041EA0E4180B240EA01423B4638463C467D
:1009E000B846BE462026B1FBF7F1A2EB080241EA69
:1009F0000C4166E7014618E710462CE7C6F12002D5
:100A00002EFA02F3B740B14020FA02F24FEA174E35
:100A10000A43B3FBFEF8BCB20EFB1833110C41EADB
:100A2000034108FB04F9B04089454FEA104380B206
:100A30003ED9791808F1FF3C01D289451FD8A1EBB6
:100A40000901B1FBFEF909FB04F80EFB191192B282
:100A500042EA0142424529D2BA1809F1FF31C4D213
:100A60004245C2D2A9F102013A44BEE7F0459DD207
:100A7000BEEB02036CEB070C0138E14696E7A7EBEF
:100A800009094944A8F1020CB1FBFEF909FB04F87D
:100A9000DBE773467FE7504666E70846FDE63B44E2
:100AA000023A33E7ACF1020C3B441CE749469CE7B1
:100AB000A1EB0901C446B1FBFEF909FB04F8C4E748
:100AC000704700BF80B483B000AF00237B6023E198
:100AD00097497A6813469B0013441B010B4410335B
:100AE0004FF000021A6092497A6813469B00134443
:100AF0001B010B4414334FF000021A608C497A68D2
:100B000013469B0013441B010B442C3300221A7024
:100B100087497A6813469B0013441B010B44083332
:100B2000844A1A607B680B2B00F2A48001A252F861
:100B300023F000BF650B00087B0B0008910B000839
:100B4000A70B0008BD0B0008D30B0008E90B000839
:100B5000FF0B0008150C00082D0C0008450C0008C0
:100B60005D0C000872497A6813469B0013441B0110
:100B70000B440C3301221A8086E06D497A681346D3
:100B80009B0013441B010B440C3302221A807BE0B0
:100B900067497A6813469B0013441B010B440C33CE
:100BA00004221A8070E062497A6813469B0013445D
:100BB0001B010B440C3308221A8065E05C497A68FB
:100BC00013469B0013441B010B440C3310221A8064
:100BD0005AE057497A6813469B0013441B010B44A3
:100BE0000C3320221A804FE051497A6813469B004B
:100BF00013441B010B440C3340221A8044E04C493F
:100C00007A6813469B0013441B010B440C3380226B
:100C10001A8039E046497A6813469B0013441B0149
:100C20000B440C334FF480721A802DE040497A68EF
:100C300013469B0013441B010B440C334FF480629A
:100C40001A8021E03A497A6813469B0013441B013D
:100C50000B440C334FF480521A8015E034497A6803
:100C600013469B0013441B010B440C334FF400420A
:100C70001A8009E02E497A6813469B0013441B0131
:100C80000B440C3301221A807B68032B13DC2849A8
:100C90007A6813469B0013441B010B44264A1A60D2
:100CA000796823487A6813469B0013441B01034468
:100CB000043319602DE07B68072B15DC1C497A682A
:100CC00013469B0013441B010B441C4A1A607B68AB
:100CD000043B184616497A6813469B0013441B01CF
:100CE0000B440433186014E011497A6813469B00E2
:100CF00013441B010B44124A1A607B68083B1846D8
:100D00000B497A6813469B0013441B010B440433C0
:100D100018607B6801337B607B680B2B7FF7D8AE54
:100D200000BF00BF0C37BD465DF8047B704700BFB5
:100D30006C03002400100258780D0024C40D002418
:100D4000100E002480B586B002AF034687ED000A7E
:100D5000FB71FB790B2B00F2A080D7ED007AB7EE88
:100D6000007AF4EEC77AF1EE10FA02DD4FF07E530E
:100D70003B60D7ED007ABFEE007AF4EEC77AF1EE71
:100D800010FA01D5474B3B60FA7913469B00134498
:100D90001B01454A1344FB60D7ED007AF5EEC07A9B
:100DA000F1EE10FA08DBFB689868FB689B8900226B
:100DB000194606F0C5F90DE0FB689868FB689B8949
:100DC0000122194606F0BCF9D7ED007AF1EE677AF8
:100DD000C7ED007AD7ED007A9FED347A67EE877A17
:100DE000FCEEE77A17EE903ABB60FB685B68002B7D
:100DF00005D1FB681B681B68BA685A632CE0FB6866
:100E00005B68042B05D1FB681B681A68BB68936399
:100E100022E0FB685B68082B05D1FB681B681A6839
:100E2000BB68D36318E0FB685B680C2B05D1FB68DB
:100E30001B681A68BB6813640EE0FB685B68102BC4
:100E400005D1FB681B681A68BB68936504E0FB6802
:100E50001B681A68BB68D365FA79134913469B006F
:100E600013441B010B4410333A681A60FA790E4997
:100E700013469B0013441B010B4414333A681A6059
:100E8000FB79D7ED007AB7EEE77A8DED007B1A4655
:100E90000749022000F042F800E000BF1037BD46CD
:100EA00080BD00BF000080BF6C03002400007A44B6
:100EB0004080010880B584B000AF87ED010A0023AF
:100EC000FB6009E0FB68DBB297ED010A1846FFF70B
:100ED00039FFFB680133FB60FB680B2BF2DD00BFC1
:100EE00000BF1037BD4680BD80B500AF9FED020A40
:100EF000FFF7E0FF00BF80BD0000000080B483B0BA
:100F000000AF7860044A7B68136000BF0C37BD46B1
:100F10005DF8047B704700BF2C0700240EB490B529
:100F2000ADF5107D02AF024607F50E73A3F2312333
:100F30001A70234B1B7807F50E72A2F23122127839
:100F40009A4235D81F4B1B68002B31D007F512721F
:100F500007F50E73A3F582731A6007F50E73A3F5F8
:100F6000827307F59C701B68D7F844224FF4807198
:100F700014F0EAFA03F034FB024607F1080007F523
:100F80009C7300931346104A4FF4967114F012FAB2
:100F90000C4B1C6807F108031846FFF701FA0346DB
:100FA0009AB207F10801642320460CF0B9FB00E077
:100FB00000BF07F50E77BD46BDE8904003B070470F
:100FC000000000242C070024B880010880B582B0FE
:100FD00000AF114BD3F8D8300F4A43F00103C2F8E9
:100FE000D8300D4BD3F8D83003F001037B607B6819
:100FF000002200210B2003F020FC0B2003F037FC23
:10100000002200210C2003F018FC0C2003F02FFC20
:1010100000BF0837BD4680BD0044025880B58CB083
:1010200000AF07F11C0300221A605A609A60DA6070
:101030001A614A4BD3F8E030484A43F01003C2F833
:10104000E030464BD3F8E03003F01003BB61BB69DE
:10105000424BD3F8E030414A43F00403C2F8E03099
:101060003E4BD3F8E03003F004037B617B693B4BDC
:10107000D3F8E030394A43F08003C2F8E030374B10
:10108000D3F8E03003F080033B613B69334BD3F886
:10109000E030324A43F00103C2F8E0302F4BD3F87E
:1010A000E03003F00103FB60FB682C4BD3F8E03029
:1010B0002A4A43F00203C2F8E030284BD3F8E0306C
:1010C00003F00203BB60BB68244BD3F8E030234A33
:1010D00043F00803C2F8E030204BD3F8E03003F0CF
:1010E00008037B607B68002249F2FB511C4806F034
:1010F00027F8002204211A4806F022F80122FF21D5
:10110000184806F01DF849F2FB53FB6101233B62CE
:1011100000237B620023BB6207F11C0319461048C1
:1011200005F05EFEFF23FB6101233B6200237B622F
:101130000023BB6207F11C0319460A4805F050FE64
:1011400000214FF0806003F087FA00214FF000602B
:1011500003F082FA00BF3037BD4680BD004402581C
:10116000001002580008025880B586B004AF274925
:101170000220FFF7D3FE0C220021254814F0F2F9DB
:101180000C220021234814F0EDF90C220021224802
:1011900014F0E8F9214B01221A71214B02221A7036
:1011A00000237B6012E01F497A6813465B001344FA
:1011B0005B010B4451331B78002B04D17B68DBB2FD
:1011C000184602F07BF87B6801337B607B68042B58
:1011D000E9DD154BD3ED0F7AB7EEE75A124BD3ED9D
:1011E000107AB7EEE77A104BD3ED116AB7EEE66AE4
:1011F0008DED026B8DED007B53EC152B0B4902201E
:10120000FFF78CFE00BF0837BD4680BD2481010872
:1012100028000024340000244C000024300700245F
:101220004C070024FC080024040000244881010825
:1012300080B500AF06490220FFF770FEFFF754FEAD
:10124000044B00221A71044B00221A7000BF80BDAB
:101250007C810108300700244C07002480B588B049
:1012600004AF87ED030AC7ED020A87ED011A114AA0
:10127000FB68D3630F4ABB6813640E4A7B685364F0
:10128000D7ED037AB7EEE75AD7ED027AB7EEE77AF1
:10129000D7ED016AB7EEE66A8DED026B8DED007B4E
:1012A00053EC152B04490220FFF738FE00BF10371E
:1012B000BD4680BD04000024A081010880B500AFB8
:1012C0001848FFF71BFE18490220FFF727FEFFF71B
:1012D000F9FB164B01221A7015490220FFF71EFE7A
:1012E00001F04CFB114B01225A7000F0ECFE03465A
:1012F00083F00103DBB2002B04D00E490020FFF77E
:101300000DFE03E00C490220FFF708FE0B49022006
:10131000FFF704FE02F09EF809490220FFF7FEFDE8
:1013200000BF80BD5C0E00246082010830070024ED
:1013300098820108BC820108E0820108FC82010851
:101340001C83010880B500AF00F04EF800F026F8CD
:1013500000BF80BD80B582B000AF00F0BFFE7860F6
:101360007B68B3F1FF3F0BD07B68002B08D07B6814
:1013700023F07F431A4607490220FFF7CFFD05E01F
:101380007A6805490020FFF7C9FD00BF00BF083794
:10139000BD4680BD408301086083010880B584B0EC
:1013A00000AF03F01DF9F8600C4B1B68FA68D31A04
:1013B000BB60BB68B3F57A7F0BD34FF000037B6053
:1013C000074A7B68D360074B00221A60034AFB6818
:1013D000136000BF1037BD4680BD00BF98080024D1
:1013E00030070024A408002480B500AF03F0F8F80B
:1013F0000346024A936000BF80BD00BF300700244F
:1014000080B500AF1E490220FFF788FD1D4902206C
:10141000FFF784FD1C490220FFF780FD1B490220D5
:10142000FFF77CFD1A490220FFF778FD19490220D9
:10143000FFF774FD18490220FFF770FD17490220DD
:10144000FFF76CFD16490220FFF768FD15490220E1
:10145000FFF764FD14490220FFF760FD13490220E5
:10146000FFF75CFD12490220FFF758FD11490220E9
:10147000FFF754FD10490220FFF750FD00BF80BD6B
:10148000848301089C830108B4830108D483010884
:10149000F88301083C8401086884010898840108E5
:1014A000E0840108048501082C850108588501089D
:1014B0008C850108C88501080086010880B500AF49
:1014C0000A230422024903480CF02AF900BF80BD18
:1014D000348601085C0E002480B584B004AF2F4927
:1014E0000220FFF71BFD2E4B9B681A462D49022058
:1014F000FFF714FD2A4BD3ED037AB7EEE77A53ECEE
:10150000172B29490220FFF709FD254B1B781A46A6
:1015100026490220FFF702FD214B5B781A46244939
:101520000220FFF7FBFC1E4BDB781A462149022004
:10153000FFF7F4FC1A4B9B781A461F490220FFF76D
:10154000EDFC174B1B791A461C490220FFF7E6FCFD
:10155000134BD3ED047AB7EEE75A114BD3ED057A6E
:10156000B7EEE77A0E4BD3ED066AB7EEE66A8DED7D
:10157000026B8DED007B53EC152B11490220FFF718
:10158000CDFC4FF480710F4801F0B4FE0D4A0E49B6
:101590000220FFF7C3FC00BFBD4680BD3C860108AA
:1015A0003007002450860108648601087886010807
:1015B0008C860108A4860108BC860108D48601082F
:1015C000EC860108500700241487010880B5ACB0F0
:1015D00006AF6F4B1B78002B00F0D38003F000F8B0
:1015E000C7F88C006B4B1B68D7F88C20D21A6A4B5B
:1015F0001B689A42C0F0C780664AD7F88C301360E7
:101600003846D7F88C30654A802113F0D3FEC7F8EE
:1016100094000023C7F8903095E06149D7F89020F6
:1016200013465B0013445B010B4451331B78002BC2
:1016300072D05B49D7F8902013465B0013445B01DE
:101640000B44243393ED007A5549D7F89020134684
:101650005B0013445B010B443833D3ED007A77EE23
:10166000277AC7ED227A4E49D7F8902013465B00BF
:1016700013445B010B44283393ED007A4849D7F8B3
:10168000902013465B0013445B010B443C33D3EDC5
:10169000007A77EE277AC7ED217A4149D7F8902072
:1016A00013465B0013445B010B442C3393ED007A2B
:1016B0003B49D7F8902013465B0013445B010B4471
:1016C0004033D3ED007A77EE277AC7ED207AD7F84A
:1016D00094303A46D018D7F89430C3F18003D7ED50
:1016E000227AB7EEE77AD7ED216AB7EEE66AD7ED50
:1016F000205AB7EEE55A8DED045B8DED026B8DED52
:10170000007B284A194613F055FE0246D7F894305C
:101710001344C7F8943011E0D7F894303A46D01803
:10172000D7F89430C3F180031F4A194613F042FEE4
:101730000246D7F894301344C7F89430D7F8903065
:101740000133C7F89030D7F89030042B7FF765AF9E
:101750003B461846FEF724FE03461A463B46134412
:1017600012491A460B461B8813803B461846FEF763
:1017700017FE03469AB239460A230D480BF0D0FFF4
:1017800002E000BF00E000BF9837BD4680BD00BF4B
:10179000A90800249C080024600000241C8701087C
:1017A000FC080024208701083087010838870108D9
:1017B0005C0E002480B582B000AF02F08BFE00F01A
:1017C000D9FB02F087FE00F097F8FFF727FCFFF740
:1017D000FDFB01F0E1FE02F053FA02F005FB02F01E
:1017E0007FFB02F0F1FC02F03BFD00F007FEFFF78B
:1017F000B1FD11F021FCFFF761FD012231493248B2
:101800000CF01CF831490220FFF788FB3049022018
:10181000FFF784FB2F490220FFF780FB08230C22EF
:101820002D490220FFF77AFB2C490220FFF776FBB7
:10183000FFF7E6FD0A230422294923480BF070FF35
:1018400002F0CEFE0346274A136002F0C9FE0346AB
:10185000254A136000F03EF902F0C2FE3860234BC7
:101860001B683A68D31A132B1BD900237B6012E044
:101870001F497A6813465B0013445B010B445133E4
:101880001B78002B04D07B68DBB2184601F07AFA93
:101890007B6801337B607B68042BE9DD134A3B687E
:1018A0001360FFF793FEFFF74DFD124B1B78002BE3
:1018B00003D1012002F0A0FECCE7002002F09CFE44
:1018C000C8E700BF920800245C0E00243C87010892
:1018D000408701086C87010898870108CC870108B8
:1018E000348601089408002498080024AC080024D9
:1018F000FC080024A908002480B59CB000AF07F1C3
:1019000024034C220021184613F02CFE3B1D2022FC
:101910000021184613F026FE022006F0B3FE002335
:101920003B60304BDB6A2F4A23F00103D3622D4B1F
:10193000DB6A03F001033B602B4B9B692A4A43F4AB
:1019400040439361284B9B6903F440433B603B68F1
:1019500000BF254B9B6903F40053B3F5005FF8D13A
:1019600001237B624FF48033BB620223BB640223FA
:10197000FB6402233B6540237B650223BB65042394
:10198000FB6502233B660C237B660023BB660023BA
:10199000FB6607F12403184607F012FB0346002BF1
:1019A00001D000F023F83F237B600323BB600023BA
:1019B000FB6008233B6140237B614023BB614FF404
:1019C0008063FB6140233B623B1D0221184607F008
:1019D00051FF0346002B01D000F008F800BF70371C
:1019E000BD4680BD000400580048025880B500AFD5
:1019F00004490020FFF792FA4FF4FA7002F0FCFD60
:101A0000FAE700BFFC87010880B582B000AF7860BC
:101A10007B681B68274A934248D1274B1B780D2BC4
:101A200003D0254B1B780A2B0DD1244B1B88002B90
:101A300002D0234B01221A700A2302222149224894
:101A40000BF06EFE2DE01C4B1B78082B03D01A4BBD
:101A50001B787F2B10D1194B1B88002B21D0174BE3
:101A60001B88013B9AB2154B1A800A23032217499F
:101A700015480BF055FE14E0104B1B883E2B10D878
:101A80000E4B1B885A1C91B20C4A11801A460A4B05
:101A900019780F4B99540A23012207490A480BF081
:101AA0003FFE0122044908480BF0C8FE00BF08377A
:101AB000BD4680BD004400409208002490080024E8
:101AC000A80800243C8701085C0E00242488010833
:101AD0005008002480B594B000AF994B1B78002BC0
:101AE00000F02082964B00221A70964B1B881A46F3
:101AF000954B00219954954B1B680133934A136011
:101B0000914BFB6402E0FB6C0133FB64FB6C1B78C4
:101B1000202BF8D0FB6C1B78092BF4D0FB6C1B78C6
:101B20000D2BF0D0FB6C1B780A2BECD0F86CFEF779
:101B300037FC0346BB6407E0BB6C013BBB64BB6C7A
:101B4000FA6C134400221A70BB6C002B1BDDBB6CBB
:101B5000013BFA6C13441B78202BEDD0BB6C013B8E
:101B6000FA6C13441B78092BE6D0BB6C013BFA6C72
:101B700013441B780D2BDFD0BB6C013BFA6C134474
:101B80001B780A2BD8D0BB6C002B0AD16D4B0022DE
:101B90001A80402200216C4813F0E4FCFFF78EFC11
:101BA000C1E16B49F86C13F0F7FC38643B6C002B17
:101BB0000AD1644B00221A8040220021624813F0AF
:101BC000D1FCFFF77BFCAEE16249386CFEF788FB85
:101BD0000346002B02D1FFF713FC98E15E49386CF5
:101BE000FEF77EFB0346002B02D1FFF775FC8EE16A
:101BF0005A49386CFEF774FB0346002B21D1544937
:101C0000002013F0C9FC78607B68002B04D1544994
:101C10000020FFF783F97AE1786811F07EFE3860E2
:101C20003B68002B02DB3B68072B04DD4D4900209D
:101C3000FFF774F96BE13B68DBB2184601F0BEFABE
:101C400065E14949386CFEF74BFB0346002B21D177
:101C50003F49002013F0A0FCF860FB68002B04D182
:101C600042490020FFF75AF951E1F86811F055FE9A
:101C7000B860BB68002B02DBBB68072B04DD394969
:101C80000020FFF74BF942E1BB68DBB2184601F0D8
:101C900079F83CE13649386CFEF722FB0346002B0D
:101CA00021D12B49002013F077FC78617B69002B50
:101CB00004D130490020FFF731F928E1786911F0AB
:101CC0002CFE38613B69002B02DB3B69072B04DDEE
:101CD00024490020FFF722F919E13B69DBB21846DD
:101CE00001F06CFA13E12449386CFEF7F9FA034667
:101CF000002B5CD11649002013F04EFCF861FB6903
:101D0000002B3FD11D490220FFF708F900237B6417
:101D100012E01B497A6C13465B0013445B010B44D1
:101D200051331B78002B04D07B6CDBB2184601F0DA
:101D300017F97B6C01337B647B6C042BE9DDE6E0F7
:101D4000A80800249008002450080024A0080024BB
:101D5000288801082C880108348801083C8801087B
:101D6000448801085C88010874880108808801089B
:101D700098880108A4880108BC880108C88801085F
:101D8000FC080024F86911F0C8FDB861BB69002B9C
:101D900002DBBB69072B04DD64490020FFF7BEF8B6
:101DA000B5E0BB69DBB2184601F0DAF8AFE0604994
:101DB000386CFEF795FA0346002B02D101F0CAFAFF
:101DC000A5E05C49386CFEF78BFA0346002B02D184
:101DD00001F040FB9BE05849386CFEF781FA03465E
:101DE000002B20D15549002013F0D6FB78627B6A86
:101DF000002B0DD0786A11F090FD38623B6A092BF8
:101E000006DD3B6AB3F57A7F02DC3B6A4C4A13601D
:101E10004C4B01221A704A4B1B681A464A49022051
:101E2000FFF77CF873E04949386CFEF759FA03462E
:101E3000002B07D1434B00221A7045490220FFF7BF
:101E40006DF864E04349386CFEF74AFA0346002B0C
:101E500002D1FFF789F95AE03F49386CFEF740FAA2
:101E60000346002B02D1FFF7E3F950E03B49386C01
:101E7000FEF736FA0346002B40D13049002013F01C
:101E80008BFBF8632D49002013F086FBB8632B49C8
:101E9000002013F081FB7863FB6B002B29D0BB6B18
:101EA000002B26D07B6B002B23D0F86B11F032FD7A
:101EB000B0EE407BF7EEC77BC7ED0C7AB86B11F044
:101EC00029FDB0EE407BF7EEC77BC7ED0B7A786B50
:101ED00011F020FDB0EE407BF7EEC77BC7ED0A7A2C
:101EE00097ED0A1AD7ED0B0A97ED0C0AFFF7B6F932
:101EF0000DE01B490020FFF711F808E03A6C194982
:101F00000020FFF70BF818490220FFF707F8174BDE
:101F100000221A8040220021154813F023FBFFF70E
:101F2000CDFA00E000BF5037BD4680BD5C88010897
:101F3000EC880108F888010804890108288801084C
:101F400060000024A9080024148901083C890108C4
:101F5000488901085C8901086889010878890108B5
:101F600084890108A0890108B88901089008002423
:101F70005008002480B584B000AF3B4600221A60B0
:101F80005A609A60DA6002F08DFC01233B700023F6
:101F90007B7000237B601F233B7287237B720023AF
:101FA000BB720023FB7201233B7301237B7300236D
:101FB000BB730023FB733B46184602F0ABFC0420C6
:101FC00002F088FC00BF1037BD4680BD80B58EB0E2
:101FD00000AF3B4638220021184613F0C3FA06230F
:101FE0003B604FF48073BB610023FB6100233B62C5
:101FF00000237B6200237B610023FB6200233B63A1
:1020000000237B633B464FF0FF321946034806F03E
:10201000F7FB0346002B3837BD4680BDB0080024CF
:1020200080B590B000AF07F10803382200211846B0
:1020300013F098FA0023FB710523BB604FF4807303
:102040003B6200237B620023BB624FF08073FB6224
:1020500001233B630023FB6100237B630023BB63FD
:102060000023FB6307F108034FF0FF3219460C48C9
:1020700006F0C6FB0346002B01D0FF230CE0FB1D3E
:102080004FF0FF321946064806F0AAFC0346002B23
:1020900001D0FF2300E0FB7918464037BD4680BDE4
:1020A000B008002480B582B000AFFFF7B9FF034647
:1020B000FB71FB7903F00103002BF6D100BF00BFD9
:1020C0000837BD4680BD80B582B000AF00F006F88D
:1020D0007860012318460837BD4680BD80B590B0B2
:1020E00000AF07F1080338220021184613F03AFA2E
:1020F0003B1D00210A461A800A469A709F23BB6046
:102100004FF480733B6200237B620023BB624FF07D
:102110008073FB6203233B630023FB6100237B632B
:102120000023BB630023FB6307F108034FF0FF327A
:102130001946104806F064FB0346002B02D04FF00E
:10214000FF3313E03B1D4FF0FF321946094806F0FC
:1021500047FC0346002B02D04FF0FF3306E03B79EB
:102160001A047B791B021343BA791343184640378C
:10217000BD4680BDB008002480B590B000AF786047
:1021800007F1080338220021184613F0EBF97A68AA
:10219000154B13407B60FFF719FF2023BB604FF402
:1021A00080733B624FF480637B624FF400537B612A
:1021B0007B68FB600023BB620023FB620023FB61A2
:1021C00000237B630023BB630023FB6307F1080349
:1021D0004FF0FF321946054806F012FBFFF762FF89
:1021E00000BF4037BD4680BD00F0FFFFB0080024AF
:1021F00080B598B000AFF860B9607A607B68002B5A
:102200006DD07B68B3F5807F02D94FF480737B601B
:1022100007F1280338220021184613F0A3F907F12B
:10222000100300221A605A609A60DA601A615A61DB
:10223000FFF7CCFE0223BB624FF480733B644FF484
:1022400080637B644FF400537B63FB68FB62002375
:10225000BB644FF08073FB647B683B650023FB63CA
:1022600000237B650023BB650023FB6507F1280382
:102270004FF0FF3219461C4806F0C2FA4FF0FF3209
:10228000B968194806F01AFB00233B6101237B6102
:1022900000233B621023BB610123FB614FF48003E9
:1022A0007B620523BB624FF480733B6400237B6435
:1022B0004FF08073FB6401233B650023FB63002325
:1022C0007B650023BB650023FB6507F1100207F166
:1022D00028014FF0FF33044806F01FFC00E000BF68
:1022E0006037BD4680BD00BFB008002480B588B00F
:1022F00000AFF860B9607A60FB68BB617B681B0A5D
:102300007B617B68DBB23B610023FB610FE0FB6913
:102310001A02BB69D018FB691B02BA6813444FF458
:1023200080721946FFF764FFFB690133FB61FA69AC
:102330007B699A42EBD33B69002B0BD07B691A0275
:10234000BB69D0187B691B02BA6813443A69194605
:10235000FFF74EFF00BF2037BD4680BD80B592B06D
:1023600000AFF860B9607A6007F1100338220021ED
:10237000184613F0F7F803233B614FF48073BB62F8
:102380004FF48063FB624FF40053FB61FB687B6199
:1023900000233B634FF080737B637B68BB63002348
:1023A0007B620023FB6300233B6400237B6407F113
:1023B000100341F2883219460D4806F021FA03460F
:1023C000002B04D00B490020FEF7A8FD0DE041F2E0
:1023D0008832B968064806F003FB0346002B04D098
:1023E00005490020FEF79AFD00BF4837BD4680BD75
:1023F000B0080024DC890108F489010880B500AF29
:10240000124B134A1A60114B08225A600F4B0122DB
:102410009A600E4B1022DA600C4B17221A610B4B9C
:102420004FF480625A61094B00229A61074B0022E7
:10243000DA61064B00221A62044806F06DF9034681
:10244000002B01D0FFF7D2FA00BF80BDB0080024F6
:102450000050005280B5BCB000AF786007F1DC03DB
:1024600000221A605A609A60DA601A6107F1180354
:10247000C0220021184613F075F87B681B68554A86
:10248000934240F0A3804FF000724FF00003C7E981
:10249000062300237B6607F11803184607F076FD34
:1024A0000346002B01D0FFF7A1FA4B4BD3F8D430F1
:1024B000494A43F48043C2F8D430474BD3F8D43070
:1024C00003F480437B617B69434BD3F8E030424A9D
:1024D00043F01003C2F8E0303F4BD3F8E03003F094
:1024E00010033B613B693C4BD3F8E0303A4A43F080
:1024F0000203C2F8E030384BD3F8E03003F00203B7
:10250000FB60FB68344BD3F8E030334A43F00803F8
:10251000C2F8E030304BD3F8E03003F00803BB6082
:10252000BB680423C7F8DC300223C7F8E03000237F
:10253000C7F8E4300023C7F8E8300923C7F8EC30C7
:1025400007F1DC031946254804F04AFC0423C7F8C8
:10255000DC300223C7F8E0300023C7F8E430002362
:10256000C7F8E8300923C7F8EC3007F1DC03194657
:102570001B4804F035FC4FF46053C7F8DC300223ED
:10258000C7F8E0300023C7F8E4300023C7F8E8308C
:102590000923C7F8EC3007F1DC031946114804F0B1
:1025A0001FFC4023C7F8DC300223C7F8E0300023CB
:1025B000C7F8E4300023C7F8E8300A23C7F8EC3046
:1025C00007F1DC031946064804F00AFC00BFF037A7
:1025D000BD4680BD00500052004402580010025811
:1025E00000040258000C025880B586B002AF786033
:1025F000F023BB817B6858687B681B8900221946E1
:1026000004F09EFD022001F0F7FF7B68186807F1D7
:10261000080207F10C0164230093022309F006FC71
:102620000346002B0CD07B6858687B681B8901220D
:10263000194604F085FD052001F0DEFF00230BE0C4
:102640007B6858687B681B890122194604F078FD75
:10265000052001F0D1FF012318461037BD4680BD8B
:1026600080B586B002AF78608023BB817B685868F4
:102670007B681B890022194604F062FD022001F0EC
:10268000BBFF7B68186807F1080207F10C0164239F
:102690000093022309F0CAFB0346002B0CD07B6891
:1026A00058687B681B890122194604F049FD052002
:1026B00001F0A2FF00230BE07B6858687B681B8950
:1026C0000122194604F03CFD052001F095FF01238D
:1026D00018461037BD4680BD80B586B002AF786021
:1026E00039603F23BB817B6858687B681B89002267
:1026F000194604F025FD022001F07EFF7B68186872
:1027000007F1080207F10C0164230093022309F08A
:102710008DFB0346002B0CD07B6858687B681B89B7
:102720000122194604F00CFD052001F065FF00238D
:1027300011E07B6858687B681B890122194604F008
:10274000FFFC052001F058FF3B68002B02D03A7ACD
:102750003B681A70012318461037BD4680BD80B50E
:102760008CB002AFF860B9607A603B604F23FB61C8
:1027700007F1200300221A609A80FB685868FB6802
:102780001B890022194604F0DBFC022001F034FF13
:10279000FB68186807F1100207F11C01642300931D
:1027A0000A2309F043FB0346002B0CD0FB68586852
:1027B000FB681B890122194604F0C2FC052001F0C8
:1027C0001BFF002340E0FB685868FB681B8901225F
:1027D000194604F0B5FC052001F00EFF3B6B002B01
:1027E0000AD0BB7C1BB21B021AB2FB7C1BB2134388
:1027F0001BB29AB23B6B1A80BB68002B09D03B7DA1
:102800001BB21B021AB27B7D1BB213431AB2BB6808
:102810001A807B68002B09D0BB7D1BB21B021AB249
:10282000FB7D1BB213431AB27B681A803B68002BF6
:1028300009D03B7E1BB21B021AB27B7E1BB2134334
:102840001AB23B681A80012318462837BD4680BD5E
:1028500080B487B000AF786000237B617B68FB6049
:10286000C823BB6000233B610AE0FA683B6913445C
:102870001B781A467B6913447B613B6901333B61DA
:102880003A69BB689A42F0D37B6918461C37BD464B
:102890005DF8047B7047000080B588B002AF034646
:1028A000FB71FB79072B5ED8FA7913465B00134462
:1028B0005B012F4A13447B617869FFF7D1FE786989
:1028C000FFF792FE7869FFF7CBFE0A2001F094FE35
:1028D00000233B824FF6FF73BB817B6958687B699D
:1028E0001B890022194604F02BFC022001F084FE13
:1028F0007B69186807F10C0207F11001642300934B
:10290000022309F093FA0346FB747B6958687B69DC
:102910001B890122194604F013FC052001F06CFE0E
:10292000FB7C002B14D13B7BFF2B02D17B7BFF2B4D
:102930000ED07B69012283F85120FB791A460D499C
:102940000220FEF7EBFA7B69072283F853200BE0A5
:102950007B69002283F85120FB791A460649002042
:10296000FEF7DCFA00E000BF1837BD4680BD00BFAF
:10297000FC0800240C8A0108408A010880B586B052
:1029800002AFBC490220FEF7C9FA0023FB7369E1DC
:10299000FA7BB94913465B0013445B010B44B74A09
:1029A0001A60FA7BB44913465B0013445B010B4485
:1029B0000433B34A1A60FB7B072B6BD801A252F891
:1029C00023F000BFE5290008FB290008112A0008B0
:1029D000272A00083D2A0008532A0008692A00080F
:1029E0007F2A0008FA7BA44913465B0013445B016D
:1029F0000B44083301221A8057E0FA7B9E491346A4
:102A00005B0013445B010B44083302221A804CE044
:102A1000FA7B994913465B0013445B010B4408336E
:102A200004221A8041E0FA7B934913465B00134469
:102A30005B010B44083308221A8036E0FA7B8E498A
:102A400013465B0013445B010B44083310221A80C9
:102A50002BE0FA7B884913465B0013445B010B446F
:102A6000083320221A8020E0FA7B834913465B005A
:102A700013445B010B44083340221A8015E0FA7BB3
:102A80007D4913465B0013445B010B4408338022ED
:102A90001A800AE0FA7B784913465B0013445B0115
:102AA0000B44083300221A8000BFFA7B7249134698
:102AB0005B0013445B010B4404331868FA7B6E49D6
:102AC00013465B0013445B010B4408331B8801224F
:102AD000194604F035FBFA7B13465B0013445B0197
:102AE0002033654A134404330C220021184612F0A7
:102AF00039FDFA7B604913465B0013445B010B44CC
:102B000030334FF000021A60FA7B5B4913465B00DA
:102B100013445B010B44513300221A70FA7B56496F
:102B200013465B0013445B010B44503300221A70C0
:102B3000FA7B514913465B0013445B010B44543349
:102B400000221A60FA7B4C4913465B0013445B0178
:102B50000B44583300221A60FA7B474913465B0046
:102B600013445B010B44523300221A70FA7B424932
:102B700013465B0013445B010B44343300221A609C
:102B8000FA7B3D4913465B0013445B010B445C3305
:102B90004FF000021A60FA7B374913465B0013447A
:102BA0005B010B44533307221A70F97B324A0B4600
:102BB0005B000B445B01134440334FF000021A608A
:102BC000FA7B2D480B465B000B445B01034440330A
:102BD0001968294813465B0013445B0103443C33E6
:102BE0001960F97B244813465B0013445B010344DE
:102BF0003C331A6820480B465B000B445B010344DE
:102C000038331A60F97B1C4A0B465B000B445B01AE
:102C100013444C334FF07E521A60FA7B16480B4631
:102C20005B000B445B0103444C33196812481346A4
:102C30005B0013445B01034448331960F97B0E4881
:102C400013465B0013445B01034448331A680A4887
:102C50000B465B000B445B01034444331A60FB7B6F
:102C60000133FB73FB7B072B7FF692AE0023BB7314
:102C700078E000BF5C8A0108FC080024FC0B0024FB
:102C80000008025800233B814FF6FF73BB80BA7BDC
:102C9000394913465B0013445B010B440433186845
:102CA000BA7B354913465B0013445B010B44083380
:102CB0001B880022194604F043FA022001F09CFC14
:102CC000BA7B2D4913465B0013445B010B44186823
:102CD0003A1D07F1080164230093022309F0A6F8C6
:102CE00003467B73BA7B244913465B0013445B01A4
:102CF0000B4404331868BA7B1F4913465B00134426
:102D00005B010B4408331B880122194604F018FAB2
:102D1000052001F071FC7B7B002B10D13B79FF2B50
:102D200002D17B79FF2B0AD0BB7B1A4613490220C4
:102D3000FEF7F4F8BB7B1846FFF7AEFD0FE0BA7B59
:102D40000D4913465B0013445B010B4451330022D1
:102D50001A70BB7B1A460A490120FEF7DFF8BB7BDD
:102D60000133BB73BB7B042B8CD900F073FB00BF1A
:102D70001037BD4680BD00BFFC080024808A0108D2
:102D8000988A010880B58EB002AF0346FB71FB79CB
:102D9000072B01D90023D2E0FA7913465B001344D4
:102DA0005B01694A1344FB62FB6A93F85130002BC4
:102DB00001D10023C3E001F013FCB862F86AFFF709
:102DC0004FFC022001F018FC07F117031946F86ABE
:102DD000FFF782FC0346002B0ED1FB6A9B6D5A1C49
:102DE000FB6A9A65FB6A93F852300133DAB2FB6AE8
:102DF00083F852200023A2E0142001F0FDFB07F12C
:102E0000100007F1120207F1140107F10E030093FD
:102E10000346F86AFFF7A3FC0346002B0ED1FB6ABA
:102E20009B6D5A1CFB6A9A65FB6A93F8523001331A
:102E3000DAB2FB6A83F85220002380E0FB6A93F841
:102E40005330072B28BF072387F8273097F8273000
:102E50003E4ADB0013441B683B6297F827303B4A2D
:102E6000DB00134404331B68FB61B7F9143007EE31
:102E7000903AB8EEE77AD7ED087A67EE277AFB6AE0
:102E8000C3ED097AB7F9123007EE903AB8EEE77A57
:102E9000D7ED087A67EE277AFB6AC3ED0A7AB7F9AD
:102EA000103007EE903AB8EEE77AD7ED077A67EE82
:102EB000277AFB6AC3ED0B7AFB8907EE903AF8EEAE
:102EC000677A9FED237A37EEC77ADFED226AC7EE85
:102ED000267AB3EE097A77EE877AFB6AC3ED0C7A2D
:102EE000FB6A5B6D5A1CFB6A5A6501F079FB02466E
:102EF000FB6A5A63FB6A5A6BBB6AD31A07EE903AB5
:102F0000F8EE677AC7ED067AFB6A5B6D012B03D199
:102F1000FB6ABA69DA6511E0FB6AD3ED177A9FEDB7
:102F20000E7A27EE877AD7ED067ADFED0C6A67EE28
:102F3000A67A77EE277AFB6AC3ED177A0123184643
:102F40003037BD4680BD00BFFC0800249C8D0108C1
:102F500000A43447CDCC34426666663FCDCCCC3D30
:102F600080B592B006AF0346FB71FB79072B00F2E8
:102F70001281FA7913465B0013445B01884A1344BB
:102F8000FB61FB6993F85130002B06D1FB791A469F
:102F900084490020FDF7C2FFFEE0FB791A46824912
:102FA0000220FDF7BBFF81490220FDF7B7FF40F685
:102FB000B83001F021FB4FF00003FB624FF000033B
:102FC000BB624FF000037B621423BB6100233B62B2
:102FD00041E0FB791846FFF7D5FE0346002B34D0BD
:102FE000FB69D3ED097A97ED0B7A77EE277AC7ED77
:102FF0000B7AFB69D3ED0A7A97ED0A7A77EE277A96
:10300000C7ED0A7AFB69D3ED0B7A97ED097A77EE73
:10301000277AC7ED097AFB69D3ED097AB7EEE77A2B
:10302000FB69D3ED0A6AB7EEE66AFB69D3ED0B5A8A
:10303000B7EEE55A8DED045B8DED026B8DED007BF7
:103040003A6A5B490220FDF769FF642001F0D4FA77
:103050003B6A01333B623A6ABB699A42B9DBD7EDFE
:103060000B7AF1EE676ABB6907EE903AB8EEE77A41
:10307000C6EE877AFB69C3ED0E7AD7ED0A7AF1EED8
:10308000676ABB6907EE903AB8EEE77AC6EE877AD0
:10309000FB69C3ED0F7AD7ED097AF1EE676ABB6978
:1030A00007EE903AB8EEE77AC6EE877AFB69C3ED91
:1030B000107AFB69012283F85020FB69D3ED0E7A68
:1030C000B7EEE75AFB69D3ED0F7AB7EEE77AFB6903
:1030D000D3ED106AB7EEE66A8DED026B8DED007BE5
:1030E00053EC152B33490220FDF718FFFB791846E6
:1030F000FFF748FEFB6993ED097AFB69D3ED0E7A81
:1031000077EE277AC7ED057AFB6993ED0A7AFB69BA
:10311000D3ED0F7A77EE277AC7ED047AFB6993ED4A
:103120000B7AFB69D3ED107A77EE277AC7ED037A35
:10313000D7ED057A27EEA77AD7ED047A67EEA77A5E
:1031400037EE277AD7ED037A67EEA77A77EE277AFC
:10315000B0EE670A14F044FF87ED020AD7ED057A56
:10316000B7EEE74AD7ED047AB7EEE77AD7ED036A10
:10317000B7EEE66AD7ED025AB7EEE55A8DED045B7D
:103180008DED026B8DED007B53EC142B0A49022070
:10319000FDF7C4FE00E000BF3037BD4680BD00BF74
:1031A000FC080024B48A0108CC8A0108F48A0108CA
:1031B0001C8B0108408B0108708B010880B590B012
:1031C00008AF0346FB71FB791846FFF7DBFD0346AA
:1031D000002B01D1002367E0FA7913465B0013440A
:1031E0005B01334A1344FB61FB6993F85030002BB9
:1031F00007D1FB791A462F490220FDF78FFE0123E4
:1032000052E0FB6993ED097AFB69D3ED0E7A77EE14
:10321000277AC7ED067AFB6993ED0A7AFB69D3ED4D
:103220000F7A77EE277AC7ED057AFB6993ED0B7A73
:10323000FB69D3ED107A77EE277AC7ED047AD7EDE4
:10324000067A27EEA77AD7ED057A67EEA77A37EEEA
:10325000277AD7ED047A67EEA77A77EE277AB0EE71
:10326000670A14F0BDFE87ED030AFB79D7ED067AF5
:10327000B7EEE77AD7ED056AB7EEE66AD7ED045AFE
:10328000B7EEE55AD7ED034AB7EEE44A8DED064BAB
:103290008DED045B8DED026B8DED007B1A460649CA
:1032A0000220FDF73BFE012318462037BD4680BDB6
:1032B000FC080024B08B0108E08B010880B483B0C7
:1032C00000AF0346FB71FB79072B01D9002308E00F
:1032D000FA79074913465B0013445B010B445133F1
:1032E0001B7818460C37BD465DF8047B704700BF5D
:1032F000FC08002480B586B002AF78600B467B8066
:103300000023FB600023BB6010E01049BA6813463D
:103310005B0013445B010B4451331B78002B02D03C
:10332000FB680133FB60BB680133BB60BB68072BE4
:10333000EBDD798808230093FB68054A786812F072
:1033400039F800BF1037BD4680BD00BFFC0800241F
:10335000588C010880B5B6B000AF3A490220FDF79D
:10336000DDFD394B7B600123BB600023C7F8D430FF
:103370004AE00023C7F8D0303DE03449D7F8D420E4
:1033800013465B001344DB00D7F8D02013440E3300
:103390009B000B441968D7F8D42013465B001344F4
:1033A000D7F8D020134402339B00D8333B44D43B9E
:1033B00019602649D7F8D42013465B001344DB007C
:1033C000D7F8D020134410339B000B440433196802
:1033D000D7F8D42013465B001344D7F8D020134409
:1033E0001A339B00D8333B44D43B1960D7F8D03014
:1033F0000133C7F8D030D7F8D030022BBDDDD7F875
:10340000D4300133C7F8D430D7F8D430072BB0DD2F
:103410003B1D1846FFF71CFA0346C7F8CC300020C6
:10342000FEF7AAFE3B1DCC2219460020FEF75EFFE8
:10343000002207490220FDF771FD00BFD837BD46C5
:1034400080BD00BF748C0108EFBEADDEFC08002417
:10345000948C010880B5B6B000AF48490220FDF752
:103460005DFD3B46CC2219460020FEF777FF3B6806
:10347000434A934204D043490120FDF74FFD7AE0CF
:103480007B68012B04D040490120FDF747FD72E025
:103490003B461846FFF7DCF9C7F8CC00D7F8C83030
:1034A000D7F8CC209A4204D038490120FDF736FDE8
:1034B00061E00023C7F8D43055E00023C7F8D030CE
:1034C0003DE0D7F8D42013465B001344D7F8D02052
:1034D000134402339B00D8333B44D83B19682C4833
:1034E000D7F8D42013465B001344DB00D7F8D02074
:1034F00013440E339B0003441960D7F8D4201346BD
:103500005B001344D7F8D02013441A339B00D83300
:103510003B44D83B19681E48D7F8D42013465B00BB
:103520001344DB00D7F8D020134410339B0003442E
:1035300004331960D7F8D0300133C7F8D030D7F84A
:10354000D030022BBDDD1249D7F8D42013465B00E2
:1035500013445B010B44503301221A70D7F8D43066
:103560000133C7F8D430D7F8D430072BA5DD09498B
:103570000220FDF7D3FCD837BD4680BDB48C0108CE
:10358000EFBEADDED88C0108FC8C01081C8D010853
:10359000FC080024408D010880B500AF284B294A63
:1035A0001A60274B4FF480025A60254B00229A6024
:1035B000234B0722DA60224B4FF000721A61204B36
:1035C0004FF080725A611E4B4FF080629A611C4B23
:1035D0004FF0C042DA611A4B00221A62184B0022E7
:1035E0005A62174B00229A62154B0022DA62144B82
:1035F00000225A63124B00229A63114B0022DA63B5
:103600000F4B00221A640E4B00225A640C4B00220E
:103610009A640B4B0022DA64094B00221A65084BAE
:1036200000225A65064B00229A65054808F0DAFA2E
:103630000346002B01D0FEF7D9F900BF80BD00BFC3
:10364000FC0B00240030014080B5BCB000AF7860B6
:1036500007F1DC0300221A605A609A60DA601A618E
:1036600007F11803C0220021184611F07BFF7B6888
:103670001B687D4A934240F0F2804FF480524FF035
:103680000003C7E906230023BB6707F118031846A8
:1036900006F07CFC0346002B01D0FEF7A7F9734B24
:1036A000D3F8F030714A43F48053C2F8F0306F4BD6
:1036B000D3F8F03003F480537B617B696B4BD3F814
:1036C000E0306A4A43F00103C2F8E030674BD3F8B8
:1036D000E03003F001033B613B69644BD3F8E03019
:1036E000624A43F00803C2F8E030604BD3F8E030A0
:1036F00003F00803FB60FB685C4BD3F8E0305B4AE7
:1037000043F00203C2F8E030584BD3F8E03003F046
:103710000203BB60BB682023C7F8DC300223C7F874
:10372000E0300023C7F8E4300023C7F8E830052371
:10373000C7F8EC3007F1DC0319464D4803F050FBA5
:103740008023C7F8DC300223C7F8E0300023C7F835
:10375000E4300023C7F8E8300523C7F8EC3007F160
:10376000DC031946434803F03BFB1023C7F8DC3069
:103770000223C7F8E0300023C7F8E4300023C7F87D
:10378000E8300523C7F8EC3007F1DC0319463A4866
:1037900003F026FB394B3A4A1A60384B25225A600F
:1037A000364B00229A60354B0022DA60334B4FF4DF
:1037B00080621A61314B00225A61304B00229A61BB
:1037C0002E4B4FF48072DA612C4B4FF400321A62A8
:1037D0002A4B00225A62294801F0DCF80346002BEC
:1037E00001D0FEF703F97B68244ADA67234A7B6835
:1037F0009363244B244A1A60224B26225A60214BA1
:1038000040229A601F4B0022DA601E4B4FF4806208
:103810001A611C4B00225A611A4B00229A61194B03
:103820000022DA61174B4FF400321A62154B002266
:103830005A62144801F0AEF80346002B01D0FEF79F
:10384000D5F87B680F4A9A670E4A7B68936300221B
:103850000021232000F0F1FF232001F008F800BF31
:10386000F037BD4680BD00BF003001400044025823
:1038700000000258000C025800040258840C002476
:1038800010000240FC0C00242800024080B483B0E9
:1038900000AF0A4BD3F8F430084A43F00203C2F8F1
:1038A000F430064BD3F8F43003F002037B607B68FE
:1038B00000BF0C37BD465DF8047B704700440258DA
:1038C00080B400AF00BFFDE780B400AF00BFFDE7EC
:1038D00080B400AF00BFFDE780B400AF00BFFDE7DC
:1038E00080B400AF00BFFDE780B400AF00BFBD46AD
:1038F0005DF8047B704780B400AF00BFBD465DF843
:10390000047B704780B400AF00BFBD465DF8047B08
:10391000704780B500AF00F04FFE00BF80BD0000D3
:1039200080B500AF024802F0F5F800BF80BD00BFCF
:10393000840C002480B500AF024802F0EBF800BF11
:1039400080BD00BFFC0C002480B500AF024808F029
:10395000A7FD00BF80BD00BFFC0B002480B500AFF9
:10396000024809F0B7FF00BF80BD00BF5C0E002415
:1039700080B500AF024803F03DFD00BF80BD00BF31
:103980006814002480B400AF01231846BD465DF8DA
:10399000047B704780B582B000AF7860396011F069
:1039A000A1FE034616221A604FF0FF33184608376F
:1039B000BD4680BD80B582B000AF78604FF0FF316A
:1039C0007868FFF7E7FF00BFFDE780B586B000AF7E
:1039D000F860B9607A6000237B610AE0AFF3008091
:1039E0000146BB685A1CBA60CAB21A707B690133BF
:1039F0007B617A697B689A42F0DB7B6818461837EE
:103A0000BD4680BD80B586B000AFF860B9607A6011
:103A100000237B6109E0BB685A1CBA601B7818461A
:103A2000AFF300807B6901337B617A697B689A42DE
:103A3000F1DB7B6818461837BD4680BD80B483B083
:103A400000AF78604FF0FF3318460C37BD465DF885
:103A5000047B704780B483B000AF786039603B6806
:103A60004FF400525A60002318460C37BD465DF8EB
:103A7000047B704780B483B000AF786001231846A0
:103A80000C37BD465DF8047B704780B485B000AF4D
:103A9000F860B9607A60002318461437BD465DF8B7
:103AA000047B704780B586B000AF7860144A154B30
:103AB000D31A7B617B693B61134B1B68002B02D1DE
:103AC000114B124A1A60104B1A687B6813443A690A
:103AD0009A4207D211F006FE03460C221A604FF0FC
:103AE000FF3309E0084B1B68FB60074B1A687B68D3
:103AF0001344054A1360FB6818461837BD4680BD5D
:103B00000000082400040000740D0024B01A0024F2
:103B100080B400AF434BD3F88830424A43F470037B
:103B2000C2F88830404B1B6803F00F03062B07D800
:103B30003D4B1B6823F00F033B4A43F00703136020
:103B40003A4B1B68394A43F001031360374B00229C
:103B50001A61364B1A683549354B13400B60324BAE
:103B60001B6803F00803002B07D02F4B1B6823F0C2
:103B70000F032D4A43F0070313602C4B00229A6178
:103B80002A4B0022DA61294B00221A62274B294A6C
:103B90009A62264B284ADA62244B284A1A63234B3E
:103BA00000225A63214B254A9A63204B0022DA6394
:103BB0001E4B224A1A641D4B00225A641B4B1B6881
:103BC0001A4A23F480231360184B00221A661C4BF8
:103BD0001A681C4B1340B3F1005F02D21A4B01224A
:103BE0001A60124BD3F8D43003F48053002B13D156
:103BF0000E4BD3F8D4300D4A43F48053C2F8D4307E
:103C0000124B43F2D2021A60084BD3F8D430074A61
:103C100023F48053C2F8D43000BFBD465DF8047B66
:103C2000704700BF00ED00E0002000520044025841
:103C30007FEDF6EA000202020000FF0180020101AE
:103C40000010005C0000FFFF08810051004000529E
:103C500080B400AF094BDB68084A43F00203D3602D
:103C600000BF064B5B6803F40053002BF9D000BF84
:103C700000BFBD465DF8047B704700BF0048025896
:103C800080B596B000AF07F14C0300221A605A606D
:103C90009A6007F1300300221A605A609A60DA6075
:103CA0001A615A619A613B1D2C220021184611F0BD
:103CB00059FC4B4B4B4A1A60494B40F28F125A60E9
:103CC000474B00229A60464B40F2E732DA60444BA1
:103CD00000221A61424B00225A61414B80229A61B4
:103CE0003F4808F0E0FE0346002B01D0FDF77EFEC2
:103CF0000023FB6400233B6500237B6507F14C0335
:103D00001946374809F0B0FB0346002B01D0FDF7F8
:103D10006DFE60233B6300237B630023BB630023B2
:103D2000FB6300233B6400237B640023BB6407F137
:103D30003003002219462A4808F00CFF0346002BE6
:103D400001D0FDF753FE07F1300304221946244841
:103D500008F000FF0346002B01D0FDF747FE07F1F6
:103D60003003082219461E4808F0F4FE0346002BD3
:103D700001D0FDF73BFE07F130030C22194618482D
:103D800008F0E8FE0346002B01D0FDF72FFE0023CC
:103D90007B600023BB600023FB6000233B610023AA
:103DA0007B614FF40053BB610023FB6100233B6246
:103DB0004FF000737B620023BB620023FB623B1D5C
:103DC0001946074809F0DEFB0346002B01D0FDF73A
:103DD0000DFE034800F04EF900BF5837BD4680BDC8
:103DE000780D00240000014080B58AB000AF07F1D3
:103DF0001C0300221A605A609A603B4600221A6037
:103E00005A609A60DA601A615A619A61334B4FF0D6
:103E100080421A60314B40F28F125A602F4B0022C1
:103E20009A602E4B40F2E732DA602C4B00221A6186
:103E30002A4B80229A61294808F035FE0346002B60
:103E400001D0FDF7D3FD0023FB6100237B6207F166
:103E50001C031946214809F007FB0346002B01D03B
:103E6000FDF7C4FD60233B6000237B600023BB6043
:103E700000233B613B4600221946184808F06AFEC1
:103E80000346002B01D0FDF7B1FD3B460422194645
:103E9000124808F05FFE0346002B01D0FDF7A6FD97
:103EA0003B46082219460D4808F054FE0346002BF5
:103EB00001D0FDF79BFD3B460C221946074808F050
:103EC00049FE0346002B01D0FDF790FD034800F0AA
:103ED000D1F800BF2837BD4680BD00BFC40D002407
:103EE00080B58AB000AF07F11C0300221A605A6047
:103EF0009A603B4600221A605A609A60DA601A6142
:103F00005A619A61324B334A1A60314B40F28F1238
:103F10005A602F4B00229A602D4B40F2E732DA6054
:103F20002B4B00221A612A4B80229A61284808F004
:103F3000BAFD0346002B01D0FDF758FD0023FB61BD
:103F400000237B6207F11C031946214809F08CFA13
:103F50000346002B01D0FDF749FD60233B600023A1
:103F60007B600023BB6000233B613B460022194677
:103F7000174808F0EFFD0346002B01D0FDF736FD92
:103F80003B4604221946124808F0E4FD0346002B84
:103F900001D0FDF72BFD3B46082219460C4808F0DE
:103FA000D9FD0346002B01D0FDF720FD3B460C2236
:103FB0001946074808F0CEFD0346002B01D0FDF757
:103FC00015FD034800F056F800BF2837BD4680BDF8
:103FD000100E00240004004080B487B000AF786069
:103FE0007B681B68204A93420FD1204BD3F8F030F6
:103FF0001E4A43F00103C2F8F0301C4BD3F8F030F6
:1040000003F001037B617B6928E07B681B68B3F1E7
:10401000804F0FD1154BD3F8E830144A43F0010319
:10402000C2F8E830114BD3F8E83003F001033B61EC
:104030003B6913E07B681B680D4A93420ED10B4B22
:10404000D3F8E830094A43F00203C2F8E830074BDE
:10405000D3F8E83003F00203FB60FB6800BF1C37B5
:10406000BD465DF8047B70470000014000440258E3
:104070000004004080B58CB000AF786007F11C03ED
:1040800000221A605A609A60DA601A617B681B68C5
:10409000474A934220D1474BD3F8E030454A43F09A
:1040A0001003C2F8E030434BD3F8E03003F01003C4
:1040B000BB61BB694FF4D443FB6102233B62002325
:1040C0007B620023BB620123FB6207F11C031946DC
:1040D000394802F085FE67E07B681B68B3F1804FCA
:1040E0001FD1344BD3F8E030324A43F00103C2F819
:1040F000E030304BD3F8E03003F001037B617B69A3
:104100000F23FB6102233B6200237B620023BB621F
:104110000123FB6207F11C031946284802F060FEE8
:1041200042E07B681B68264A93423DD1214BD3F87D
:10413000E030204A43F00103C2F8E0301D4BD3F8D1
:10414000E03003F001033B613B691A4BD3F8E030E8
:10415000184A43F00203C2F8E030164BD3F8E030BF
:1041600003F00203FB60FB68C023FB6102233B6298
:1041700000237B620023BB620223FB6207F11C0366
:1041800019460E4802F02CFE0323FB6102233B621A
:1041900000237B620023BB620223FB6207F11C0346
:1041A0001946084802F01CFE00BF3037BD4680BDEE
:1041B000000001400044025800100258000002585C
:1041C000000400400004025880B500AF224B234A8F
:1041D0001A60214B4FF4E1325A601F4B00229A6063
:1041E0001D4B0022DA601C4B00221A611A4B0C2274
:1041F0005A61194B00229A61174B0022DA61164B63
:1042000000221A62144B00225A62134B00229A6257
:10421000114809F035FA0346002B01D0FDF7E6FB03
:1042200000210D480BF0ABFD0346002B01D0FDF73C
:10423000DDFB002108480BF0E0FD0346002B01D018
:10424000FDF7D4FB04480BF061FD0346002B01D0C1
:10425000FDF7CCFB00BF80BD5C0E00240044004095
:1042600080B500AF224B234A1A60214B4FF4E13254
:104270005A601F4B00229A601D4B0022DA601C4BD3
:1042800000221A611A4B0C225A61194B00229A61C2
:10429000174B0022DA61164B00221A62144B0022DF
:1042A0005A62134B00229A62114809F0E9F9034659
:1042B000002B01D0FDF79AFB00210D480BF05FFDAC
:1042C0000346002B01D0FDF791FB002108480BF0BD
:1042D00094FD0346002B01D0FDF788FB04480BF04A
:1042E00015FD0346002B01D0FDF780FB00BF80BD0C
:1042F000F00E00240048004080B5BCB000AF7860EC
:1043000007F1DC0300221A605A609A60DA601A61D1
:1043100007F11803C0220021184611F023F97B6829
:104320001B68514A93424ED14FF002024FF00003F6
:10433000C7E906230023C7F8903007F11803184691
:1043400005F024FE0346002B01D0FDF74FFB474B41
:10435000D3F8E830454A43F40033C2F8E830434B21
:10436000D3F8E83003F400337B617B693F4BD3F82B
:10437000E0303E4A43F00803C2F8E0303B4BD3F84C
:10438000E03003F008033B613B696023C7F8DC3091
:104390000223C7F8E0300023C7F8E4300023C7F851
:1043A000E8300723C7F8EC3007F1DC031946304842
:1043B00002F016FD00220021262000F03EFA262001
:1043C00000F055FA4BE07B681B682A4A934246D1BD
:1043D0004FF002024FF00003C7E906230023C7F89D
:1043E000903007F11803184605F0D0FD0346002B66
:1043F00001D0FDF7FBFA1D4BD3F8E8301B4A43F41C
:104400008023C2F8E830194BD3F8E83003F4802356
:10441000FB60FB68154BD3F8E030144A43F002030D
:10442000C2F8E030114BD3F8E03003F00203BB6078
:10443000BB684FF44063C7F8DC300223C7F8E030B4
:104440000023C7F8E4300023C7F8E8300723C7F893
:10445000EC3007F1DC031946074802F0C1FC00BF4D
:10446000F037BD4680BD00BF004400400044025804
:10447000000C02580048004000040258DFF838D011
:10448000FFF7E6FBFFF744FB0C480D490D4A0023FC
:1044900002E0D458C4500433C4188C42F9D30A4AF9
:1044A0000A4C002301E013600432A242FBD311F056
:1044B0001FF9FDF77FF97047000008240000002471
:1044C00050030024B092010850030024AC1A0024C9
:1044D000FEE7000080B582B000AF032000F0A2F933
:1044E00005F07EFB0246154B9B691B0A03F00F0388
:1044F0001349CB5C03F01F0322FA03F37B600F4BDD
:104500009B6903F00F030E4AD35C03F01F037A6824
:1045100022FA03F30B4A13600B4A7B6813600F20E7
:1045200000F014F80346002B01D0012302E0FFF74E
:10453000ADF9002318460837BD4680BD0044025837
:10454000DC8D0108680000246400002480B582B07E
:1045500000AF7860154B1B78002B01D1012321E0BF
:10456000134B1A68114B1B7819464FF47A73B3FB3F
:10457000F1F3B2FBF3F3184600F087F90346002B82
:1045800001D001230EE07B680F2B0AD80022796846
:104590004FF0FF3000F051F9064A7B6813600023AA
:1045A00000E0012318460837BD4680BD7000002496
:1045B000640000246C00002480B400AF064B1B781C
:1045C0001A46064B1B681344044A136000BFBD46DD
:1045D0005DF8047B704700BF70000024840F002446
:1045E00080B400AF034B1B681846BD465DF8047BE2
:1045F000704700BF840F002480B584B000AF78609E
:10460000FFF7EEFFB8607B68FB60FB68B3F1FF3F2C
:1046100005D00A4B1B781A46FB681344FB6000BFA9
:10462000FFF7DEFF0246BB68D31AFA689A42F7D852
:1046300000BF00BF1037BD4680BD00BF7000002422
:1046400080B400AF034B1B681B0C1846BD465DF8D9
:10465000047B70470010005C80B483B000AF7860CA
:104660003960074B5A687B68DB431A4004493B6852
:1046700013434B6000BF0C37BD465DF8047B7047A9
:104680000004005880B485B000AF78607B6803F008
:104690000703FB600B4BDB68BB60BA684FF6FF0398
:1046A0001340BB60FB681A02BB681A43064B1343F6
:1046B000BB60044ABB68D36000BF1437BD465DF8D9
:1046C000047B704700ED00E00000FA0580B400AF05
:1046D000044BDB681B0A03F007031846BD465DF870
:1046E000047B704700ED00E080B483B000AF034668
:1046F000FB80B7F90630002B0BDBFB8803F01F02B1
:104700000749B7F906305B09012000FA02F241F8C7
:10471000232000BF0C37BD465DF8047B704700BF07
:1047200000E100E080B483B000AF03463960FB8055
:10473000B7F90630002B0ADB3B68DAB20C49B7F94F
:1047400006301201D2B20B4483F800230AE03B6822
:10475000DAB20849FB8803F00F03043B1201D2B21E
:104760000B441A7600BF0C37BD465DF8047B7047DA
:1047700000E100E000ED00E080B489B000AFF86037
:10478000B9607A60FB6803F00703FB61FB69C3F162
:104790000703042B28BF0423BB61FB690433062BEA
:1047A00002D9FB69033B00E000237B614FF0FF323D
:1047B000BB6902FA03F3DA43BB681A407B699A408B
:1047C0004FF0FF317B6901FA03F3D9437B680B405B
:1047D000134318462437BD465DF8047B704700003C
:1047E00080B582B000AF78607B68013BB3F1807F19
:1047F00001D301230FE00A4A7B68013B53600F217C
:104800004FF0FF30FFF78EFF054B00229A60044BFC
:1048100007221A60002318460837BD4680BD00BF36
:1048200010E000E080B582B000AF78607868FFF7F4
:1048300029FF00BF0837BD4680BD80B586B000AFF8
:104840000346B9607A60FB81FFF740FF78617A68C0
:10485000B9687869FFF790FF0246B7F90E30114644
:104860001846FFF75FFF00BF1837BD4680BD80B513
:1048700082B000AF0346FB80B7F906301846FFF759
:1048800033FF00BF0837BD4680BD80B582B000AFA2
:1048900078607868FFF7A4FF034618460837BD46DE
:1048A00080BD000080B400AFBFF35F8F00BF074B37
:1048B0005B6A064A23F480335362054B00225A6038
:1048C00000BFBD465DF8047B704700BF00ED00E00F
:1048D00090ED00E080B483B000AF78600B4A7B6855
:1048E00043F0010353600A4B5B6A094A43F4803387
:1048F0005362BFF34F8F00BFBFF36F8F00BF00BF86
:104900000C37BD465DF8047B704700BF90ED00E0BA
:1049100000ED00E080B483B000AF78607B685A7827
:104920001B4B9A601A4B1B69194A23F00103136150
:10493000174A7B685B68D3607B681B7B1A077B68C0
:10494000DB7A1B061A437B689B7ADB041A437B687D
:104950005B7B9B041A437B689B7B5B041A437B68ED
:10496000DB7B1B041A437B685B7A1B021A437B6860
:104970001B7A5B0013437A6812781146044A0B4392
:10498000136100BF0C37BD465DF8047B704700BF64
:1049900090ED00E080B586B000AF7860FFF720FEB4
:1049A00038617B68002B01D1012316E37B681B680B
:1049B000664A93424AD07B681B68654A934245D059
:1049C0007B681B68634A934240D07B681B68624ADD
:1049D00093423BD07B681B68604A934236D07B6829
:1049E0001B685F4A934231D07B681B685D4A9342E3
:1049F0002CD07B681B685C4A934227D07B681B687D
:104A00005A4A934222D07B681B68594A93421DD070
:104A10007B681B68574A934218D07B681B68564ACC
:104A2000934213D07B681B68544A93420ED07B6834
:104A30001B68534A934209D07B681B68514A9342D2
:104A400004D07B681B68504A934201D1012300E0E7
:104A50000023002B00F03B817B68022283F8352085
:104A60007B68002283F834207B681B68374A9342B6
:104A70004AD07B681B68364A934245D07B681B68E6
:104A8000344A934240D07B681B68334A93423BD000
:104A90007B681B68314A934236D07B681B68304A7A
:104AA000934231D07B681B682E4A93422CD07B689E
:104AB0001B682D4A934227D07B681B682B4A934280
:104AC00022D07B681B682A4A93421DD07B681B68F2
:104AD000284A934218D07B681B68274A934213D018
:104AE0007B681B68254A93420ED07B681B68244A6A
:104AF000934209D07B681B68224A934204D07B68AA
:104B00001B68214A934208D17B681B681A687B683E
:104B10001B6822F001021A6007E07B681B681A68B4
:104B20007B681B6822F001021A602FE0FFF758FD36
:104B300002463B69D31A052B28D97B6820225A6587
:104B40007B68032283F83520012346E210000240EF
:104B5000280002404000024058000240700002401D
:104B600088000240A0000240B80002401004024049
:104B700028040240400402405804024070040240ED
:104B800088040240A0040240B80402407B681B680D
:104B90001B6803F00103002BC8D17B681B681B68EE
:104BA0007B617A69834B13407B617B689A687B6881
:104BB000DB681A437B681B691A437B685B691A438D
:104BC0007B689B691A437B68DB691A437B681B6AB5
:104BD00013437A6913437B617B685B6A042B07D1BB
:104BE0007B68DA6A7B681B6B13437A6913437B61CA
:104BF000714B1A68714B1340B3F1005F28D37B6887
:104C00005B68282B03D97B685B682E2B17D97B68E0
:104C10005B683E2B03D97B685B68422B0FD97B68AE
:104C20005B68462B03D97B685B68482B07D97B6898
:104C30005B684E2B05D97B685B68522B01D801233A
:104C400000E00023002B03D07B6943F480137B61D9
:104C50007B681B687A691A607B681B685B697B618B
:104C60007B6923F007037B617B685B6A7A69134386
:104C70007B617B685B6A042B17D17B689B6A7A69CE
:104C800013437B617B68DB6A002B0ED0786801F0F0
:104C90001DFF0346002B08D07B6840225A657B68C5
:104CA000012283F83520012397E17B681B687A692C
:104CB0005A61786801F058FE0346BB607B68DB6D83
:104CC00003F01F033F229A40BB689A60CDE07B68E7
:104CD0001B683B4A934222D07B681B68394A934247
:104CE0001DD07B681B68384A934218D07B681B68CC
:104CF000364A934213D07B681B68354A93420ED0E4
:104D00007B681B68334A934209D07B681B68324A30
:104D1000934204D07B681B68304A934201D101233F
:104D200000E00023002B00F097807B681B68244A7A
:104D3000934221D07B681B68224A93421CD07B6837
:104D40001B68214A934217D07B681B681F4A934215
:104D500012D07B681B681E4A93420DD07B681B688B
:104D60001C4A934208D07B681B681B4A934203D0BD
:104D70007B681B68194A93427B68022283F83520BE
:104D80007B68002283F834207B681B681B687B618A
:104D90007A69134B13407B617B689B68402B21D061
:104DA0007B689B68802B02D14FF480431BE000237B
:104DB00019E000BF3F8010FE0010005C0000FFFF04
:104DC000085402581C540258305402584454025893
:104DD000585402586C540258805402589454025843
:104DE0000F00FEFF10237A68D268D2081A437B684E
:104DF0001B69DB081A437B685B69DB081A437B6825
:104E00009B69DB081A437B68DB69DB081A437B6814
:104E10001B6A1B0913437A6913437B617B681B6818
:104E20007A691A607B681B681A466E4B13446E4A97
:104E3000A2FB03231B099A007B68DA65786801F0FE
:104E400093FD0346FB607B68DB6D03F01F030122CB
:104E50009A40FB685A6008E07B6840225A657B688C
:104E6000032283F835200123B7E07B681B685F4A83
:104E7000934272D07B681B685D4A93426DD07B6819
:104E80001B685C4A934268D07B681B685A4A93420D
:104E900063D07B681B68594A93425ED07B681B686D
:104EA000574A934259D07B681B68564A934254D064
:104EB0007B681B68544A93424FD07B681B68534AF7
:104EC00093424AD07B681B68514A934245D07B6825
:104ED0001B68504A934240D07B681B684E4A9342FD
:104EE0003BD07B681B684D4A934236D07B681B6879
:104EF0004B4A934231D07B681B684A4A93422CD07C
:104F00007B681B68484A934227D07B681B68474AE6
:104F1000934222D07B681B68454A93421DD07B6830
:104F20001B68444A934218D07B681B68424A9342EC
:104F300013D07B681B68414A93420ED07B681B6884
:104F40003F4A934209D07B681B683E4A934204D093
:104F50007B681B683C4A934201D1012300E0002397
:104F6000002B32D0786801F02DFE7B689B68802B87
:104F700002D17B6800225A607B685A687B681B6E8E
:104F8000D2B21A607B685B6E7A68926E5A607B68F8
:104F90005B68002B10D07B685B68082B0CD87868A6
:104FA00001F0AAFE7B68DB6E00221A607B681B6F33
:104FB0007A68526F5A6008E07B680022DA667B6884
:104FC00000221A677B6800225A677B6800225A65B4
:104FD0007B68012283F83520002318461837BD4628
:104FE00080BD00BFF8ABFDA7CDCCCCCC10000240FB
:104FF0002800024040000240580002407000024079
:1050000088000240A0000240B800024010040240A4
:105010002804024040040240580402407004024048
:1050200088040240A0040240B80402400854025818
:105030001C540258305402584454025858540258D0
:105040006C540258805402589454025880B586B06B
:1050500000AF7860FFF7C4FA38617B68002B01D19C
:105060000123DCE27B6893F83530DBB2022B08D0F9
:105070007B6880225A657B68002283F834200123F4
:10508000CDE27B681B68764A93424AD07B681B68F6
:10509000744A934245D07B681B68734A934240D060
:1050A0007B681B68714A93423BD07B681B68704ADF
:1050B000934236D07B681B686E4A934231D07B683E
:1050C0001B686D4A93422CD07B681B686B4A9342E5
:1050D00027D07B681B686A4A934222D07B681B6892
:1050E000684A93421DD07B681B68674A934218D078
:1050F0007B681B68654A934213D07B681B68644ACF
:1051000093420ED07B681B68624A934209D07B6849
:105110001B68614A934204D07B681B685F4A9342D4
:1051200001D1012300E00023002B13D07B681B6812
:105130001A687B681B6822F01E021A607B681B6875
:105140005A697B681B6822F080025A617B681B6881
:105150007B610AE07B681B681A687B681B6822F029
:105160000E021A607B681B687B617B681B683C4A87
:10517000934272D07B681B683A4A93426DD07B6839
:105180001B68394A934268D07B681B68374A934250
:1051900063D07B681B68364A93425ED07B681B688D
:1051A000344A934259D07B681B68334A934254D0A7
:1051B0007B681B68314A93424FD07B681B68304A3A
:1051C00093424AD07B681B682E4A934245D07B6845
:1051D0001B682D4A934240D07B681B682B4A934240
:1051E0003BD07B681B682A4A934236D07B681B6899
:1051F000284A934231D07B681B68274A93422CD0BF
:105200007B681B68254A934227D07B681B68244A29
:10521000934222D07B681B68224A93421DD07B6850
:105220001B68214A934218D07B681B681F4A93422F
:1052300013D07B681B681E4A93420ED07B681B68A4
:105240001C4A934209D07B681B681B4A934204D0D6
:105250007B681B68194A934232D1012331E000BFB9
:105260001000024028000240400002405800024066
:105270007000024088000240A0000240B8000240D6
:105280001004024028040240400402405804024036
:105290007004024088040240A0040240B8040240A6
:1052A000085402581C5402583054025844540258AE
:1052B000585402586C54025880540258945402585E
:1052C0000023002B07D07B681B6E1A687B681B6E5F
:1052D00022F480721A607B681B686D4A93424AD040
:1052E0007B681B686B4A934245D07B681B686A4A9F
:1052F000934240D07B681B68684A93423BD07B68EE
:105300001B68674A934236D07B681B68654A9342A4
:1053100031D07B681B68644A93422CD07B681B6841
:10532000624A934227D07B681B68614A934222D02D
:105330007B681B685F4A93421DD07B681B685E4A8E
:10534000934218D07B681B685C4A934213D07B68F9
:105350001B685B4A93420ED07B681B68594A934294
:1053600009D07B681B68584A934204D07B681B684D
:10537000564A934208D17B681B681A687B681B6891
:1053800022F001021A6007E07B681B681A687B68DC
:105390001B6822F001021A6013E0FFF721F90246B0
:1053A0003B69D31A052B0CD97B6820225A657B6890
:1053B000032283F835207B68002283F83420012300
:1053C0002DE17B691B6803F00103002BE5D17B68AD
:1053D0001B682F4A93424AD07B681B682D4A934230
:1053E00045D07B681B682C4A934240D07B681B6881
:1053F0002A4A93423BD07B681B68294A934236D0A5
:105400007B681B68274A934231D07B681B68264A19
:1054100093422CD07B681B68244A934227D07B6838
:105420001B68234A934222D07B681B68214A93421F
:105430001DD07B681B68204A934218D07B681B688C
:105440001E4A934213D07B681B681D4A93420ED0BC
:105450007B681B681B4A934209D07B681B681A4A09
:10546000934204D07B681B68184A934201D1012300
:1054700000E00023002B2BD07B689B6DBB607B681A
:10548000DB6D03F01F033F229A40BB689A602AE05D
:105490001000024028000240400002405800024034
:1054A0007000024088000240A0000240B8000240A4
:1054B0001004024028040240400402405804024004
:1054C0007004024088040240A0040240B804024074
:1054D0007B689B6DFB607B68DB6D03F01F03012223
:1054E0009A40FB685A607B681B684F4A934272D0AF
:1054F0007B681B684D4A93426DD07B681B684C4AA1
:10550000934268D07B681B684A4A934263D07B68A9
:105510001B68494A93425ED07B681B68474A9342A6
:1055200059D07B681B68464A934254D07B681B68FD
:10553000444A93424FD07B681B68434A93424AD007
:105540007B681B68414A934245D07B681B68404A90
:10555000934240D07B681B683E4A93423BD07B68B5
:105560001B683D4A934236D07B681B683B4A934296
:1055700031D07B681B683A4A93422CD07B681B6809
:10558000384A934227D07B681B68374A934222D01F
:105590007B681B68354A93421DD07B681B68344A80
:1055A000934218D07B681B68324A934213D07B68C1
:1055B0001B68314A93420ED07B681B682F4A934286
:1055C00009D07B681B682E4A934204D07B681B6815
:1055D0002C4A934201D1012300E00023002B15D077
:1055E0007B685B6E7A68926E5A607B68DB6E002B1C
:1055F0000CD07B68DB6E1A687B68DB6E22F48072ED
:105600001A607B681B6F7A68526F5A607B68012250
:1056100083F835207B68002283F834200023184665
:105620001837BD4680BD00BF100002402800024070
:1056300040000240580002407000024088000240D2
:10564000A0000240B80002401004024028040240BA
:1056500040040240580402407004024088040240A2
:10566000A0040240B8040240085402581C540258D6
:105670003054025844540258585402586C5402583A
:10568000805402589454025880B584B000AF7860BA
:105690007B68002B01D1012337E27B6893F835301A
:1056A000DBB2022B04D07B6880225A6501232CE2F6
:1056B0007B681B685C4A93424AD07B681B685B4AE4
:1056C000934245D07B681B68594A934240D07B681F
:1056D0001B68584A93423BD07B681B68564A9342EA
:1056E00036D07B681B68554A934231D07B681B6873
:1056F000534A93422CD07B681B68524A934227D06E
:105700007B681B68504A934222D07B681B684F4AD3
:1057100093421DD07B681B684D4A934218D07B682A
:105720001B684C4A934213D07B681B684A4A9342D9
:105730000ED07B681B68494A934209D07B681B687E
:10574000474A934204D07B681B68464A934201D182
:10575000012300E00023002B00F086807B680422F8
:1057600083F835207B681B682F4A93424AD07B68B8
:105770001B682E4A934245D07B681B682C4A934293
:1057800040D07B681B682B4A93423BD07B681B68E8
:10579000294A934236D07B681B68284A934231D00D
:1057A0007B681B68264A93422CD07B681B68254A7D
:1057B000934227D07B681B68234A934222D07B68A0
:1057C0001B68224A93421DD07B681B68204A934283
:1057D00018D07B681B681F4A934213D07B681B68F4
:1057E0001D4A93420ED07B681B681C4A934209D025
:1057F0007B681B681A4A934204D07B681B68194A6D
:10580000934208D17B681B681A687B681B6822F08A
:1058100001021A6078E17B681B681A687B681B6864
:1058200022F001021A606FE11000024028000240DD
:1058300040000240580002407000024088000240D0
:10584000A0000240B80002401004024028040240B8
:1058500040040240580402407004024088040240A0
:10586000A0040240B80402407B681B681A687B6889
:105870001B6822F00E021A607B681B686C4A934218
:105880004AD07B681B686B4A934245D07B681B6893
:10589000694A934240D07B681B68684A93423BD078
:1058A0007B681B68664A934236D07B681B68654AF2
:1058B000934231D07B681B68634A93422CD07B684B
:1058C0001B68624A934227D07B681B68604A9342F8
:1058D00022D07B681B685F4A93421DD07B681B689F
:1058E0005D4A934218D07B681B685C4A934213D090
:1058F0007B681B685A4A93420ED07B681B68594AE2
:10590000934209D07B681B68574A934204D07B6856
:105910001B68564A934208D17B681B681A687B68EB
:105920001B6822F001021A6007E07B681B681A6896
:105930007B681B6822F001021A607B681B683C4A86
:10594000934272D07B681B683A4A93426DD07B6861
:105950001B68394A934268D07B681B68374A934278
:1059600063D07B681B68364A93425ED07B681B68B5
:10597000344A934259D07B681B68334A934254D0CF
:105980007B681B68314A93424FD07B681B68304A62
:1059900093424AD07B681B682E4A934245D07B686D
:1059A0001B682D4A934240D07B681B682B4A934268
:1059B0003BD07B681B682A4A934236D07B681B68C1
:1059C000284A934231D07B681B68274A93422CD0E7
:1059D0007B681B68254A934227D07B681B68244A52
:1059E000934222D07B681B68224A93421DD07B6879
:1059F0001B68214A934218D07B681B681F4A934258
:105A000013D07B681B681E4A93420ED07B681B68CC
:105A10001C4A934209D07B681B681B4A934204D0FE
:105A20007B681B68194A934232D1012331E000BFE1
:105A3000100002402800024040000240580002408E
:105A40007000024088000240A0000240B8000240FE
:105A5000100402402804024040040240580402405E
:105A60007004024088040240A0040240B8040240CE
:105A7000085402581C5402583054025844540258D6
:105A8000585402586C540258805402589454025886
:105A90000023002B28D07B681B6E1A687B681B6E66
:105AA00022F480721A607B689B6DFB607B68DB6D03
:105AB00003F01F0301229A40FB685A607B685B6E0B
:105AC0007A68926E5A607B68DB6E002B0CD07B6824
:105AD000DB6E1A687B68DB6E22F480721A607B686A
