:020000040800F2
:1000000000000824E9940008E5880008ED8800084D
:10001000F5880008FD880008058900080000000038
:100020000000000000000000000000000D89000832
:100030001B89000800000000298900083789000892
:100040003D9500083D9500083D9500083D95000848
:100050003D9500083D9500083D9500083D95000838
:100060003D9500083D9500083D950008458900082C
:10007000598900083D9500083D9500083D95000808
:100080003D9500083D9500083D9500083D95000808
:100090003D9500083D9500083D9500083D950008F8
:1000A0003D9500083D9500083D9500083D950008E8
:1000B0003D9500083D9500083D9500083D950008D8
:1000C0003D9500083D9500083D9500086D890008A4
:1000D0003D9500083D950008818900089589000834
:1000E0003D9500083D950008000000003D95000882
:1000F0003D9500083D9500083D9500083D95000898
:100100003D9500083D9500083D9500083D95000887
:100110003D9500083D9500083D9500083D95000877
:100120003D9500083D9500083D9500083D95000867
:100130003D9500083D9500083D9500083D95000857
:1001400000000000000000000000000000000000AF
:100150003D9500083D9500083D9500083D95000837
:100160003D9500083D9500083D9500083D95000827
:100170003D9500083D9500083D9500083D95000817
:100180003D9500083D9500083D9500083D95000807
:100190003D9500083D9500083D9500083D950008F7
:1001A0003D9500083D9500083D9500083D950008E7
:1001B0003D9500083D9500083D9500083D950008D7
:1001C0003D9500083D9500083D9500083D950008C7
:1001D0003D950008CD8900083D9500083D95000833
:1001E0003D9500083D9500083D9500083D950008A7
:1001F0003D9500083D9500083D9500083D95000897
:100200003D9500083D9500083D9500083D95000886
:100210003D9500083D9500083D9500083D95000876
:100220003D9500083D9500083D9500080000000040
:100230003D9500083D950008000000003D95000830
:100240003D9500083D9500083D9500083D95000846
:100250003D9500083D9500083D9500083D95000836
:100260003D9500083D9500083D9500083D95000826
:100270003D9500083D9500083D95000800000000F0
:100280003D9500083D9500083D95000800000000E0
:08029000000000003D9500088C
:1002A00010B5054C237833B9044B13B10448AFF3B0
:1002B00000800123237010BDB00300240000000063
:1002C00060D7010808B5034B1BB103490348AFF3DE
:1002D000008008BD00000000B403002460D70108BE
:1002E00010F8012B11F8013B012A28BF9A42F7D0E0
:1002F000D01A70470000000000000000000000005D
:1003000001F0FF01102A2BDB10F0070F08D010F8C6
:10031000013B013A8B422DD010F0070F42B3F6D1CA
:10032000F0B441EA012141EA014122F007047FF0E3
:1003300000070023F0E80256083C85EA010586EA3A
:10034000010685FA47F5A3FA87F586FA47F6A5FA76
:1003500087F68EB9EED1F0BC01F0FF0102F0070282
:1003600032B110F8013B013A83EA010313B1F8D12D
:100370000020704701387047002D06BF354603380E
:10038000073815F0010F07D1013015F4807F02BF47
:10039000013015F4C03F0130F0BC0138704700BF98
:1003A000034613F8012B002AFBD1181A01387047B5
:1003B00081F0004102E000BF83F0004330B54FEA16
:1003C00041044FEA430594EA050F08BF90EA020F83
:1003D0001FBF54EA000C55EA020C7FEA645C7FEA16
:1003E000655C00F0E2804FEA5454D4EB5555B8BF39
:1003F0006D420CDD2C4480EA020281EA030382EAAA
:10040000000083EA010180EA020281EA0303362D3B
:1004100088BF30BD11F0004F4FEA01314FF4801C0E
:100420004CEA113102D0404261EB410113F0004F20
:100430004FEA03334CEA133302D0524263EB4303D7
:1004400094EA050F00F0A780A4F10104D5F1200E75
:100450000DDB02FA0EFC22FA05F2801841F10001D0
:1004600003FA0EF2801843FA05F359410EE0A5F1A4
:1004700020050EF1200E012A03FA0EFC28BF4CF0D5
:10048000020C43FA05F3C01851EBE37101F000458B
:1004900007D54FF0000EDCF1000C7EEB00006EEB98
:1004A0000101B1F5801F1BD3B1F5001F0CD3490822
:1004B0005FEA30004FEA3C0C04F101044FEA445279
:1004C00012F5800F80F09A80BCF1004F08BF5FEA00
:1004D000500C50F1000041EB045141EA050130BDE0
:1004E0005FEA4C0C404141EB0101013C28BFB1F5F2
:1004F000801FE9D291F0000F04BF01460020B1FA3D
:1005000081F308BF2033A3F10B03B3F120020CDA0F
:100510000C3208DD02F1140CC2F10C0201FA0CF0ED
:1005200021FA02F10CE002F11402D8BFC2F1200C52
:1005300001FA02F120FA0CFCDCBF41EA0C01904008
:10054000E41AA2BF01EB0451294330BD6FEA040451
:100550001F3C1CDA0C340EDC04F11404C4F120023C
:1005600020FA04F001FA02F340EA030021FA04F34E
:1005700045EA030130BDC4F10C04C4F1200220FAA5
:1005800002F001FA04F340EA0300294630BD21FAE3
:1005900004F0294630BD94F0000F83F4801306BFA9
:1005A00081F480110134013D4EE77FEA645C18BF9D
:1005B0007FEA655C29D094EA050F08BF90EA020F34
:1005C00005D054EA000C04BF1946104630BD91EA2C
:1005D000030F1EBF0021002030BD5FEA545C05D12F
:1005E0004000494128BF41F0004130BD14F580046E
:1005F0003CBF01F5801130BD01F0004545F0FE41E2
:1006000041F470014FF0000030BD7FEA645C1ABF16
:10061000194610467FEA655C1CBF0B46024650EA4D
:10062000013406BF52EA033591EA030F41F4002179
:1006300030BD00BF90F0000F04BF0021704730B5FF
:100640004FF4806404F132044FF000054FF00001D4
:1006500050E700BF90F0000F04BF0021704730B595
:100660004FF4806404F1320410F0004548BF40426A
:100670004FF000013EE700BF42004FEAE2014FEABF
:1006800031014FEA02701FBF12F07F4393F07F4F9A
:1006900081F06051704732F07F4208BF704793F09D
:1006A0007F4F04BF41F40021704730B54FF46074B0
:1006B00001F0004521F000411CE700BF50EA0102B3
:1006C00008BF704730B54FF000050AE050EA01025C
:1006D00008BF704730B511F0004502D5404261EBCC
:1006E00041014FF4806404F132045FEA915C3FF40D
:1006F000D8AE4FF003025FEADC0C18BF03325FEAAA
:10070000DC0C18BF033202EBDC02C2F1200300FA5A
:1007100003FC20FA02F001FA03FE40EA0E0021FA7F
:1007200002F11444BDE600BF53B94AB9002908BF1D
:1007300000281CBF4FF0FF314FF0FF3000F0C0B970
:10074000ADF1080C6DE904CE00F03EF8DDF804E0F0
:10075000DDE9022304B0704708B502460B4643ECBE
:10076000172BB5EEC07BF1EE10FA03D4BDE80840BC
:1007700000F00AB8B1EE477B51EC170B00F004F81B
:10078000404261EB410108BD9FED0B6B41EC170B43
:100790009FED0B5B27EE066BBCEEC66BB8EE464BCF
:1007A000A4EE457BFCEEC77B16EE101A17EE900AFE
:1007B000704700BFAFF30080000000000000F03D74
:1007C000000000000000F0412DE9F047089D8E4632
:1007D00004468846002B4AD18A42174662D9B2FAAB
:1007E00082F64EB1C6F1200301FA06F820FA03F3AF
:1007F000B74043EA0808B4404FEA174E1FFA87FC97
:10080000B8FBFEF1230C0EFB118843EA084301FB01
:100810000CF29A4209D9FB1801F1FF3080F0EA800E
:100820009A4240F2E78002393B449A1AA3B2B2FBE3
:10083000FEF00EFB102243EA024300FB0CFC9C4539
:1008400009D9FB1800F1FF3280F0D6809C4540F2B8
:10085000D3803B44023840EA0140A3EB0C03002163
:100860001DB1F3400022C5E90032BDE8F0878B429C
:1008700005D90DB1C5E9000100210846F5E7B3FA35
:1008800083F1002946D1734502D3824200F20581EB
:10089000841A6EEB030201209046002DE5D0C5E9D5
:1008A0000048E2E7002A00F09080B2FA82F6002EBB
:1008B00040F0A4808A1A030C4FEA174E80B2BCB2F3
:1008C0000121B2FBFEFC0EFB1C2243EA024304FBA7
:1008D0000CF29A4207D9FB180CF1FF3802D29A4267
:1008E00000F2E080C4469B1AB3FBFEF20EFB12330B
:1008F00040EA034302FB04F49C4207D9FB1802F1CF
:10090000FF3002D29C4200F2CA8002461B1B42EA20
:100910000C40A5E7C1F120068B4022FA06F71F43E1
:100920000EFA01F420FA06F32EFA06FE4FEA1749F2
:10093000234300FA01F81FFA87FCBEFBF9F01C0CF8
:1009400009FB10EE44EA0E4400FB0CFEA64502FA39
:1009500001F209D93C1900F1FF3A80F09C80A645CC
:1009600040F2998002383C44A4EB0E041FFA83FE47
:10097000B4FBF9F309FB13444EEA044403FB0CFCFB
:10098000A44508D93C1903F1FF3E80F08280A445BC
:100990007FD9023B3C4443EA0040A4EB0C04A0FB9B
:1009A00002EC64457346E14662D35FD05DB1B8EBBB
:1009B000030264EB090404FA06F622FA01F31E436B
:1009C000CC40C5E9006400214FE7B1FBF2FC010C0B
:1009D00041EA0E4180B240EA01423B4638463C467D
:1009E000B846BE462026B1FBF7F1A2EB080241EA69
:1009F0000C4166E7014618E710462CE7C6F12002D5
:100A00002EFA02F3B740B14020FA02F24FEA174E35
:100A10000A43B3FBFEF8BCB20EFB1833110C41EADB
:100A2000034108FB04F9B04089454FEA104380B206
:100A30003ED9791808F1FF3C01D289451FD8A1EBB6
:100A40000901B1FBFEF909FB04F80EFB191192B282
:100A500042EA0142424529D2BA1809F1FF31C4D213
:100A60004245C2D2A9F102013A44BEE7F0459DD207
:100A7000BEEB02036CEB070C0138E14696E7A7EBEF
:100A800009094944A8F1020CB1FBFEF909FB04F87D
:100A9000DBE773467FE7504666E70846FDE63B44E2
:100AA000023A33E7ACF1020C3B441CE749469CE7B1
:100AB000A1EB0901C446B1FBFEF909FB04F8C4E748
:100AC000704700BF80B485B000AF786039607B6844
:100AD000002B02D03B68002B01D1012356E07A683D
:100AE0003B689A420DD1002350E07B681B78002BB5
:100AF00001D100234AE07B6801337B603B6801330E
:100B00003B607B681B78FB73FB7B0133224A1344F9
:100B10001B7803F00303012B03D1FB7B03F12002BD
:100B200000E0FA7B3B681B78BB73BB7B01331A493F
:100B30000B441B7803F00303012B02D1BB7B203352
:100B400000E0BB7B9A42D0D07B681B787B737B7BB9
:100B50000133114A13441B7803F00303012B03D123
:100B60007B7B03F1200200E07A7B3B681B783B73C0
:100B70003B7B013308490B441B7803F00303012B33
:100B800002D13B7B203300E03B7BD31A184614375D
:100B9000BD465DF8047B704720EE010880B584B047
:100BA00000AF78607B681B6828209847F860FB6876
:100BB000002B04D028220021F86819F0ABFFFB6855
:100BC00018461037BD4680BD80B584B000AF786050
:100BD0000023FB603DE07B681B68FB607B68DB6893
:100BE00003F48073002B08D17B689B68002B04D032
:100BF0007B689B681846FFF7E7FF7B68DB6803F4B8
:100C00008073002B0CD17B681B69002B08D0154B1F
:100C10005B687A681269104698477B6800221A61FF
:100C20007B68DB6803F40073002B0CD17B681B6AC4
:100C3000002B08D00B4B5B687A68126A1046984705
:100C40007B6800221A62074B5B6878689847FB68EC
:100C50007B607B68002BBED100BF00BF1037BD4654
:100C600080BD00BF0000002480B400AF2E231846D2
:100C7000BD465DF8047B704780B58CB000AF7860EE
:100C800039604FF000024FF00003C7E9062300234C
:100C9000FB60FFF7E9FF0346FB750023FB620023BF
:100CA000BB6200237B623B68002B03D03B681B6860
:100CB000002B01D10023C0E00023FB6230E03B6841
:100CC0001A683B689968FB6A0B4413441B78452BF0
:100CD00017DC2B2B30DB2B3B01229A405E4B134061
:100CE000002B14BF01230023DBB2002B0BD102F039
:100CF0000803002B14BF01230023DBB2002B06D115
:100D00001AE0652B18D1BB6A0133BB6205E0BB6AF0
:100D10000133BB6201237B6200BFFB6A0133FB62CC
:100D20003B68002B0AD03B689A68FB6A1A443B6810
:100D30005B689A42C3D301E000BF00E000BF3B689C
:100D40001B69BA6A01321046984738613B69002B2B
:100D500001D1002371E03B681A683B689B6813442B
:100D6000BA6A1946386919F0D2FF3A69BB6A134466
:100D700000221A707B6A002B14D00023FB620DE066
:100D80003A69FB6A13441B782E2B04D13A69FB6A3B
:100D90001344FA7D1A70FB6A0133FB62FA6ABB6A7C
:100DA0009A42EDD307F10C031946386918F0D4FDC7
:100DB00087ED060BFB683A699A4205D13B685B698F
:100DC00038699847002338E07968D7E90623C1E9F4
:100DD000062397ED067B9FED1C6BB4EEC67BF1EE10
:100DE00010FA04DB7B686FF000425A6115E097ED62
:100DF000067B9FED176BB4EEC67BF1EE10FA04D8BC
:100E00007B684FF000425A6107E097ED067BFDEEEC
:100E1000C77B17EE902A7B685A617B680822DA60EC
:100E20003B689B68F9683A698A1A1A443B689A6079
:100E30003B685B6938699847012318463037BD46DF
:100E400080BD00BFAFF300800000C0FFFFFFDF41A7
:100E5000000000000000E0C1E57F000480B485B020
:100E600000AF78600023FB600023BB600023BB6001
:100E70004CE07A68BB6813441B782F2B0FD97A6833
:100E8000BB6813441B78392B09D87A68BB681344B4
:100E90001B781A46FB681344303BFB602DE07A68F0
:100EA000BB6813441B78402B0FD97A68BB68134486
:100EB0001B78462B09D87A68BB6813441B781A46FE
:100EC000FB681344373BFB6017E07A68BB68134448
:100ED0001B78602B0FD97A68BB6813441B78662B8C
:100EE00009D87A68BB6813441B781A46FB68134418
:100EF000573BFB6001E000230CE0BB68022B02D8EB
:100F0000FB681B01FB60BB680133BB60BB68032B44
:100F1000AFD9FB6818461437BD465DF8047B7047AF
:100F200080B58AB000AFF860B9607A6000237B6258
:100F30000023FB61FB68BB61002387F8233000239B
:100F400087F82230002387F82130002387F82030EB
:100F5000BA68BB69D31A052B40F3B780BB6902336B
:100F60001846FFF77BFFF861FB69B3F55C4F04D3CC
:100F7000FB69B3F5604FC0F0AA80FB69B3F5584F29
:100F800037D3FB69B3F55C4F33D2BB6906337B6162
:100F900000233B610C2387F82130BA687B69D31AA0
:100FA000052B40F396807B691B785C2B40F0938087
:100FB0007B6901331B78752B40F08D807B69023390
:100FC0001846FFF74BFF38613B69B3F55C4FC0F043
:100FD00084803B69B3F5604F7FD2FB699A02434B33
:100FE00013403A69C2F30902134303F580337B626D
:100FF00004E0062387F82130FB697B627B6A7F2B44
:1010000003D8012387F823301FE07B6AB3F5006F14
:1010100006D2022387F82330C02387F8203014E05B
:101020007B6AB3F5803F06D2032387F82330E023A1
:1010300087F8203009E07B6AB3F5881F4FD204237C
:1010400087F82330F02387F8203097F82330013BCE
:1010500087F8223015E07B6ADBB203F03F03DAB297
:101060007B68196897F822300B4462F07F02D2B295
:101070001A707B6A9B097B6297F82230013B87F8E4
:10108000223097F82230002BE5D197F82330012B3E
:1010900009D97B6AD9B27B681B6897F820200A437C
:1010A000D2B21A7007E07B6ADAB27B681B6802F082
:1010B0007F02D2B21A707B681A6897F823301A44FC
:1010C0007B681A6097F821300BE000BF08E000BF92
:1010D00006E000BF04E000BF02E000BF00E000BF88
:1010E000002318462837BD4680BD00BF00FC0F0016
:1010F00080B58AB000AF786039603B681A683B6899
:101100009B68013313447B623B681A683B689B68A9
:10111000013313443B620023FB600023FB613B6807
:101120001A683B689B6813441B78222B40F00381AC
:1011300000233B610023BB6117E03B6A1B785C2BFB
:1011400010D13B6A5A1C3B681B68D31A1A463B688D
:101150005B689A4280F0F180BB690133BB613B6AF6
:1011600001333B623B6A01333B623B681B683A6A6E
:10117000D31A1A463B685B689A4203D23B6A1B78D3
:10118000222BDAD13B681B683A6AD31A1A463B68AD
:101190005B689A4280F0D3803B6A1B78222B40F038
:1011A000CE803B681A683B689B6813443A6AD31A3E
:1011B0001A46BB69D31A3B613B681B693A69013225
:1011C00010469847F861FB69002B00F0BA80FB6974
:1011D000FB6094E07B6A1B785C2B08D07A6A531C16
:1011E0007B62FB68591CF96012781A7087E0022351
:1011F000FB753A6A7B6AD31A002B40F3A4807B6AA2
:1012000001331B78752B00F3A0805C2B04DA222BB2
:101210005CD02F2B5AD098E05C3B192B00F29580C4
:1012200001A252F823F000BFCD1200084B130008B2
:101230004B1300084B1300084B1300084B13000816
:10124000911200084B1300084B1300084B130008C1
:101250009D1200084B1300084B1300084B130008A5
:101260004B1300084B1300084B1300084B130008E6
:10127000A91200084B1300084B1300084B13000879
:10128000B51200084B130008C1120008DD12000857
:10129000FB685A1CFA6008221A702CE0FB685A1C82
:1012A000FA600C221A7026E0FB685A1CFA600A22C7
:1012B0001A7020E0FB685A1CFA600D221A701AE0BE
:1012C000FB685A1CFA6009221A7014E07B6A5A1CE7
:1012D000FB68591CF96012781A700CE007F10C03D6
:1012E0001A46396A786AFFF71BFE0346FB75FB7DD9
:1012F000002B2CD000BFFB7D7A6A13447B627A6A94
:101300003B6A9A42FFF466AFFB6800221A707B6862
:101310001022DA607B68FA691A613B681B683A6AD6
:10132000D31A1A463B689A603B689B685A1C3B6814
:101330009A60012320E000BF0AE000BF08E000BF80
:1013400006E000BF04E000BF02E000BF00E000BF15
:10135000FB69002B05D03B685B69F869984700235F
:10136000FB617B6A002B06D03B681B687A6AD31A44
:101370001A463B689A60002318462837BD4680BD50
:1013800080B483B000AF78607B68002B03D07B68AB
:101390001B68002B01D100232CE07B68002B05D0BB
:1013A0007B689A687B685B689A4206D37B6821E019
:1013B0007B689B685A1C7B689A607B68002B0DD009
:1013C0007B689A687B685B689A4207D27B681A6878
:1013D0007B689B6813441B78202BE9D97B689A684B
:1013E0007B685B689A4204D17B689B685A1E7B6865
:1013F0009A607B6818460C37BD465DF8047B7047E1
:1014000080B582B000AF78607B68002B07D07B6826
:101410001B68002B03D07B689B68002B01D0002346
:101420001CE07B68002B18D07B689B681A1D7B68CA
:101430005B689A4211D27B681A687B689B68134488
:1014400003220849184619F06DFB0346002B04D10E
:101450007B689B68DA1C7B689A607B681846083753
:10146000BD4680BDB0D7010880B586B000AFF8603A
:10147000B9607A60FB68002B01D100230CE0F868AA
:10148000FEF78EFF034601337B617B68BA6879699A
:10149000F86800F005F8034618461837BD4680BDC9
:1014A00080B58EB000AFF860B9607A603B6007F13C
:1014B000180300221A605A609A60DA601A615A6151
:1014C0009A6100237B63414B00221A603F4B00224C
:1014D0005A60FB68002B42D0BB68002B3FD0FB68F2
:1014E000BB61BB68FB6100233B62394A07F12803FB
:1014F00007CA83E807003648FFF750FB78637B6B29
:10150000002B2ED007F118031846FFF779FF03468A
:101510001846FFF735FF03461946786B00F068F868
:101520000346002B1FD03B68002B0ED007F1180399
:101530001846FFF725FF3A6AFB699A4215D2BA6945
:101540003B6A13441B78002B0FD17B68002B04D01F
:10155000BA693B6A1A447B681A607B6B31E000BF52
:1015600004E000BF02E000BF00E000BF7B6B002B87
:1015700002D0786BFFF728FBFB68002B20D0FB68BC
:101580003B6100237B613A6AFB699A4202D23B6A63
:101590007B6105E0FB69002B02D0FB69013B7B61AD
:1015A0007B68002B04D03A697B691A447B681A6017
:1015B000064B1A4607F1100393E8030082E8030084
:1015C000002318463837BD4680BD00BFCC03002439
:1015D0000000002480B582B000AF786000220021B6
:1015E0007868FFF741FF034618460837BD4680BDBF
:1015F00080B582B000AF786039603B68002B03D0C3
:101600003B681B68002B01D10023D2E03B68002B14
:101610001DD03B689B681A1D3B685B689A4216D8D0
:101620003B681A683B689B68134404226349184668
:1016300019F078FA0346002B09D17B680422DA609E
:101640003B689B681A1D3B689A600123B1E03B68C8
:10165000002B1DD03B689B685A1D3B685B689A4213
:1016600016D83B681A683B689B68134405225449A6
:10167000184619F057FA0346002B09D17B6801225E
:10168000DA603B689B685A1D3B689A60012390E0D2
:101690003B68002B20D03B689B681A1D3B685B6849
:1016A0009A4219D83B681A683B689B681344042225
:1016B0004449184619F036FA0346002B0CD17B68D2
:1016C0000222DA607B6801225A613B689B681A1D1E
:1016D0003B689A6001236CE03B68002B13D03B68A9
:1016E0009A683B685B689A420DD23B681A683B680F
:1016F0009B6813441B78222B05D139687868FFF763
:10170000F7FC034655E03B68002B23D03B689A6802
:101710003B685B689A421DD23B681A683B689B68CD
:1017200013441B782D2B0FD03B681A683B689B68CD
:1017300013441B782F2B0DD93B681A683B689B68B4
:1017400013441B78392B05D839687868FFF794FA69
:1017500003462EE03B68002B13D03B689A683B6839
:101760005B689A420DD23B681A683B689B681344D9
:101770001B785B2B05D13968786800F025F80346A3
:1017800017E03B68002B13D03B689A683B685B68A6
:101790009A420DD23B681A683B689B6813441B78D9
:1017A0007B2B05D13968786800F0D2F8034600E059
:1017B000002318460837BD4680BD00BF84D7010806
:1017C000B4D70108BCD7010880B586B000AF7860F7
:1017D000396000237B6100233B613B68DB68B3F524
:1017E0007A7F01D30023AFE03B68DB685A1C3B687B
:1017F000DA603B681A683B689B6813441B785B2B74
:1018000040F094803B689B685A1C3B689A6038683B
:10181000FFF7B6FD3B68002B0DD03B689A683B682C
:101820005B689A4207D23B681A683B689B6813441E
:101830001B785D2B61D03B68002B05D03B689A6814
:101840003B685B689A4205D33B689B685A1E3B68BD
:101850009A6072E03B689B685A1E3B689A603B68DE
:1018600010331846FFF79AF9F860FB68002B5FD039
:101870007B69002B04D1FB687B617B693B6107E0DE
:101880003B69FA681A60FB683A695A60FB683B6119
:101890003B689B685A1C3B689A603868FFF770FD8C
:1018A00039683869FFF7A4FE0346002B42D0386838
:1018B000FFF766FD3B68002B0DD03B689A683B68DC
:1018C0005B689A4207D23B681A683B689B6813447E
:1018D0001B782C2BC3D03B68002B2DD03B689A681B
:1018E0003B685B689A4227D23B681A683B689B68F2
:1018F00013441B785D2B1FD100E000BF3B68DB6801
:101900005A1E3B68DA607B69002B02D07B693A691A
:101910005A607B682022DA607B687A699A603B684B
:101920009B685A1C3B689A6001230DE000BF04E0ED
:1019300000BF02E000BF00E000BF7B69002B02D0C7
:101940007869FFF741F9002318461837BD4680BD76
:1019500080B586B000AF7860396000237B610023DA
:101960003B613B68DB68B3F57A7F01D30023F7E086
:101970003B68DB685A1C3B68DA603B68002B00F070
:10198000DB803B689A683B685B689A4280F0D48051
:101990003B681A683B689B6813441B787B2B40F0BC
:1019A000CB803B689B685A1C3B689A603868FFF79D
:1019B000E7FC3B68002B0ED03B689A683B685B688D
:1019C0009A4208D23B681A683B689B6813441B78AC
:1019D0007D2B00F098803B68002B05D03B689A680F
:1019E0003B685B689A4205D33B689B685A1E3B681C
:1019F0009A60AEE03B689B685A1E3B689A603B6801
:101A000010331846FFF7CAF8F860FB68002B00F0A7
:101A100095807B69002B04D1FB687B617B693B610E
:101A200007E03B69FA681A60FB683A695A60FB682C
:101A30003B613B68002B00F083803B689B685A1C2D
:101A40003B685B689A427BD23B689B685A1C3B6848
:101A50009A603868FFF794FC39683869FFF748FBEB
:101A60000346002B6ED03868FFF78AFC3B691A6981
:101A70003B691A623B6900221A613B68002B63D004
:101A80003B689A683B685B689A425DD23B681A681B
:101A90003B689B6813441B783A2B55D13B689B6885
:101AA0005A1C3B689A603868FFF76AFC39683869E5
:101AB000FFF79EFD0346002B48D03868FFF760FC17
:101AC0003B68002B0DD03B689A683B685B689A4284
:101AD00007D23B681A683B689B6813441B782C2B21
:101AE0008DD03B68002B33D03B689A683B685B68BD
:101AF0009A422DD23B681A683B689B6813441B7856
:101B00007D2B25D100E000BF3B68DB685A1E3B6897
:101B1000DA607B69002B02D07B693A695A607B6886
:101B20004022DA607B687A699A603B689B685A1C3D
:101B30003B689A60012313E000BF0AE000BF08E0A1
:101B400000BF06E000BF04E000BF02E000BF00E00D
:101B500000BF7B69002B02D07869FFF735F80023BE
:101B600018461837BD4680BD80B586B000AFF86016
:101B7000B9607A6000237B61FB68002B02D0BB68F0
:101B8000002B01D1002333E0FB689B687B617B68FD
:101B9000002B17D002E07B691B687B617B69002BFF
:101BA0001CD07B691B6A002B18D07B691B6A194605
:101BB000B868FEF795FB0346002BECD10EE07B697D
:101BC0001B687B617B69002B08D07B691B6A194607
:101BD000B868FEF777FF0346002BF0D17B69002B36
:101BE00003D07B691B6A002B01D1002300E07B69D5
:101BF00018461837BD4680BD80B582B000AF78600A
:101C00003960002239687868FFF7AEFF034618464E
:101C10000837BD4680BD80B483B000AF78607B6874
:101C2000002B01D1002307E07B68DB68DBB2082BC7
:101C30000CBF01230023DBB218460C37BD465DF80C
:101C4000047B704780B483B000AF78607B68002B62
:101C500001D1002307E07B68DB68DBB2102B0CBFEF
:101C600001230023DBB218460C37BD465DF8047B28
:101C70007047000080B582B000AF00237B600FE2A8
:101C8000B5497A6813469B0013441B010B4410337B
:101C90004FF000021A60B0497A6813469B00134463
:101CA0001B010B4414334FF000021A60AA497A68F2
:101CB00013469B0013441B010B44183300221A6087
:101CC000A5497A6813469B0013441B010B441C333F
:101CD000A24A1A60A0497A6813469B0013441B016C
:101CE0000B44203300221A609B497A6813469B00FC
:101CF00013441B010B44243300221A6096497A686E
:101D000013469B0013441B010B44283300221A6026
:101D100091497A6813469B0013441B010B442C33F2
:101D200000221A707A6813469B0013441B01283363
:101D3000894A1344053320220021184618F0EAFE90
:101D40007B680B2B00F2268101A252F823F000BF22
:101D5000811D0008AB1D0008D51D0008011E0008EC
:101D60002B1E0008551E00087F1E0008A91E000833
:101D7000D31E0008FF1E00082B1F0008691F000863
:101D800075497A6813469B0013441B010B440833C2
:101D9000734A1A6070497A6813469B0013441B010A
:101DA0000B440C3301221A8009E16B497A6813460F
:101DB0009B0013441B010B440833694A1A606649AF
:101DC0007A6813469B0013441B010B440C33022218
:101DD0001A80F4E060497A6813469B0013441B01A3
:101DE0000B4408335F4A1A605B497A6813469B00CC
:101DF00013441B010B440C334FF400521A80DEE0F5
:101E000055497A6813469B0013441B010B44083361
:101E1000534A1A6050497A6813469B0013441B01C9
:101E20000B440C3308221A80C9E04B497A681346E8
:101E30009B0013441B010B440833494A1A6046496E
:101E40007A6813469B0013441B010B440C33102289
:101E50001A80B4E040497A6813469B0013441B0182
:101E60000B4408333E4A1A603B497A6813469B008C
:101E700013441B010B440C3320221A809FE0364987
:101E80007A6813469B0013441B010B440833344A01
:101E90001A6031497A6813469B0013441B010B44B6
:101EA0000C3340221A808AE02B497A6813469B0043
:101EB00013441B010B440833294A1A6026497A68E7
:101EC00013469B0013441B010B440C3380221A80E1
:101ED00075E021497A6813469B0013441B010B44AB
:101EE00008331F4A1A601C497A6813469B00134442
:101EF0001B010B440C334FF480721A805FE01649CB
:101F00007A6813469B0013441B010B440833144AA0
:101F10001A6011497A6813469B0013441B010B4455
:101F20000C334FF480621A8049E00B497A681346FB
:101F30009B0013441B010B440833094A1A600649ED
:101F40007A6813469B0013441B010B440C334FF477
:101F500080521A8033E000BFD40300240000C8413F
:101F6000001002580008025852497A6813469B0034
:101F700013441B010B4408334F4A1A604D497A68D9
:101F800013469B0013441B010B440C334FF40042D7
:101F90001A8014E047497A6813469B0013441B01DA
:101FA0000B440833444A1A6042497A6813469B003E
:101FB00013441B010B440C3300221A8000BF7B68C2
:101FC000032B22DC3B497A6813469B0013441B0118
:101FD0000B443A4A1A607B68002B0BD07B68012BBC
:101FE00006D07B68022B01D1082204E00C2202E01B
:101FF000042200E000222F4879680B469B000B4426
:102000001B01034404331A6047E07B68072B22DC82
:1020100028497A6813469B0013441B010B44284A45
:102020001A607B68042B0BD07B68052B06D07B687D
:10203000062B01D1082204E00C2202E0042200E079
:1020400000221C4879680B469B000B441B0103448B
:1020500004331A6021E017497A6813469B00134441
:102060001B010B44174A1A607B68082B0BD07B6856
:10207000092B06D07B680A2B01D1082204E00C2230
:1020800002E0042200E000220A4879680B469B0027
:102090000B441B01034404331A607B6801337B60EB
:1020A0007B680B2B7FF7ECAD00BF00BF0837BD4648
:1020B00080BD00BFD403002400100258C80F0024C4
:1020C000141000246010002480B586B002AF0346CF
:1020D00087ED000AFB71FB79D7ED007AB7EEE77A5E
:1020E0008DED007B1A466149022000F0A3F9FB79CF
:1020F0000B2B00F2B580FA795D4913469B0013441F
:102100001B010B442C331B78002B40F0AB80D7ED28
:10211000007AB7EE007AF4EEC77AF1EE10FA02DD3B
:102120004FF07E533B60D7ED007ABFEE007AF4EEBD
:10213000C77AF1EE10FA01D54E4B3B60FA7913469F
:102140009B0013441B014A4A1344FB60D7ED007AFD
:10215000F5EEC07AF1EE10FA08DBFB689868FB68D0
:102160009B89002219460AF021F80DE0FB68986867
:10217000FB689B89012219460AF018F8D7ED007A0E
:10218000F1EE677AC7ED007AD7ED007A9FED3A7AE3
:1021900067EE877AFCEEE77A17EE903ABB60FB6851
:1021A0005B68002B05D1FB681B681B68BA685A6323
:1021B0002CE0FB685B68042B05D1FB681B681A6880
:1021C000BB68936322E0FB685B68082B05D1FB6862
:1021D0001B681A68BB68D36318E0FB685B680C2B4C
:1021E00005D1FB681B681A68BB6813640EE0FB68C6
:1021F0005B68102B05D1FB681B681A68BB68936588
:1022000004E0FB681B681A68BB68D365D7ED007AE9
:10221000F5EEC07AF1EE10FA02DBD7ED007A03E0BA
:10222000D7ED007AF1EE677AFB68C3ED047AFB68BC
:102230003A685A6107F00AFA0246FB689A61D7EDDC
:10224000007AF0EEE77A9FED0D7AF4EEC77AF1EEC0
:1022500010FA08DDFB689B6A5A1CFB689A6202E070
:1022600000BF00E000BF1037BD4680BDC4D70108E5
:10227000D4030024000080BF00C079440AD7233C67
:1022800080B584B000AF87ED010A0023FB6009E050
:10229000FB68DBB297ED010A1846FFF715FFFB68F4
:1022A0000133FB60FB680B2BF2DD00BF00BF103772
:1022B000BD4680BD80B500AF9FED020AFFF7E0FF8D
:1022C00000BF80BD0000000080B586B000AF0346AF
:1022D00087ED040AC7ED030A87ED021A7960FB75E2
:1022E000FB7D0B2B1AD80F4AFB7D13700D4A3B69FF
:1022F00053600C4AFB6893600A4ABB68D360094A82
:102300007B681361074B01221A7507F09FF903469A
:10231000044A9361034B0022DA6100E000BF1837E2
:10232000BD4680BD9407002480B500AF054B002258
:102330001A75044B1B789FED040A1846FFF7C4FE7C
:1023400000BF80BD940700240000000080B584B069
:1023500000AF2F4B1B7D002B55D007F077F9F860AD
:102360002B4B9B69FA68D31ABB60294B1B69BA686F
:10237000B2FBF3F37B60264BDB697A689A4243D960
:10238000234B93ED017A224BD3ED036A7B6807EE72
:10239000903AF8EE677A66EEA77A77EE277AC7ED7D
:1023A000007A1B4BD3ED037AF5EEC07AF1EE10FA0A
:1023B00009DD174BD3ED027A97ED007AB4EEE77A98
:1023C000F1EE10FA11D9124BD3ED037AF5EEC07A83
:1023D000F1EE10FA14D50E4BD3ED027A97ED007A98
:1023E000B4EEE77AF1EE10FA0ADB094B1B7897EDB1
:1023F000000A1846FFF768FE054A7B68D36103E0D0
:10240000FFF792FF00E000BF1037BD4680BD00BF60
:102410009407002480B483B000AF7860044A7B68DE
:10242000136000BF0C37BD465DF8047B704700BFEA
:10243000B40700240EB490B5ADF5107D02AF02468E
:1024400007F50E73A3F231231A70234B1B7807F59F
:102450000E72A2F2312212789A4235D81F4B1B68B5
:10246000002B31D007F5127207F50E73A3F58273B6
:102470001A6007F50E73A3F5827307F59C701B684D
:10248000D7F844224FF4807118F036FB07F0DEF8DD
:10249000024607F1080007F59C7300931346104AA3
:1024A0004FF4967118F05EFA0C4B1C6807F10803A4
:1024B0001846FDF775FF03469AB207F10801642339
:1024C000204610F097FA00E000BF07F50E77BD46F2
:1024D000BDE8904003B070470C000024B40700240E
:1024E00008D8010880B582B000AF114BD3F8D830BE
:1024F0000F4A43F00103C2F8D8300D4BD3F8D8305F
:1025000003F001037B607B68002200210B2007F0B1
:10251000CAF90B2007F0E1F9002200210C2007F096
:10252000C2F90C2007F0D9F900BF0837BD4680BDBD
:102530000044025880B58CB000AF07F11C030022A4
:102540001A605A609A60DA601A614B4BD3F8E03037
:10255000494A43F01003C2F8E030474BD3F8E0306B
:1025600003F01003BB61BB69434BD3F8E030424A30
:1025700043F00403C2F8E0303F4BD3F8E03003F0FF
:1025800004037B617B693C4BD3F8E0303A4A43F06B
:102590008003C2F8E030384BD3F8E03003F080031A
:1025A0003B613B69344BD3F8E030334A43F00103DD
:1025B000C2F8E030304BD3F8E03003F00103FB60A9
:1025C000FB682D4BD3F8E0302B4A43F00203C2F8EE
:1025D000E030294BD3F8E03003F00203BB60BB6866
:1025E000254BD3F8E030244A43F00803C2F8E0302A
:1025F000214BD3F8E03003F008037B607B680022B6
:1026000049F2FB511D4809F0D1FD00224FF4005161
:102610001B4809F0CBFD0122FF21194809F0C6FD36
:1026200049F2FB53FB6101233B6200237B620023E1
:10263000BB6207F11C031946104809F007FC42F27F
:10264000FF03FB6101233B6200237B620023BB622B
:1026500007F11C0319460A4809F0F8FB00214FF066
:10266000806007F02FF800214FF0006007F02AF893
:1026700000BF3037BD4680BD0044025800100258EC
:102680000008025880B400AF00BFBD465DF8047B6F
:102690007047000080B592B000AF78607868FEF7B0
:1026A00099FF78647B6C002B04D19B490020FFF7D5
:1026B000C1FE92E19949786CFFF79EFA38643B6C51
:1026C000002B05D0386CFFF7BDFA0346002B07D16D
:1026D00093490020FFF7AEFE786CFEF775FA7CE1B7
:1026E0003B6C1B69FB638F49F86BFDF7F9FD0346F3
:1026F000002B40F0C4808C49786CFFF77DFAF861BC
:102700008A49786CFFF778FAB8618949786CFFF7E5
:1027100073FA78618749786CFFF76EFA38618649F9
:10272000786CFFF769FAF860FB69002B00F05281C2
:10273000F869FFF787FA0346002B00F04B81BB696D
:10274000002B00F04781B869FFF765FA0346002BBC
:1027500000F040817B69002B00F03C817869FFF735
:102760005AFA0346002B00F035813B69002B00F03C
:1027700031813869FFF74FFA0346002B00F02A81B8
:10278000FB68002B00F02681F868FFF744FA034647
:10279000002B00F01F81BB695B69BB60BB68002B2D
:1027A000C0F21881BB68022B00F31481FB691B691E
:1027B00062491846FDF794FD0346002B29D17B6939
:1027C00093ED067BF7EEC77B5D4ABB689B00134425
:1027D000C3ED007A3B6993ED067BF7EEC77B584A61
:1027E000BB6802339B0013440433C3ED007AFB68DB
:1027F00093ED067BF7EEC77B514ABB6806339B001F
:102800001344C3ED007ABA684E490220FFF712FE66
:10281000E0E0FB691B694C491846FDF761FD034682
:10282000002B40F0D7807B6993ED067BF7EEC77BEA
:10283000434ABB6814339B0013440433C3ED007A4E
:102840003B6993ED067BF7EEC77B3D4ABB681833C7
:102850009B001344C3ED007AFB6893ED067BF7EE13
:10286000C77B374ABB681A339B0013440433C3ED5C
:10287000007ABA6835490220FFF7DCFDAAE0344946
:10288000F86BFDF72DFD0346002B69D13149786CBB
:10289000FFF7B2F9B8623049786CFFF7ADF97862AA
:1028A0002E49786CFFF7A8F93862BB6A002B00F05C
:1028B00091807B6A002B00F08D803B6A002B00F03A
:1028C0008980B86AFFF7A7F90346002B00F08280E1
:1028D000786AFFF7A0F90346002B7BD0386AFFF730
:1028E0009AF90346002B75D0BB6A93ED067BF7EE91
:1028F000C76B7B6A93ED067BB7EEC76B3B6A93EDC4
:10290000067BF7EEC77BB0EE671AF0EE460AB0EE34
:10291000660A02F0CDFE5DE074D8010888D801088F
:102920008CD80108A8D80108B0D80108B8D8010887
:10293000C0D80108C4D80108C8D80108CCD80108FB
:1029400010000024D0D80108E4D80108E8D8010814
:10295000FCD8010808D901080CD9010810D90108D0
:102960001F49F86BFDF7BCFC0346002B32D11D4913
:10297000786CFFF741F9B8631B49786CFFF73CF9B5
:102980007863BB6B002B25D07B6B002B22D0B86B00
:10299000FFF741F90346002B1CD0786BFFF73BF99A
:1029A0000346002B16D0BB6B5B693B637B6B93EDDF
:1029B000067BF7EEC77BC7ED0B7A3B6B002B09DB81
:1029C0003B6B0B2B06DC3B6BDBB297ED0B0A18461F
:1029D000FFF77AFB786CFEF7F7F84837BD4680BD05
:1029E00014D901081CD9010820D9010880B58EB07E
:1029F00000AFF860B9607A603B607B6893ED007A65
:102A0000FB68D3ED007A77EE677AC7ED047A7B68CE
:102A1000043393ED007AFB680433D3ED007A77EE4C
:102A2000677AC7ED057A7B68083393ED007AFB6817
:102A30000833D3ED007A77EE677AC7ED067A97ED23
:102A4000047AD7ED047A27EE277AD7ED056AD7ED19
:102A5000057A66EEA77A37EE277AD7ED066AD7EDC4
:102A6000067A66EEA77A77EE277AC7ED0D7A97EDAC
:102A70000D0A1AF0A9FC87ED0C0AD7ED0C7A9FED30
:102A80004F7AF4EEC77AF1EE10FA0DD53B6803F1F8
:102A900008024FF0000313603B68043312681A60A9
:102AA0001A683B681A6086E097ED0D7AD7ED0C7ACC
:102AB00067EE277AC7ED0B7A97ED0B7AD7ED0D7A93
:102AC00067EE277AC7ED0A7ABB6893ED007AD7EDF7
:102AD000047A27EE277ABB680433D3ED006AD7ED7A
:102AE000057A66EEA77A37EE277ABB680833D3ED0E
:102AF000006AD7ED067A66EEA77A77EE277AC7EDF9
:102B0000097AD7ED097AB0EE087A67EE876A97ED11
:102B10000A7AC6EE877AC7ED087AF7EE006A97ED73
:102B20000B7AC6EE877AC7ED077A97ED047AD7ED70
:102B3000087A27EE277ABB68D3ED006AD7ED077ACB
:102B400066EEA77A77EE677A9FED1D7A67EE877A51
:102B50003B68C3ED007A97ED057AD7ED087A27EE4A
:102B6000277ABB680433D3ED006AD7ED077A66EEA7
:102B7000A77A77EE677A3B6804339FED117A67EEA8
:102B8000877AC3ED007A97ED067AD7ED087A27EEBB
:102B9000277ABB680833D3ED006AD7ED077A66EE73
:102BA000A77A77EE677A3B6808339FED057A67EE80
:102BB000877AC3ED007A3837BD4680BDBD3786358C
:102BC00095BFD63380B59AB000AFB9607A603B60EC
:102BD0000346FB73FB7BB94A5B0113441B68FB6232
:102BE000FB7BB64A5B01134404331B683B63FB7BEE
:102BF000B24A5B01134408331B687B63BB6893EDE7
:102C0000007AD7ED0B7A37EE677ADFEDAD6AC7EE63
:102C1000267AC7ED087ABB68043393ED007AD7EDC6
:102C20000C7A37EE677ADFEDA66AC7EE267AC7ED33
:102C3000097ABB68083393ED007AD7ED0D7A37EE49
:102C4000677ADFED9F6AC7EE267AC7ED0A7A97EDBD
:102C5000087AD7ED087A27EE277AD7ED096AD7EDFB
:102C6000097A66EEA77A37EE277AD7ED0A6AD7EDAA
:102C70000A7A66EEA77A77EE277AC7ED167A97ED8D
:102C8000160A1AF0A1FB87ED150AD7ED157A9FED0C
:102C90008D7AF4EEC77AF1EE10FA1AD53B6803F19B
:102CA00008024FF0000313603B68043312681A6097
:102CB0001A683B681A603B6F03F108024FF000038B
:102CC00013603B6F043312681A601A683B6F1A6016
:102CD0008BE1D7ED167A67EEA77A97ED157A67EE56
:102CE000277AC7ED147A7B6893ED007AD7ED087ADE
:102CF00027EE277A7B680433D3ED006AD7ED097A93
:102D000066EEA77A37EE277A7B680833D3ED006A40
:102D1000D7ED0A7A66EEA77A77EE277AC7ED137AAF
:102D2000FB7B664A5B0113440C3393ED007AD7EDCD
:102D3000087A27EE277AFB7B604A5B011344103345
:102D4000D3ED006AD7ED097A66EEA77A37EE277AD7
:102D5000FB7B5A4A5B0113441433D3ED006AD7ED71
:102D60000A7A66EEA77A77EE277AC7ED127A7B6841
:102D700093ED007AFB7B514A5B0113440C33D3ED96
:102D8000007A27EE277A7B680433D3ED006AFB7B59
:102D90004A4A5B0113441033D3ED007A66EEA77AFA
:102DA00037EE277A7B680833D3ED006AFB7B434A12
:102DB0005B0113441433D3ED007A66EEA77A77EE05
:102DC000277AC7ED117AF0EE086A97ED147AC6EE0D
:102DD000877AC7ED107A00237B664DE0FB7B37498D
:102DE000DA007B6E134402339B000B44043393EDF3
:102DF000007AD7ED137A27EE277A7B6E9B007A68EC
:102E00001344D3ED006AD7ED127A66EEA77A37EE57
:102E1000277A7B6E9B0068333B44483BD3ED006AC6
:102E2000D7ED117A66EEA77A37EE277AD7ED137AC7
:102E3000F1EE046A67EEA66AD7ED127A66EEA76A2B
:102E40007B6E9B0068333B44483BD3ED007A26EE13
:102E5000A76AD7ED166AC6EE267A37EE677A7B6EDA
:102E60009B003A681344D7ED107A67EE277AC3EDDA
:102E7000007A7B6E01337B667B6E022BAEDD97EDB5
:102E8000167AD7ED157A67EE277AC7ED0F7AF7EE47
:102E9000006A97ED0F7AC6EE877AC7ED107AD7ED04
:102EA000127AB0EE087A67EE876A97ED167AC6EE68
:102EB000877AC7ED0E7A00233B662BE0D807002403
:102EC00000007A44BD3786353B6E9B0068333B4437
:102ED000483B93ED007AD7ED0E7A27EE277AFB7BFD
:102EE0004349DA003B6E134402339B000B44043326
:102EF000D3ED007A37EE677AD7ED107A67EE277A4E
:102F00003B6E9B0068333B44543BC3ED007A3B6E01
:102F100001333B663B6E022BD6DD7B68043393EDB9
:102F2000007AD7ED077A27EE277A7B680833D3ED4E
:102F3000006AD7ED067A66EEA77A77EE677A3B6F7E
:102F4000C3ED007A7B68083393ED007AD7ED057AFC
:102F500027EE277A7B68D3ED006AD7ED077A66EE15
:102F6000A77A3B6F043377EE677AC3ED007A7B680C
:102F700093ED007AD7ED067A27EE277A7B68043343
:102F8000D3ED006AD7ED057A66EEA77A3B6F08337A
:102F900077EE677AC3ED007A0023FB6522E0FB6DD4
:102FA0009B003A681344D3ED007AFB6D9B003A68AE
:102FB00013449FED107A67EE877AC3ED007AFB6DBC
:102FC0009B003A6F1344D3ED007AFB6D9B003A6F80
:102FD00013449FED087A67EE877AC3ED007AFB6DA4
:102FE0000133FB65FB6D022BD9DD6837BD4680BD23
:102FF000D807002495BFD63380B592B002AFF860F1
:10300000B9607A600023FB633BE0FB6BD8B207F149
:10301000200207F1140300931346BA68F968FFF71A
:10302000D1FD0023BB6326E0BA6B13465B0013445B
:103030001B011A467B689918BB6B9B0040333B44CD
:10304000203B1A68FB6B9B000B441A60BA6B13465B
:103050005B0013441B0190337A68D118BB6B9B0053
:1030600040333B442C3B1A68FB6B9B000B441A60BB
:10307000BB6B0133BB63BB6B022BD5DDFB6B013339
:10308000FB63FB6B0B2BC0DD4FF000037B63002366
:103090003B6320E00023FB6217E03A6B13465B00C2
:1030A00013441B011A467B681A44FB6A9B001344B5
:1030B000D3ED007AF0EEE77A97ED0D7A77EE277A86
:1030C000C7ED0D7AFB6A0133FB62FB6A0B2BE4DD73
:1030D0003B6B01333B633B6B052BDBDD97ED0D7ADF
:1030E000DFED076AC7EE267AB7EEE77A53EC172BC7
:1030F00004490220FFF79EF900BF4037BD4680BD5E
:103100000000904228D9010890B4DAB000AF07F56A
:10311000B473A3F5B273186007F5B473A3F5B47371
:1031200019600023C7F864314FE00023C7F860310D
:1031300042E0D7F8642113465B001344DB001A46D3
:1031400007F5B473A3F5B2731B681A44D7F860315E
:103150009B001344196807F5B473A3F5AE70D7F854
:10316000642113465B0013449B00D7F8602113448D
:103170009B0003441960D7F86421D7F860319A4264
:1031800002D14FF07E5101E04FF00001D7F86031DD
:103190009C1D07F5B473A3F5AE70D7F864211346F0
:1031A0005B0013449B0023449B0003441960D7F841
:1031B00060310133C7F86031D7F86031052BB8DDD5
:1031C000D7F864310133C7F86431D7F86431052B7F
:1031D000ABDD0023C7F85C3167E1D7F85C31C7F895
:1031E000583107F5B473A3F5AE72D7F85C313421CA
:1031F00001FB03F31344D3ED007AF0EEE77AC7ED59
:10320000557AD7F85C310133C7F8503137E007F50C
:10321000B473A3F5AE71D7F8502113465B00134485
:103220009B00D7F85C2113449B000B44D3ED007A3C
:10323000F0EEE77A97ED557AB4EEE77AF1EE10FA10
:1032400018D507F5B473A3F5AE71D7F8502113461E
:103250005B0013449B00D7F85C2113449B000B4494
:10326000D3ED007AF0EEE77AC7ED557AD7F8503112
:10327000C7F85831D7F850310133C7F85031D7F873
:103280005031052BC3DDD7ED557A9FEDAC7AF4EEC6
:10329000C77AF1EE10FA01D5002349E1D7F8582199
:1032A000D7F85C319A4250D00023C7F84C3148E03F
:1032B00007F5B473A3F5AE71D7F85C2113465B0034
:1032C00013449B00D7F84C2113449B000B441B680C
:1032D000C7F8343107F5B473A3F5AE71D7F85821A8
:1032E00013465B0013449B00D7F84C2113449B000A
:1032F0000B44196807F5B473A3F5AE70D7F85C21D9
:1033000013465B0013449B00D7F84C2113449B00E9
:103310000344196007F5B473A3F5AE71D7F85821CB
:1033200013465B0013449B00D7F84C2113449B00C9
:103330000B44D7F834211A60D7F84C310133C7F861
:103340004C31D7F84C310B2BB2DD07F5B473A3F534
:10335000AE72D7F85C31342101FB03F313441B68D0
:10336000C7F830310023C7F848312AE007F5B473B5
:10337000A3F5AE71D7F85C2113465B0013449B00A4
:10338000D7F8482113449B000B44D3ED006A97ED16
:103390004C7AC6EE877A07F5B473A3F5AE71D7F809
:1033A0005C2113465B0013449B00D7F8482113446B
:1033B0009B000B44C3ED007AD7F848310133C7F8BE
:1033C0004831D7F848310B2BD0DD0023C7F8443102
:1033D00062E0D7F84421D7F85C319A4257D007F51C
:1033E000B473A3F5AE71D7F8442113465B001344C0
:1033F0009B00D7F85C2113449B000B441B68C7F863
:103400002C310023C7F840313DE007F5B473A3F534
:10341000AE71D7F8442113465B0013449B00D7F8E4
:10342000402113449B000B4493ED007A07F5B473DD
:10343000A3F5AE71D7F85C2113465B0013449B00E3
:10344000D7F8402113449B000B44D3ED006AD7ED1D
:103450004B7A66EEA77A77EE677A07F5B473A3F531
:10346000AE71D7F8442113465B0013449B00D7F894
:10347000402113449B000B44C3ED007AD7F8403140
:103480000133C7F84031D7F840310B2BBDDDD7F8F9
:1034900044310133C7F84431D7F84431052B98DD66
:1034A000D7F85C310133C7F85C31D7F85C31052BB4
:1034B0007FF793AE0023C7F83C3134E00023C7F810
:1034C000383127E0D7F838319C1DD7F83C21134616
:1034D0005B001344DB001A4607F5B473A3F5B4731D
:1034E0001B68991807F5B473A3F5AE70D7F83C21A3
:1034F00013465B0013449B0023449B0003441A685B
:10350000D7F838319B000B441A60D7F838310133B3
:10351000C7F83831D7F83831052BD3DDD7F83C312F
:103520000133C7F83C31D7F83C31052BC6DD012308
:10353000184607F5B477BD4690BC7047BD37863551
:1035400080B5E4B004AF07F5C073A3F5BA73186093
:1035500007F5C073A3F5BC73196007F5C073A3F535
:10356000BE731A6007F5C073A3F5C07383ED000A3C
:1035700007F1B80390220021184617F0CBFA002378
:10358000C7F87C3161E00023C7F8783154E04FF090
:103590000003C7F874310023C7F8703132E0D7F860
:1035A0007C2113465B0013441B011A4607F5C073C8
:1035B000A3F5BA731B681A44D7F870319B00134403
:1035C00093ED007AD7F8782113465B0013441B0172
:1035D0001A4607F5C073A3F5BA731B681A44D7F8E7
:1035E00070319B001344D3ED007A67EE277A97ED94
:1035F0005D7A77EE277AC7ED5D7AD7F870310133BF
:10360000C7F87031D7F870310B2BC8DDD7F87C21A3
:1036100013465B0013445B00D7F8782113449B00EA
:1036200003F5C0733B44C83BD7F874211A60D7F840
:1036300078310133C7F87831D7F87831052BA6DD1A
:10364000D7F87C310133C7F87C31D7F87C31052BB2
:1036500099DD0023C7F86C3126E0D7F86C211346BA
:10366000DB009B1A9B0003F5C0733B44C83B93ED02
:10367000007A07F5C073A3F5C073D3ED007A67EE47
:10368000A77A77EE277AD7F86C211346DB009B1ACE
:103690009B0003F5C0733B44C83BC3ED007AD7F8E9
:1036A0006C310133C7F86C31D7F86C31052BD4DDA0
:1036B00007F1280207F1B80311461846FFF724FD69
:1036C0000346002B0DD1BB490020FEF7B3FE07F5E2
:1036D000C073A3F5BE7330220021186817F01AFAE0
:1036E00064E10023C7F8683150E007F5C073A3F523
:1036F000B872D7F868319B0013444FF000021A608B
:103700000023C7F8643138E007F5C073A3F5B87239
:10371000D7F868319B00134493ED007A07F5C07326
:10372000A3F5AC71D7F8682113465B0013445B0026
:10373000D7F8642113449B000B44D3ED006AD7F8FB
:1037400064319B0007F5C072A2F5BC721268134485
:10375000D3ED007A66EEA77A77EE277A07F5C07385
:10376000A3F5B872D7F868319B001344C3ED007A13
:10377000D7F864310133C7F86431D7F86431052BC9
:10378000C2DDD7F868310133C7F86831D7F868313E
:10379000052BAADD0023C7F8603154E0D7F860316B
:1037A0009B0007F5C072A2F5BE72126813444FF079
:1037B00000021A600023C7F85C313BE0D7F86031A3
:1037C0009B0007F5C072A2F5BE721268134493ED18
:1037D000007AD7F85C2113465B0013441B011A469C
:1037E00007F5C073A3F5BA731B681A44D7F86031A4
:1037F0009B001344D3ED006A07F5C073A3F5B872BC
:10380000D7F85C319B001344D3ED007A66EEA77ABB
:10381000D7F860319B0007F5C072A2F5BE7212683E
:10382000134477EE277AC3ED007AD7F85C31013381
:10383000C7F85C31D7F85C31052BBFDDD7F86031B4
:103840000133C7F86031D7F860310B2BA6DD4FF09C
:103850000003C7F858310023C7F8543120E0D7F8E7
:1038600054319B0007F5C072A2F5BE721268134472
:10387000D3ED007AF0EEE77AC7ED527A97ED527AFF
:10388000D7ED567AB4EEE77AF1EE10FA03DDD7F809
:103890004831C7F85831D7F854310133C7F854319B
:1038A000D7F854310B2BDADDD7ED567AB7EE007A24
:1038B000F4EEC77AF1EE10FA38DDF7EE006A97ED14
:1038C000567AC6EE877AC7ED537A0023C7F850318F
:1038D0001EE0D7F850319B0007F5C072A2F5BE720A
:1038E0001268134493ED007AD7F850319B0007F526
:1038F000C072A2F5BE7212681344D7ED537A67EE18
:10390000277AC3ED007AD7F850310133C7F8503128
:10391000D7F850310B2BDCDDD7ED537AB7EEE77AD1
:1039200053EC172B24490220FEF784FD07F5C073E2
:10393000A3F5BE731B68D3ED007AB7EEE75A07F51F
:10394000C073A3F5BE731B680433D3ED007AB7EEE2
:10395000E77A07F5C073A3F5BE731B680833D3ED90
:10396000006AB7EEE66A8DED026B8DED007B53ECDD
:10397000152B12490220FEF75DFD07F1280207F121
:10398000B80311461846FFF7BFFB0346002B0DD1C5
:103990000B490020FEF74EFD07F5C073A3F5BE737B
:1039A00030220021186817F0B5F800BF07F5C0777E
:1039B000BD4680BD40D901086CD901088CD90108E9
:1039C000B8D9010880B58EB002AFF860B9607A60EE
:1039D0003B600023FB629DE05349FA6A13465B009B
:1039E00013445B010B440C3393ED007ADFED4F6A17
:1039F000C7EE267AC7ED087A4B49FA6A13465B0090
:103A000013445B010B44103393ED007ADFED476AFA
:103A1000C7EE267AC7ED097A4349FA6A13465B0076
:103A200013445B010B44143393ED007ADFED3F6ADE
:103A3000C7EE267AC7ED0A7A07F1140307F12002D0
:103A4000B968F868FEF7D2FF97ED057AFA6A13466F
:103A50005B0013449B001A467B681344D3ED007A45
:103A6000FA6A13465B0013449B001A463B681344F2
:103A700077EE677AC3ED007A97ED067AFA6A134615
:103A80005B0013449B001A467B681344D3ED017A14
:103A9000FA6A13465B0013449B0004333A681344EC
:103AA00077EE677AC3ED007A97ED077AFA6A1346E4
:103AB0005B0013449B001A467B681344D3ED027AE3
:103AC000FA6A13465B0013449B0008333A681344B8
:103AD00077EE677AC3ED007AFB6A002B17D1D7ED3A
:103AE000057AB7EEE76AFA6A13465B0013449B0057
:103AF0001A467B681344D3ED007AB7EEE77A8DED72
:103B0000007B53EC162B0A490220FEF793FCFB6A5C
:103B10000133FB62FB6A042B7FF75EAF00BF00BF7F
:103B20003037BD4680BD00BF4C0B002400007A44F6
:103B3000D4D9010880B5A8B000AFF860B9607A6048
:103B40003B603A4BC7F8943007F158037A68B9687C
:103B5000F868FFF737FF0023C7F89C305DE0FB688B
:103B60001B68FB64FB6804331B683B65FB68083318
:103B70001B687B65D7F89C309B00A0333B44543BCB
:103B800093ED007AD7ED257A77EE277AD7F89C3037
:103B90009B00A0333B44543BC3ED007A07F1100374
:103BA00007F14C007A68B968FFF70CFF0023C7F8EB
:103BB000983029E0D7F898309B00A0333B44903BE5
:103BC00093ED007AD7F898309B00A0333B44483BF4
:103BD000D3ED007A77EE676AD7F8982013465B003A
:103BE00013449B001A463B681A4497ED257AC6EEAB
:103BF000877AD7F89C309B001344C3ED007AD7F83E
:103C000098300133C7F89830D7F898300E2BD1DDB3
:103C1000D7F89C300133C7F89C30D7F89C30022B82
:103C20009DDD00BF00BFA037BD4680BDBD378635D6
:103C300080B5F0B00AAF07F5CC73A3F5C673186072
:103C400007F5CC73A3F5C873196007F5CC73A3F51A
:103C5000CA731A6007F1800307F5CC72A2F5CA7225
:103C600007F5CC71A1F5C87107F5CC70A0F5C67049
:103C7000126809680068FFF7A5FE07F1BC0307F5A5
:103C8000CC72A2F5CA7207F5CC71A1F5C87107F51F
:103C9000CC70A0F5C670126809680068FFF74AFF8B
:103CA00007F5CC73A3F59E73184624231A4600210A
:103CB00016F030FF07F5CC73A3F5A4731A46002362
:103CC0001360536093600023C7F8943192E000239F
:103CD000C7F8903184E007F5CC73A3F5A472D7F848
:103CE00090319B00134493ED007AD7F8942113464A
:103CF0005B001344D7F8902113449B0003F5CC7369
:103D00003B44DC3BD3ED006A07F5CC73A3F58C7222
:103D1000D7F894319B001344D3ED007A66EEA77A6E
:103D200077EE277A07F5CC73A3F5A472D7F8903114
:103D30009B001344C3ED007A0023C7F88C3146E0A2
:103D400007F5CC73A3F59E71D7F8902113465B005D
:103D50001344D7F88C2113449B000B4493ED007A55
:103D6000D7F8942113465B001344D7F890211344ED
:103D70009B0003F5CC733B44DC3BD3ED006AD7F8E2
:103D8000942113465B001344D7F88C2113449B0005
:103D900003F5CC733B44DC3BD3ED007A66EEA77AA7
:103DA00077EE277A07F5CC73A3F59E71D7F89021AB
:103DB00013465B001344D7F88C2113449B000B443B
:103DC000C3ED007AD7F88C310133C7F88C31D7F8BE
:103DD0008C31022BB4DDD7F890310133C7F8903124
:103DE000D7F89031022B7FF776AFD7F894310133B3
:103DF000C7F89431D7F894310E2B7FF768AFD74BC3
:103E0000C7F874310023C7F8883128E007F5CC7370
:103E1000A3F59E72D7F888311B01134493ED007A05
:103E200007F5CC73A3F59E72D7F888311B011344B4
:103E3000D3ED006AD7ED5D7A66EEA77A77EE277A42
:103E400007F5CC73A3F59E72D7F888311B01134494
:103E5000C3ED007AD7F888310133C7F88831D7F835
:103E60008831022BD2DD07F5CC73A3F59E7393ED59
:103E7000007A07F5CC73A3F59E73D3ED046A07F5BA
:103E8000CC73A3F59E73D3ED087A66EEA76A07F5A7
:103E9000CC73A3F59E7393ED056A07F5CC73A3F578
:103EA0009E73D3ED077A66EE277A76EEE77A27EEF1
:103EB000277A07F5CC73A3F59E73D3ED016A07F556
:103EC000CC73A3F59E7393ED036A07F5CC73A3F54A
:103ED0009E73D3ED087A26EE276A07F5CC73A3F517
:103EE0009E73D3ED055A07F5CC73A3F59E73D3EDFE
:103EF000067A65EEA77A76EE677A66EEA77A37EEEF
:103F0000677A07F5CC73A3F59E73D3ED026A07F5C4
:103F1000CC73A3F59E7393ED036A07F5CC73A3F5F9
:103F20009E73D3ED077A26EE276A07F5CC73A3F5C7
:103F30009E73D3ED045A07F5CC73A3F59E73D3EDAE
:103F4000067A65EEA77A76EE677A66EEA77A77EE5E
:103F5000277AC7ED617AD7ED617AB7EEE73A07F5D0
:103F6000CC73A3F59E73D3ED007AB7EEE77A07F52D
:103F7000CC73A3F5A473D3ED006AB7EEE66A07F538
:103F8000CC73A3F5A473D3ED015AB7EEE55A07F548
:103F9000CC73A3F5A473D3ED024AB7EEE44A8DEDDA
:103FA000064B8DED045B8DED026B8DED007B53ECCC
:103FB000132B6B490220FEF73DFAD7ED617AF0EE44
:103FC000E77A9FED687AF4EEC77AF1EE10FA40F1E5
:103FD000CF8065490220FEF72DFAD7ED5D7AB2EE6B
:103FE000047A67EE877AC7ED5D7A0023C7F88031DF
:103FF00028E007F5CC73A3F59E72D7F880311B013A
:10400000134493ED007A07F5CC73A3F59E72D7F8AD
:1040100080311B011344D3ED006AD7ED5D7A66EE63
:10402000A77A77EE277A07F5CC73A3F59E72D7F8B7
:1040300080311B011344C3ED007AD7F8803101337E
:10404000C7F88031D7F88031022BD2DD07F5CC7369
:10405000A3F59E7393ED007A07F5CC73A3F59E73D9
:10406000D3ED046A07F5CC73A3F59E73D3ED087AFC
:1040700066EEA76A07F5CC73A3F59E7393ED056A08
:1040800007F5CC73A3F59E73D3ED077A66EE277A16
:1040900076EEE77A27EE277A07F5CC73A3F59E73C1
:1040A000D3ED016A07F5CC73A3F59E7393ED036A14
:1040B00007F5CC73A3F59E73D3ED087A26EE276A35
:1040C00007F5CC73A3F59E73D3ED055A07F5CC73B2
:1040D000A3F59E73D3ED067A65EEA77A76EE677A3E
:1040E00066EEA77A37EE677A07F5CC73A3F59E7371
:1040F000D3ED026A07F5CC73A3F59E7393ED036AC3
:1041000007F5CC73A3F59E73D3ED077A26EE276AE5
:1041100007F5CC73A3F59E73D3ED045A07F5CC7362
:10412000A3F59E73D3ED067A65EEA77A76EE677AED
:1041300066EEA77A77EE277AC7ED617AD7ED617AD6
:10414000F0EEE77A9FED077AF4EEC77AF1EE10FA17
:104150000ED506490220FEF76DF983E26F12833A0D
:1041600004DA0108CCBC8C2B38DA010868DA0108C3
:10417000F7EE006A97ED617AC6EE877AC7ED5C7A52
:1041800007F5CC73A3F59E7393ED047A07F5CC7312
:10419000A3F59E73D3ED087A27EE277A07F5CC7343
:1041A000A3F59E73D3ED056A07F5CC73A3F59E7353
:1041B000D3ED077A66EEA77A37EE677AD7ED5C7AA9
:1041C00067EE277A07F5CC73A3F5B673C3ED007AD3
:1041D00007F5CC73A3F59E7393ED027A07F5CC73C4
:1041E000A3F59E73D3ED077A27EE277A07F5CC73F4
:1041F000A3F59E73D3ED016A07F5CC73A3F59E7307
:10420000D3ED087A66EEA77A37EE677AD7ED5C7A57
:1042100067EE277A07F5CC73A3F5B673C3ED017A81
:1042200007F5CC73A3F59E7393ED017A07F5CC7374
:10423000A3F59E73D3ED057A27EE277A07F5CC73A5
:10424000A3F59E73D3ED026A07F5CC73A3F59E73B5
:10425000D3ED047A66EEA77A37EE677AD7ED5C7A0B
:1042600067EE277A07F5CC73A3F5B673C3ED027A30
:1042700007F5CC73A3F59E7393ED057A07F5CC7320
:10428000A3F59E73D3ED067A27EE277A07F5CC7354
:10429000A3F59E73D3ED036A07F5CC73A3F59E7364
:1042A000D3ED087A66EEA77A37EE677AD7ED5C7AB7
:1042B00067EE277A07F5CC73A3F5B673C3ED037ADF
:1042C00007F5CC73A3F59E7393ED007A07F5CC73D5
:1042D000A3F59E73D3ED087A27EE277A07F5CC7302
:1042E000A3F59E73D3ED026A07F5CC73A3F59E7315
:1042F000D3ED067A66EEA77A37EE677AD7ED5C7A69
:1043000067EE277A07F5CC73A3F5B673C3ED047A8D
:1043100007F5CC73A3F59E7393ED027A07F5CC7382
:10432000A3F59E73D3ED037A27EE277A07F5CC73B6
:10433000A3F59E73D3ED006A07F5CC73A3F59E73C6
:10434000D3ED057A66EEA77A37EE677AD7ED5C7A19
:1043500067EE277A07F5CC73A3F5B673C3ED057A3C
:1043600007F5CC73A3F59E7393ED037A07F5CC7331
:10437000A3F59E73D3ED077A27EE277A07F5CC7362
:10438000A3F59E73D3ED046A07F5CC73A3F59E7372
:10439000D3ED067A66EEA77A37EE677AD7ED5C7AC8
:1043A00067EE277A07F5CC73A3F5B673C3ED067AEB
:1043B00007F5CC73A3F59E7393ED017A07F5CC73E3
:1043C000A3F59E73D3ED067A27EE277A07F5CC7313
:1043D000A3F59E73D3ED006A07F5CC73A3F59E7326
:1043E000D3ED077A66EEA77A37EE677AD7ED5C7A77
:1043F00067EE277A07F5CC73A3F5B673C3ED077A9A
:1044000007F5CC73A3F59E7393ED007A07F5CC7393
:10441000A3F59E73D3ED047A27EE277A07F5CC73C4
:10442000A3F59E73D3ED016A07F5CC73A3F59E73D4
:10443000D3ED037A66EEA77A37EE677AD7ED5C7A2A
:1044400067EE277A07F5CC73A3F5B673C3ED087A48
:1044500007F5CC73A3F5A473D3ED007AF1EE677A78
:1044600007F5CC73A3F5BC73C3ED007A07F5CC73E5
:10447000A3F5A473D3ED017AF1EE677A07F5CC7357
:10448000A3F5BC73C3ED017A07F5CC73A3F5A47350
:10449000D3ED027AF1EE677A07F5CC73A3F5BC731E
:1044A000C3ED027A07F5CC73A3F5C2731A46002355
:1044B0001360536093600023C7F87C3143E000230E
:1044C000C7F8783136E007F5CC73A3F5C272D7F898
:1044D0007C319B00134493ED007A07F5CC73A3F570
:1044E000B671D7F87C2113465B001344D7F87821C6
:1044F00013449B000B44D3ED006A07F5CC73A3F57E
:10450000BC72D7F878319B001344D3ED007A66EE85
:10451000A77A77EE277A07F5CC73A3F5C272D7F89E
:104520007C319B001344C3ED007AD7F87831013316
:10453000C7F87831D7F87831022BC4DDD7F87C3151
:104540000133C7F87C31D7F87C31022BB7DD07F592
:10455000CC73A3F5C6731B6893ED007A07F5CC7393
:10456000A3F5C273D3ED007A77EE277A07F5CC7303
:10457000A3F5C6731B68C3ED007A07F5CC73A3F5EA
:10458000C6731B68043393ED007A07F5CC73A3F56B
:10459000C273D3ED017A07F5CC73A3F5C6731B681C
:1045A000043377EE277AC3ED007A07F5CC73A3F5D1
:1045B000C6731B68083393ED007A07F5CC73A3F537
:1045C000C273D3ED027A07F5CC73A3F5C6731B68EB
:1045D000083377EE277AC3ED007A07F5CC73A3F59D
:1045E000C273D3ED007AB7EEE72A07F5CC73A3F5D3
:1045F000C273D3ED017AB7EEE77A07F5CC73A3F572
:10460000C273D3ED026AB7EEE66A07F5CC73A3F581
:10461000C6731B68D3ED005AB7EEE55A07F5CC73A5
:10462000A3F5C6731B680433D3ED004AB7EEE44A22
:1046300007F5CC73A3F5C6731B680833D3ED003AB6
:10464000B7EEE33A8DED083B8DED064B8DED045B47
:104650008DED026B8DED007B53EC122B0349022094
:10466000FDF7E8FE07F5CC77BD4680BD88DA010886
:1046700080B590B000AFA44B7B63A44B3B63002399
:10468000FB6391E0FB6B07EE903AB8EEE77B9FEDA2
:104690009A6B27EE067BF7EEC77BC7ED047A97EDA2
:1046A000040A18F09DFFB0EE407AD7ED0D7A67EE60
:1046B000277A974AFB6B5B011344C3ED007A97EDB1
:1046C000040A18F0C9FEB0EE407AD7ED0D7A67EE15
:1046D000277A8F4AFB6B5B0113440433C3ED007AE6
:1046E0008B4AFB6B5B01134408333A6B1A60884AB0
:1046F000FB6B5B011344D3ED007AF1EE677AC7EDF3
:10470000037A834AFB6B5B0113440433D3ED007AD5
:10471000F1EE677AC7ED027AB3EE047AD7ED0C7A40
:1047200077EE677AC7ED017AD7ED037A27EEA77A9D
:10473000D7ED027A67EEA77A37EE277AD7ED017ABE
:1047400067EEA77A77EE277AB0EE670A18F03CFE9C
:1047500087ED000AD7ED036A97ED007AC6EE877AF7
:104760006B4AFB6B5B0113440C33C3ED007AD7ED4E
:10477000026A97ED007AC6EE877A654AFB6B5B01A9
:1047800013441033C3ED007AD7ED016A97ED007A38
:10479000C6EE877A5E4AFB6B5B0113441433C3EDAC
:1047A000007AFB6B0133FB63FB6B032B7FF76AAF74
:1047B000584BFB62544BBB620423BB6392E0BB6B60
:1047C000043B07EE903AB8EEE77B9FED4D6B27EE8A
:1047D000067BF7EEC77BC7ED097A97ED090A18F05B
:1047E000FFFEB0EE407AD7ED0B7A67EE277A484AA3
:1047F000BB6B5B011344C3ED007A97ED090A18F017
:104800002BFEB0EE407AD7ED0B7A67EE277A404A5E
:10481000BB6B5B0113440433C3ED007A3C4ABB6BB2
:104820005B0113440833BA6A1A60394ABB6B5B01F7
:104830001344D3ED007AF1EE677AC7ED087A344A73
:10484000BB6B5B0113440433D3ED007AF1EE677A5E
:10485000C7ED077AB3EE047AD7ED0A7A77EE677A76
:10486000C7ED067AD7ED087A27EEA77AD7ED077A53
:1048700067EEA77A37EE277AD7ED067A67EEA77A42
:1048800077EE277AB0EE670A18F09EFD87ED050AED
:10489000D7ED086A97ED057AC6EE877A1C4ABB6B9E
:1048A0005B0113440C33C3ED007AD7ED076A97ED33
:1048B000057AC6EE877A164ABB6B5B011344103348
:1048C000C3ED007AD7ED066A97ED057AC6EE877AD2
:1048D0000F4ABB6B5B0113441433C3ED007ABB6B0F
:1048E0000133BB63BB6B0B2B7FF769AF00BF00BF0E
:1048F0004037BD4680BD00BF182D4454FB21F93F11
:10490000182D4454FB21E93F0000C8410000A0409D
:10491000D80700240000344280B584B000AF324B89
:104920004FF00002DA60304B4FF000021A612E4B5C
:104930004FF000025A612D4BBB602D4B7B60012371
:10494000FB6042E0FB68013B07EE903AB8EEE77B84
:104950009FED236B27EE067BF7EEC77BC7ED007A52
:1049600097ED000A18F03CFEB0EE407AD7ED027ADF
:1049700067EE277A1C49FA6813465B0013445B0113
:104980000B440C33C3ED007A97ED000A18F064FD78
:10499000B0EE407AD7ED027A67EE277A1249FA68CC
:1049A00013465B0013445B010B441033C3ED007AE4
:1049B0000D49FA6813465B0013445B010B44143342
:1049C0007A681A60FB680133FB60FB68042BB9DD71
:1049D00000BF00BF1037BD4680BD00BFAFF30080F1
:1049E000182D4454FB21F93F4C0B002400005C427D
:1049F0000000A04180B592B006AF78604FF0000390
:104A0000FB620023BB627AE0AD49BA6A13465B00E1
:104A100013445B010B4451331B78002B64D0A8492D
:104A2000BA6A13465B0013445B010B44243393EDD5
:104A3000007AA349BA6A13465B0013445B010B4436
:104A40002433D3ED007A27EE277A9D49BA6A1346BC
:104A50005B0013445B010B442833D3ED006A984993
:104A6000BA6A13465B0013445B010B442833D3ED51
:104A7000007A66EEA77A37EE277A9149BA6A13462A
:104A80005B0013445B010B442C33D3ED006A8C496B
:104A9000BA6A13465B0013445B010B442C33D3ED1D
:104AA000007A66EEA77A77EE277AB0EE670A18F0FA
:104AB0008BFC87ED080AD7ED087A67EEA77ABB6A08
:104AC0009B0030333B44243BC3ED007ABB6A9B0020
:104AD00030333B44243BD3ED007A97ED0B7A77EEED
:104AE000277AC7ED0B7A07E0BB6A9B0030333B4463
:104AF000243B4FF000021A60BB6A0133BB62BB6A01
:104B0000042B81DDD7ED0B7A9FED6E7AF4EEC77A38
:104B1000F1EE10FA10D57B684FF000021A607B6846
:104B20004FF000025A607B684FF000029A607B6889
:104B30004FF00002DA60BFE07B684FF000021A60BD
:104B40007B684FF000025A607B684FF000029A6069
:104B500000237B6253E07B6893ED007A58497A6AC0
:104B600013465B0013445B010B440C33D3ED006A26
:104B70007B6A9B0030333B44243BD3ED007A66EEE6
:104B8000A77A77EE277A7B68C3ED007A7B6893ED8E
:104B9000017A4B497A6A13465B0013445B010B446C
:104BA0001033D3ED006A7B6A9B0030333B44243BD7
:104BB000D3ED007A66EEA77A77EE277A7B68C3EDAD
:104BC000017A7B6893ED027A3D497A6A13465B006D
:104BD00013445B010B441433D3ED006A7B6A9B00E2
:104BE00030333B44243BD3ED007A66EEA77A77EE70
:104BF000277A7B68C3ED027A7B6A01337B627B6A2A
:104C0000042BA8DD7B68D3ED006A97ED0B7AC6EE26
:104C1000877A7B68C3ED007A7B68D3ED016A97EDF4
:104C20000B7AC6EE877A7B68C3ED017A7B68D3ED99
:104C3000026A97ED0B7AC6EE877A7B68C3ED027A3B
:104C400097ED0B7ADFED206AC7EE267A7B68C3ED1D
:104C5000037A7B68D3ED037AB7EE007AF4EEC77A75
:104C6000F1EE10FA03DD7B684FF07E52DA6004F05B
:104C7000EDFC02467B681A617B68D3ED007AB7EEE3
:104C8000E74A7B68D3ED017AB7EEE77A7B68D3ED2C
:104C9000026AB7EEE66A7B68D3ED035AB7EEE55ACF
:104CA0008DED045B8DED026B8DED007B53EC142BD1
:104CB00006490220FDF7BEFB3037BD4680BD00BF70
:104CC0004C0B00246F12833A00504347BCDA0108B2
:104CD000B0B5A2B004AF87ED010A07F13C03184656
:104CE000FFF788FEFB6B604A13613B6C5E4A5361C1
:104CF0007B6C5D4A936172B600BF5C4B07F1240484
:104D00001D4628686968AA68EB680FC42869206096
:104D1000AB8AA38062B600BFB7F9303007EE903A95
:104D2000F8EEE77A9FED527A67EE877AC7ED1B7A45
:104D3000B7F9323007EE903AF8EEE77A9FED4C7A09
:104D400067EE877AC7ED1A7AB7F9343007EE903AF2
:104D5000F8EEE77A9FED467A67EE877AC7ED197A23
:104D6000B7F92A3007EE903AF8EEE77A9FED407AED
:104D700067EE877AB7EEE77A9FED396B27EE067B11
:104D8000F7EEC77BC7ED187AB7F92C3007EE903AEB
:104D9000F8EEE77A9FED367A67EE877AB7EEE77A34
:104DA0009FED2F6B27EE067BF7EEC77BC7ED177ADB
:104DB000B7F92E3007EE903AF8EEE77A9FED2C7AAD
:104DC00067EE877AB7EEE77A9FED256B27EE067BD5
:104DD000F7EEC77BC7ED167A04F038FC0246254B88
:104DE0001B68D31AB3F57A7F1AD904F02FFC034657
:104DF000204A1360D7ED1B7AB7EEE75AD7ED1A7A3F
:104E0000B7EEE77AD7ED196AB7EEE66A8DED026B79
:104E10008DED007B53EC152B17490220FDF70AFBA3
:104E2000164B93ED0F7AD7ED0F7A77EE677AC7EDD1
:104E3000067A124B93ED107AD7ED107A77EE677AF7
:104E4000C7ED077A0D4B93ED117AD7ED117A77EE16
:104E5000677AC7ED087A00237B671DE1AFF3008016
:104E6000399D52A246DF913FB80700247C090024F7
:104E70006F12833A58090024E8DA01081000002470
:104E8000964A7B6F9B00134493ED007A7B6F9B00E7
:104E900078333B44603BD3ED007A67EE277A8F4A44
:104EA0007B6F12339B001344C3ED007A8B4A7B6FF8
:104EB00008339B001344043393ED007A7B6F9B000F
:104EC00078333B44603BD3ED006AD7ED017A66EE60
:104ED000A77A77EE277A814A7B6F08339B001344C9
:104EE0000433C3ED007A7D4A7B6F08339B00134483
:104EF000043393ED007A794BD3ED2A7AB4EEE77A56
:104F0000F1EE10FA09DD754BD3F8A82073497B6FD9
:104F100008339B000B4404331A60704A7B6F0833DC
:104F20009B001344043393ED007A6C4BD3ED2A7A43
:104F3000F1EE677AB4EEE77AF1EE10FA0CD5674B32
:104F4000D3ED2A7AF1EE677A644A7B6F08339B00CF
:104F500013440433C3ED007A604A7B6F12339B0025
:104F6000134493ED007A5D4A7B6F02339B00134438
:104F70000433D3ED006A594A7B6F08339B00134416
:104F80000433D3ED007A66EEA77A77EE277A534A98
:104F90007B6F12339B001344C3ED007AD7ED017A87
:104FA0009FED4F7AF4EEC77AF1EE10FA3CDD7B6F9D
:104FB0009B0078333B44603B93ED007A474A7B6F1C
:104FC0000C339B001344D3ED007A77EE676A97EDBC
:104FD000017AC6EE877AC7ED147A404A7B6F1233A6
:104FE0009B00134493ED007A3C4A7B6F06339B0091
:104FF0001344D3ED006AD7ED147A66EEA77A77EE04
:10500000277A364A7B6F12339B001344C3ED007A34
:105010007B6F9B0078333B44603B1A682F497B6F62
:105020000C339B000B441A602C4A7B6F12339B009D
:10503000134493ED007A294BD3ED2B7AB4EEE77A43
:10504000F1EE10FA08DD254BD3F8AC2023497B6F35
:1050500012339B000B441A60204A7B6F12339B0073
:10506000134493ED007A1D4BD3ED2B7AF1EE677A62
:10507000B4EEE77AF1EE10FA0BD5184BD3ED2B7A9C
:10508000F1EE677A154A7B6F12339B001344C3ED30
:10509000007A7B6F01337B677B6F022B7FF7F0AE6B
:1050A0000E4B93ED247AD7ED1B7A77EE677AC7ED36
:1050B000037A0A4B93ED257AD7ED1A7A77EE677A61
:1050C000C7ED047A054B93ED267AD7ED197A77EE82
:1050D000677AC7ED057A00233B6701E110000024E1
:1050E0006F12833A834A3B6F14339B00134404339B
:1050F00093ED007A3B6F9B0078333B446C3BD3EDE0
:10510000007A67EE277A7B4A3B6F26339B00134475
:105110000433C3ED007A774A3B6F1E339B00134480
:1051200093ED007A3B6F9B0078333B446C3BD3EDAF
:10513000006AD7ED017A66EEA77A77EE277A6D4A94
:105140003B6F1E339B001344C3ED007A694A3B6FEB
:105150001E339B00134493ED007A664BD3ED2A7AFD
:10516000B4EEE77AF1EE10FA08DD624BD3F8A8202E
:1051700060493B6F1E339B000B441A605D4A3B6FD6
:105180001E339B00134493ED007A5A4BD3ED2A7AD9
:10519000F1EE677AB4EEE77AF1EE10FA0BD5554BE3
:1051A000D3ED2A7AF1EE677A524A3B6F1E339B00A9
:1051B0001344C3ED007A4F4A3B6F26339B001344E0
:1051C000043393ED007A4B4A3B6F18339B00134432
:1051D000D3ED006A474A3B6F1E339B001344D3ED67
:1051E000007A66EEA77A77EE277A424A3B6F26333B
:1051F0009B0013440433C3ED007A3B6F002B06D0B1
:105200003B6F012B01D1FB6D02E0BB6D00E03B6EFB
:105210007B65384A3B6F26339B001344043393ED80
:10522000007A344A3B6F1A339B0013440433D3EDA6
:10523000006AD7ED157A66EEA77A77EE277A2D4ABF
:105240003B6F26339B0013440433C3ED007A294A95
:105250003B6F26339B001344043393ED007A254BB8
:10526000D3ED2B7AB4EEE77AF1EE10FA09DD214B9B
:10527000D3F8AC201F493B6F26339B000B4404330B
:105280001A601C4A3B6F26339B001344043393ED92
:10529000007A184BD3ED2B7AF1EE677AB4EEE77A09
:1052A000F1EE10FA0CD5134BD3ED2B7AF1EE677AB1
:1052B000104A3B6F26339B0013440433C3ED007A3E
:1052C0003B6F9B0078333B446C3B1A6809493B6F4A
:1052D00020339B000B4404331A603B6F01333B6760
:1052E0003B6F022B7FF7FEAE00BF00BF7837BD4695
:1052F000B0BD00BF1000002480B5EAB000AF07F5D4
:10530000D473A3F5C67383ED000A07F5D473A3F530
:10531000C873C3ED000A07F5D473A3F5CA7383ED10
:10532000001A07F5D473A3F5CC73C3ED001A07F583
:10533000D473A3F5CE7383ED002A07F5D473A3F5D8
:10534000D073C3ED002A07F5D473A3F5D2731860A8
:10535000464B1B69C7F89831444B5B69C7F89C31D1
:10536000424B9B69C7F8A0314FF00003C7F88C315E
:105370004FF00003C7F890314FF07E53C7F89431D7
:1053800007F16C0207F5C67107F5CC731846FDF7F7
:1053900033FE07F5D473A3F5AA7307F5D472A2F50B
:1053A000C67212681A6007F5D473A3F5AA7307F5DD
:1053B000D472A2F5C87212685A6007F5D473A3F5C7
:1053C000AA7307F5D472A2F5CA7212689A6007F53B
:1053D000D473A3F5AA7307F5D472A2F5CC72126840
:1053E000DA6007F5D473A3F5AA7307F5D472A2F5B2
:1053F000CE7212681A6107F5D473A3F5AA7307F584
:10540000D472A2F5D07212685A6107F1240207F132
:10541000540107F16C039FED160A1846FEF790F849
:105420000023C7F8A43117E0D7F8A4319B0007F593
:10543000D472A2F5D2721268134407F5D472A2F5A1
:10544000C271D7F8A42192000A4412681A60D7F8F2
:10545000A4310133C7F8A431D7F8A4310B2BE3DD15
:1054600000BF00BF07F5D477BD4680BDB807002454
:105470006F12833A80B596B000AF04F0E7F8386554
:105480003E4B1B68002B03D13C4A3B6D136071E01F
:105490003A4B1B683A6DD31A07EE903AB8EE677A2A
:1054A000DFED376AC7EE267AC7ED137AD7ED137AA8
:1054B0009FED347AF4EEC77AF1EE10FA59D497EDF5
:1054C000130AFFF705FC304BD3ED127AB2EE047AE3
:1054D00067EE877AC7ED127A2B4BD3ED137AB2EED3
:1054E000047A67EE877AC7ED117A274BD3ED147AE9
:1054F000B2EE047A67EE877A9FED247A77EE877AA8
:10550000C7ED107A204BD3F89C30FB631E4BD3F8C9
:10551000A030BB631C4BD3F8A4307B633B1D184603
:10552000D7ED0D2A97ED0E2AD7ED0F1A97ED101A29
:10553000D7ED110A97ED120AFFF7DEFE00237B6517
:1055400010E07B6DDAB27B6D9B0058333B44543BDB
:10555000D3ED007AB0EE670A1046FCF7B5FD7B6D1F
:1055600001337B657B6D0B2BEBDD044A3B6D1360D8
:1055700000E000BF5837BD4680BD00BF5C09002475
:1055800000007A446F12833A10000024CDCC1C41F5
:1055900080B586B004AF2F490220FCF74BFF0C22E8
:1055A00000212D4815F0B6FA0C2200212B4815F0E9
:1055B000B1FA0C2200212A4815F0ACFA0C22002185
:1055C000284815F0A7FA0C220021274815F0A2FA66
:1055D0000C220021254815F09DFA254B01221A7155
:1055E000244B02221A7000237B6012E022497A6861
:1055F00013465B0013445B010B4451331B78002BB3
:1056000004D17B68DBB2184602F06CFE7B68013384
:105610007B607B68042BE9DD184BD3ED0F7AB7EE86
:10562000E75A164BD3ED107AB7EEE77A134BD3ED6A
:10563000116AB7EEE66A8DED026B8DED007B53ECDF
:10564000152B0F490220FCF7F5FE00BF0837BD46B9
:1056500080BD00BF14DB010834000024400000249A
:10566000580000248800002494000024AC0000248A
:10567000B8070024D40700244C0B00241000002499
:1056800038DB010880B500AF06490220FCF7D2FEE6
:10569000FCF710FE044B00221A71044B00221A7012
:1056A00000BF80BD6CDB0108B8070024D4070024CC
:1056B00080B588B004AF87ED030AC7ED020A87ED15
:1056C000011A114AFB68D3630F4ABB6813640E4A80
:1056D0007B685364D7ED037AB7EEE75AD7ED027AC9
:1056E000B7EEE77AD7ED016AB7EEE66A8DED026BA9
:1056F0008DED007B53EC152B04490220FCF79AFE3C
:1057000000BF1037BD4680BD1000002490DB0108AB
:1057100080B5A8B004AF7860396007F16803184617
:10572000FFF768F9D7ED1D7A9FEDB97AF4EEC77AE5
:10573000F1EE10FA18DD97ED1A7ADFEDB66AC7EED2
:10574000267AC7ED177A97ED1B7ADFEDB26AC7EEBE
:10575000267AC7ED187A97ED1C7ADFEDAE6AC7EEB0
:10576000267AC7ED197A33E07B6893ED007ADFED96
:10577000A96AC7EE267AC7ED177A7B68043393EDE2
:10578000007ADFEDA46AC7EE267AC7ED187A7B6847
:10579000083393ED007ADFED9F6AC7EE267AC7EDF6
:1057A000197AD7ED177AF5EE407AF1EE10FA0FD1AB
:1057B000D7ED187AF5EE407AF1EE10FA08D1D7ED70
:1057C000197AF5EE407AF1EE10FA01D1924B7B6630
:1057D000D7ED177AB7EEE75AD7ED187AB7EEE77A32
:1057E000D7ED196AB7EEE66A8DED026B8DED007BA1
:1057F00053EC152B89490220FCF71CFE0023C7F847
:105800008C3052E08649D7F88C2013465B00134455
:105810005B010B442433D3ED007A9FED827A67EE6F
:10582000877AD7F88C2013465B0013449B00903393
:105830003B44703BC3ED007A7949D7F88C2013467E
:105840005B0013445B010B442833D3ED007A9FEDDA
:10585000757A67EE877AD7F88C2013465B0013447D
:105860009B0090333B446C3BC3ED007A6C49D7F806
:105870008C2013465B0013445B010B442C33D3EDA7
:10588000007A9FED687A67EE877AD7F88C20134606
:105890005B0013449B0090333B44683BC3ED007AAC
:1058A000D7F88C300133C7F88C30D7F88C30042B04
:1058B000A8DD4FF000037B614FF00003BB614FF0A8
:1058C0007E53FB610023C7F888300DE007F120020A
:1058D00007F1140107F15C031846FEF7A9F9D7F8A0
:1058E00088300133C7F88830D7F88830042BEDDDD5
:1058F000D7ED177A9FED477A67EE877AC7ED027A80
:10590000D7ED187A9FED437A67EE877AC7ED037A71
:10591000D7ED197A9FED3F7A67EE877AC7ED047A63
:10592000D7ED047AF5EEC07AF1EE10FA02D54FF019
:1059300000033B61D7ED047A9FED3B7AF4EEC77A22
:10594000F1EE10FA01DD394B3B61394BC7F8843079
:1059500097ED027AD7ED027A27EE277AD7ED036A20
:10596000D7ED037A66EEA77A77EE277AB0EE670A6C
:1059700017F02AFD87ED200A97ED207AD7ED217ADE
:10598000B4EEE77AF1EE10FA17DDD7ED216A97ED64
:10599000207AC6EE877AC7ED1F7A97ED027AD7EDA7
:1059A0001F7A67EE277AC7ED027A97ED037AD7ED73
:1059B0001F7A67EE277AC7ED037ABA687B681A60A8
:1059C0007B680433FA681A607B6808333A691A60A6
:1059D0007B68D3ED007AB7EEE75A7B680433D3EDEA
:1059E000007AB7EEE77A7B680833D3ED006AB7EE4A
:1059F000E66A8DED026B8DED007B53EC152B0D49A6
:105A00000220FCF717FD00BF9037BD4680BD00BFE8
:105A1000CDCCCC3D00007A44CDCCCC3C50DC010850
:105A20004C0B0024BD378635000020420000204288
:105A300000005C4280DC010880B500AF1A48FCF72A
:105A4000E9FC1A490220FCF7F5FCFCF713F9184BA6
:105A500001221A70FEF70CFEFEF75EFF15490220C8
:105A6000FCF7E8FC01F09EFF114B01225A7001F097
:105A70003EFB034683F00103DBB2002B04D00E494A
:105A80000020FCF7D7FC03E00C490220FCF7D2FC15
:105A90000B490220FCF7CEFC02F0F0FC0949022081
:105AA000FCF7C8FC00BF80BDAC100024B0DC0108CE
:105AB000B8070024E8DC01080CDD010830DD01082E
:105AC0004CDD01086CDD0108B0B483B000AF0346C3
:105AD000FB71244B1B78022B1BD0022B3CDC002BD0
